:100000000C9415030C943D030C943D030C943D0398
:100010000C943D030C943D030C943D030C943D0360
:100020000C943D030C943D030C943D030C9462111D
:100030000C943D030C943D030C943D030C943D0340
:100040000C9418110C943D030C94FD070C94C207FA
:100050000C943D030C9488110C943D030C943D03C7
:100060000C9482060C943D03EF03038002CF03003F
:10007000C130ED0464031281E803850078CB0539B3
:100080002C003402F70120EA020000C00123C10164
:1000900010C5023E28C701863601483701003A01E3
:1000A00055B1020018B603088227F20100260101AB
:1000B000E00F0F312B0C0E084EF1370710030E091D
:1000C00000E10F000E1403110731C148080F0C3175
:1000D000360F118029800000000000240027002A2C
:1000E00000000000070002010000030406000000F9
:1000F000000000000000000000003E5B4F5B3E3E41
:100100006B4F6B3E1C3E7C3E1C183C7E3C181C57C3
:100110007D571C1C5E7F5E1C00183C1800FFE7C367
:10012000E7FF0018241800FFE7DBE7FF30483A0636
:100130000E2629792926407F050507407F05253FA2
:100140005A3CE73C5A7F3E1C1C08081C1C3E7F148E
:10015000227F22145F5F005F5F06097F017F0066D8
:1001600089956A606060606094A2FFA29408047E32
:10017000040810207E201008082A1C08081C2A08E1
:10018000081E101010100C1E0C1E0C30383E38309B
:10019000060E3E0E06000000000000005F0000009A
:1001A00007000700147F147F14242A7F2A122313C8
:1001B00008646236495620500008070300001C22DC
:1001C00041000041221C002A1C7F1C2A08083E080E
:1001D000080080703000080808080800006060000F
:1001E00020100804023E5149453E00427F40007203
:1001F000494949462141494D331814127F1027457A
:100200004545393C4A494931412111090736494997
:100210004936464949291E000014000000403400B8
:10022000000008142241141414141400412214086C
:1002300002015909063E415D594E7C1211127C7F24
:10024000494949363E414141227F4141413E7F4932
:100250004949417F090909013E414151737F08081D
:10026000087F00417F41002040413F017F08142268
:10027000417F404040407F021C027F7F0408107F86
:100280003E4141413E7F090909063E4151215E7FC1
:1002900009192946264949493203017F01033F4094
:1002A00040403F1F2040201F3F4038403F6314081C
:1002B000146303047804036159494D43007F4141AD
:1002C000410204081020004141417F040201020460
:1002D0004040404040000307080020545478407FCD
:1002E000284444383844444428384444287F385407
:1002F00054541800087E090218A4A49C787F0804AE
:10030000047800447D40002040403D007F10284498
:100310000000417F40007C047804787C0804047865
:100320003844444438FC1824241818242418FC7C2D
:1003300008040408485454542404043F44243C4012
:1003400040207C1C2040201C3C4030403C44281075
:1003500028444C9090907C4464544C4400083641AE
:10036000000000770000004136080002010204028C
:100370003C2623263C1EA1A161123A4040207A3837
:100380005454555921555579412254547842215598
:1003900054784020545579400C1E527212395555EC
:1003A0005559395454545939555454580000457CC2
:1003B000410002457D420001457C407D1211127DC5
:1003C000F0282528F07C545545002054547C547C5A
:1003D0000A097F4932494949323A4444443A324A47
:1003E0004848303A4141217A3A42402078009DA065
:1003F000A07D3D4242423D3D4040403D3C24FF24E3
:1004000024487E4943662B2FFC2F2BFF0929F62019
:10041000C0887E090320545479410000447D413056
:1004200048484A32384040227A007A0A0A727D0DE2
:1004300019317D2629292F28262929292630484D9A
:100440004020380808080808080808382F10C8ACE9
:10045000BA2F102834FA00007B000008142A142256
:1004600022142A14085500550055AA55AA55AAFF6A
:1004700055FF55FF000000FF00101010FF0014147E
:1004800014FF001010FF00FF1010F010F0141414EF
:10049000FC001414F700FF0000FF00FF1414F40424
:1004A000FC141417101F10101F101F1414141F0019
:1004B000101010F0000000001F101010101F10107E
:1004C0001010F010000000FF10101010101010108D
:1004D00010FF10000000FF140000FF00FF00001FCD
:1004E00010170000FC04F414141710171414F4046B
:1004F000F40000FF00F714141414141414F700F798
:10050000141414171410101F101F141414F41410C2
:1005100010F010F000001F101F0000001F1400005A
:1005200000FC140000F010F01010FF10FF14141461
:10053000FF141010101F00000000F010FFFFFFFF5D
:10054000FFF0F0F0F0F0FFFFFF0000000000FFFF01
:100550000F0F0F0F0F3844443844FC4A4A4A347E88
:1005600002020606027E027E026355494163384458
:10057000443C04407E201E2006027E020299A5E72C
:10058000A5991C2A492A1C4C7201724C304A4D4DC7
:10059000303048784830BC625A463D3E49494900AF
:1005A0007E0101017E2A2A2A2A2A44445F444440CB
:1005B000514A444040444A51400000FF0103E0805A
:1005C000FF000008086B6B083612362436060F0948
:1005D0000F06000018180000001010003040FF0146
:1005E00001001F01011E00191D1712003C3C3C3C7C
:1005F00000000000000102040810204080010204F5
:100600000810200102040810200000000025002826
:10061000002B000404040404040404020202020285
:1006200002030303030303005E1711241FBECFEF71
:10063000D8E0DEBFCDBF11E0A0E0B1E0E8E9F4E32F
:1006400002C005900D92AE34B107D9F723E0AEE4B5
:10065000B1E001C01D92A931B207E1F713E0C5E195
:10066000D3E004C02197FE010E94441AC431D1078F
:10067000C9F70E9490160C9444180C94000085ED64
:100680008093BC008091BC0084FDFCCF1092FA01E5
:1006900008950F931F93CF93DF93FC01A685B78531
:1006A0008D01005C1F4FE8018881998101968F734D
:1006B0009927AD014E5B5F4FEA01288139812817E8
:1006C0003907D1F3E80128813981A20FB31F6C9358
:1006D000A685B785A05CBF4F11969C938E93A68983
:1006E000B7892C9181E090E0078C02C0880F991F98
:1006F0000A94E2F7822B8C9381E081A30488F58928
:10070000E02D80818064808381E090E0DF91CF9153
:100710001F910F910895FC0181A1882329F0A489DC
:10072000B5898C9186FFFBCF11A20895FC01A485A9
:10073000B585FD01E05CFF4F2081318132968081DB
:1007400091812817390779F080819181A80FB91F0D
:100750008C91208131812F5F3F4F2F73332731835D
:10076000208390E008958FEF9FEF0895DC011C96A1
:10077000ED91FC911D97DF01A05CBF4F2D913C9145
:10078000119712968D919C9111972817390739F07E
:100790008D919C91E80FF91F808190E008958FEF73
:1007A0009FEF0895FC0124853585F901E05CFF4F3A
:1007B00080819181329620813181821B930B8F73CE
:1007C000992708950895CF92DF92EF92FF920F93A9
:1007D0001F93CF93DF936C01EB017B01E40EF51EB9
:1007E00000E010E0CE15DF0561F06991D601ED91D2
:1007F000FC910190F081E02DC6010995080F191FA9
:10080000F1CFC801DF91CF911F910F91FF90EF9031
:10081000DF90CF900895CF93DF9390E0FC01EB50F1
:10082000FA4F2491FC01ED5EF94F8491882361F128
:1008300090E0880F991FFC01E952FF4FC591D491B8
:10084000FC01E75FF94FA591B491611109C09FB711
:10085000F8948881209582238883EC912E230BC005
:10086000623061F49FB7F8948881322F30958323EA
:100870008883EC912E2B2C939FBF06C08FB7F894E2
:10088000E8812E2B28838FBFDF91CF910895CF93DE
:10089000DF93EC01ED8DFE8D90818CA989238083FF
:1008A000CE010E943913ED8DFE8D90818BA9892B8D
:1008B0008083DF91CF910895CF93DF931F92CDB7BF
:1008C000DEB7FC016370668B623041F0633079F013
:1008D000613011F088E403C088E20AC088E88983A7
:1008E00080EF90E09187808780E491E008C088EEF7
:1008F000898380E491E09187808780EF90E09387FF
:10090000828721E0AE014F5F5F4F66E3CF010E9417
:1009100066130F90DF91CF9108958F929F92AF92BF
:10092000BF92CF92DF92EF92FF920F931F93CF93DC
:10093000DF935C014B016A01E90177FD53C0DC01E3
:1009400018968D919C911997681779070CF04AC0F9
:10095000209709F447C037FF07C0C9010196C80EA8
:10096000D91ED195C195D109F50182859385C81607
:10097000D906C4F5A6014C0F5D1F9A01215031091B
:1009800037FD30C0D7FE03C0EA01C12CD12C281797
:1009900039071CF0EC01CC19DD09D501ED91FC9172
:1009A0000680F781E02DC501099578018E0121E0CF
:1009B00030E0A601B401C5010E94AE13D501ED914E
:1009C000FC910288F389E02DC501DF91CF911F9141
:1009D0000F91FF90EF90DF90CF90BF90AF909F90DE
:1009E0008F900994DF91CF911F910F91FF90EF901D
:1009F000DF90CF90BF90AF909F908F9008958F928F
:100A00009F92AF92BF92CF92DF92EF92FF920F939D
:100A10001F93CF93DF935C016B014A01E90157FDFE
:100A200053C0DC011A968D919C911B97481759076A
:100A30000CF04AC0209709F447C037FF07C0C9012E
:100A40000196C80ED91ED195C195D109F5018085B1
:100A50009185C816D906C4F5A6014C0F5D1F9A01F1
:100A60002150310937FD30C0D7FE03C0EA01C12C47
:100A7000D12C281739071CF0EC01CC19DD09D50160
:100A8000ED91FC910680F781E02DC5010995780173
:100A900001E010E09E01A401B601C5010E94AE1361
:100AA000D501ED91FC910288F389E02DC501DF911C
:100AB000CF911F910F91FF90EF90DF90CF90BF905B
:100AC000AF909F908F900994DF91CF911F910F91DC
:100AD000FF90EF90DF90CF90BF90AF909F908F905E
:100AE00008958F929F92AF92BF92CF92DF92EF9232
:100AF000FF920F931F93CF93DF934C016B015A0129
:100B0000E901209709F46CC00115110509F468C0CA
:100B100037FF07C0C9010196C80ED91ED195C195EE
:100B2000D109F401A085B185CA16DB060CF058C0C6
:100B300017FF07C0C8010196A80EB91E11950195AF
:100B40001109F40182859385A816B9060CF048C0F6
:100B5000F601EC0FFD1FAF014150510957FD40C098
:100B6000B501600F711F9B012150310937FD38C05D
:100B7000D7FE03C0EF01C12CD12CB7FE03C08B01FF
:100B8000A12CB12C4A175B071CF0ED01CC19DD0933
:100B9000281739071CF08C010A191B09D401ED91A3
:100BA000FC910680F781E02DC40109959E01A50105
:100BB000B601C4010E94AE13D401ED91FC910288EC
:100BC000F389E02DC401DF91CF911F910F91FF9028
:100BD000EF90DF90CF90BF90AF909F908F9009944F
:100BE000DF91CF911F910F91FF90EF90DF90CF9009
:100BF000BF90AF909F908F900895EF92FF920F93C8
:100C00001F93CF93DF9377FD34C0DC011896ED91ED
:100C1000FC9119976E177F0764F52115310549F18D
:100C200037FF07C0F90131964E0F5F1F31952195AF
:100C30003109DC011A96ED91FC911B974E175F0765
:100C4000C4F4EA01C20FD31FDE011197B7FD11C032
:100C500057FF03C09E0140E050E0AE17BF071CF0F5
:100C60009F01241B350B7801890121E030E00E94AF
:100C7000AE13DF91CF911F910F91FF90EF900895E8
:100C8000EF92FF920F931F93CF93DF9357FD33C0E3
:100C9000DC011A96ED91FC911B974E175F075CF5EE
:100CA0002115310541F137FF07C0F90131966E0F6B
:100CB0007F1F319521953109DC011896ED91FC914A
:100CC00019976E177F07BCF4EB01C20FD31FDE012B
:100CD0001197B7FD10C077FF03C09E0160E070E080
:100CE000AE17BF071CF09F01261B370B780101E0F0
:100CF00010E00E94AE13DF91CF911F910F91FF90F2
:100D0000EF9008951F920F920FB60F9211242F9318
:100D10003F934F935F936F937F938F939F93AF9383
:100D2000BF93EF93FF938091B900887F803609F4D9
:100D30009CC068F5883209F45BC090F4803109F4F6
:100D400054C038F4882309F4EFC0883009F44DC04A
:100D5000EFC0883109F44CC0803209F45DC0E8C0AE
:100D6000803409F468C048F4803309F455C08833EE
:100D700009F0DEC08093F801D1C0803509F44FC07E
:100D8000883509F45DC0883409F0D2C0CFC08839F5
:100D900009F4C0C0A8F4883709F467C038F488366D
:100DA00009F463C0803709F460C0C2C0883809F410
:100DB000B1C0803909F45FC0803809F0B9C05BC0A8
:100DC000803B09F481C038F4803A09F466C0883A5F
:100DD00009F47AC0ADC0803C09F4A0C0883C09F495
:100DE0009DC0883B09F483C0A3C08091D50110C089
:100DF0009091F7018091F601981770F5E091F70155
:100E000081E08E0F8093F701F0E0EA52FE4F80817F
:100E10008093BB0085EC7FC08093F80187C0E09190
:100E2000F70181E08E0F8093F7018091BB00F0E025
:100E3000EA52FE4F80839091F7018091F60167C0DE
:100E4000E091F70181E08E0F8093F7018091BB0064
:100E5000F0E0EA52FE4F80838091F901811166C073
:100E600081E08093D40184EA5AC083E08093FA0140
:100E700010929001CFCF80919001803208F04AC04B
:100E8000E091900181E08E0F809390018091BB00F2
:100E9000F0E0E059FE4F8083BDCF80919001803219
:100EA00030F4E0919001F0E0E059FE4F10820E9492
:100EB0003F036091900170E080E791E0E0E0F0E0B6
:100EC0000995109290012AC084E08093FA01109253
:100ED0006F0110926E01E0E0F0E0099580916E01E3
:100EE000811105C081E080936E0110924E01E09166
:100EF0006F0181E08E0F80936F01F0E0E25BFE4FA7
:100F000080818093BB0090916F0180916E01981752
:100F100008F480CF85E88093BC000AC085EC8093FC
:100F2000BC001092FA0104C01092F8010E943F0325
:100F3000FF91EF91BF91AF919F918F917F916F91B1
:100F40005F914F913F912F910F900FBE0F901F9087
:100F50001895613298F42091FA01243089F4609355
:100F60006E01282FAEE4B1E0FC018E2F821B8617A4
:100F700018F481918D93F9CF80E0089581E0089570
:100F800082E008951F920F920FB60F9211242F93B3
:100F90003F938F939F93EF93FF9320915F02309144
:100FA000600280916102909162022817390731F442
:100FB0008091C1008F7D8093C10014C0E0916102D7
:100FC000F0916202E15EFD4F20818091610290917B
:100FD000620201968F739927909362028093610257
:100FE0002093C600FF91EF919F918F913F912F9198
:100FF0000F900FBE0F901F9018951F920F920FB673
:101000000F9211242F934F935F938F939F93EF939E
:10101000FF938091C00082FD1CC02091C60080918A
:10102000A3029091A4024091A5025091A6020196BC
:101030008F7399274817590771F0E091A302F09137
:10104000A402ED59FD4F20839093A4028093A30244
:1010500002C08091C600FF91EF919F918F915F91A7
:101060004F912F910F900FBE0F901F90189590E009
:10107000FC01EF51FF4F2491FC01EB50FA4F3491EA
:10108000FC01ED5EF94FE491EE2309F43CC022230C
:1010900039F1233091F038F42130A9F0223001F5F4
:1010A00084B58F7D12C0263091F02730A1F0243016
:1010B000B9F4809180008F7D03C0809180008F778C
:1010C000809380000DC084B58F7784BD09C0809166
:1010D000B0008F7703C08091B0008F7D8093B00007
:1010E000F0E0EE0FFF1FE75FF94FA591B4919FB7B6
:1010F000F894611104C08C913095382302C0EC91B2
:101100003E2B3C939FBF0895FC01A5A1B6A19C91E5
:1011100082A589238C93A5A1B6A19C9181A5892B39
:101120008C9308950F931F93CF93DF93EC018B0162
:101130008DA9811109C01EBD0DB407FEFDCF0EBDE6
:101140000DB407FEFDCF2FC08130E9F480E1E9A1A5
:10115000FAA1208117FF03C09DA1922B02C09EA17E
:1011600092239083EBA1FCA120819FA1922B9083DD
:10117000EBA1FCA1208198A592239083000F111F61
:10118000815029F710C0EF8DF8A11083CE010E9485
:101190008408EF8DF8A10083CE01DF91CF911F91DC
:1011A0000F910C948408DF91CF911F910F910895B6
:1011B000AF92BF92CF92DF92EF92FF920F931F9365
:1011C000CF93DF93EC015B016A0121503109790172
:1011D000E60EF71E01501109040F151F6AE20E9466
:1011E0004704B501CE010E949208B701CE010E94CA
:1011F00092086BE2CE010E944704B601CE010E9424
:101200009208B801CE010E9492086CE2CE01DF91F3
:10121000CF911F910F91FF90EF90DF90CF90BF90F3
:10122000AF900C944704AF92BF92CF92DF92EF92AF
:10123000FF920F931F93CF93DF93EC0177FD38C09C
:1012400088859985681779079CF557FD31C08A858F
:101250009B854817590764F569017A015B01E881AC
:10126000F9810680F781E02DCE010995E881F981A9
:1012700006A0F7A1E02D01E010E021E030E0A70199
:10128000B501CE010995B601CE010E949208E88110
:10129000F9810288F389E02DCE01DF91CF911F9172
:1012A0000F91FF90EF90DF90CF90BF90AF90099497
:1012B000DF91CF911F910F91FF90EF90DF90CF9032
:1012C000BF90AF900895FC0185A981110FC09CB516
:1012D0009C7F9CBD9DB591609DBD9CB59F7D9CBD37
:1012E0002CB5237F95A1822F892B8CBD0895BF92A9
:1012F000CF92DF92EF92FF920F931F93CF93DF93E2
:10130000EC016A017B01452B462B472B31F4C12CA4
:1013100022E1D22E2AE7E22EF12C8FA987FD07C009
:1013200061E00E940B0461E08FA90E94370861E030
:1013300088AD0E940B0461E088AD0E9437088DA93A
:1013400081111DC0C9A2DAA2EBA2FCA21DA21EA29D
:101350001FA218A661E08AE00E94370861E08AE0D7
:101360000E940B048CB580618CBD8CB580648CBDF3
:1013700061E08DE00E940B0461E08BE016C08130DB
:10138000B9F461E08AA50E940B0460E08AA50E947E
:10139000370861E08CA50E940B0460E08CA50E94D8
:1013A00037088BA587FD36C060E00E940B0432C071
:1013B00003E116E0F12CF8018491E82FF0E0EE0F44
:1013C000FF1FE75FF94F859194912F8D38A1281762
:1013D000390741F461E08F2D0E940B0460E08F2DEE
:1013E0000E943708F3940F5F1F4FF4E1FF12E3CF21
:1013F00061E08EA50E940B0461E08EA50E94370873
:101400008FA587FD07C061E00E940B0461E08FA5F6
:101410000E9437088EA987FD21C061E00E940B045D
:1014200061E08EA90E94370864E670E080E090E0F9
:101430000E94F21060E08EA90E94370864E670E016
:1014400080E090E00E94F21061E08EA90E943708CF
:1014500068EC70E080E090E00E94F2108EA987FFB7
:101460000DC020E040E050E061E0CE010E94661334
:1014700066E970E080E090E00E94F21088E6E82ED5
:1014800080E0F82EC7010196F7011491112309F4A9
:1014900048C0FC01B4900B2D0F77CE010E94630968
:1014A0008FA987FD06C0EB8DFC8D90818AA98923C9
:1014B0008083ED8DFE8D90818CA989238083612F9F
:1014C000CE010E943913ED8DFE8D90818BA9892B61
:1014D0008083C12CD12C10E0C016D10664F4F60133
:1014E0003296EE0DFF1D6491CE010E943913FFEF7D
:1014F000CF1ADF0AF1CF8FA987FD06C0EB8DFC8DD7
:10150000908189A9892B80830E5F1F4FE00EF11E09
:10151000B7FEB8CF66E970E080E090E00E94F2107C
:10152000B1CF80EF90E09987888780E491E09B8736
:101530008A87DF91CF911F910F91FF90EF90DF90FD
:10154000CF90BF900895FC0187A987FD06C0A38DA9
:10155000B48D9C9181A9892B8C9308950895FC01E9
:101560006370668B8481958126813781613039F083
:10157000633029F0918780873387228708953187E8
:1015800020879387828708956F927F928F929F9290
:10159000AF92BF92CF92DF92EF92FF920F931F9381
:1015A000CF93DF93EC014B015A0169013801E881C7
:1015B000F9810680F781E02D0995E881F98106849B
:1015C000F785E02D87019601A501B401CE010995AB
:1015D000A501460D571D41505109E881F981068446
:1015E000F785E02D9601B401CE010995E881F981D6
:1015F0000484F585E02D9301A501B401CE01099580
:10160000C80CD91CB60161507109E881F9810484C4
:10161000F585E02D9301A501CE010995E881F981B9
:101620000288F389E02DCE01DF91CF911F910F91B8
:10163000FF90EF90DF90CF90BF90AF909F908F90F2
:101640007F906F9009948F929F92AF92BF92CF92AA
:10165000DF92EF92FF920F931F93CF93DF934C0192
:101660006B015A01E901DC01ED91FC9162177307EE
:1016700081F40417150724F48B2D5801042F182F1B
:101680000A191B0998012F5F3F4F008CF18DE02D47
:1016900012C04017510709F52617370724F48D2D7E
:1016A0006901C62FD82F9E012C193D092F5F3F4F8E
:1016B000028CF38DE02D8701A501B601C4010995C7
:1016C000DF91CF911F910F91FF90EF90DF90CF901E
:1016D000BF90AF909F908F9008950680F781E02D86
:1016E0000995D401ED91FC910088F189E02D9E01CE
:1016F000A501B601C4010995D401ED91FC910288C0
:10170000F389E02DC401DF91CF911F910F91FF90DC
:10171000EF90DF90CF90BF90AF909F908F90099403
:10172000EF92FF920F931F93DC011A960D911C917B
:101730001B9718962D913C911997ED91FC91048C73
:10174000F58DE02D7B0140E050E060E070E0099510
:101750001F910F91FF90EF9008954F925F926F92BB
:101760007F928F929F92AF92BF92CF92DF92EF9231
:10177000FF920F931F93CF93DF936C012B015A01BC
:1017800039014801DC01ED91FC910680F781E02DE3
:101790000995E201640C751CD601ED91FC91C6150A
:1017A000D7055CF40484F585E02D87019401A5013B
:1017B000BE01C60109952196EFCF0288F389E02D7D
:1017C000C601DF91CF911F910F91FF90EF90DF90B5
:1017D000CF90BF90AF909F908F907F906F905F90D1
:1017E0004F9009948F929F92AF92BF92CF92DF92C7
:1017F000EF92FF920F931F93CF93DF93EC015B0166
:101800004A016901E881F9810680F781E02D099597
:1018100095012C0D3D1D21503109E881F981008889
:10182000F189E02D78018401A401B501CE0109956B
:10183000E881F9810288F389E02DCE01DF91CF9113
:101840001F910F91FF90EF90DF90CF90BF90AF90DE
:101850009F908F9009948F929F92AF92BF92CF9258
:10186000DF92EF92FF920F931F93CF93DF93EC01E0
:101870005B014A0169017801E881F9810680F781FD
:10188000E02D0995C80CD91C860101501109E88189
:10189000F9810088F189E02D9501A401B501CE01FF
:1018A0000995E881F9810288F389E02DCE01DF9165
:1018B000CF911F910F91FF90EF90DF90CF90BF904D
:1018C000AF909F908F9009940895EF92FF920F939D
:1018D0001F93DC01ED91FC91048CF58DE02D0995B1
:1018E0001F910F91FF90EF9008950F931F93DC01CC
:1018F000ED91FC91028CF38DE02D09951F910F91D4
:1019000008950F931F93DC01ED91FC91008CF18DF4
:10191000E02D09951F910F910895DC01ED91FC9147
:101920000480F581E02D09942F923F924F925F92AF
:101930006F927F928F929F92AF92BF92CF92DF92DF
:10194000EF92FF920F931F93CF93DF9300D000D0BD
:1019500000D0CDB7DEB72C017E836D836A015901BB
:10196000C801FC82EB824801841A950A97FE03C0E5
:1019700091948194910835012D813E81621A730AF8
:1019800077FE03C0719461947108681479045CF463
:101990003A2D2B2D5C01832F922F3D812E81DE82EB
:1019A000CD82C32ED22EAD81BE81AA16BB065CF4B9
:1019B0003C2D2D2D6C01832F922F3D812E81BE82D7
:1019C000AD82A32EB22E85012D813E81021B130B09
:1019D0001C012C183D0837FE03C0319421943108B6
:1019E000780117FF03C03FEFE31AF30AF594E79479
:1019F000C816D9062CF08FEF9FEF9A83898304C015
:101A0000A1E0B0E0BA83A9832D813E81A216B3067E
:101A100024F1D201ED91FC910084F185E02D2B8120
:101A20003C816814790424F44D815E81B60103C0C1
:101A3000A6016D817E81C2010995E218F308F7FEC7
:101A400006C029813A81C20ED31EE00EF11E8D819F
:101A50009E8101969E838D83D7CF26960FB6F894EC
:101A6000DEBF0FBECDBFDF91CF911F910F91FF90D1
:101A7000EF90DF90CF90BF90AF909F908F907F902E
:101A80006F905F904F903F902F900895E091A30149
:101A90008091A201E81730F4F0E0EC55FE4F808110
:101AA00090E008958FEF9FEF08959091A3018091AA
:101AB000A201981750F4E92FF0E0EC55FE4F208179
:101AC00030E09F5F9093A30102C02FEF3FEFC90169
:101AD00008958091A20190E02091A301821B9109B9
:101AE00008953FB7F89480919E0190919F01A09135
:101AF000A001B091A10126B5A89B05C02F3F19F008
:101B00000196A11DB11D3FBFBA2FA92F982F88277D
:101B1000820F911DA11DB11DBC01CD0142E0660FD8
:101B2000771F881F991F4A95D1F708958091CE019C
:101B30008F3F41F480919801883078F4809198012A
:101B40008F5F09C0811109C080919801882329F015
:101B5000809198018150809398018091CF018F3FAF
:101B600041F480919701883078F4809197018F5FDC
:101B700009C0811109C080919701882329F08091C3
:101B8000970181508093970108958F929F92AF9211
:101B9000BF92CF92DF92EF92FF920F931F93CF935A
:101BA000DF9347012115310509F44DC001151105D9
:101BB00009F449C037FF07C0F90131966E0F7F1F46
:101BC000319521953109DC011896AD90BC9019979B
:101BD0006A157B05C4F517FF07C0F80131964E0F53
:101BE0005F1F119501951109DC011A96ED91FC9189
:101BF0001B974E175F073CF56B01C20ED31EE60123
:101C00002197D7FD20C07A01E00EF11ED701119770
:101C1000B7FD19C077FF03C0960160E070E057FF81
:101C200003C0870140E050E0CA15DB051CF09501B8
:101C3000261B370BAE17BF071CF08F01041B150BBB
:101C400074010E94AE13DF91CF911F910F91FF900D
:101C5000EF90DF90CF90BF90AF909F908F900895BE
:101C6000EF92FF920F931F93CF93DF93EC0177FDD9
:101C700022C08885998568177907ECF457FD1BC049
:101C80008A859B8548175907B4F47901E881F98161
:101C900006A0F7A1E02D01E010E021E030E0CE0148
:101CA0000995B701CE01DF91CF911F910F91FF9060
:101CB000EF900C949208DF91CF911F910F91FF90BC
:101CC000EF900895CF93DF93EC010E9463098FA9F1
:101CD00087FD06C0EB8DFC8D90818AA989238083C6
:101CE000DF91CF9108958F929F92AF92CF92EF9212
:101CF000FF920F931F93CF93DF93EC01262F898DD3
:101D00009A8D009709F042C06A3059F41D861C86EE
:101D10002D898E859F8538E0239F800D911D11248C
:101D200043C06D3009F4AAC08F898823C9F03C896B
:101D30008C859D8546E0349F800D911D112448853A
:101D400059854817590764F41D861C863D898E8580
:101D50009F8548E0349F800D911D11249F878E87B9
:101D6000EA88FB88088919894E855F856C857D85A1
:101D7000AD88CC88CE010E945C142C898C859D8511
:101D800036E0239F800D911D11243EC06A3079F406
:101D90001D861C862D89FC013696E4918E859F85D3
:101DA0002E9F800D911D11249F878E8767C06D30F7
:101DB00009F464C0FC0134963491631708F45EC0E2
:101DC0003196E491E61708F459C0462F431B342F8F
:101DD000FC0132968590949047E0349F800C911CD2
:101DE0001124F401329634913196E491332311F0A9
:101DF000E1110DC0F4013496E4912C898C859D8508
:101E0000E29F800D911D11249D878C8737C0F401BE
:101E1000359644915F89552319F15C89E32FF0E0F1
:101E2000E40FF11D47FDFA955E9FB0015F9F700DB5
:101E300011244C855D85460F571F68857985641789
:101E4000750774F41D861C863D89FC013696E49165
:101E50008E859F853E9F800D911D11249F878E87C3
:101E6000EA88FB88088919894E855F856C857D85A0
:101E7000AD88CC88CE010E945C14BCCF81E090E09C
:101E8000DF91CF911F910F91FF90EF90CF90AF9086
:101E90009F908F900895CF92DF92EF92FF920F93D1
:101EA0001F93CF93DF937C01CB018A012091FB012B
:101EB000222389F0EB016B01C40ED51ECC15DD0584
:101EC00069F06991D701ED91FC910190F081E02DCD
:101ED000C7010995F3CF642F0E94A907C801DF91BC
:101EE000CF911F910F91FF90EF90DF90CF900895C9
:101EF000CF93DF931F92CDB7DEB769832091FB01AB
:101F00002223D1F020911E02203240F021E030E067
:101F1000FC013383228380E090E015C08091FC01B6
:101F2000E82FF0E0E350FE4F998190838F5F80931C
:101F3000FC0180931E0205C061E0CE0101960E9463
:101F4000A90781E090E00F90DF91CF9108954F9223
:101F50005F926F927F928F929F92AF92BF92CF9239
:101F6000DF92EF92FF920F931F93CF93DF9383EB58
:101F700092E00E94620EC12CD12C7601CFE0D0E01D
:101F80007AE0472E512C612C712CE9ECAE2EB12C4D
:101F9000C701B601A30192010E94E519B901685376
:101FA0007F4F8AE0C81AD108E108F1089501261B85
:101FB000370B00E018EFAE0183EB92E00E94400681
:101FC0002196C931D10521F7C12CD12C76015AE0D7
:101FD000452E512C612C712C69ECA62EB12CC70119
:101FE000B601A30192010E94E519B90162547F4F25
:101FF0008AE0C80ED11CE11CF11C9501261B370B91
:1020000000E018EFAE0183EB92E00E9440062196BB
:10201000C432D10521F783EB92E00E94A30A40E08D
:1020200058EF6EE170E08BEC90E00E946C1240E0A3
:1020300058EF64E170E08BEC90E00E946C1200912C
:1020400000012091000189E0089F8001112489E0AE
:10205000289F9001112440E8E42E49E5F42E42E344
:1020600050E06AE070E083EB92E00E947105C0E00E
:10207000D0E0C12CD12C0091000120910001909161
:1020800000018091000110E00F5F1F4F30E02F5FD3
:102090003F4F9C9DA0019D9D500D11244E5C5F4FB4
:1020A0008C9FB0018D9F700D1124665F7F4FE12CD6
:1020B000F12C83EB92E00E94C40A8FEFC81AD80A71
:1020C00089E0C816D104B9F62196C930D10589F640
:1020D0008091000110910001D0910001C091000198
:1020E000682F70E0660F771F6E5C7F4F072E000C25
:1020F000880B990B0E94EC186B017C01612F70E03A
:1021000080E090E00E94EC182AE939E949E95EE3B1
:102110000E9478199B01AC01C701B6010E944818C2
:102120000E94B4186B017C0184E0D89FB001112497
:10213000665F7F4F072E000C880B990B0E94EC18EE
:102140004B015C016C2F70E080E090E00E94EC1885
:102150002AE939E949E95EE30E9478199B01AC015B
:10216000C501B4010E9448180E94B418DC01CB01DB
:1021700040E050E0B6010E946C129091980180916D
:1021800097010091000120910001409100016091B0
:10219000000110E00350110930E023503109949FF1
:1021A000A00111244C5C5F4F869FB0011124645F35
:1021B0007F4FEE24EA9497E0F92E83EB92E00E94A1
:1021C0007105DF91CF911F910F91FF90EF90DF90FC
:1021D000CF90BF90AF909F908F907F906F905F90C7
:1021E0004F900895CF92DF92EF92FF92CF93DF93BB
:1021F0006B017C010E94710DEB01C114D104E1045B
:10220000F10479F00E94710D6C1B7D0B683E7340E8
:10221000A0F381E0C81AD108E108F108C851DC4FE9
:10222000ECCFDF91CF91FF90EF90DF90CF900895AA
:102230001F920F920FB60F9211242F933F938F93FB
:102240009F93AF93BF9380919A0190919B01A0912E
:102250009C01B0919D013091990123E0230F2D370E
:1022600020F40196A11DB11D05C026E8230F02969A
:10227000A11DB11D2093990180939A0190939B0118
:10228000A0939C01B0939D0180919E0190919F012C
:10229000A091A001B091A1010196A11DB11D809353
:1022A0009E0190939F01A093A001B093A101BF91C3
:1022B000AF919F918F913F912F910F900FBE0F90F3
:1022C0001F9018951F920F920FB60F9211242F9303
:1022D0003F934F935F936F937F938F939F93AF93AE
:1022E000BF93EF93FF930E94960D0E94A70FFF915B
:1022F000EF91BF91AF919F918F917F916F915F917E
:102300004F913F912F910F900FBE0F901F901895F6
:102310001F920F920FB60F9211248F939F9380916B
:1023200078009091790096958795969587958093FA
:1023300096019F918F910F900FBE0F901F9018954F
:1023400030911E02313208F047C08091FA018111AC
:10235000FCCF90911D0222E02093FA0121E020930E
:10236000F9012FEF2093F8011092F7013093F60155
:10237000EDEFF1E0A6EDB1E020E0321721F0419160
:102380004D932F5FFACF1092D5012091D501990F6F
:10239000922B9093D5019091D401913041F41092F9
:1023A000D4019091D5019093BB0095EC01C095EEBE
:1023B0009093BC009091FA019230E1F39091F80172
:1023C0009F3F79F08091F801803241F08091F801CF
:1023D000803331F084E005C081E003C082E001C0B9
:1023E00083E01092FC0110921E021092FB010895EE
:1023F0000F931F93CF93DF9391E09093FB0192E5AE
:1024000090931D021092FC0110921E02682F87EA21
:1024100092E00E94780F0E94A0118091FA01811130
:10242000FCCF81E08093FA018093F9019FEF9093B4
:10243000F8011092F70195E09093F6018093D50191
:102440008091D501846A8093D5018091D401813037
:1024500041F41092D4018091D5018093BB0085ECAA
:1024600001C085EE8093BC008091FA018130E1F3D8
:102470008091F701863018F4D091F70101C0D6E0C1
:10248000E6EDF1E0A4EAB1E080E08D1721F0919152
:102490009D938F5FFACF1092A301D093A2010EEC0F
:1024A00011E0C0E08091A301D81759F0C63049F07F
:1024B000CF5F87EA92E00E94550DF80181938F016A
:1024C000F1CF8C2FDF91CF911F910F910895682F3D
:1024D00087EA92E00C94780F2F923F924F925F928E
:1024E0006F927F928F929F92AF92BF92CF92DF9224
:1024F000EF92FF920F931F93CF93DF93CDB7DEB789
:102500002A970FB6F894DEBF0FBECDBF6C01788757
:102510006F835A0183EB92E00E94620E4F815885CF
:102520004550510985012BE030E0B60183EB92E084
:102530000E94FD052F80388441E050E05C834B838E
:10254000E12CF12C95E0492E512C85E090E09A8702
:10255000898746EF5FEF5E834D832CEF622E7724F1
:102560007A948FEFE81AF80A4B815C814E5F5F4FD7
:102570005C834B83640E751E89859A858E159F0535
:10258000E4F14C01880C991C9FEF891A990A850186
:1025900094014F81588589859A85481B590B5A8328
:1025A0004983B6016E0D7F1D83EB92E00E94FD050D
:1025B000940149815A81B6016E197F0983EB92E03B
:1025C0000E94FD0549855A8544155505D9F489852C
:1025D0009A85E816F9068CF577FC0BC001979A8767
:1025E00089874D815E814E5F5F4F5E834D83640EB0
:1025F000751E51E0251A3108B4CF89859A85841556
:102600009505D9F0B601640D751D85018B809C8000
:1026100052E0851A91089401A10183EB92E00E9497
:10262000FD05B601641975099401A10183EB92E0DF
:102630000E94FD0549845A84CACF83EB92E02A9612
:102640000FB6F894DEBF0FBECDBFDF91CF911F91C3
:102650000F91FF90EF90DF90CF90BF90AF909F9041
:102660008F907F906F905F904F903F902F900C9441
:10267000A30AFC0185A9811105C06EBD0DB407FE3A
:10268000FDCF08958130E1F488E0A1A1B2A12C91A1
:1026900067FF03C095A1922B02C096A192239C9341
:1026A000A3A1B4A12C9197A1922B9C93660FA3A1F7
:1026B000B4A12C9190A592239C93815031F7089559
:1026C000A78DB0A16C93CF010C948408CF92DF92B8
:1026D000EF92FF920F931F93CF93DF93EC01162F8E
:1026E0006A01E22E0E9463098FA987FD06C0EB8D67
:1026F000FC8D90818AA989238083ED8DFE8D908148
:102700008CA989238083612FCE010E943913ED8D1E
:10271000FE8D90818BA9892B80838601F12CC801C5
:102720008C199D098E159F053CF4F80161918F016C
:10273000CE010E943913F3CF8FA987FD06C0EB8D20
:10274000FC8D908189A9892B8083DF91CF911F9186
:102750000F91FF90EF90DF90CF9008958F929F920E
:10276000AF92BF92CF92DF92EF92FF920F931F939F
:10277000CF93DF93EC014901BE2CAF2CE881F981A6
:1027800006A0F7A1E02D09959401D8010E94041A32
:10279000611571058105910509F481C02DA92111EB
:1027A0000FC0615071098109910908F478C0AEBC6D
:1027B0000DB407FEFDCFBEBC0DB407FEFDCFF1CFBB
:1027C000213009F03FC0615071098109910908F475
:1027D00066C03A2D28E0E9A1FAA1508137FF03C075
:1027E0004DA1452B02C04EA145234083EBA1FCA186
:1027F00050814FA1452B4083EBA1FCA1508148A5FE
:1028000045234083330F215031F73B2D28E0E9A1C8
:10281000FAA1508137FF03C04DA1452B02C04EA144
:1028200045234083EBA1FCA150814FA1452B408360
:10283000EBA1FCA1508148A545234083330F2150D3
:1028400031F7C1CFFE1017C0EF8DF8A1F0826B01F8
:102850007C01CC0CDD1CEE1CFF1CC114D104E10476
:10286000F104E9F0CE010E94840881E0C81AD10881
:10287000E108F108F2CF6B017C01EF8DF8A1A08295
:10288000CE010E948408EF8DF8A1B082CE010E9493
:10289000840821E0C21AD108E108F10871F7DF913C
:1028A000CF911F910F91FF90EF90DF90CF90BF904D
:1028B000AF909F908F9008952F923F924F925F928A
:1028C0006F927F928F929F92AF92BF92CF92DF9240
:1028D000EF92FF920F931F93CF93DF93CDB7DEB7A5
:1028E0006B970FB6F894DEBF0FBECDBF9B8F8A8F5C
:1028F0001B014A01D22E198708873701A982DC0102
:1029000059962D913C915A972115310509F0FFC038
:1029100018968D919C911997681779070CF0E7C16B
:102920001A968D919C911B97481759070CF0DFC19F
:10293000EC2DF0E0FB83EA839B0146E0C49E200D72
:10294000311D11243D872C87121613060CF0CFC1C0
:102950006A2D70E07B876A8783E0660F771F8A9510
:10296000E1F77F876E87CB01880D991D1816190630
:102970000CF0BDC158968C91811104C08FEA8D1561
:1029800008F4D394AA8DBB8DED91FC91119706802C
:10299000F781E02DCD010995B5E0DB9EC001112442
:1029A000EC2DF0E0F98BE88B91012B5F3F4F3B8BD7
:1029B0002A8B3D822C822101AC01421953095D8B87
:1029C0004C8B7981672F70E07F8B6E8BC4010896EA
:1029D000998F888FEC89FD89E40DF51DEB50FF4F31
:1029E000D49054019F828E82D0FE16C0AA8DBB8DDA
:1029F000ED91FC91B1E0CB1209C02981213031F475
:102A00000084F185E02D2885398519C00284F3857D
:102A1000E02DE884F9841DC0488559854615570581
:102A200019F1AA8DBB8DED91FC91B1E0CB120DC0D7
:102A30002981213051F40084F185E02D9301A50115
:102A4000B2018A8D9B8D09950FC00284F385E02D1C
:102A500073010A851B852A813B814E815F816C81D0
:102A60007D818A8D9B8D0995D6943FEFA31AB30A79
:102A70004E815F816E897F89460F571F5F834E832A
:102A8000888D998DA816B90609F0AECF9FEF491A27
:102A9000590AAC81BD81E889F989AE0FBF1FBD839A
:102AA000AC832A893B894216530609F093CF4885A7
:102AB00059854615570509F4F8C0AA8DBB8DED91CF
:102AC000FC91B1E0CB1211C02981213071F4B10128
:102AD0006B5F7F4F0484F585E02D830128E030E0B3
:102AE000A4018A8D9B8D0995E0C06C857D854A8106
:102AF0005B81641B750B0284F385E02D73010E85E9
:102B00001F859A01A4018A8D9B8D0995CEC0F9017C
:102B10003496E491DE1AF901329685919491B7E0EA
:102B2000DB9E800D911D1124F901259134913B8B81
:102B30002A8BFC01259134915901FC013296549065
:102B4000319634913C87329674903196149141E0DD
:102B50004C1518F05981523068F0672D072C000C85
:102B6000770B7D836C83812F012E000C990B9B8347
:102B70008A8304C01B821A821D821C82AA8DBB8D8F
:102B8000ED91FC9111970680F781E02DCD0109951B
:102B9000412CD12C612CF981EF2FF0E0FF83EE83E3
:102BA0002C2D30E03B872A87A401410F511D17FDD2
:102BB0005A955F8B4E8BB101670D711D77FC7A952D
:102BC000798F688F7C85671608F06FC0262D30E0FE
:102BD0004A815B81420F531FAE81BF81A49FC00118
:102BE000A59F900DB49F900D1124F401E80FF91FDB
:102BF000F98BE88B842D712C4E895F89420F531F0E
:102C00005D8B4C8B751408F04DC051E0580F5E87FA
:102C1000877041F4C5010196EA89FB89EA0DFB1D25
:102C2000D4905C01D7FE3AC061E0C61216C079812B
:102C3000713099F4AA8DBB8DED91FC9111970084B0
:102C4000F185E02D288539854C895D89688D798DE0
:102C5000670D711DCD01099521C08C819D81870D66
:102C6000911DEA85FB858E9FB0018F9F700D9E9F01
:102C7000700D1124620D731DAA8DBB8DED91FC9119
:102C800011970284F385E02DE884F9840E811F8179
:102C90002A853B8548895989CD010995DD0C7394B6
:102CA0008E85B0CF450C63948DCFAA8DBB8DED91F1
:102CB000FC9111970288F389E02DCD016B960FB638
:102CC000F894DEBF0FBECDBFDF91CF911F910F9162
:102CD000FF90EF90DF90CF90BF90AF909F908F903C
:102CE0007F906F905F904F903F902F9009946B96DC
:102CF0000FB6F894DEBF0FBECDBFDF91CF911F910D
:102D00000F91FF90EF90DF90CF90BF90AF909F908A
:102D10008F907F906F905F904F903F902F9008958D
:102D2000789484B5826084BD84B5816084BD85B5A6
:102D3000826085BD85B5816085BD80916E008160B2
:102D400080936E0010928100809181008260809358
:102D5000810080918100816080938100809180005A
:102D60008160809380008091B10084608093B10085
:102D70008091B00081608093B00080917A0084607F
:102D800080937A0080917A00826080937A008091AB
:102D90007A00816080937A0080917A0080688093C5
:102DA0007A001092C1008091810088608093810038
:102DB00089EB95E69093890080938800809181004B
:102DC00085608093810080916F00826080936F00A6
:102DD00084B18E6384B940E050E0BA0183EB92E0A5
:102DE0000E94770962E083EB92E00E945C0460E05D
:102DF0007AE783EB92E00E94900B1092A30110926D
:102E0000A2011092FC0110921E021092FA01C1E080
:102E1000C093F9011092D40161E082E10E94370869
:102E200061E083E10E9437088091B9008E7F809332
:102E3000B9008091B9008D7F8093B90088E48093B8
:102E4000B80085E48093BC0087B18F7C87B9C093BC
:102E5000FB01D2E5D0931D021092FC0110921E02DC
:102E600080EF90E00E94671285E590E00E94671273
:102E70000E94A011C093FB01D0931D021092FC018F
:102E800010921E028BEF90E00E94671280E090E0AB
:102E90000E9467120E94A0118AEF0E94F811789494
:102EA00080E00E94F8110E94960D0E94A70F8FE308
:102EB0009CE90197F1F700C00000F2CFE6EFF2E0E5
:102EC0001382128248EE53E060E070E04483558341
:102ED0006683778385E091E09183808383E692E047
:102EE000958784878FE192E09787868785EC90E0CD
:102EF000918B808B84EC90E0938B828B80EC90E0C4
:102F0000958B848B81EC90E0978B868B82EC90E0A4
:102F1000918F808F86EC90E0938F828F84E0848FF6
:102F200083E0858F87E0868F85E0878F81E080A3AF
:102F3000E7EAF2E013821282448355836683778343
:102F400025E131E031832083A3EBB2E013961C929C
:102F50001E92129740EF50E015965C934E93149793
:102F600020E431E017963C932E93169719965C93C4
:102F70004E9318971B963C932E931A9756961C9235
:102F800056971D961C921E921C971F961C921E927D
:102F90001E9755968C93559754968C9354972FEF74
:102FA0003FEF53963C932E93529751963C932E931A
:102FB000509757968C93579758961C9258975A96B5
:102FC0001C921E925997D5961C92D5978FEFD69644
:102FD0008C93D6978AE0D7968C93D79789E0D8962A
:102FE0008C93D897DA961C921E92D997DC961C92F5
:102FF0001E92DB97DD961C92DD97DE961C92DE9783
:103000001092F2021092F3021092F4021092F50262
:1030100088E193E090969C938E935F97ECE1F6E0C5
:10302000E491F0E0EE0FFF1FE75FF94F8591949177
:103030005E969C938E935D97EEEFF5E08491D39628
:103040008C93D397EDE1F6E0E491F0E0EE0FFF1FF3
:10305000E75FF94F259134915C963C932E935B97F3
:10306000EFEFF5E0E491D196EC93D197E095D2960D
:10307000EC93D297E82FE095D496EC93D49785E221
:1030800091E08D939C930895F8940C944A1A5058AB
:10309000BB27AA270E945F180C943E190E94301982
:1030A00038F00E94371920F039F49F3F19F426F4C4
:1030B0000C942D190EF4E095E7FB0C942719E92FD9
:1030C0000E944F1958F3BA176207730784079507D0
:1030D00020F079F4A6F50C9471190EF4E0950B2EFE
:1030E000BA2FA02D0B01B90190010C01CA01A0015A
:1030F0001124FF27591B99F0593F50F4503E68F1B5
:103100001A16F040A22F232F342F4427585FF3CFF5
:10311000469537952795A795F0405395C9F77EF4C6
:103120001F16BA0B620B730B840BBAF09150A1F00F
:10313000FF0FBB1F661F771F881FC2F70EC0BA0F95
:10314000621F731F841F48F4879577956795B7951D
:10315000F7959E3F08F0B0CF9395880F08F0992718
:10316000EE0F9795879508950E94BB186894B1114A
:103170000C94721908950E94571988F09F5798F07F
:10318000B92F9927B751B0F0E1F0660F771F881F6C
:10319000991F1AF0BA95C9F714C0B13091F00E9486
:1031A0007119B1E008950C947119672F782F882751
:1031B000B85F39F0B93FCCF3869577956795B395AD
:1031C000D9F73EF490958095709561957F4F8F4F1C
:1031D0009F4F0895E89409C097FB3EF49095809521
:1031E000709561957F4F8F4F9F4F9923A9F0F92FCD
:1031F00096E9BB279395F695879577956795B7954B
:10320000F111F8CFFAF4BB0F11F460FF1BC06F5F30
:103210007F4F8F4F9F4F16C0882311F096E911C042
:10322000772321F09EE8872F762F05C0662371F063
:1032300096E8862F70E060E02AF09A95660F771F77
:10324000881FDAF7880F9695879597F9089597F96B
:103250009F6780E870E060E008959FEF80EC08953C
:1032600000240A9416161706180609060895002465
:103270000A9412161306140605060895092E0394DF
:10328000000C11F4882352F0BB0F40F4BF2B11F453
:1032900060FF04C06F5F7F4F8F4F9F4F089557FDB2
:1032A0009058440F551F59F05F3F71F04795880FB4
:1032B00097FB991F61F09F3F79F08795089512164B
:1032C00013061406551FF2CF4695F1DF08C01616F7
:1032D00017061806991FF1CF8695710561050894A8
:1032E0000895E894BB2766277727CB0197F90895BF
:1032F0000E948B190C943E190E94301938F00E94DC
:10330000371920F0952311F00C9427190C942D19DE
:1033100011240C9472190E944F1970F3959FC1F3F8
:10332000950F50E0551F629FF001729FBB27F00D73
:10333000B11D639FAA27F00DB11DAA1F649F6627C8
:10334000B00DA11D661F829F2227B00DA11D621F17
:10335000739FB00DA11D621F839FA00D611D221FD1
:10336000749F3327A00D611D231F849F600D211DB5
:10337000822F762F6A2F11249F5750409AF0F1F038
:1033800088234AF0EE0FFF1FBB1F661F771F881FA1
:1033900091505040A9F79E3F510580F00C94271999
:1033A0000C9472195F3FE4F3983ED4F386957795B9
:1033B0006795B795F795E7959F5FC1F7FE2B880F47
:1033C000911D9695879597F90895052E97FB1EF404
:1033D00000940E94FC1957FD07D00E94221A07FC96
:1033E00003D04EF40C94FC195095409530952195DE
:1033F0003F4F4F4F5F4F0895909580957095619521
:103400007F4F8F4F9F4F08950E940C1A332312F461
:103410008A1B9B0B0C941D1AA29FB001B39FC00185
:10342000A39F700D811D1124911DB29F700D811DF0
:103430001124911D08950E940C1AB7FF0895821B54
:10344000930B0895A1E21A2EAA1BBB1BFD010DC010
:10345000AA1FBB1FEE1FFF1FA217B307E407F50744
:1034600020F0A21BB30BE40BF50B661F771F881F20
:10347000991F1A9469F760957095809590959B01B6
:10348000AC01BD01CF010895EE0FFF1F0590F4912F
:08349000E02D0994F894FFCF30
:1034980018000000004903E303D2039603B6038B28
:1034A8000300000000780F4B0F690D550D460D64A1
:1034B8000C00000000730EE3031309620E300EC502
:1034C8000DFD054006940CA30A5C04AE0A8D04FFAA
:0E34D800047105900B230BC40A7709D8080075
:00000001FF
