:100000000C9415030C943D030C943D030C943D0398
:100010000C943D030C943D030C943D030C943D0360
:100020000C943D030C943D030C943D030C941F056C
:100030000C9415050C943D030C943D030C943D0366
:100040000C94570C0C943D030C942C140C94F11349
:100050000C943D030C942E050C943D030C943D032D
:100060000C94CA120C943D03EF03038002CF0300EB
:10007000C130ED0464031281E803850078CB0539B3
:100080002C003402F70120EA020000C00123C10164
:1000900010C5023E28C701863601483701003A01E3
:1000A00055B1020018B603088227F20100260101AB
:1000B000E00F0F312B0C0E084EF1370710030E091D
:1000C00000E10F000E1403110731C148080F0C3175
:1000D000360F118029800000000000240027002A2C
:1000E00000000000070002010000030406000000F9
:1000F000000000000000000000003E5B4F5B3E3E41
:100100006B4F6B3E1C3E7C3E1C183C7E3C181C57C3
:100110007D571C1C5E7F5E1C00183C1800FFE7C367
:10012000E7FF0018241800FFE7DBE7FF30483A0636
:100130000E2629792926407F050507407F05253FA2
:100140005A3CE73C5A7F3E1C1C08081C1C3E7F148E
:10015000227F22145F5F005F5F06097F017F0066D8
:1001600089956A606060606094A2FFA29408047E32
:10017000040810207E201008082A1C08081C2A08E1
:10018000081E101010100C1E0C1E0C30383E38309B
:10019000060E3E0E06000000000000005F0000009A
:1001A00007000700147F147F14242A7F2A122313C8
:1001B00008646236495620500008070300001C22DC
:1001C00041000041221C002A1C7F1C2A08083E080E
:1001D000080080703000080808080800006060000F
:1001E00020100804023E5149453E00427F40007203
:1001F000494949462141494D331814127F1027457A
:100200004545393C4A494931412111090736494997
:100210004936464949291E000014000000403400B8
:10022000000008142241141414141400412214086C
:1002300002015909063E415D594E7C1211127C7F24
:10024000494949363E414141227F4141413E7F4932
:100250004949417F090909013E414151737F08081D
:10026000087F00417F41002040413F017F08142268
:10027000417F404040407F021C027F7F0408107F86
:100280003E4141413E7F090909063E4151215E7FC1
:1002900009192946264949493203017F01033F4094
:1002A00040403F1F2040201F3F4038403F6314081C
:1002B000146303047804036159494D43007F4141AD
:1002C000410204081020004141417F040201020460
:1002D0004040404040000307080020545478407FCD
:1002E000284444383844444428384444287F385407
:1002F00054541800087E090218A4A49C787F0804AE
:10030000047800447D40002040403D007F10284498
:100310000000417F40007C047804787C0804047865
:100320003844444438FC1824241818242418FC7C2D
:1003300008040408485454542404043F44243C4012
:1003400040207C1C2040201C3C4030403C44281075
:1003500028444C9090907C4464544C4400083641AE
:10036000000000770000004136080002010204028C
:100370003C2623263C1EA1A161123A4040207A3837
:100380005454555921555579412254547842215598
:1003900054784020545579400C1E527212395555EC
:1003A0005559395454545939555454580000457CC2
:1003B000410002457D420001457C407D1211127DC5
:1003C000F0282528F07C545545002054547C547C5A
:1003D0000A097F4932494949323A4444443A324A47
:1003E0004848303A4141217A3A42402078009DA065
:1003F000A07D3D4242423D3D4040403D3C24FF24E3
:1004000024487E4943662B2FFC2F2BFF0929F62019
:10041000C0887E090320545479410000447D413056
:1004200048484A32384040227A007A0A0A727D0DE2
:1004300019317D2629292F28262929292630484D9A
:100440004020380808080808080808382F10C8ACE9
:10045000BA2F102834FA00007B000008142A142256
:1004600022142A14085500550055AA55AA55AAFF6A
:1004700055FF55FF000000FF00101010FF0014147E
:1004800014FF001010FF00FF1010F010F0141414EF
:10049000FC001414F700FF0000FF00FF1414F40424
:1004A000FC141417101F10101F101F1414141F0019
:1004B000101010F0000000001F101010101F10107E
:1004C0001010F010000000FF10101010101010108D
:1004D00010FF10000000FF140000FF00FF00001FCD
:1004E00010170000FC04F414141710171414F4046B
:1004F000F40000FF00F714141414141414F700F798
:10050000141414171410101F101F141414F41410C2
:1005100010F010F000001F101F0000001F1400005A
:1005200000FC140000F010F01010FF10FF14141461
:10053000FF141010101F00000000F010FFFFFFFF5D
:10054000FFF0F0F0F0F0FFFFFF0000000000FFFF01
:100550000F0F0F0F0F3844443844FC4A4A4A347E88
:1005600002020606027E027E026355494163384458
:10057000443C04407E201E2006027E020299A5E72C
:10058000A5991C2A492A1C4C7201724C304A4D4DC7
:10059000303048784830BC625A463D3E49494900AF
:1005A0007E0101017E2A2A2A2A2A44445F444440CB
:1005B000514A444040444A51400000FF0103E0805A
:1005C000FF000008086B6B083612362436060F0948
:1005D0000F06000018180000001010003040FF0146
:1005E00001001F01011E00191D1712003C3C3C3C7C
:1005F00000000000000102040810204080010204F5
:100600000810200102040810200000000025002826
:10061000002B000404040404040404020202020285
:1006200002030303030303001C2311241FBECFEFA7
:10063000D8E0DEBFCDBF11E0A0E0B1E0EAEAFBE424
:1006400002C005900D92A235B107D9F723E0A2E5CB
:10065000B1E001C01D92AF36B207E1F713E0C5E18A
:10066000D3E004C02197FE010E94CD25C431D107FB
:10067000C9F70E945A180C9402240C94000080912F
:100680000301815080930301809103010895E82FB5
:10069000F0E0E65AFE4F808190E09C012A5031093B
:1006A0002930310528F04497099720F080E008951B
:1006B00081E0089582E00895E82FF0E0E65AFE4FC9
:1006C000808190E09C012E5131092530310528F0C0
:1006D0008897059720F080E0089581E0089582E0F2
:1006E0000895FF920F931F93CF93DF93D82FF62E89
:1006F000082F10E0065A1E4FF8018081813029F43E
:10070000862F0E943F03C1E006C0F8018081C1E04E
:10071000833009F0C0E0F80180818430A9F0808145
:10072000813019F08081823089F489E3D89F812D4E
:1007300011248695682FF9E08F9FD01911248D2FF1
:100740000E94BB0D8C2F05C081E003C0F801F08230
:10075000ECCFDF91CF911F910F91FF900895EF9211
:10076000FF920F931F93CF93DF93C82F0E944703ED
:10077000813029F481E30E942A0CDEE113C08C2F22
:100780000E944703823029F482E30E942A0CD8E2B7
:1007900009C083E3DF91CF911F910F91FF90EF90FC
:1007A0000C942A0C809159018150809359016D2F2E
:1007B0008C2F0E947103C93078F017EF1C0F6D2F3A
:1007C000812F0E947103811107C0193028F06D2F0D
:1007D0008EEE8C0F0E94710309E3C09F812D1124BE
:1007E0008695883099F019E01C0F6D2F812F0E949B
:1007F000710381110BC0109F112D11241695183013
:1008000029F06D2F82E18C0F0E94710302E00C0F22
:100810001C2F89E3F82E99E0E92E1F9D812D1124CC
:100820008695912F8E9D90191124983021F41EEFFA
:100830001C0F09E013C01F5F6D2F812F0E947103F1
:100840008111F5CF011799F3E8CFC1506D2F8C2F8F
:100850000E947103811108C01C1731F08C2F602F8A
:100860000E94A3259111F1CFDF91CF911F910F919C
:10087000FF90EF900895AF92BF92CF92DF92EF92E8
:10088000FF920F931F93CF93DF93E12CF12C89E319
:10089000C82ED9E08701065A1E4FF801B080CE2D30
:1008A0008E2D0E9447038130D9F4F80180818F5F3B
:1008B0008083EC9CD12C1124D694AE2CDD9EA01804
:1008C00011246D2D8A2D0E94E40DF1E1FB1520F419
:1008D0008E2D0E94AF0304C06D2D8A2D0E94A10CA5
:1008E0008C2F0E9447038230D9F4F80180818F5FFA
:1008F0008083CC9DD12C1124D694AC2EDD9EA018E3
:1009000011246D2D8A2D0E94E40DFBE1FB1520F4CE
:100910008C2F0E94AF0304C06D2D8A2D0E94A10C64
:100920008C2F0E945C038130F1F4F80180818F5F8D
:100930008083CC9DD12C1124D694AC2EDD9EA018A2
:1009400011246D2D8A2D0E94E40DF1E2FB1538F47F
:10095000F801D0836D2D8A2D0E94E40D04C06D2D09
:100960008A2D0E94BB0D8C2F0E945C038230E9F41B
:10097000F80180818F5F8083CC9DD12C1124D69487
:10098000DD9EC01911246D2D8C2F0E94E40DFBE219
:10099000FB1538F4F801D0836D2D8C2F0E94E40DE7
:1009A00004C06D2D8C2F0E94BB0DFFEFEF1AFF0AC4
:1009B00081E5E816F10409F06DCFDF91CF911F9129
:1009C0000F91FF90EF90DF90CF90BF90AF90089580
:1009D00080915801813021F480915901823018F0C2
:1009E000109258010895E0915701F0E0E65AFE4F49
:1009F0008AE08083609157018091570199E3699F54
:100A0000612D11246695899F912D1124969529E0D9
:100A1000929F801911240E94A10C1092580180917C
:100A200059018F5F8093590108951F920F920FB65D
:100A30000F9211240F900FBE0F901F9018951F92C8
:100A40000F920FB60F9211248F9381E0809356017D
:100A50008F910F900FBE0F901F9018951F920F92BD
:100A60000FB60F9211248F939F93809178009091ED
:100A700079009695879596958795809354019F91D7
:100A80008F910F900FBE0F901F9018956F927F92CD
:100A90008F929F92AF92BF92CF92DF92EF92FF928E
:100AA0000F931F93CF93DF93EC014B015A01690120
:100AB0003801E881F9810680F781E02D0995E88108
:100AC000F9810684F785E02D87019601A501B4011F
:100AD000CE010995A501460D571D41505109E881E8
:100AE000F9810684F785E02D9601B401CE010995C0
:100AF000E881F9810484F585E02D9301A501B40115
:100B0000CE010995C80CD91CB60161507109E88164
:100B1000F9810484F585E02D9301A501CE010995A5
:100B2000E881F9810288F389E02DCE01DF91CF9130
:100B30001F910F91FF90EF90DF90CF90BF90AF90FB
:100B40009F908F907F906F9009948F929F92AF9219
:100B5000BF92CF92DF92EF92FF920F931F93CF93AA
:100B6000DF934C016B015A01E901DC01ED91FC912D
:100B70006217730781F40417150724F48B2D5801AD
:100B8000042F182F0A191B0998012F5F3F4F008C63
:100B9000F18DE02D12C04017510709F526173707D0
:100BA00024F48D2D6901C62FD82F9E012C193D09E3
:100BB0002F5F3F4F028CF38DE02D8701A501B60119
:100BC000C4010995DF91CF911F910F91FF90EF9094
:100BD000DF90CF90BF90AF909F908F900895068048
:100BE000F781E02D0995D401ED91FC910088F18900
:100BF000E02D9E01A501B601C4010995D401ED9136
:100C0000FC910288F389E02DC401DF91CF911F91FF
:100C10000F91FF90EF90DF90CF90BF90AF909F909B
:100C20008F900994EF92FF920F931F93DC011A9615
:100C30000D911C911B9718962D913C911997ED9150
:100C4000FC91048CF58DE02D7B0140E050E060E0EC
:100C500070E009951F910F91FF90EF9008954F92CA
:100C60005F926F927F928F929F92AF92BF92CF923C
:100C7000DF92EF92FF920F931F93CF93DF936C015C
:100C80002B015A0139014801DC01ED91FC910680EC
:100C9000F781E02D0995E201640C751CD601ED91F8
:100CA000FC91C615D7055CF40484F585E02D870119
:100CB0009401A501BE01C60109952196EFCF0288D6
:100CC000F389E02DC601DF91CF911F910F91FF9025
:100CD000EF90DF90CF90BF90AF909F908F907F90DC
:100CE0006F905F904F9009948F929F92AF92BF92B6
:100CF000CF92DF92EF92FF920F931F93CF93DF93E8
:100D0000EC015B014A016901E881F9810680F78104
:100D1000E02D099595012C0D3D1D21503109E881EB
:100D2000F9810088F189E02D78018401A401B501E1
:100D3000CE010995E881F9810288F389E02DCE0181
:100D4000DF91CF911F910F91FF90EF90DF90CF90A7
:100D5000BF90AF909F908F9009948F929F92AF9287
:100D6000BF92CF92DF92EF92FF920F931F93CF9398
:100D7000DF93EC015B014A0169017801E881F981A7
:100D80000680F781E02D0995C80CD91C8601015019
:100D90001109E881F9810088F189E02D9501A4010C
:100DA000B501CE010995E881F9810288F389E02D2A
:100DB000CE01DF91CF911F910F91FF90EF90DF90C7
:100DC000CF90BF90AF909F908F900994EF92FF9239
:100DD0000F931F93DC01ED91FC91048CF58DE02DB8
:100DE00009951F910F91FF90EF9008950F931F9316
:100DF000DC01ED91FC91028CF38DE02D09951F91A2
:100E00000F9108950F931F93DC01ED91FC91008CDD
:100E1000F18DE02D09951F910F910895DC01ED9161
:100E2000FC910480F581E02D09942F923F924F921E
:100E30005F926F927F928F929F92AF92BF92CF926A
:100E4000DF92EF92FF920F931F93CF93DF9300D027
:100E500000D000D0CDB7DEB72C017E836D836A0150
:100E60005901C801FC82EB824801841A950A97FE59
:100E700003C091948194910835012D813E81621ABD
:100E8000730A77FE03C07194619471086814790441
:100E90005CF43A2D2B2D5C01832F922F3D812E8106
:100EA000DE82CD82C32ED22EAD81BE81AA16BB06B4
:100EB0005CF43C2D2D2D6C01832F922F3D812E81D2
:100EC000BE82AD82A32EB22E85012D813E81021BF2
:100ED000130B1C012C183D0837FE03C031942194DC
:100EE0003108780117FF03C03FEFE31AF30AF594C6
:100EF000E794C816D9062CF08FEF9FEF9A83898369
:100F000004C0A1E0B0E0BA83A9832D813E81A2167E
:100F1000B30624F1D201ED91FC910084F185E02D1E
:100F20002B813C816814790424F44D815E81B601E3
:100F300003C0A6016D817E81C2010995E218F30804
:100F4000F7FE06C029813A81C20ED31EE00EF11EC3
:100F50008D819E8101969E838D83D7CF26960FB675
:100F6000F894DEBF0FBECDBFDF91CF911F910F91DF
:100F7000FF90EF90DF90CF90BF90AF909F908F90B9
:100F80007F906F905F904F903F902F900895FC015D
:100F900087A987FD06C0A38DB48D9C9181A9892B5B
:100FA0008C9308953FB7F8948091B1019091B2016C
:100FB000A091B301B091B40126B5A89B05C02F3F05
:100FC00019F00196A11DB11D3FBFBA2FA92F982F6F
:100FD0008827820F911DA11DB11DBC01CD0142E0EA
:100FE000660F771F881F991F4A95D1F708958F9232
:100FF0009F92AF92CF92EF92FF920F931F93CF9356
:10100000DF93EC01262F898D9A8D009709F042C05D
:101010006A3059F41D861C862D898E859F8538E09F
:10102000239F800D911D112443C06D3009F4AAC087
:101030008F898823C9F03C898C859D8546E0349F43
:10104000800D911D1124488559854817590764F46E
:101050001D861C863D898E859F8548E0349F800DC6
:10106000911D11249F878E87EA88FB88088919893A
:101070004E855F856C857D85AD88CC88CE010E94CC
:1010800096102C898C859D8536E0239F800D911DBF
:1010900011243EC06A3079F41D861C862D89FC011E
:1010A0003696E4918E859F852E9F800D911D11248B
:1010B0009F878E8767C06D3009F464C0FC01349649
:1010C0003491631708F45EC03196E491E61708F492
:1010D00059C0462F431B342FFC01329685909490C3
:1010E00047E0349F800C911C1124F4013296349116
:1010F0003196E491332311F0E1110DC0F4013496DF
:10110000E4912C898C859D85E29F800D911D112491
:101110009D878C8737C0F401359644915F895523AC
:1011200019F15C89E32FF0E0E40FF11D47FDFA951A
:101130005E9FB0015F9F700D11244C855D85460F49
:10114000571F688579856417750774F41D861C869A
:101150003D89FC013696E4918E859F853E9F800DEA
:10116000911D11249F878E87EA88FB880889198939
:101170004E855F856C857D85AD88CC88CE010E94CB
:101180009610BCCF81E090E0DF91CF911F910F913D
:10119000FF90EF90CF90AF909F908F9008958F9297
:1011A0009F92AF92BF92CF92DF92EF92FF920F93F6
:1011B0001F93CF93DF935C014B016A01E90177FD37
:1011C00053C0DC0118968D919C9119976817790787
:1011D0000CF04AC0209709F447C037FF07C0C90187
:1011E0000196C80ED91ED195C195D109F501828508
:1011F0009385C816D906C4F5A6014C0F5D1F9A0148
:101200002150310937FD30C0D7FE03C0EA01C12C9F
:10121000D12C281739071CF0EC01CC19DD09D501B8
:10122000ED91FC910680F781E02DC50109957801CB
:101230008E0121E030E0A601B401C5010E94AB1689
:10124000D501ED91FC910288F389E02DC501DF9174
:10125000CF911F910F91FF90EF90DF90CF90BF90B3
:10126000AF909F908F900994DF91CF911F910F9134
:10127000FF90EF90DF90CF90BF90AF909F908F90B6
:1012800008958F929F92AF92BF92CF92DF92EF928A
:10129000FF920F931F93CF93DF935C016B014A0181
:1012A000E90157FD53C0DC011A968D919C911B9763
:1012B000481759070CF04AC0209709F447C037FF78
:1012C00007C0C9010196C80ED91ED195C195D10993
:1012D000F50180859185C816D906C4F5A6014C0F85
:1012E0005D1F9A012150310937FD30C0D7FE03C080
:1012F000EA01C12CD12C281739071CF0EC01CC19BC
:10130000DD09D501ED91FC910680F781E02DC50145
:101310000995780101E010E09E01A401B601C50124
:101320000E94AB16D501ED91FC910288F389E02D66
:10133000C501DF91CF911F910F91FF90EF90DF904A
:10134000CF90BF90AF909F908F900994DF91CF91F5
:101350001F910F91FF90EF90DF90CF90BF90AF90D3
:101360009F908F9008958F929F92AF92BF92CF924D
:10137000DF92EF92FF920F931F93CF93DF934C0175
:101380006B015A01E901209709F46CC001151105A0
:1013900009F468C037FF07C0C9010196C80ED91EFD
:1013A000D195C195D109F401A085B185CA16DB0696
:1013B0000CF058C017FF07C0C8010196A80EB91E4F
:1013C000119501951109F40182859385A816B90636
:1013D0000CF048C0F601EC0FFD1FAF014150510960
:1013E00057FD40C0B501600F711F9B0121503109AD
:1013F00037FD38C0D7FE03C0EF01C12CD12CB7FE9A
:1014000003C08B01A12CB12C4A175B071CF0ED0126
:10141000CC19DD09281739071CF08C010A191B09A2
:10142000D401ED91FC910680F781E02DC40109956E
:101430009E01A501B601C4010E94AB16D401ED9135
:10144000FC910288F389E02DC401DF91CF911F91B7
:101450000F91FF90EF90DF90CF90BF90AF909F9053
:101460008F900994DF91CF911F910F91FF90EF9092
:10147000DF90CF90BF90AF909F908F900895EF92A4
:10148000FF920F931F93CF93DF9377FD34C0DC015E
:101490001896ED91FC9119976E177F0764F5211549
:1014A000310549F137FF07C0F90131964E0F5F1F33
:1014B000319521953109DC011A96ED91FC911B972C
:1014C0004E175F07C4F4EA01C20FD31FDE01119764
:1014D000B7FD11C057FF03C09E0140E050E0AE17BA
:1014E000BF071CF09F01241B350B7801890121E007
:1014F00030E00E94AB16DF91CF911F910F91FF90CA
:10150000EF900895EF92FF920F931F93CF93DF9385
:1015100057FD33C0DC011A96ED91FC911B974E17D5
:101520005F075CF52115310541F137FF07C0F9016F
:1015300031966E0F7F1F319521953109DC01189688
:10154000ED91FC9119976E177F07BCF4EB01C20F68
:10155000D31FDE011197B7FD10C077FF03C09E01B6
:1015600060E070E0AE17BF071CF09F01261B370B31
:10157000780101E010E00E94AB16DF91CF911F913E
:101580000F91FF90EF9008958F929F92AF92BF922C
:10159000CF92DF92EF92FF920F931F93CF93DF933F
:1015A00047012115310509F44DC00115110509F454
:1015B00049C037FF07C0F90131966E0F7F1F319583
:1015C00021953109DC011896AD90BC9019976A15E8
:1015D0007B05C4F517FF07C0F80131964E0F5F1F5A
:1015E000119501951109DC011A96ED91FC911B975B
:1015F0004E175F073CF56B01C20ED31EE601219723
:10160000D7FD20C07A01E00EF11ED7011197B7FD7A
:1016100019C077FF03C0960160E070E057FF03C078
:10162000870140E050E0CA15DB051CF09501261B40
:10163000370BAE17BF071CF08F01041B150B74018D
:101640000E94AB16DF91CF911F910F91FF90EF9009
:10165000DF90CF90BF90AF909F908F900895FC0146
:10166000A5A1B6A19C9182A589238C93A5A1B6A121
:101670009C9181A5892B8C9308950F931F93CF93F1
:10168000DF93EC018B018DA9811109C01EBD0DB442
:1016900007FEFDCF0EBD0DB407FEFDCF2FC081307C
:1016A000E9F480E1E9A1FAA1208117FF03C09DA11F
:1016B000922B02C09EA192239083EBA1FCA12081DA
:1016C0009FA1922B9083EBA1FCA1208198A592234E
:1016D0009083000F111F815029F710C0EF8DF8A1E2
:1016E0001083CE010E942F0BEF8DF8A10083CE0155
:1016F000DF91CF911F910F910C942F0BDF91CF9120
:101700001F910F910895AF92BF92CF92DF92EF9207
:10171000FF920F931F93CF93DF93EC0177FD38C0B7
:1017200088859985681779079CF557FD31C08A85AA
:101730009B854817590764F569017A015B01E881C7
:10174000F9810680F781E02DCE010995E881F981C4
:1017500006A0F7A1E02D01E010E021E030E0A701B4
:10176000B501CE010995B601CE010E943D0BE8817D
:10177000F9810288F389E02DCE01DF91CF911F918D
:101780000F91FF90EF90DF90CF90BF90AF900994B2
:10179000DF91CF911F910F91FF90EF90DF90CF904D
:1017A000BF90AF900895EF92FF920F931F93CF9346
:1017B000DF93EC0177FD22C088859985681779074A
:1017C000ECF457FD1BC08A859B8548175907B4F474
:1017D0007901E881F98106A0F7A1E02D01E010E090
:1017E00021E030E0CE010995B701CE01DF91CF9124
:1017F0001F910F91FF90EF900C943D0BDF91CF91D3
:101800001F910F91FF90EF900895FC0185A9811120
:101810000FC09CB59C7F9CBD9DB591609DBD9CB546
:101820009F7D9CBD2CB5237F95A1822F892B8CBDDC
:101830000895CF93DF93EC010E94050C8FA987FDDB
:1018400006C0EB8DFC8D90818AA989238083DF916E
:10185000CF9108959091C00095FFFCCF8093C60072
:101860000895CF92DF92EF92FF92CF93DF936B01B7
:101870007C010E94D207EB01C114D104E104F10400
:1018800079F00E94D2076C1B7D0B683E7340A0F379
:1018900081E0C81AD108E108F108C851DC4FECCF4B
:1018A000DF91CF91FF90EF90DF90CF9008951F923E
:1018B0000F920FB60F9211242F933F938F939F9304
:1018C000AF93BF938091AD019091AE01A091AF0114
:1018D000B091B0013091AC0123E0230F2D3720F4FB
:1018E0000196A11DB11D05C026E8230F0296A11D7A
:1018F000B11D2093AC018093AD019093AE01A093F4
:10190000AF01B093B0018091B1019091B201A0916B
:10191000B301B091B4010196A11DB11D8093B10135
:101920009093B201A093B301B093B401BF91AF9172
:101930009F918F913F912F910F900FBE0F901F900D
:1019400018958F929F92AF92BF92CF92DF92EF92B3
:10195000FF920F931F93CF93DF93C82FD62F009141
:10196000040120910401409104016091040110E000
:101970000350110930E023503109849FA001112444
:101980004C5C5F4FD69FB0011124645F7F4FEFE046
:10199000EE2EE8E7FE2E89E093E00E94B3098091E5
:1019A000AB0180FFDBC000910401A0900401C09056
:1019B00004016091040110E001511109B12C86E18C
:1019C000A81AB108DC9D6001112487E3C80ED11C60
:1019D000C69FB0011124645F7F4F072E000C880B57
:1019E000990B0E94AA2420E030E048E151E40E94D3
:1019F00006240E94722489E2E82E8CEDF82E9501CF
:101A0000A60189E093E00E94B30980910401F0905F
:101A100004011091040100910401D89FB001112428
:101A20006E5C7F4F072E000C880B990B0E94AA2436
:101A30004B015C016F2D70E080E090E00E94AA24D1
:101A40002AE939E949E95EE30E9436259B01AC01A8
:101A5000C501B4010E94062420E030E040EE50E4CD
:101A60000E9406240E9472246B017C01C19FB00178
:101A70001124665F7F4F072E000C880B990B0E9484
:101A8000AA244B015C01602F70E080E090E00E948E
:101A9000AA242AE939E949E95EE30E9436259B0137
:101AA000AC01C501B4010E94062420E030E040EA08
:101AB00050E40E9406240E947224DC01CB0120E045
:101AC00030E045E050E0B6010E9459174091040112
:101AD00060910401D49FA0011124435C5F4FC69F15
:101AE000B00111246C5E7F4F2FEF3FEF89E093E050
:101AF0000E94830B4091040160910401D49FA001D6
:101B00001124425C5F4FC69FB00111246D5E7F4F70
:101B10002FEF3FEF89E093E00E94830B00910401D7
:101B200020910401409104016091040110E00551ED
:101B3000110930E025513109D49FA00111244A5CDC
:101B40005F4FC69FB00111246A5E7F4F91EEE92E70
:101B500099EFF92E89E093E00E94B309DF91CF91CC
:101B60001F910F91FF90EF90DF90CF90BF90AF90BB
:101B70009F908F900895EF92FF920F931F93009183
:101B8000040120910401409104019091040110E0AE
:101B90000350110930E023503109849FA001112422
:101BA0004C5C5F4F699FB0011124645F7F4F80E2FE
:101BB000E82E8DEFF82E89E093E00E94B3091F9183
:101BC0000F91FF90EF900895EF92FF920F931F9364
:101BD00000910401209104014091040190910401BD
:101BE00010E00250110930E022503109649FA00139
:101BF00011244C5C5F4F899FC0011124BC01645FBC
:101C00007F4F80E8E82E89E5F82E89E093E00E9476
:101C1000B3091F910F91FF90EF90089585ED809388
:101C2000BC008091BC0084FDFCCF1092500208954E
:101C3000613298F420915002243089F46093D501E8
:101C4000282FA5EBB1E0FC018E2F821B861718F41C
:101C500081918D93F9CF80E0089581E0089582E02D
:101C600008950F931F93CF93DF93FC01A685B7854B
:101C70008D01005C1F4FE8018881998101968F7367
:101C80009927AD014E5B5F4FEA0128813981281702
:101C90003907D1F3E80128813981A20FB31F6C9372
:101CA000A685B785A05CBF4F11969C938E93A6899D
:101CB000B7892C9181E090E0078C02C0880F991FB2
:101CC0000A94E2F7822B8C9381E081A30488F58942
:101CD000E02D80818064808381E090E0DF91CF916E
:101CE0001F910F910895FC0181A1882329F0A489F7
:101CF000B5898C9186FFFBCF11A20895FC01A485C4
:101D0000B585FD01E05CFF4F2081318132968081F5
:101D100091812817390779F080819181A80FB91F27
:101D20008C91208131812F5F3F4F2F733327318377
:101D3000208390E008958FEF9FEF0895DC011C96BB
:101D4000ED91FC911D97DF01A05CBF4F2D913C915F
:101D5000119712968D919C9111972817390739F098
:101D60008D919C91E80FF91F808190E008958FEF8D
:101D70009FEF0895FC0124853585F901E05CFF4F54
:101D800080819181329620813181821B930B8F73E8
:101D9000992708950895CF92DF92EF92FF920F93C3
:101DA0001F93CF93DF936C01EB017B01E40EF51ED3
:101DB00000E010E0CE15DF0561F06991D601ED91EC
:101DC000FC910190F081E02DC6010995080F191FC3
:101DD000F1CFC801DF91CF911F910F91FF90EF904C
:101DE000DF90CF900895CF93DF9390E0FC01EB500C
:101DF000FA4F2491FC01ED5EF94F8491882361F143
:101E000090E0880F991FFC01E952FF4FC591D491D2
:101E1000FC01E75FF94FA591B491611109C09FB72B
:101E2000F8948881209582238883EC912E230BC01F
:101E3000623061F49FB7F8948881322F3095832304
:101E40008883EC912E2B2C939FBF06C08FB7F894FC
:101E5000E8812E2B28838FBFDF91CF9108950895BD
:101E6000E091F9018091F801E81730F4F0E0E650D4
:101E7000FE4F808190E008958FEF9FEF089590913D
:101E8000F9018091F801981750F4E92FF0E0E6503D
:101E9000FE4F208130E09F5F9093F90102C02FEF49
:101EA0003FEFC90108958091F80190E02091F90178
:101EB000821B91090895CF92DF92EF92FF920F93C8
:101EC0001F93CF93DF937C01CB018A0120915102B4
:101ED000222389F0EB016B01C40ED51ECC15DD0564
:101EE00069F06991D701ED91FC910190F081E02DAD
:101EF000C7010995F3CF642F0E94180EC801DF9126
:101F0000CF911F910F91FF90EF90DF90CF900895A8
:101F1000CF93DF931F92CDB7DEB769832091510233
:101F20002223D1F020917402203240F021E030E0F1
:101F3000FC013383228380E090E015C0809152023F
:101F4000E82FF0E0ED5AFD4F998190838F5F8093E9
:101F500052028093740205C061E0CE0101960E9496
:101F6000180E81E090E00F90DF91CF9108950895D1
:101F7000FC016370668B8481958126813781613095
:101F800039F0633029F0918780873387228708955D
:101F900031872087938782870895CF92DF92EF92CF
:101FA000FF920F931F93CF93DF93EC01162F6A01DB
:101FB000E22E0E94050C8FA987FD06C0EB8DFC8DDB
:101FC00090818AA989238083ED8DFE8D90818CA9D3
:101FD00089238083612FCE010E942D18ED8DFE8D07
:101FE00090818BA9892B80838601F12CC8018C19E3
:101FF0009D098E159F053CF4F80161918F01CE017A
:102000000E942D18F3CF8FA987FD06C0EB8DFC8DA4
:10201000908189A9892B8083DF91CF911F910F91A6
:10202000FF90EF90DF90CF900895CF93DF931F92B2
:10203000CDB7DEB7FC016370668B623041F0633070
:1020400079F0613011F088E403C088E20AC088E8C2
:10205000898380EF90E09187808780E491E008C0D9
:1020600088EE898380E491E09187808780EF90E01B
:102070009387828721E0AE014F5F5F4F66E3CF0118
:102080000E94CD0F0F90DF91CF910895CF93DF93F2
:10209000EC01ED8DFE8D90818CA989238083CE018A
:1020A0000E942D18ED8DFE8D90818BA9892B808348
:1020B000DF91CF910895AF92BF92CF92DF92EF92CE
:1020C000FF920F931F93CF93DF93EC015B016A01A3
:1020D000215031097901E60EF71E01501109040F54
:1020E000151F6AE20E944610B501CE010E943D0B09
:1020F000B701CE010E943D0B6BE2CE010E9446105B
:10210000B601CE010E943D0BB801CE010E943D0BED
:102110006CE2CE01DF91CF911F910F91FF90EF9074
:10212000DF90CF90BF90AF900C9446102F923F92CB
:102130004F925F926F927F928F929F92AF92BF92D7
:10214000CF92DF92EF92FF920F931F93CF93DF9383
:10215000CDB7DEB76B970FB6F894DEBF0FBECDBF1D
:102160009B8F8A8F1B014A01D22E1987088737015E
:10217000A982DC0159962D913C915A972115310580
:1021800009F0FFC018968D919C91199768177907EF
:102190000CF0E7C11A968D919C911B97481759072F
:1021A0000CF0DFC1EC2DF0E0FB83EA839B0146E0FD
:1021B000C49E200D311D11243D872C871216130655
:1021C0000CF0CFC16A2D70E07B876A8783E0660FD1
:1021D000771F8A95E1F77F876E87CB01880D991D60
:1021E000181619060CF0BDC158968C91811104C0C7
:1021F0008FEA8D1508F4D394AA8DBB8DED91FC91D7
:1022000011970680F781E02DCD010995B5E0DB9EA1
:10221000C0011124EC2DF0E0F98BE88B91012B5FCC
:102220003F4F3B8B2A8B3D822C822101AC0142190E
:1022300053095D8B4C8B7981672F70E07F8B6E8BA0
:10224000C4010896998F888FEC89FD89E40DF51DEE
:10225000EB50FF4FD49054019F828E82D0FE16C067
:10226000AA8DBB8DED91FC91B1E0CB1209C0298103
:10227000213031F40084F185E02D2885398519C09D
:102280000284F385E02DE884F9841DC048855985D2
:102290004615570519F1AA8DBB8DED91FC91B1E062
:1022A000CB120DC02981213051F40084F185E02D3D
:1022B0009301A501B2018A8D9B8D09950FC00284FF
:1022C000F385E02D73010A851B852A813B814E81B0
:1022D0005F816C817D818A8D9B8D0995D6943FEFBE
:1022E000A31AB30A4E815F816E897F89460F571FFB
:1022F0005F834E83888D998DA816B90609F0AECFFD
:102300009FEF491A590AAC81BD81E889F989AE0F5E
:10231000BF1FBD83AC832A893B894216530609F04F
:1023200093CF488559854615570509F4F8C0AA8DFD
:10233000BB8DED91FC91B1E0CB1211C02981213010
:1023400071F4B1016B5F7F4F0484F585E02D83014B
:1023500028E030E0A4018A8D9B8D0995E0C06C8552
:102360007D854A815B81641B750B0284F385E02DBA
:1023700073010E851F859A01A4018A8D9B8D099595
:10238000CEC0F9013496E491DE1AF90132968591B6
:102390009491B7E0DB9E800D911D1124F9012591E8
:1023A00034913B8B2A8BFC01259134915901FC011E
:1023B00032965490319634913C873296749031968F
:1023C000149141E04C1518F05981523068F0672D96
:1023D000072C000C770B7D836C83812F012E000C62
:1023E000990B9B838A8304C01B821A821D821C82E4
:1023F000AA8DBB8DED91FC9111970680F781E02DA0
:10240000CD010995412CD12C612CF981EF2FF0E001
:10241000FF83EE832C2D30E03B872A87A401410FF8
:10242000511D17FD5A955F8B4E8BB101670D711DC4
:1024300077FC7A95798F688F7C85671608F06FC076
:10244000262D30E04A815B81420F531FAE81BF8150
:10245000A49FC001A59F900DB49F900D1124F4017D
:10246000E80FF91FF98BE88B842D712C4E895F8959
:10247000420F531F5D8B4C8B751408F04DC051E01B
:10248000580F5E87877041F4C5010196EA89FB8980
:10249000EA0DFB1DD4905C01D7FE3AC061E0C61284
:1024A00016C07981713099F4AA8DBB8DED91FC91A4
:1024B00011970084F185E02D288539854C895D8947
:1024C000688D798D670D711DCD01099521C08C81B5
:1024D0009D81870D911DEA85FB858E9FB0018F9FA1
:1024E000700D9E9F700D1124620D731DAA8DBB8D02
:1024F000ED91FC9111970284F385E02DE884F98435
:102500000E811F812A853B8548895989CD0109950E
:10251000DD0C73948E85B0CF450C63948DCFAA8D5E
:10252000BB8DED91FC9111970288F389E02DCD01CF
:102530006B960FB6F894DEBF0FBECDBFDF91CF9183
:102540001F910F91FF90EF90DF90CF90BF90AF90D1
:102550009F908F907F906F905F904F903F902F90C3
:1025600009946B960FB6F894DEBF0FBECDBFDF9116
:10257000CF911F910F91FF90EF90DF90CF90BF9080
:10258000AF909F908F907F906F905F904F903F9013
:102590002F9008951F920F920FB60F9211242F9330
:1025A0003F934F935F936F937F938F939F93AF93DB
:1025B000BF93EF93FF938091B900887F803609F431
:1025C0009CC068F5883209F45BC090F4803109F44E
:1025D00054C038F4882309F4EFC0883009F44DC0A2
:1025E000EFC0883109F44CC0803209F45DC0E8C006
:1025F000803409F468C048F4803309F455C0883346
:1026000009F0DEC080934E02D1C0803509F44FC07E
:10261000883509F45DC0883409F0D2C0CFC088394C
:1026200009F4C0C0A8F4883709F467C038F48836C4
:1026300009F463C0803709F460C0C2C0883809F467
:10264000B1C0803909F45FC0803809F0B9C05BC0FF
:10265000803B09F481C038F4803A09F466C0883AB6
:1026600009F47AC0ADC0803C09F4A0C0883C09F4EC
:102670009DC0883B09F483C0A3C080912B0210C089
:1026800090914D0280914C02981770F5E0914D02A7
:1026900081E08E0F80934D02F0E0E45DFD4F80817C
:1026A0008093BB0085EC7FC080934E0287C0E09191
:1026B0004D0281E08E0F80934D028091BB00F0E0CF
:1026C000E45DFD4F808390914D0280914C0267C084
:1026D000E0914D0281E08E0F80934D028091BB000E
:1026E000F0E0E45DFD4F808380914F02811166C070
:1026F00081E080932A0284EA5AC083E080935002EA
:102700001092F701CFCF8091F701803208F04AC0D4
:10271000E091F70181E08E0F8093F7018091BB007B
:10272000F0E0E952FE4F8083BDCF8091F701803207
:1027300030F4E091F701F0E0E952FE4F10820E9480
:102740000E0E6091F70170E087ED91E0E0E0F0E0BF
:1027500009951092F7012AC084E0809350021092EC
:10276000D6011092D501E0E0F0E009958091D50105
:10277000811105C081E08093D5011092B501E091EF
:10278000D60181E08E0F8093D601F0E0EB54FE4F2E
:1027900080818093BB009091D6018091D5019817DC
:1027A00008F480CF85E88093BC000AC085EC809354
:1027B000BC001092500204C010924E020E940E0EF5
:1027C000FF91EF91BF91AF919F918F917F916F9109
:1027D0005F914F913F912F910F900FBE0F901F90DF
:1027E00018951F920F920FB60F9211242F933F93BB
:1027F0008F939F93EF93FF932091B5023091B60290
:102800008091B7029091B8022817390731F480916E
:10281000C1008F7D8093C10014C0E091B702F09198
:10282000B802EB58FD4F20818091B7029091B80219
:1028300001968F7399279093B8028093B7022093E3
:10284000C600FF91EF919F918F913F912F910F9033
:102850000FBE0F901F9018951F920F920FB60F92F8
:1028600011242F934F935F938F939F93EF93FF9335
:102870008091C00082FD1CC02091C6008091F902A9
:102880009091FA024091FB025091FC0201968F73E5
:1028900099274817590771F0E091F902F091FA026F
:1028A000E754FD4F20839093FA028093F90202C00F
:1028B0008091C600FF91EF919F918F915F914F9111
:1028C0002F910F900FBE0F901F90189590E0FC0174
:1028D000EF51FF4F2491FC01EB50FA4F3491FC0172
:1028E000ED5EF94FE491EE2309F43CC0222339F167
:1028F000233091F038F42130A9F0223001F584B56D
:102900008F7D12C0263091F02730A1F02430B9F429
:10291000809180008F7D03C0809180008F778093AD
:1029200080000DC084B58F7784BD09C08091B00050
:102930008F7703C08091B0008F7D8093B000F0E06E
:10294000EE0FFF1FE75FF94FA591B4919FB7F89481
:10295000611104C08C913095382302C0EC913E2B5C
:102960003C939FBF0895BF92CF92DF92EF92FF9268
:102970000F931F93CF93DF93EC016A017B01452BEB
:10298000462B472B31F4C12C22E1D22E2AE7E22E2E
:10299000F12C8FA987FD07C061E00E94F30E61E072
:1029A0008FA90E94661461E088AD0E94F30E61E079
:1029B00088AD0E9466148DA981111DC0C9A2DAA23A
:1029C000EBA2FCA21DA21EA21FA218A661E08AE033
:1029D0000E94661461E08AE00E94F30E8CB580616B
:1029E0008CBD8CB580648CBD61E08DE00E94F30EDF
:1029F00061E08BE016C08130B9F461E08AA50E94E5
:102A0000F30E60E08AA50E94661461E08CA50E9426
:102A1000F30E60E08CA50E9466148BA587FD36C07E
:102A200060E00E94F30E32C003E116E0F12CF801E1
:102A30008491E82FF0E0EE0FFF1FE75FF94F8591DB
:102A400094912F8D38A12817390741F461E08F2D1B
:102A50000E94F30E60E08F2D0E946614F3940F5FC6
:102A60001F4FF4E1FF12E3CF61E08EA50E94F30E49
:102A700061E08EA50E9466148FA587FD07C061E006
:102A80000E94F30E61E08FA50E9466148EA987FD57
:102A900021C061E00E94F30E61E08EA90E946614DD
:102AA00064E670E080E090E00E94310C60E08EA966
:102AB0000E94661464E670E080E090E00E94310CB1
:102AC00061E08EA90E94661468EC70E080E090E0FE
:102AD0000E94310C8EA987FF0DC020E040E050E03D
:102AE00061E0CE010E94CD0F66E970E080E090E0E9
:102AF0000E94310C88E6E82E80E0F82EC70101968E
:102B0000F7011491112309F448C0FC01B4900B2D76
:102B10000F77CE010E94050C8FA987FD06C0EB8DB3
:102B2000FC8D90818AA989238083ED8DFE8D908113
:102B30008CA989238083612FCE010E942D18ED8DF1
:102B4000FE8D90818BA9892B8083C12CD12C10E024
:102B5000C016D10664F4F6013296EE0DFF1D6491A5
:102B6000CE010E942D18FFEFCF1ADF0AF1CF8FA9F7
:102B700087FD06C0EB8DFC8D908189A9892B808310
:102B80000E5F1F4FE00EF11EB7FEB8CF66E970E092
:102B900080E090E00E94310CB1CF80EF90E0998707
:102BA000888780E491E09B878A87DF91CF911F918E
:102BB0000F91FF90EF90DF90CF90BF9008953091EC
:102BC0007402313208F047C0809150028111FCCF6D
:102BD0009091730222E02093500221E020934F0253
:102BE0002FEF20934E0210924D0230934C02E3E5FA
:102BF000F2E0ACE2B2E020E0321721F041914D93D7
:102C00002F5FFACF10922B0220912B02990F922B5B
:102C100090932B0290912A02913041F410922A0253
:102C200090912B029093BB0095EC01C095EE909390
:102C3000BC00909150029230E1F390914E029F3F80
:102C400079F080914E02803241F080914E028033C3
:102C500031F084E005C081E003C082E001C083E080
:102C600010925202109274021092510208950F9322
:102C70001F93CF93DF9391E09093510292E590934D
:102C800073021092520210927402682F8DEF92E03C
:102C90000E94880F0E94DF15809150028111FCCFA5
:102CA00081E08093500280934F029FEF90934E02F9
:102CB00010924D0295E090934C0280932B028091EC
:102CC0002B02846A80932B0280912A02813041F486
:102CD00010922A0280912B028093BB0085EC01C0E8
:102CE00085EE8093BC00809150028130E1F38091A9
:102CF0004D02863018F4D0914D0201C0D6E0ECE2CE
:102D0000F2E0AAEFB1E080E08D1721F091919D9360
:102D10008F5FFACF1092F901D093F80104E212E02C
:102D2000C0E08091F901D81759F0C63049F0CF5F63
:102D30008DEF92E00E943F0FF80181938F01F1CF58
:102D40008C2FDF91CF911F910F910895682F8DEFF8
:102D500092E00C94880F8F929F92AF92BF92CF9285
:102D6000DF92EF92FF920F931F93CF93DF93EC01CB
:102D70004901BE2CAF2CE881F98106A0F7A1E02D16
:102D800009959401D8010E94AF256115710581054F
:102D9000910509F481C02DA921110FC0615071095D
:102DA0008109910908F478C0AEBC0DB407FEFDCFCF
:102DB000BEBC0DB407FEFDCFF1CF213009F03FC0FE
:102DC000615071098109910908F466C03A2D28E023
:102DD000E9A1FAA1508137FF03C04DA1452B02C0E4
:102DE0004EA145234083EBA1FCA150814FA1452B6F
:102DF0004083EBA1FCA1508148A545234083330FBC
:102E0000215031F73B2D28E0E9A1FAA1508137FF8D
:102E100003C04DA1452B02C04EA145234083EBA129
:102E2000FCA150814FA1452B4083EBA1FCA1508117
:102E300048A545234083330F215031F7C1CFFE1001
:102E400017C0EF8DF8A1F0826B017C01CC0CDD1C6A
:102E5000EE1CFF1CC114D104E104F104E9F0CE0121
:102E60000E942F0B81E0C81AD108E108F108F2CFC7
:102E70006B017C01EF8DF8A1A082CE010E942F0B87
:102E8000EF8DF8A1B082CE010E942F0B21E0C21A73
:102E9000D108E108F10871F7DF91CF911F910F91EF
:102EA000FF90EF90DF90CF90BF90AF909F908F906A
:102EB00008952F923F924F925F926F927F928F92DE
:102EC0009F92AF92BF92CF92DF92EF92FF920F93B9
:102ED0001F93CF93DF93CDB7DEB72A970FB6F89441
:102EE000DEBF0FBECDBF5C0178876F835A874987ED
:102EF000390189E093E00E94190C29853A85220F57
:102F0000331F2F5F3F4F4F81588589859A85481B16
:102F1000590B8301B50189E093E00E943F0A81E0EB
:102F200090E02C0129853A85421A530AC9019195EE
:102F3000819591099C01220F331F3E832D832F80A1
:102F40003884E12CF12C81E090E09C838B832985EF
:102F50003A85E216F3060CF064C057FC0CC0690118
:102F600031E0C31AD1088D819E8102969E838D83A4
:102F7000480E591E02C0C984DA849FEFE91AF90A83
:102F80002B813C812E5F3F4F3C832B83420E531E8F
:102F9000CE14DF0404F14601880C991C3FEF831A1C
:102FA000930A830194018F8198858C199D099A83D6
:102FB0008983AC01B7016A0D7B1D89E093E00E9413
:102FC0003F0A940149815A81B5016E197F0989E050
:102FD00093E00E943F0A29853A852C153D0531F47E
:102FE00091E0291A3108DA86C986B1CFB9016A0D94
:102FF0007B1D83018B809C8032E0831A91089401B1
:10300000A10189E093E00E943F0AB50189859A8574
:10301000681B790B9401A10189E093E00E943F0AAB
:10302000DFCF89E093E02A960FB6F894DEBF0FBE9B
:10303000CDBFDF91CF911F910F91FF90EF90DF9067
:10304000CF90BF90AF909F908F907F906F905F9048
:103050004F903F902F900C94C707FC0185A98111D8
:1030600005C06EBD0DB407FEFDCF08958130E1F4BB
:1030700088E0A1A1B2A12C9167FF03C095A1922B7A
:1030800002C096A192239C93A3A1B4A12C9197A1D5
:10309000922B9C93660FA3A1B4A12C9190A592238F
:1030A0009C93815031F70895A78DB0A16C93CF0107
:1030B0000C942F0BCF93DF9300D000D000D0CDB76E
:1030C000DEB7789484B5826084BD84B5816084BDA8
:1030D00085B5826085BD85B5816085BD80916E00B6
:1030E000816080936E0010928100809181008260E7
:1030F0008093810080918100816080938100809124
:1031000080008160809380008091B1008460809312
:10311000B1008091B00081608093B00080917A000E
:10312000846080937A0080917A00826080937A0034
:1031300080917A00816080937A0080917A00806823
:1031400080937A001092C10010928000109281004A
:103150008091810088608093810084E89EE1909353
:1031600089008093880080918800909189009695CD
:10317000879590938B0080938A0080918100856071
:103180008093810080916F00826080936F008091B6
:103190006F00846080936F0080E090E029E0FC0184
:1031A000E65AFE4F2083019681359105C1F781E0F3
:1031B00080935A011092570182E08093AA0180E522
:1031C000809355018AE090E024E0FC01E65AFE4F2E
:1031D0002083FC01E45AFE4F2083FC01E25AFE4F9B
:1031E0002083FC01E05AFE4F2083429682359105F0
:1031F00061F78AE080935F0184E18093820184B16A
:103200008E6384B940E050E0BA0189E093E00E9407
:10321000B31460E07AE789E093E00E94120600911F
:1032200004012091040189E0089F8001112499E0A4
:10323000299F9001112440E8E42E49E5F42E42E351
:1032400050E06AE070E089E093E00E94B3091A82DE
:103250001982C12CD12C009104012091040190917C
:1032600004018091040110E00F5F1F4F30E02F5FD9
:103270003F4F9C9DA0019D9D500D11244E5C5F4FC2
:10328000E981FA818E9FB0018F9F700D1124665FD6
:103290007F4FE12CF12C89E093E00E944605FFEF7F
:1032A000CF1ADF0A89E0C816D104A9F6E981FA81AC
:1032B0003196FA83E983399761F61E821D8229E3EC
:1032C000C22E39E0B32EED81FE81E65AFE4FA0807A
:1032D000F4E0AF1225C08D818C9D412D11244695BF
:1032E0004B9D8019112400910401209104019091BB
:1032F00004016091040110E00450110930E02350F2
:103300003109499FA00111244C5C5F4F869FB00199
:103310001124645F7F4F9EE8E92E9BE6F92E2BC1B6
:1033200093E0A9122CC1ED81EC9D412D1124942E26
:103330009694DE2E9B9CD0181124009104012091BC
:103340000401409104016091040110E00950110949
:1033500030E029503109949EA0011124495C5F4F4F
:10336000D69EB0011124615F7F4F80EAE82E88E28B
:10337000F82E89E093E00E94B309609104018090E7
:1033800004010091040110910401969EB0011124E2
:103390006E5C7F4F072E000C880B990B0E94AA24AD
:1033A0002B013C01682D70E080E090E00E94AA248F
:1033B0002AE939E949E95EE30E9436259B01AC011F
:1033C000C301B2010E94062420E030E040E051E455
:1033D0000E9406240E94722469837A838B839C83D3
:1033E000D09EB0011124665F7F4F072E000C880B22
:1033F000990B0E94AA242B013C01612F70E080E010
:1034000090E00E94AA242AE939E949E95EE30E9492
:1034100036259B01AC01C301B2010E94062420E0C5
:1034200030E040EA50E40E9406240E947224DC014D
:10343000CB0120EA38E247E050E069817A810E94BE
:1034400059176091040180900401009104011091CA
:103450000401969EB00111246E5C7F4F072E000C74
:10346000880B990B0E94AA242B013C01682D70E067
:1034700080E090E00E94AA242AE939E949E95EE364
:103480000E9436259B01AC01C301B2010E940624B3
:1034900020E030E040E050E40E9406240E947224C4
:1034A00069837A838B839C83D09EB0011124665FED
:1034B0007F4F072E000C880B990B0E94AA242B012A
:1034C0003C01612F70E080E090E00E94AA242AE98C
:1034D00039E949E95EE30E9436259B01AC01C3014D
:1034E000B2010E94062420E030E040EA50E40E944D
:1034F00006240E947224DC01CB0120EA38E247E076
:1035000050E069817A810E9459170091040120914D
:103510000401409104016091040110E0055111097A
:1035200030E029503109949EA0011124475C5F4F7F
:10353000D69EB0011124615F7F4FE12CF12C89E010
:1035400093E00E94B309009104012091040140918D
:1035500004016091040110E00551110930E0295087
:103560003109949EA00111244F5B5F4FD69EB0019C
:103570001124615F7F4F89E093E00E94B3098A2D97
:103580000E945C03813069F4FD81FC9D812D112432
:103590008695682F9F2F8B9D90191124892F0E944B
:1035A000BB0D8A2D0E945C03823069F4ED81EC9D95
:1035B000812D11248695682FFE2F8B9DF0191124E3
:1035C0008F2F0E94BB0D8A2D0E944703813069F422
:1035D0009D819C9D812D11248695682FE92F8B9DBF
:1035E000E01911248E2F0E94A10C8A2D0E944703FE
:1035F000823069F4FD81FC9D812D11248695682F10
:103600009F2F8B9D90191124892F0E94A10CED8171
:10361000FE813196FE83ED83E135F10509F053CE4D
:103620001092F9011092F801109252021092740255
:1036300010925002F1E0F0934F0210922A0261E0E2
:1036400082E10E94661461E083E10E946614809129
:10365000B9008E7F8093B9008091B9008D7F8093EF
:10366000B90088E48093B80085E48093BC0087B1FA
:103670008F7C87B981E08093510292E59093730229
:10368000109252021092740280EF90E00E94A616EF
:1036900085E590E00E94A6160E94DF15E1E0E09328
:1036A0005102F2E5F09373021092520210927402EA
:1036B0008BEF90E00E94A61680E090E00E94A61694
:1036C0000E94DF158AEF0E9437161092C50087E628
:1036D0008093C40086E08093C20088E18093C1009B
:1036E000789460E089E093E00E941510A9E3CA2E67
:1036F000B9E0DB2E772473946624639480E00E9403
:10370000371680915601813009F06CC7109256012E
:1037100060915701809157016C9D612D1124669530
:103720008C9D912D112496959D9D801911240E94A8
:10373000E40D60915501809155016C9D612D11241E
:1037400066958C9D912D112496959D9D801911242F
:103750000E94E40D809124028F3FF1F48091570183
:103760006D2D0E94A325983009F486C0E091570181
:10377000EF5FF0E0E65AFE4F8081893009F03CC7E8
:10378000E0915701F0E0E65AFE4FD0820E94E80433
:10379000809157018F5F5AC081111EC080915701DF
:1037A0006D2D0E94A325992309F466C0E09157016D
:1037B000E150F0E0E65AFE4F8081893009F024C7DD
:1037C000E0915701F0E0E65AFE4FD0820E94E804F3
:1037D0008091570181503AC0809125028F3FD9F4E2
:1037E00080915701893008F447C0E0915701E950B2
:1037F000F0E0E65AFE4F8081893009F00DC7E09174
:103800005701F0E0E65AFE4FD0820E94E804809112
:10381000570189501BC081112FC0809157018834F6
:1038200058F5E0915701E75FF0E0E65AFE4F8081DE
:10383000893009F0F9C6E0915701F0E0E65AFE4FF1
:10384000D0820E94E80480915701875F80935701DE
:10385000809157010E945C03882341F0E091570159
:10386000F0E0E65AFE4F80810E943F03E09157014D
:10387000F0E0E65AFE4F70828091290280FF60924C
:1038800058010E943B04809157018C9D912D112479
:1038900096959D83809157018C9DE12D1124E6958D
:1038A000ED9D801911248983009104018090040109
:1038B000A09004016091040110E008511109912CBD
:1038C000F0E18F1A91089A9D500111248EE3A80E01
:1038D000B11C9981969FB0011124645F7F4F072E20
:1038E000000C880B990B0E94AA2420E030E040EDE8
:1038F00050E40E9406240E947224E12CF12C9401D1
:10390000A50189E093E00E94B30900910401209190
:103910000401409104016091040110E0015111097A
:1039200030E025513109ED81E49FA00111244D5B68
:103930005F4FF981F69FB00111246D5E7F4F89E0E2
:1039400093E00E94B3090091040120910401409189
:1039500004016091040110E00151110930E025518A
:1039600031098D81849FA00111244D5B5F4F9981A6
:10397000969FB0011124695E7F4F89E093E00E9419
:10398000B309009104012091040140910401609168
:10399000040110E00651110930E024513109ED8194
:1039A000E49FA0011124485B5F4FF981F69FB001AD
:1039B00011246F5E7F4F8FE5E82E83E1F82E89E0BA
:1039C00093E00E94B3090091040120910401409109
:1039D00004016091040110E00651110930E0245106
:1039E00031098D81849FA0011124485B5F4F99812B
:1039F000969FB0011124695E7F4F89E093E00E9499
:103A0000B30900910401A090040180900401609129
:103A1000040110E000511109B12CE2E1AE1AB10825
:103A2000FD81F89D400111248AE3880E911C998143
:103A3000969FB0011124645F7F4F072E000C880B06
:103A4000990B0E94AA2420E030E040EF50E40E944D
:103A500006240E9472249501A40189E093E00E944B
:103A6000B309009104012091040140910401609187
:103A7000040110E00251110930E026513109ED81B5
:103A8000E49FA0011124445C5F4FF981F69FB001CF
:103A90001124615F7F4F89E093E00E94B309009198
:103AA000040120910401409104016091040110E09F
:103AB0000551110930E0255131098D81849FA00104
:103AC0001124445C5F4F9981969FB0011124605F7F
:103AD0007F4F89E093E00E94B30900910401209197
:103AE0000401409104016091040110E005511109A5
:103AF00030E025513109ED81E49FA00111244F5B95
:103B00005F4FF981F69FB0011124625F7F4F90ED06
:103B1000E92E95EFF92E89E093E00E94B309009118
:103B2000040120910401409104016091040110E01E
:103B30000251110930E0265131098D81849FA00185
:103B40001124445C5F4F9981969FB0011124665EF9
:103B50007F4FEFE5EE2EE3E1FE2E89E093E00E9439
:103B6000B309009104012091040140910401609186
:103B7000040110E00551110930E025513109ED81B2
:103B8000E49FA0011124445C5F4FF981F69FB001CE
:103B90001124675E7F4F89E093E00E94B309009192
:103BA000040120910401409104016091040110E09E
:103BB0000551110930E0255131098D81849FA00103
:103BC00011244F5B5F4F9981969FB0011124665E6F
:103BD0007F4FF0EDEF2EF5EFFF2E89E093E00E948E
:103BE000B30980910401B090040100910401109187
:103BF0000401ED81E89FB00111246E5C7F4F072E18
:103C0000000C880B990B0E94AA241B012C016B2D20
:103C100070E080E090E00E94AA242AE939E949E9AD
:103C20005EE30E9436259B01AC01C201B1010E94F6
:103C3000062420E030E040E85FE30E9405240E9473
:103C400072244B015C01F981F09FB0011124665F81
:103C50007F4F072E000C880B990B0E94AA241B0192
:103C60002C01612F70E080E090E00E94AA242AE9F4
:103C700039E949E95EE30E9436259B01AC01C201A6
:103C8000B1010E94062420E030E040EA50E40E94A6
:103C900006240E947224DC01CB0120ED35EF45E0C3
:103CA00050E0B4010E9459170091040120910401D1
:103CB000409104016091040110E00651110930E0C7
:103CC000265131098D81849FA0011124485C5F4FEA
:103CD0009981969FB00111246D5E7F4FE12CF12CEC
:103CE00089E093E00E94B30900910401209104014E
:103CF000409104016091040110E00751110930E086
:103D000027513109ED81E49FA0011124485C5F4FE8
:103D1000F981F69FB00111246D5E7F4FEE24EA9485
:103D2000FE2C89E093E00E94B309009104012091E8
:103D30000401409104016091040110E00651110951
:103D400030E0265131098D81849FA0011124485C07
:103D50005F4F9981969FB0011124685E7F4FE12CDF
:103D6000F12C89E093E00E94B309009104012091B5
:103D70000401409104016091040110E00751110910
:103D800030E027513109ED81E49FA0011124485C06
:103D90005F4FF981F69FB0011124685E7F4FEE24DA
:103DA000EA94FE2C89E093E00E94B309409104015B
:103DB000609104018D81849FA0011124445C5F4FB8
:103DC0009981969FB00111246A5E7F4F20E030E018
:103DD00089E093E00E94830B40910401609104010B
:103DE000ED81E49FA0011124455C5F4FF981F69FAE
:103DF000B0011124695E7F4F20E030E089E093E05C
:103E00000E94830B40910401609104018D81849F85
:103E1000A0011124445C5F4F9981969FB001112449
:103E20006B5E7F4F20E030E089E093E00E94830BDF
:103E3000009104012091040140910401609104016A
:103E400010E00451110930E02E503109ED81E49F5A
:103E5000A00111244E5C5F4FF981F69FB00111243F
:103E60006F5E7F4F8FE5E82E83E1F82E89E093E0C7
:103E70000E94B309009104012091040140910401C2
:103E80006091040110E00451110930E02E50310915
:103E90008D81849FA00111244E5C5F4F9981969F74
:103EA000B00111246F5E7F4FE12CF12C89E093E08B
:103EB0000E944605009104012091040140910401F3
:103EC0006091040110E00551110930E020513109E1
:103ED000ED81E49FA00111244C5C5F4FF981F69FB6
:103EE000B00111246B5E7F4F9FE5E92E93E1F92E1F
:103EF00089E093E00E94B30900910401209104013C
:103F0000409104016091040110E00551110930E075
:103F1000205131098D81849FA00111244C5C5F4F99
:103F20009981969FB00111246B5E7F4FE12CF12C9B
:103F300089E093E00E944605E0915501EC9DF12D4A
:103F40001124F695FD83809155018C9D912D1124AE
:103F500096959D9D8019112489830091040180907C
:103F60000401A09004016091040110E008511109BE
:103F7000912CE0E18E1A9108FA9D50011124FEE384
:103F8000AF0EB11C869FB0011124645F7F4F072ED6
:103F9000000C880B990B0E94AA2420E030E040ED31
:103FA00050E40E9406240E9472249401A50189E035
:103FB00093E00E94B3090091040120910401409113
:103FC00004016091040110E00151110930E0255114
:103FD00031098D81849FA00111244D5B5F4F998130
:103FE000969FB00111246D5E7F4F89E093E00E949F
:103FF000B3090091040120910401409104016091F2
:10400000040110E00151110930E025513109ED8121
:10401000E49FA00111244D5B5F4FF981F69FB00131
:104020001124695E7F4F89E093E00E94B3090091FB
:10403000040120910401409104016091040110E009
:104040000651110930E0245131098D81849FA0016E
:104050001124485B5F4F9981969FB00111246F5ED8
:104060007F4FE7EEEE2EE9EDFE2E89E093E00E9411
:10407000B309009104012091040140910401609171
:10408000040110E00651110930E024513109ED819D
:10409000E49FA0011124485B5F4FF981F69FB001B6
:1040A0001124695E7F4F89E093E00E94B30900917B
:1040B0000401A0900401809004016091040110E0CB
:1040C0000F501109B12C82E1A81AB1089D81989D69
:1040D00040011124EAE38E0E911CF981F69FB00194
:1040E0001124645F7F4F072E000C880B990B0E94F0
:1040F000AA2420E030E040EF50E40E9406240E9411
:1041000072249501A40189E093E00E94B309009113
:10411000040120910401409104016091040110E028
:104120000251110930E0265131098D81849FA0018F
:104130001124445C5F4F9981969FB0011124615F07
:104140007F4F89E093E00E94B30900910401209120
:104150000401409104016091040110E0055111092E
:1041600030E025513109ED81E49FA0011124445C28
:104170005F4FF981F69FB0011124605F7F4F89E0A6
:1041800093E00E94B3090091040120910401409141
:1041900004016091040110E00551110930E025513E
:1041A00031098D81849FA00111244F5B5F4F99815C
:1041B000969FB0011124625F7F4FF0EDEF2EF5EF77
:1041C000FF2E89E093E00E94B30900910401209141
:1041D0000401409104016091040110E002511109B1
:1041E00030E026513109ED81E49FA0011124445CA7
:1041F0005F4FF981F69FB0011124665E7F4FA7EEF5
:10420000EA2EA9EDFA2E89E093E00E94B30900910D
:10421000040120910401409104016091040110E027
:104220000551110930E0255131098D81849FA0018C
:104230001124445C5F4F9981969FB0011124675E01
:104240007F4F89E093E00E94B3090091040120911F
:104250000401409104016091040110E0055111092D
:1042600030E025513109ED81E49FA00111244F5B1D
:104270005F4FF981F69FB0011124665E7F4FB0ED6C
:10428000EB2EB5EFFB2E89E093E00E94B3098091FD
:104290000401B090040100910401109104019D817A
:1042A000989FB00111246E5C7F4F072E000C880B85
:1042B000990B0E94AA241B012C016B2D70E080E059
:1042C00090E00E94AA242AE939E949E95EE30E94C4
:1042D00036259B01AC01C201B1010E94062420E0F9
:1042E00030E040E85FE30E9405240E9472244B0105
:1042F0005C01E981E09FB0011124665F7F4F072ECA
:10430000000C880B990B0E94AA241B012C01612F21
:1043100070E080E090E00E94AA242AE939E949E9A6
:104320005EE30E9436259B01AC01C201B1010E94EF
:10433000062420E030E040EA50E40E9406240E9477
:104340007224DC01CB0120ED35EF45E050E0B401F3
:104350000E94591700910401209104014091040129
:104360006091040110E00651110930E02651310935
:10437000FD81F49FA0011124485C5F4F8981869FD5
:10438000B00111246D5E7F4FE12CF12C89E093E0A8
:104390000E94B3090091040120910401409104019D
:1043A0006091040110E00751110930E027513109F3
:1043B0009D81949FA0011124485C5F4FE981E69F95
:1043C000B00111246D5E7F4FEE24EA94FE2C89E04B
:1043D00093E00E94B30900910401209104014091EF
:1043E00004016091040110E00651110930E02651EA
:1043F0003109FD81F49FA0011124485C5F4F898140
:10440000869FB0011124685E7F4FE12CF12C89E07A
:1044100093E00E94B30900910401209104014091AE
:1044200004016091040110E00751110930E02751A7
:1044300031099D81949FA0011124485C5F4FE9815F
:10444000E69FB0011124685E7F4FEE24EA94FE2CB3
:1044500089E093E00E94B309409104016091040156
:10446000FD81F49FA0011124445C5F4F8981869FE8
:10447000B00111246A5E7F4F20E030E089E093E0D4
:104480000E94830B40910401609104019D81949FDF
:10449000A0011124455C5F4FE981E69FB001112422
:1044A000695E7F4F20E030E089E093E00E94830B5B
:1044B0004091040160910401FD81F49FA001112449
:1044C000445C5F4F8981869FB00111246B5E7F4FF2
:1044D00020E030E089E093E00E94830B009104012A
:1044E00020910401409104016091040110E0045105
:1044F000110930E02E5031099D81949FA0011124B3
:104500004E5C5F4FE981E69FB00111246F5E7F4FE3
:10451000E7EEEE2EE9EDFE2E89E093E00E94B3096E
:104520000091040120910401409104016091040173
:1045300010E00451110930E02E503109FD81F49F43
:10454000A00111244E5C5F4F8981869FB001112428
:104550006F5E7F4FE12CF12C89E093E00E944605CD
:104560000091040120910401409104016091040133
:1045700010E00551110930E0205131099D81949FCF
:10458000A00111244C5C5F4FE981E69FB00111242A
:104590006B5E7F4FF7EEEF2EF9EDFF2E89E093E093
:1045A0000E94B3090091040120910401409104018B
:1045B0006091040110E00551110930E020513109EA
:1045C000FD81F49FA00111244C5C5F4F8981869F7F
:1045D000B00111246B5E7F4FE12CF12C89E093E058
:1045E0000E94460580915601823009F087C81092DA
:1045F00056010E943B0482C8809157018F5F0E9440
:104600005C038111BDC838C98091570181500E9457
:104610005C038111D5C830C98091570189500E942F
:104620005C038111ECC828C980915701875F0E9403
:104630005C03811100C920C9ECE4F3E0138212820B
:1046400048EE53E060E070E04483558366837783EF
:1046500089E091E09183808389EB92E0958784875C
:1046600085E792E09787868785EC90E0918B808B39
:1046700084EC90E0938B828B80EC90E0958B848B24
:1046800081EC90E0978B868B82EC90E0918F808F0D
:1046900086EC90E0938F828F84E0848F83E0858F17
:1046A00087E0868F85E0878F81E080A3EDEFF2E0E1
:1046B00013821282448355836683778329E131E034
:1046C00031832083A9E0B3E013961C921E921297C7
:1046D00040EF50E015965C934E93149720E431E040
:1046E00017963C932E93169719965C934E931897B2
:1046F0001B963C932E931A9756961C9256971D968E
:104700001C921E921C971F961C921E921E975596E5
:104710008C93559754968C9354972FEF3FEF539665
:104720003C932E93529751963C932E9350975796C5
:104730008C93579758961C9258975A961C921E9293
:104740005997D5961C92D5978FEFD6968C93D6977E
:104750008AE0D7968C93D79789E0D8968C93D89790
:10476000DA961C921E92D997DC961C921E92DB97C9
:10477000DD961C92DD97DE961C92DE971092480320
:104780001092490310924A0310924B038EE693E075
:1047900090969C938E935F97ECE1F6E0E491F0E0C5
:1047A000EE0FFF1FE75FF94F859194915E969C9302
:1047B0008E935D97EEEFF5E08491D3968C93D3972B
:1047C000EDE1F6E0E491F0E0EE0FFF1FE75FF94F57
:1047D000259134915C963C932E935B97EFEFF5E037
:1047E000E491D196EC93D197E095D296EC93D29741
:1047F000E82FE095D496EC93D49789E291E08D93DD
:104800009C930895F8940C94D3255058BB27AA275D
:104810000E941D240C94FC240E94EE2438F00E9477
:10482000F52420F039F49F3F19F426F40C94EB247E
:104830000EF4E095E7FB0C94E524E92F0E940D258A
:1048400058F3BA17620773078407950720F079F4C5
:10485000A6F50C942F250EF4E0950B2EBA2FA02D63
:104860000B01B90190010C01CA01A0011124FF271D
:10487000591B99F0593F50F4503E68F11A16F04018
:10488000A22F232F342F4427585FF3CF4695379517
:104890002795A795F0405395C9F77EF41F16BA0BDC
:1048A000620B730B840BBAF09150A1F0FF0FBB1F8A
:1048B000661F771F881FC2F70EC0BA0F621F731FD3
:1048C000841F48F4879577956795B795F7959E3F30
:1048D00008F0B0CF9395880F08F09927EE0F9795C1
:1048E000879508950E9479246894B1110C9430251D
:1048F00008950E94152588F09F5798F0B92F9927A1
:10490000B751B0F0E1F0660F771F881F991F1AF0BA
:10491000BA95C9F714C0B13091F00E942F25B1E0CB
:1049200008950C942F25672F782F8827B85F39F0CA
:10493000B93FCCF3869577956795B395D9F73EF453
:1049400090958095709561957F4F8F4F9F4F0895FB
:10495000E89409C097FB3EF4909580957095619519
:104960007F4F8F4F9F4F9923A9F0F92F96E9BB27CF
:104970009395F695879577956795B795F111F8CF4B
:10498000FAF4BB0F11F460FF1BC06F5F7F4F8F4FB6
:104990009F4F16C0882311F096E911C0772321F0AC
:1049A0009EE8872F762F05C0662371F096E8862F44
:1049B00070E060E02AF09A95660F771F881FDAF79B
:1049C000880F9695879597F9089597F99F6780E8DE
:1049D00070E060E008959FEF80EC089500240A9451
:1049E0001616170618060906089500240A941216CA
:1049F0001306140605060895092E0394000C11F4FD
:104A0000882352F0BB0F40F4BF2B11F460FF04C0A9
:104A10006F5F7F4F8F4F9F4F089557FD9058440F02
:104A2000551F59F05F3F71F04795880F97FB991F0D
:104A300061F09F3F79F087950895121613061406CA
:104A4000551FF2CF4695F1DF08C016161706180657
:104A5000991FF1CF86957105610508940895E89432
:104A6000BB2766277727CB0197F908950E94492530
:104A70000C94FC240E94EE2438F00E94F52420F0CF
:104A8000952311F00C94E5240C94EB2411240C9440
:104A900030250E940D2570F3959FC1F3950F50E0CE
:104AA000551F629FF001729FBB27F00DB11D639FE0
:104AB000AA27F00DB11DAA1F649F6627B00DA11D86
:104AC000661F829F2227B00DA11D621F739FB00D2C
:104AD000A11D621F839FA00D611D221F749F33279C
:104AE000A00D611D231F849F600D211D822F762F35
:104AF0006A2F11249F5750409AF0F1F088234AF012
:104B0000EE0FFF1FBB1F661F771F881F915050407D
:104B1000A9F79E3F510580F00C94E5240C943025B4
:104B20005F3FE4F3983ED4F3869577956795B79504
:104B3000F795E7959F5FC1F7FE2B880F911D96951E
:104B4000879597F90895991B79E004C0991F9617E6
:104B500008F0961B881F7A95C9F7809508950E94E2
:104B6000B725332312F48A1B9B0B0C94C825A29FF4
:104B7000B001B39FC001A39F700D811D1124911D31
:104B8000B29F700D811D1124911D08950E94B725BB
:104B9000B7FF0895821B930B0895EE0FFF1F05903A
:0A4BA000F491E02D0994F894FFCF82
:104BAA00030303031800000000310ECB0EBA0E7E79
:104BBA000E9E0E730E00000000880F5B0F530F3F0E
:104BCA000F300F2F0F00000000F707CB0E830B19D1
:104BDA000CD30BC40A3F0A820A1507C7071510B778
:104BEA000FCF084109B3091206A5054605B3145BA0
:024BFA001000A9
:00000001FF
