:100000000C9415030C943D030C943D030C943D0398
:100010000C943D030C943D030C943D030C943D0360
:100020000C943D030C943D030C943D030C943D0350
:100030000C943D030C94C2170C943D030C943D03A7
:100040000C94A60B0C943D030C943D030C943D03BF
:100050000C943D030C94CC170C943D030C943D037D
:100060000C943D030C943D03EF03038002CF030087
:10007000C130ED0464031281E803850078CB0539B3
:100080002C003402F70120EA020000C00123C10164
:1000900010C5023E28C701863601483701003A01E3
:1000A00055B1020018B603088227F20100260101AB
:1000B000E00F0F312B0C0E084EF1370710030E091D
:1000C00000E10F000E1403110731C148080F0C3175
:1000D000360F118029800000000000240027002A2C
:1000E0000000000000250028002B00040404040484
:1000F00004040402020202020203030303030301D5
:1001000002040810204080010204081020010204AB
:100110000810200000000700020100000304060090
:100120000000000000000000000000003E5B4F5B8C
:100130003E3E6B4F6B3E1C3E7C3E1C183C7E3C188A
:100140001C577D571C1C5E7F5E1C00183C1800FF6E
:10015000E7C3E7FF0018241800FFE7DBE7FF30489C
:100160003A060E2629792926407F050507407F0596
:10017000253F5A3CE73C5A7F3E1C1C08081C1C3E8D
:100180007F14227F22145F5F005F5F06097F017F7B
:10019000006689956A606060606094A2FFA294081E
:1001A000047E040810207E201008082A1C08081C61
:1001B0002A08081E101010100C1E0C1E0C30383EA1
:1001C0003830060E3E0E06000000000000005F0002
:1001D000000007000700147F147F14242A7F2A12CE
:1001E00023130864623649562050000807030000B4
:1001F0001C2241000041221C002A1C7F1C2A0808E6
:100200003E080800807030000808080808000060F8
:10021000600020100804023E5149453E00427F40E4
:100220000072494949462141494D331814127F1043
:1002300027454545393C4A4949314121110907368D
:1002400049494936464949291E000014000000402A
:100250003400000008142241141414141400412224
:10026000140802015909063E415D594E7C121112D3
:100270007C7F494949363E414141227F4141413ECF
:100280007F494949417F090909013E414151737F35
:100290000808087F00417F41002040413F017F085E
:1002A0001422417F404040407F021C027F7F0408AF
:1002B000107F3E4141413E7F090909063E415121DF
:1002C0005E7F09192946264949493203017F010306
:1002D0003F4040403F1F2040201F3F4038403F6389
:1002E0001408146303047804036159494D43007FE3
:1002F0004141410204081020004141417F040201B4
:100300000204404040404000030708002054547855
:10031000407F284444383844444428384444287FA3
:10032000385454541800087E090218A4A49C787FFD
:100330000804047800447D40002040403D007F10C8
:1003400028440000417F40007C047804787C080445
:1003500004783844444438FC1824241818242418F9
:10036000FC7C08040408485454542404043F4424E6
:100370003C4040207C1C2040201C3C4030403C4401
:10038000281028444C9090907C4464544C440008BD
:1003900036410000007700000041360800020102EB
:1003A00004023C2623263C1EA1A161123A404020B3
:1003B0007A3854545559215555794122545478422C
:1003C000215554784020545579400C1E52721239F0
:1003D00055555559395454545939555454580000A9
:1003E000457C410002457D420001457C407D121163
:1003F000127DF0282528F07C545545002054547C6B
:10040000547C0A097F4932494949323A4444443AC2
:10041000324A4848303A4141217A3A4240207800F5
:100420009DA0A07D3D4242423D3D4040403D3C2498
:10043000FF2424487E4943662B2FFC2F2BFF0929DC
:10044000F620C0887E090320545479410000447D81
:10045000413048484A32384040227A007A0A0A72CB
:100460007D0D19317D2629292F2826292929263075
:10047000484D4020380808080808080808382F1098
:10048000C8ACBA2F102834FA00007B000008142AE8
:10049000142222142A14085500550055AA55AA55AD
:1004A000AAFF55FF55FF000000FF00101010FF00CD
:1004B000141414FF001010FF00FF1010F010F014BF
:1004C0001414FC001414F700FF0000FF00FF1414C4
:1004D000F404FC141417101F10101F101F14141410
:1004E0001F00101010F0000000001F101010101F4F
:1004F00010101010F010000000FF1010101010105D
:10050000101010FF10000000FF140000FF00FF009B
:10051000001F10170000FC04F41414171017141413
:10052000F404F40000FF00F714141414141414F766
:1005300000F7141414171410101F101F141414F4BF
:10054000141010F010F000001F101F0000001F1406
:10055000000000FC140000F010F01010FF10FF1459
:100560001414FF141010101F00000000F010FFFF03
:10057000FFFFFFF0F0F0F0F0FFFFFF0000000000D1
:10058000FFFF0F0F0F0F0F3844443844FC4A4A4A0C
:10059000347E02020606027E027E026355494163F2
:1005A0003844443C04407E201E2006027E0202990C
:1005B000A5E7A5991C2A492A1C4C7201724C304AA5
:1005C0004D4D303048784830BC625A463D3E49492E
:1005D00049007E0101017E2A2A2A2A2A44445F44D6
:1005E0004440514A444040444A51400000FF010306
:1005F000E080FF000008086B6B08361236243606D0
:100600000F090F06000018180000001010003040FD
:10061000FF0101001F01011E00191D1712003C3CC3
:100620003C3C000000000000E41711241FBECFEF87
:10063000D8E0DEBFCDBF11E0A0E0B1E0E4ECFBE329
:1006400002C005900D92AE32B107D9F721E0AEE2BB
:10065000B1E001C01D92AD37B207E1F713E0C5E18B
:10066000D3E004C02197FE010E94DA1DC431D107F6
:10067000C9F70E9485180C94471C0C94000008953B
:10068000FC016370668B848195812681378161309E
:1006900039F0633029F09187808733872287089566
:1006A000318720879387828708956F927F928F92F8
:1006B0009F92AF92BF92CF92DF92EF92FF920F93F1
:1006C0001F93CF93DF93EC014B015A01690138016D
:1006D000E881F9810680F781E02D0995E881F981AB
:1006E0000684F785E02D87019601A501B401CE01AE
:1006F0000995A501460D571D41505109E881F98121
:100700000684F785E02D9601B401CE010995E881B4
:10071000F9810484F585E02D9301A501B401CE0192
:100720000995C80CD91CB60161507109E881F9819D
:100730000484F585E02D9301A501CE010995E8819A
:10074000F9810288F389E02DCE01DF91CF911F91CD
:100750000F91FF90EF90DF90CF90BF90AF909F9060
:100760008F907F906F9009948F929F92AF92BF92DB
:10077000CF92DF92EF92FF920F931F93CF93DF936D
:100780004C016B015A01E901DC01ED91FC9162170A
:10079000730781F40417150724F48B2D5801042FD7
:1007A000182F0A191B0998012F5F3F4F008CF18DFC
:1007B000E02D12C04017510709F52617370724F41A
:1007C0008D2D6901C62FD82F9E012C193D092F5F51
:1007D0003F4F028CF38DE02D8701A501B601C401C6
:1007E0000995DF91CF911F910F91FF90EF90DF90CE
:1007F000CF90BF90AF909F908F9008950680F78123
:10080000E02D0995D401ED91FC910088F189E02D4E
:100810009E01A501B601C4010995D401ED91FC9199
:100820000288F389E02DC401DF91CF911F910F91D0
:10083000FF90EF90DF90CF90BF90AF909F908F9000
:100840000994EF92FF920F931F93DC011A960D917A
:100850001C911B9718962D913C911997ED91FC9145
:10086000048CF58DE02D7B0140E050E060E070E00D
:1008700009951F910F91FF90EF9008954F925F920D
:100880006F927F928F929F92AF92BF92CF92DF92A0
:10089000EF92FF920F931F93CF93DF936C012B0185
:1008A0005A0139014801DC01ED91FC910680F78184
:1008B000E02D0995E201640C751CD601ED91FC91C7
:1008C000C615D7055CF40484F585E02D87019401F5
:1008D000A501BE01C60109952196EFCF0288F389D3
:1008E000E02DC601DF91CF911F910F91FF90EF9006
:1008F000DF90CF90BF90AF909F908F907F906F9040
:100900005F904F9009948F929F92AF92BF92CF9237
:10091000DF92EF92FF920F931F93CF93DF93EC013F
:100920005B014A016901E881F9810680F781E02DC8
:10093000099595012C0D3D1D21503109E881F98162
:100940000088F189E02D78018401A401B501CE0170
:100950000995E881F9810288F389E02DCE01DF91C4
:10096000CF911F910F91FF90EF90DF90CF90BF90AC
:10097000AF909F908F9009948F929F92AF92BF9269
:10098000CF92DF92EF92FF920F931F93CF93DF935B
:10099000EC015B014A0169017801E881F981068077
:1009A000F781E02D0995C80CD91C86010150110969
:1009B000E881F9810088F189E02D9501A401B50154
:1009C000CE010995E881F9810288F389E02DCE01F5
:1009D000DF91CF911F910F91FF90EF90DF90CF901B
:1009E000BF90AF909F908F9009940895EF92FF92DF
:1009F0000F931F93DC01ED91FC91048CF58DE02D9C
:100A000009951F910F91FF90EF9008950F931F93F9
:100A1000DC01ED91FC91028CF38DE02D09951F9185
:100A20000F9108950F931F93DC01ED91FC91008CC1
:100A3000F18DE02D09951F910F910895DC01ED9145
:100A4000FC910480F581E02D09942F923F924F9202
:100A50005F926F927F928F929F92AF92BF92CF924E
:100A6000DF92EF92FF920F931F93CF93DF9300D00B
:100A700000D000D0CDB7DEB72C017E836D836A0134
:100A80005901C801FC82EB824801841A950A97FE3D
:100A900003C091948194910835012D813E81621AA1
:100AA000730A77FE03C07194619471086814790425
:100AB0005CF43A2D2B2D5C01832F922F3D812E81EA
:100AC000DE82CD82C32ED22EAD81BE81AA16BB0698
:100AD0005CF43C2D2D2D6C01832F922F3D812E81B6
:100AE000BE82AD82A32EB22E85012D813E81021BD6
:100AF000130B1C012C183D0837FE03C031942194C0
:100B00003108780117FF03C03FEFE31AF30AF594A9
:100B1000E794C816D9062CF08FEF9FEF9A8389834C
:100B200004C0A1E0B0E0BA83A9832D813E81A21662
:100B3000B30624F1D201ED91FC910084F185E02D02
:100B40002B813C816814790424F44D815E81B601C7
:100B500003C0A6016D817E81C2010995E218F308E8
:100B6000F7FE06C029813A81C20ED31EE00EF11EA7
:100B70008D819E8101969E838D83D7CF26960FB659
:100B8000F894DEBF0FBECDBFDF91CF911F910F91C3
:100B9000FF90EF90DF90CF90BF90AF909F908F909D
:100BA0007F906F905F904F903F902F900895CF93DC
:100BB000DF931F92CDB7DEB7FC016370668B6230A6
:100BC00041F0633079F0613011F088E403C088E2CD
:100BD0000AC088E8898380EF90E09187808780E46D
:100BE00091E008C088EE898380E491E09187808756
:100BF00080EF90E09387828721E0AE014F5F5F4FE7
:100C000066E3CF010E9469100F90DF91CF910895A4
:100C10008F929F92AF92CF92EF92FF920F931F937A
:100C2000CF93DF93EC01262F898D9A8D009709F0E1
:100C300042C06A3059F41D861C862D898E859F8599
:100C400038E0239F800D911D112443C06D3009F4BD
:100C5000AAC08F898823C9F03C898C859D8546E090
:100C6000349F800D911D11244885598548175907D7
:100C700064F41D861C863D898E859F8548E0349FDF
:100C8000800D911D11249F878E87EA88FB88088933
:100C900019894E855F856C857D85AD88CC88CE01B0
:100CA0000E9405152C898C859D8536E0239F800D3B
:100CB000911D11243EC06A3079F41D861C862D8951
:100CC000FC013696E4918E859F852E9F800D911DA7
:100CD00011249F878E8767C06D3009F464C0FC01C2
:100CE00034963491631708F45EC03196E491E617A8
:100CF00008F459C0462F431B342FFC0132968590CF
:100D0000949047E0349F800C911C1124F40132969A
:100D100034913196E491332311F0E1110DC0F401C7
:100D20003496E4912C898C859D85E29F800D911DE0
:100D300011249D878C8737C0F401359644915F89D3
:100D4000552319F15C89E32FF0E0E40FF11D47FD15
:100D5000FA955E9FB0015F9F700D11244C855D85F3
:100D6000460F571F688579856417750774F41D86CB
:100D70001C863D89FC013696E4918E859F853E9FB9
:100D8000800D911D11249F878E87EA88FB88088932
:100D900019894E855F856C857D85AD88CC88CE01AF
:100DA0000E940515BCCF81E090E0DF91CF911F91AB
:100DB0000F91FF90EF90CF90AF909F908F900895FC
:100DC0008F929F92AF92BF92CF92DF92EF92FF925B
:100DD0000F931F93CF93DF935C014B016A01E901ED
:100DE00077FD53C0DC0118968D919C911997681777
:100DF00079070CF04AC0209709F447C037FF07C0B5
:100E0000C9010196C80ED91ED195C195D109F50128
:100E100082859385C816D906C4F5A6014C0F5D1FBF
:100E20009A012150310937FD30C0D7FE03C0EA01D5
:100E3000C12CD12C281739071CF0EC01CC19DD0985
:100E4000D501ED91FC910680F781E02DC501099552
:100E500078018E0121E030E0A601B401C5010E94B5
:100E6000B110D501ED91FC910288F389E02DC50107
:100E7000DF91CF911F910F91FF90EF90DF90CF9076
:100E8000BF90AF909F908F900994DF91CF911F9169
:100E90000F91FF90EF90DF90CF90BF90AF909F9019
:100EA0008F9008958F929F92AF92BF92CF92DF92D0
:100EB000EF92FF920F931F93CF93DF935C016B012F
:100EC0004A01E90157FD53C0DC011A968D919C91AE
:100ED0001B97481759070CF04AC0209709F447C0E0
:100EE00037FF07C0C9010196C80ED91ED195C1951B
:100EF000D109F50180859185C816D906C4F5A601EA
:100F00004C0F5D1F9A012150310937FD30C0D7FECB
:100F100003C0EA01C12CD12C281739071CF0EC01C1
:100F2000CC19DD09D501ED91FC910680F781E02D0A
:100F3000C5010995780101E010E09E01A401B60108
:100F4000C5010E94B110D501ED91FC910288F38991
:100F5000E02DC501DF91CF911F910F91FF90EF9090
:100F6000DF90CF90BF90AF909F908F900994DF91CA
:100F7000CF911F910F91FF90EF90DF90CF90BF9096
:100F8000AF909F908F900895EF92FF920F931F93D1
:100F9000CF93DF9377FD34C0DC011896ED91FC917F
:100FA00019976E177F0764F52115310549F137FF51
:100FB00007C0F90131964E0F5F1F31952195310918
:100FC000DC011A96ED91FC911B974E175F07C4F454
:100FD000EA01C20FD31FDE011197B7FD11C057FF01
:100FE00003C09E0140E050E0AE17BF071CF09F0118
:100FF000241B350B7801890121E030E00E94B110FB
:10100000DF91CF911F910F91FF90EF900895EF9294
:10101000FF920F931F93CF93DF9357FD33C0DC01F3
:101020001A96ED91FC911B974E175F075CF5211501
:10103000310541F137FF07C0F90131966E0F7F1F6F
:10104000319521953109DC011896ED91FC911997A4
:101050006E177F07BCF4EB01C20FD31FDE0111979F
:10106000B7FD10C077FF03C09E0160E070E0AE17CF
:10107000BF071CF09F01261B370B780101E010E031
:101080000E94B110DF91CF911F910F91FF90EF90CF
:101090000895EF92FF920F931F932115310529F0C8
:1010A0000115110511F00E945F111F910F91FF9022
:1010B000EF900895FC01A5A1B6A19C9182A589237A
:1010C0008C93A5A1B6A19C9181A5892B8C930895A1
:1010D0000F931F93CF93DF93EC018B018DA98111A7
:1010E00009C01EBD0DB407FEFDCF0EBD0DB407FE39
:1010F000FDCF2FC08130E9F480E1E9A1FAA1208180
:1011000017FF03C09DA1922B02C09EA19223908342
:10111000EBA1FCA120819FA1922B9083EBA1FCA1CC
:10112000208198A592239083000F111F815029F7E9
:1011300010C0EF8DF8A11083CE010E945A08EF8DE8
:10114000F8A10083CE01DF91CF911F910F910C94F4
:101150005A08DF91CF911F910F910895AF92BF92DE
:10116000CF92DF92EF92FF920F931F93CF93DF9373
:10117000EC015B016A01215031097901E60EF71E8D
:1011800001501109040F151F6AE20E94F014B50105
:10119000CE010E946808B701CE010E9468086BE288
:1011A000CE010E94F014B601CE010E946808B80179
:1011B000CE010E9468086CE2CE01DF91CF911F91B1
:1011C0000F91FF90EF90DF90CF90BF90AF900C9475
:1011D000F014AF92BF92CF92DF92EF92FF920F93F3
:1011E0001F93CF93DF93EC0177FD38C088859985F5
:1011F000681779079CF557FD31C08A859B8548178C
:10120000590764F569017A015B01E881F98106807B
:10121000F781E02DCE010995E881F98106A0F7A1BB
:10122000E02D01E010E021E030E0A701B501CE01A2
:101230000995B601CE010E946808E881F98102880B
:10124000F389E02DCE01DF91CF911F910F91FF9097
:10125000EF90DF90CF90BF90AF900994DF91CF9146
:101260001F910F91FF90EF90DF90CF90BF90AF90C4
:101270000895FC0185A981110FC09CB59C7F9CBD80
:101280009DB591609DBD9CB59F7D9CBD2CB5237F78
:1012900095A1822F892B8CBD0895BF92CF92DF92AA
:1012A000EF92FF920F931F93CF93DF93EC016A01AC
:1012B0007B01452B462B472B31F4C12C22E1D22E4A
:1012C0002AE7E22EF12C8FA987FD07C061E00E947A
:1012D000861761E08FA90E94391761E088AD0E94EE
:1012E000861761E088AD0E9439178DA981111DC054
:1012F000C9A2DAA2EBA2FCA21DA21EA21FA218A6DE
:1013000061E08AE00E94391761E08AE00E94861756
:101310008CB580618CBD8CB580648CBD61E08DE046
:101320000E94861761E08BE016C08130B9F461E05D
:101330008AA50E94861760E08AA50E94391761E09D
:101340008CA50E94861760E08CA50E9439178BA59A
:1013500087FD36C060E00E94861732C00BEE10E0B9
:10136000F12CF8018491E82FF0E0EE0FFF1FEF5110
:10137000FF4F859194912F8D38A12817390741F49B
:1013800061E08F2D0E94861760E08F2D0E94391733
:10139000F3940F5F1F4FF4E1FF12E3CF61E08EA5DE
:1013A0000E94861761E08EA50E9439178FA587FDE0
:1013B00007C061E00E94861761E08FA50E9439177F
:1013C0008EA987FD21C061E00E94861761E08EA989
:1013D0000E94391764E670E080E090E00E94800B84
:1013E00060E08EA90E94391764E670E080E090E02A
:1013F0000E94800B61E08EA90E94391768EC70E0B2
:1014000080E090E00E94800B8EA987FF0DC020E055
:1014100040E050E061E0CE010E94691066E970E0B2
:1014200080E090E00E94800B88E6E82E80E0F82EB5
:10143000C7010196F7011491112309F448C0FC017A
:10144000B4900B2D0F77CE010E9439098FA987FD2B
:1014500006C0EB8DFC8D90818AA989238083ED8D58
:10146000FE8D90818CA989238083612FCE010E94FB
:101470003C10ED8DFE8D90818BA9892B8083C12C32
:10148000D12C10E0C016D10664F4F6013296EE0DB0
:10149000FF1D6491CE010E943C10FFEFCF1ADF0ABE
:1014A000F1CF8FA987FD06C0EB8DFC8D908189A9B6
:1014B000892B80830E5F1F4FE00EF11EB7FEB8CF61
:1014C00066E970E080E090E00E94800BB1CF80EF91
:1014D00090E09987888780E491E09B878A87DF91F5
:1014E000CF911F910F91FF90EF90DF90CF90BF9021
:1014F0000895FC0187A987FD06C0A38DB48D9C913A
:1015000081A9892B8C9308950895CF92DF92EF9251
:10151000FF920F931F93CF93DF936C01EB017B013D
:10152000E40EF51E00E010E0CE15DF0561F06991D4
:10153000D601ED91FC910190F081E02DC601099555
:10154000080F191FF1CFC801DF91CF911F910F91A3
:10155000FF90EF90DF90CF9008953FB7F89480917F
:10156000340190913501A0913601B091370126B533
:10157000A89B05C02F3F19F00196A11DB11D3FBFCB
:10158000BA2FA92F982F8827820F911DA11DB11D59
:10159000BC01CD0142E0660F771F881F991F4A9555
:1015A000D1F708958F929F92AF92BF92CF92DF9220
:1015B000EF92FF920F931F93CF93DF934701211573
:1015C000310509F44DC00115110509F449C037FF73
:1015D00007C0F90131966E0F7F1F319521953109B2
:1015E000DC011896AD90BC9019976A157B05C4F57F
:1015F00017FF07C0F80131964E0F5F1F1195019537
:101600001109DC011A96ED91FC911B974E175F07AB
:101610003CF56B01C20ED31EE6012197D7FD20C019
:101620007A01E00EF11ED7011197B7FD19C077FFBF
:1016300003C0960160E070E057FF03C0870140E0FF
:1016400050E0CA15DB051CF09501261B370BAE17C1
:10165000BF071CF08F01041B150B74010E94B11011
:10166000DF91CF911F910F91FF90EF90DF90CF907E
:10167000BF90AF909F908F900895EF92FF920F933D
:101680001F93CF93DF93EC0177FD22C08885998566
:1016900068177907ECF457FD1BC08A859B854817AE
:1016A0005907B4F47901E881F98106A0F7A1E02D8A
:1016B00001E010E021E030E0CE010995B701CE0154
:1016C000DF91CF911F910F91FF90EF900C946808DC
:1016D000DF91CF911F910F91FF90EF900895CF93DD
:1016E000DF93EC010E9439098FA987FD06C0EB8DBD
:1016F000FC8D90818AA989238083DF91CF91089501
:10170000CF92DF92EF92FF92CF93DF936B017C0138
:101710000E94AD0AEB01C114D104E104F10479F097
:101720000E94AD0A6C1B7D0B683E7340A0F381E004
:10173000C81AD108E108F108C851DC4FECCFDF919D
:10174000CF91FF90EF90DF90CF9008951F920F926E
:101750000FB60F9211242F933F938F939F93AF93C4
:10176000BF938091300190913101A0913201B091ED
:10177000330130912F0123E0230F2D3720F4019600
:10178000A11DB11D05C026E8230F0296A11DB11DA4
:1017900020932F018093300190933101A093320167
:1017A000B09333018091340190913501A0913601BD
:1017B000B09137010196A11DB11D80933401909322
:1017C0003501A0933601B0933701BF91AF919F913E
:1017D0008F913F912F910F900FBE0F901F901895F2
:1017E0004F925F926F927F928F929F92AF92BF9231
:1017F000CF92DF92EF92FF920F931F93CF93DF93DD
:1018000098E1699FE001112498E1899F500111241A
:10181000650187E3C80ED11CAE01415F5F4F80EACE
:10182000E82E88E2F82E0FE010E02FE030E0B6015D
:1018300088E391E00E944908BE01665F7F4F072E52
:10184000000C880B990B0E94EF1C27E636E646EE4B
:1018500050E40E944B1C2B013C01B5016E5C7F4F94
:10186000072E000C880B990B0E94EF1C27E636E62A
:1018700046EE50E40E944B1C20E030E040EA50E489
:101880000E944B1C0E94B71C4B015C0120E030E021
:1018900040E051E4C301B2010E944B1C0E94B71CFE
:1018A00020EA38E247E050E0C4010E94E41120E061
:1018B00030E040E050E4C301B2010E944B1C0E94A2
:1018C000B71C20EA38E247E050E0C4010E94E4116E
:1018D000AE014F5E5F4FE12CF12C03E010E02FE0F2
:1018E00030E0B60188E391E00E944908AE01475E0E
:1018F0005F4F2FE030E0B60188E391E00E94490895
:10190000DF91CF911F910F91FF90EF90DF90CF90DB
:10191000BF90AF909F908F907F906F905F904F900F
:1019200008952F923F924F925F926F927F928F9283
:101930009F92AF92BF92CF92DF92EF92FF920F935E
:101940001F93CF93DF93CDB7DEB76A970FB6F894A6
:10195000DEBF0FBECDBF282E362E262F30E03A8BAD
:10196000298B38E1639F60011124C6010F969C8B7F
:101970008B8B222D30E0388B2F8728E1229EC001EF
:10198000112498878F83C4969E878D87BC01990FF9
:10199000880B990B0E94EF1C20E030E048E151E4F5
:1019A0000E944B1C0E94B71C6D8B7E8B8F8B988F77
:1019B000A9E2EA2EACEDFA2E07E010E022E030E0DA
:1019C0004B895C896D897E8988E391E00E94490892
:1019D000B601665F7F4F072E000C880B990B0E94A3
:1019E000EF1C27E636E646EE50E40E944B1C20E052
:1019F00030E040EE50E40E944B1C0E94B71C6B8309
:101A00007C838D839E836F8178856E5C7F4F072EEC
:101A1000000C880B990B0E94EF1C27E636E646EE79
:101A200050E40E944B1C20E030E040EA50E40E9469
:101A30004B1C0E94B71C69877A878B879C8720E0A4
:101A400030E045E050E06B817C8189859A850E9479
:101A5000E411360135E1630E711C4F8058848CE32C
:101A6000480E511C2FEF3FEFA301B20188E391E034
:101A70000E94E908460196E1890E911CAF80B88466
:101A80002BE3A20EB11C2FEF3FEFA401B50188E3B9
:101A900091E00E94E908C6010E969A8389832F81FE
:101AA0003885225C3F4F3A8F298FB1EEEB2EB9EF8C
:101AB000FB2E03E010E023E030E0AC01698D7A8D6D
:101AC00088E391E00E9449083FEF83ED90E33150B5
:101AD00080409040E1F700C0000020E038EF45E092
:101AE00050E06B817C8189859A850E94E4112FEFFB
:101AF0003FEFA301B20188E391E00E94E9082FEFD4
:101B00003FEFA401B50188E391E00E94E90823E0DA
:101B100030E049815A81698D7A8D88E391E00E9495
:101B200049082FEF33ED80E3215030408040E1F74A
:101B300000C0000020E030E045E050E06B817C8197
:101B400089859A850E94E4112FEF3FEFA301B2012E
:101B500088E391E00E94E9082FEF3FEFA401B5016F
:101B600088E391E00E94E90823E030E049815A814E
:101B7000698D7A8D88E391E00E9449089FEF2CEBF4
:101B80003FE1915020403040E1F700C0000020E0EC
:101B900038EF45E050E06B817C8189859A850E9411
:101BA000E4112FEF3FEFA301B20188E391E00E941F
:101BB000E9082FEF3FEFA401B50188E391E00E940F
:101BC000E90823E030E049815A81698D7A8D88E304
:101BD00091E00E9449088FEF9CEB2FE181509040EB
:101BE0002040E1F700C0000020E030E045E050E098
:101BF0006B817C8189859A850E94E4112FEF3FEFEC
:101C0000A301B20188E391E00E94E9082FEF3FEFC2
:101C1000A401B50188E391E00E94E90823E030E0E7
:101C200049815A81698D7A8D88E391E00E94490843
:101C30003FEF86E191E1315080409040E1F700C0F4
:101C4000000020E038EF45E050E06B817C81898521
:101C50009A850E94E4112FEF3FEFA301B20188E3C0
:101C600091E00E94E9082FEF3FEFA401B50188E35E
:101C700091E00E94E90823E030E049815A81698DB2
:101C80007A8D88E391E00E9449082FEF36E181E1E7
:101C9000215030408040E1F700C0000020E030E0FB
:101CA00045E050E06B817C8189859A850E94E41132
:101CB0002FEF3FEFA301B20188E391E00E94E90812
:101CC0002FEF3FEFA401B50188E391E00E94E908FE
:101CD00023E030E049815A81698D7A8D88E391E073
:101CE0000E9449089FEF26E131E1915020403040A9
:101CF000E1F700C0000020E038EF45E050E06B81E4
:101D00007C8189859A850E94E4112FEF3FEFA30122
:101D1000B20188E391E00E94E9082FEF3FEFA401B0
:101D2000B50188E391E00E94E90823E030E04981B1
:101D30005A81698D7A8D88E391E00E94490810E804
:101D4000E12E19E5F12E07E010E022E030E04B89AA
:101D50005C896D897E8988E391E00E94490820E8CA
:101D600039E545E050E06B817C8189859A850E9448
:101D7000E41120E839E5A301B20188E391E00E9473
:101D8000E90820E839E5A401B50188E391E00E9463
:101D9000E90803E010E023E030E049815A81698DD1
:101DA0007A8D88E391E00E94490888E08215B0F0BE
:101DB0008315A0F020FE02C030FC10C0E12CF8EF2B
:101DC000FF2E05E110E025E130E0A601445F5F4F02
:101DD0006D857E8588E391E00E9449089FEF920D12
:101DE00099839930D8F428E0231598F131E023162F
:101DF00011F030FC86C0E12CE8EFFE2E05E110E08A
:101E000025E130E0A601445F5F4F6F817885645E15
:101E10007F4F88E391E00E94490873C08F859889BD
:101E20000897BCF498E09315A0F030FC12C0E12CA8
:101E300078EFF72E05E110E025E130E0A601445FE0
:101E40005F4F6F817885645B7F4F88E391E00E94EC
:101E5000490828E0221508F4C7C08FEF830D8930A8
:101E6000A8F420FE03C031E0331210C0E12C68EF6B
:101E7000F62E05E110E025E130E0A6014C505109B5
:101E80006D857E8588E391E00E94490829893A8919
:101E9000283031050CF0C8C020FCC6C0E12C58EF3A
:101EA000F52E05E110E025E130E0A6014C5D5F4F25
:101EB0006D857E8588E391E00E9449088FEF9DE261
:101EC00022E2815090402040E1F700C0000038E05D
:101ED000331508F49AC020FE02C030FC19C040E857
:101EE000E42E49E5F42E05E110E025E130E0A601FD
:101EF000445F5F4F6D857E8588E391E00E944908CD
:101F000007C02F853889283031050CF48ECFA1CF3A
:101F10003981393008F090C091E0291611F030FC79
:101F200013C030E8E32E39E5F32E05E110E025E19A
:101F300030E0A601445F5F4F6F817885645E7F4F1C
:101F400088E391E00E9449088F8598890897ACF44E
:101F500030FC13C06F817885645B7F4F20E8E22EF0
:101F600029E5F22E05E110E025E130E0A601445F0D
:101F70005F4F88E391E00E94490888E0821508F4E9
:101F800062C08FEF830D8930B0F420FE03C091E072
:101F9000391259C090E8E92E99E5F92E05E110E0D3
:101FA00025E130E0A6014C5051096D857E8588E31E
:101FB00091E00E94490889899A8908970CF043C0EA
:101FC00020FC41C0A6014C5D5F4F80E8E82E89E50A
:101FD000F82E05E110E025E130E06D857E8588E38F
:101FE00091E00E9449082FC09FEF2DE232E291500C
:101FF00020403040E1F700C000008981893048F47A
:1020000088E0831508F4B9CF87CF8981893008F437
:10201000B4CF2F853889283031050CF0AECF38E0A9
:10202000331508F4AACF94CF9FEF2DE232E29150FE
:1020300020403040E1F749CF2F85388928303105DD
:102040000CF09BCF85CF6A960FB6F894DEBF0FBE1B
:10205000CDBFDF91CF911F910F91FF90EF90DF9057
:10206000CF90BF90AF909F908F907F906F905F9038
:102070004F903F902F900895FC0185A9811105C0D4
:102080006EBD0DB407FEFDCF08958130E1F488E008
:10209000A1A1B2A12C9167FF03C095A1922B02C010
:1020A00096A192239C93A3A1B4A12C9197A1922BCA
:1020B0009C93660FA3A1B4A12C9190A592239C930D
:1020C000815031F70895A78DB0A16C93CF010C9486
:1020D0005A08CF92DF92EF92FF920F931F93CF9304
:1020E000DF93EC01162F6A01E22E0E9439098FA9B5
:1020F00087FD06C0EB8DFC8D90818AA989238083A2
:10210000ED8DFE8D90818CA989238083612FCE0176
:102110000E943C10ED8DFE8D90818BA9892B8083D0
:102120008601F12CC8018C199D098E159F053CF480
:10213000F80161918F01CE010E943C10F3CF8FA96D
:1021400087FD06C0EB8DFC8D908189A9892B80834A
:10215000DF91CF911F910F91FF90EF90DF90CF9083
:1021600008958F929F92AF92BF92CF92DF92EF929B
:10217000FF920F931F93CF93DF93EC014901BE2C85
:10218000AF2CE881F98106A0F7A1E02D0995940113
:10219000D8010E949A1D611571058105910509F408
:1021A00081C02DA921110FC06150710981099109C8
:1021B00008F478C0AEBC0DB407FEFDCFBEBC0DB4B4
:1021C00007FEFDCFF1CF213009F03FC0615071090A
:1021D0008109910908F466C03A2D28E0E9A1FAA125
:1021E000508137FF03C04DA1452B02C04EA14523AE
:1021F0004083EBA1FCA150814FA1452B4083EBA173
:10220000FCA1508148A545234083330F215031F76D
:102210003B2D28E0E9A1FAA1508137FF03C04DA171
:10222000452B02C04EA145234083EBA1FCA1508168
:102230004FA1452B4083EBA1FCA1508148A545232C
:102240004083330F215031F7C1CFFE1017C0EF8DFF
:10225000F8A1F0826B017C01CC0CDD1CEE1CFF1C94
:10226000C114D104E104F104E9F0CE010E945A083E
:1022700081E0C81AD108E108F108F2CF6B017C01B6
:10228000EF8DF8A1A082CE010E945A08EF8DF8A12F
:10229000B082CE010E945A0821E0C21AD108E1089A
:1022A000F10871F7DF91CF911F910F91FF90EF909F
:1022B000DF90CF90BF90AF909F908F9008958F92B6
:1022C0009F92AF92BF92CF92DF92EF92FF920F93C5
:1022D0001F93CF93DF934C01EB016A01590137FF44
:1022E00007C0C9010196C80FD91FB194A194B108C4
:1022F000F401A085B185CA17DB070CF058C017FFA1
:1023000007C0C8010196C80ED91E11950195110983
:10231000F40182859385C816D9060CF048C0FE01E9
:10232000EA0DFB1DAF014150510957FD40C0B601F8
:10233000600F711F9B012150310937FD38C0D7FF55
:1023400003C05F01C0E0D0E0D7FE03C08B01C12C09
:10235000D12C4A175B071CF05D01AC1ABD0A281787
:1023600039071CF08C010C191D09D401ED91FC9169
:102370000680F781E02DC40109959501A601BE01F3
:10238000C4010E94B110D401ED91FC910288F3893F
:10239000E02DC401DF91CF911F910F91FF90EF903D
:1023A000DF90CF90BF90AF909F908F900994DF9176
:1023B000CF911F910F91FF90EF90DF90CF90BF9042
:1023C000AF909F908F9008952F923F924F925F927F
:1023D0006F927F928F929F92AF92BF92CF92DF9235
:1023E000EF92FF920F931F93CF93DF93CDB7DEB79A
:1023F0002A970FB6F894DEBF0FBECDBF5C01788779
:102400006F835A874987390188E391E00E946F0BF7
:1024100029853A85220F331F2F5F3F4F4F81588503
:1024200089859A85481B590B8301B50188E391E0A2
:102430000E94C40781E090E02C0129853A85421A68
:10244000530AC9019195819591099C01220F331F6F
:102450003E832D832F803884E12CF12C81E090E0A5
:102460009C838B8329853A85E216F3060CF064C0C1
:1024700057FC0CC0690131E0C31AD1088D819E81DF
:1024800002969E838D83480E591E02C0C984DA8449
:102490009FEFE91AF90A2B813C812E5F3F4F3C8365
:1024A0002B83420E531ECE14DF0404F14601880C28
:1024B000991C3FEF831A930A830194018F819885B9
:1024C0008C199D099A838983AC01B7016A0D7B1D24
:1024D00088E391E00E94C407940149815A81B501C3
:1024E0006E197F0988E391E00E94C40729853A8527
:1024F0002C153D0531F491E0291A3108DA86C98698
:10250000B1CFB9016A0D7B1D83018B809C8032E0C5
:10251000831A91089401A10188E391E00E94C40705
:10252000B50189859A85681B790B9401A10188E31F
:1025300091E00E94C407DFCF88E391E02A960FB6AE
:10254000F894DEBF0FBECDBFDF91CF911F910F91E9
:10255000FF90EF90DF90CF90BF90AF909F908F90C3
:102560007F906F905F904F903F902F900C94790ADE
:102570002F923F924F925F926F927F928F929F9293
:10258000AF92BF92CF92DF92EF92FF920F931F9381
:10259000CF93DF93CDB7DEB7E4970FB6F894DEBFE5
:1025A0000FBECDBF9E838D837C876B8780E090E0DC
:1025B0000E94ED1C698F7A8F8B8F9C8FED80FE803F
:1025C00024E1E20EF11C24EA30E74DEF50E40E94D2
:1025D0004B1C0E94B71C2B013C015B01CD80DE80AF
:1025E0004B855C854E5E5F4F5A834983B60180E020
:1025F00090E00E94ED1C698B7A8B8B8B9C8B20E08A
:1026000030E040E251E40E944B1C0E94B71C7887E6
:102610006F83A981BA814A165B065CF0BC83AB83E9
:102620005A8249823E2D2F2D76016B013F832887E8
:1026300002C05C824B8288E391E00E946F0BAB8109
:10264000BC8129813A81A217B30751F5EC14FD042E
:1026500054F09C2D8D2DCE14DF0414F49E2D8F2D5F
:102660007601C92ED82E2F8138852E153F0534F0DE
:10267000C216D3060CF46901F886EF8296014F81E9
:102680005885241B350B2F5F3F4F00E018EF4B811F
:102690005C816F81788588E391E00E9407082AC1F8
:1026A00097012C193D09C2016B817C81861B970B18
:1026B000AF81B885AC19BD09BE8FAD8F49815A81F4
:1026C000461B570B5E874D876F8178856E197F0992
:1026D00078A36F8FA981BA81A419B509BE8BAD8B80
:1026E00049815A81A416B50631F0B20161507109D1
:1026F0007AA369A302C05AA249A22B803C80812CF4
:10270000912C54011F82188619861A864D8D5E8D74
:10271000052E000C660B770B4BA35CA36DA37EA369
:10272000AC01990F660B770B4FA358A769A77AA73F
:102730006D857E85072E000C880B990B6BA77CA7F7
:102740008DA79EA7C901330FAA0BBB0B8FA798AB10
:10275000A9ABBAABA9A1BAA1A215B3050CF44EC09E
:102760006F81788589859A852FA138A549A55AA5B5
:102770000E947B1DB601620F731F7CAB6BABC50162
:10278000B4012BA53CA54DA55EA50E947B1D2C0D7B
:102790003D1D8F819885A985BA854FA558A969A93E
:1027A0007AA9840F951FA61FB71F8F839887A987C3
:1027B000BA876BA17CA18DA19EA1860E971EA81E33
:1027C000B91E8BA99CA92817390734F49BA98CA999
:1027D0003CAB2BAB292F382FABA9BCA92A1B3B0B39
:1027E0002F5F3F4F00E018EFA101BD0188E391E0AA
:1027F0000E940708BFEF2B1A3B0AACCF2F8D38A1E0
:10280000032E000C440B550B2F83388749875A87BA
:10281000D101A419B5092F8D38A10E949A1D4B0131
:102820005C01D1014B815C81A41BB50B2D8D3E8DCC
:102830000E949A1D2B013C016D897E89072E000C98
:10284000880B990B6D8B7E8B8F8B988F8D859E85DA
:10285000092E000CAA0BBB0B8D879E87AF87B88B08
:10286000A981BA81A215B3050CF444C0C501B40115
:102870002D893E894F89588D0E947B1DB701620FBB
:10288000731F7C836B83C301B2012D853E854F8509
:1028900058890E947B1D2C0D3D1D8F819885A9852F
:1028A000BA85880E991EAA1EBB1E4BA15CA16DA104
:1028B0007EA1440E551E661E771E6B817C812617F5
:1028C000370734F49B818C813C832B83292F382F4D
:1028D0008B819C81281B390B2F5F3F4F00E018EF45
:1028E000A101BC0188E391E00E9407089FEF291A2B
:1028F000390AB6CF88E391E00E94790A2EEA37E4DC
:1029000041EA50E4698D7A8D8B8D9C8D0E944B1C21
:102910000E94B71C4B015C0120E030E040EA50E42B
:1029200069897A898B899C890E944B1C0E94B71CFB
:10293000DC01CB0120E038EF45E050E0B4010E941B
:10294000E41120E030E040E751E469897A898B891D
:102950009C890E944B1C0E94B71CDC01CB0120E02B
:1029600038EF45E050E0B4010E94E4114B855C85EE
:102970004E5F5F4F6D817E816D5F7F4FEE24EA94E5
:10298000FE2C01E010E021E030E088E391E00E94BD
:102990005F114B855C854D5F5F4F6D817E816E5F02
:1029A0007F4F21E030E088E391E00E945F11E496E0
:1029B0000FB6F894DEBF0FBECDBFDF91CF911F9150
:1029C0000F91FF90EF90DF90CF90BF90AF909F90CE
:1029D0008F907F906F905F904F903F902F900895D1
:1029E000CF93DF93EC01ED8DFE8D90818CA989232F
:1029F0008083CE010E943C10ED8DFE8D90818BA9CD
:102A0000892B8083DF91CF9108952F923F924F922F
:102A10005F926F927F928F929F92AF92BF92CF926E
:102A2000DF92EF92FF920F931F93CF93DF93CDB777
:102A3000DEB76B970FB6F894DEBF0FBECDBF9B8F8E
:102A40008A8F1B014A01D22E198708873701A98274
:102A5000DC0159962D913C915A972115310509F0C9
:102A6000FFC018968D919C911997681779070CF003
:102A7000E7C11A968D919C911B97481759070CF046
:102A8000DFC1EC2DF0E0FB83EA839B0146E0C49EAE
:102A9000200D311D11243D872C87121613060CF0D2
:102AA000CFC16A2D70E07B876A8783E0660F771F4E
:102AB0008A95E1F77F876E87CB01880D991D1816DF
:102AC00019060CF0BDC158968C91811104C08FEA93
:102AD0008D1508F4D394AA8DBB8DED91FC911197BF
:102AE0000680F781E02DCD010995B5E0DB9EC001A0
:102AF0001124EC2DF0E0F98BE88B91012B5F3F4F17
:102B00003B8B2A8B3D822C822101AC014219530957
:102B10005D8B4C8B7981672F70E07F8B6E8BC4014E
:102B20000896998F888FEC89FD89E40DF51DE95D84
:102B3000FE4FD49054019F828E82D0FE16C0AA8D83
:102B4000BB8DED91FC91B1E0CB1209C02981213000
:102B500031F40084F185E02D2885398519C002847F
:102B6000F385E02DE884F9841DC048855985461514
:102B7000570519F1AA8DBB8DED91FC91B1E0CB12F7
:102B80000DC02981213051F40084F185E02D93019D
:102B9000A501B2018A8D9B8D09950FC00284F38532
:102BA000E02D73010A851B852A813B814E815F815F
:102BB0006C817D818A8D9B8D0995D6943FEFA31AF8
:102BC000B30A4E815F816E897F89460F571F5F83ED
:102BD0004E83888D998DA816B90609F0AECF9FEF68
:102BE000491A590AAC81BD81E889F989AE0FBF1F26
:102BF000BD83AC832A893B894216530609F093CFE3
:102C0000488559854615570509F4F8C0AA8DBB8D2E
:102C1000ED91FC91B1E0CB1211C02981213071F40A
:102C2000B1016B5F7F4F0484F585E02D830128E0BF
:102C300030E0A4018A8D9B8D0995E0C06C857D856F
:102C40004A815B81641B750B0284F385E02D73015F
:102C50000E851F859A01A4018A8D9B8D0995CEC092
:102C6000F9013496E491DE1AF90132968591949136
:102C7000B7E0DB9E800D911D1124F901259134915F
:102C80003B8B2A8BFC01259134915901FC01329632
:102C90005490319634913C873296749031961491C9
:102CA00041E04C1518F05981523068F0672D072C1F
:102CB000000C770B7D836C83812F012E000C990B08
:102CC0009B838A8304C01B821A821D821C82AA8D68
:102CD000BB8DED91FC9111970680F781E02DCD0120
:102CE0000995412CD12C612CF981EF2FF0E0FF8365
:102CF000EE832C2D30E03B872A87A401410F511D24
:102D000017FD5A955F8B4E8BB101670D711D77FCD6
:102D10007A95798F688F7C85671608F06FC0262DAD
:102D200030E04A815B81420F531FAE81BF81A49F77
:102D3000C001A59F900DB49F900D1124F401E80FE0
:102D4000F91FF98BE88B842D712C4E895F89420F16
:102D5000531F5D8B4C8B751408F04DC051E0580F1C
:102D60005E87877041F4C5010196EA89FB89EA0D07
:102D7000FB1DD4905C01D7FE3AC061E0C61216C0BC
:102D80007981713099F4AA8DBB8DED91FC911197E9
:102D90000084F185E02D288539854C895D89688D11
:102DA000798D670D711DCD01099521C08C819D81A3
:102DB000870D911DEA85FB858E9FB0018F9F700D59
:102DC0009E9F700D1124620D731DAA8DBB8DED9118
:102DD000FC9111970284F385E02DE884F9840E813B
:102DE0001F812A853B8548895989CD010995DD0CCC
:102DF00073948E85B0CF450C63948DCFAA8DBB8D17
:102E0000ED91FC9111970288F389E02DCD016B962D
:102E10000FB6F894DEBF0FBECDBFDF91CF911F91EB
:102E20000F91FF90EF90DF90CF90BF90AF909F9069
:102E30008F907F906F905F904F903F902F9009946C
:102E40006B960FB6F894DEBF0FBECDBFDF91CF916A
:102E50001F910F91FF90EF90DF90CF90BF90AF90B8
:102E60009F908F907F906F905F904F903F902F90AA
:102E7000089590E0FC01ED5EFE4F2491FC01E150CD
:102E8000FF4F3491FC01E551FF4FE491EE2309F42B
:102E90003CC0222339F1233091F038F42130A9F0DD
:102EA000223001F584B58F7D12C0263091F0273095
:102EB000A1F02430B9F4809180008F7D03C080910F
:102EC00080008F77809380000DC084B58F7784BD9C
:102ED00009C08091B0008F7703C08091B0008F7DD2
:102EE0008093B000F0E0EE0FFF1FEF51FF4FA59170
:102EF000B4919FB7F894611104C08C913095382338
:102F000002C0EC913E2B3C939FBF0895CF93DF937B
:102F100090E0FC01E150FF4F2491FC01E551FF4F8F
:102F20008491882361F190E0880F991FFC01E95298
:102F3000FF4FC591D491FC01EF51FF4FA591B49182
:102F4000611109C09FB7F8948881209582238883F6
:102F5000EC912E230BC0623061F49FB7F894888106
:102F6000322F309583238883EC912E2B2C939FBF97
:102F700006C08FB7F894E8812E2B28838FBFDF918E
:102F8000CF9108951F920F920FB60F9211240F90B8
:102F90000FBE0F901F9018951F920F920FB60F92B1
:102FA00011248F939F93809178009091790096954A
:102FB00087959695879580937C019F918F910F902F
:102FC0000FBE0F901F901895A8E3B1E013961C92C6
:102FD0001E92129720EF30E015963C932E93149793
:102FE00080E491E017969C938E93169719963C93E4
:102FF0002E9318971B969C938E931A9756961C9215
:1030000056971D961C921E921C971F961C921E92FC
:103010001E9781E055968C93559754968C935497B0
:103020002FEF3FEF53963C932E93529751963C933C
:103030002E93509757968C93579758961C92589763
:103040005A961C921E925997D5961C92D5978FEF3F
:10305000D6968C93D6978AE0D7968C93D79789E0AB
:10306000D8968C93D897DA961C921E92D997DC96B4
:103070001C921E92DB97DD961C92DD97DE961C92C9
:10308000DE971092770110927801109279011092D8
:103090007A018EE291E090969C938E935F97E4EF95
:1030A000F0E0E491F0E0EE0FFF1FEF51FF4F85914C
:1030B00094915E969C938E935D97E8E0F1E0849105
:1030C000D3968C93D397E5EFF0E0E491F0E0EE0F28
:1030D000FF1FEF51FF4F259134915C963C932E9347
:1030E0005B97E9E0F1E0E491D196EC93D197E0951C
:1030F000D296EC93D297E82FE095D496EC93D497A0
:1031000085E091E08D939C930895789484B58260D6
:1031100084BD84B5816084BD85B5826085BD85B57B
:10312000816085BD80916E00816080936E001092F9
:103130008100809181008260809381008091810074
:103140008160809381008091800081608093800005
:103150008091B10084608093B1008091B000816063
:103160008093B00080917A00846080937A0080918F
:103170007A00826080937A0080917A0081608093E7
:103180007A0080917A00806880937A001092C10062
:1031900040E050E0BA0188E391E00E944D0963E00D
:1031A00088E391E00E94D70567EE72E988E391E039
:1031B0000E94210430E8E32E39E5F32E08ED10E0FB
:1031C00028ED30E04AE050E062E370E088E391E00F
:1031D0000E944908C2E3D0E02AE0C22ED12CE12CA3
:1031E000F12C09E110E029E130E0A601BE0188E3FD
:1031F00091E00E94550388E1C80ED11C82EEC816EA
:10320000D10469F76896CA3081E0D80729F7CCE481
:10321000D0E094E2C92ED12C8EE8E82E8BE6F82E71
:1032200004E110E025E130E0A601BE0188E391E071
:103230000E94490880E3C80ED11C84EEC816D10450
:1032400059F7E096CC3081E0D80719F7E12CF12C42
:1032500006E410E02EE130E04FE050E06AE070E07C
:1032600088E391E00E945F1164E170E08FE090E0FC
:103270000E94B81268E270E08FE090E00E94B812FD
:103280006CE370E08FE090E00E94B8122EE130E035
:103290004BE950E068E171E088E391E00E945F1142
:1032A00068EC70E08DE191E00E94B81264EB70E090
:1032B0008DE191E00E94B81260EA70E08DE191E04A
:1032C0000E94B812C2E060E08C2F0E94F00BCF5F2A
:1032D000C830C9F761E082E00E94F00B61E084E051
:1032E0000E94F00B61E086E00E94F00BC0E062E01B
:1032F0008C2F0E94F00BCF5FC930C9F7C0E0D0E03F
:10330000209719F0C630D10521F463E08C2F0E947C
:10331000F00B2196C830D10599F7C0E0D0E0C63057
:10332000D10521F064E08C2F0E94F00B2196C9306A
:10333000D105A9F7C0E065E08C2F0E94F00BCE5FAD
:10334000CA30C9F7C1E0D0E0C230D10521F066E053
:103350008C2F0E94F00B2196C930D105A9F767E0A8
:1033600080E00E94F00B67E082E00E94F00B67E0D3
:1033700084E00E94F00BC0E0D0E0C230D10541F003
:10338000CE010797029720F068E08C2F0E94F00B87
:103390002196C930D10589F7E12CF12C00E010E02D
:1033A00028E030E046E150E06AE370E088E391E035
:1033B0000E94490807E010E023E030E04BE150E0D4
:1033C0006BE370E088E391E00E94490823E030E07D
:1033D0004BE150E06FE370E088E391E00E94490820
:1033E0008FE5E82E83E1F82E02E010E024E030E0E3
:1033F00040E250E069E370E088E391E00E94490810
:1034000024E030E040E250E06FE370E088E391E0D8
:103410000E94490808E010E026E030E042E150E078
:103420006BE370E088E391E00E94490806E010E059
:1034300022E030E044E150E067E370E088E391E0AF
:103440000E94490803E010E023E030E044E150E04E
:1034500068E370E088E391E00E94490890EDE92E6E
:1034600095EFF92E23E030E049E150E066E370E0AB
:1034700088E391E00E9449082FE5E22E23E1F22E35
:1034800006E010E022E030E044E150E062E470E069
:1034900088E391E00E94490803E010E023E030E077
:1034A00044E150E061E470E088E391E00E94490863
:1034B00030EDE32E35EFF32E23E030E049E150E02C
:1034C00062E470E088E391E00E94490820ED35EF66
:1034D00045E050E060E170E08EE390E00E94E4118E
:1034E000E12CF12C02E010E022E030E040E150E07D
:1034F0006BE370E088E391E00E944908EE24EA94CF
:10350000FE2C01E010E021E030E040E150E06BE310
:1035100070E088E391E00E944908E12CF12C02E080
:1035200010E022E030E040E150E060E470E088E349
:1035300091E00E944908EE24EA94FE2C01E010E09C
:1035400021E030E040E150E060E470E088E391E0A9
:103550000E94490820E030E044E150E06EE370E072
:1035600088E391E00E94E90820E030E043E150E088
:103570006FE370E088E391E00E94E90820E030E02A
:1035800044E150E06DE370E088E391E00E94E908D7
:103590006FE5E62E63E1F62E04E010E02AE030E06D
:1035A0004AE050E069E370E088E391E00E94490856
:1035B000E12CF12C2AE030E04AE050E069E370E0D1
:1035C00088E391E00E9455037FE5E72E73E1F72E33
:1035D00003E010E028E030E04CE050E06DE370E004
:1035E00088E391E00E944908E12CF12C28E030E0CA
:1035F0004CE050E06DE370E088E391E00E945503F9
:1036000000E010E028E030E046ED50E06AEF70E0C6
:1036100088E391E00E94490807E010E023E030E0F1
:103620004BED50E06BEF70E088E391E00E944908B9
:1036300023E030E04BED50E06FEF70E088E391E085
:103640000E944908E12CE8EFFE2E02E010E024E0A1
:1036500030E040EE50E069EF70E088E391E00E94D6
:10366000490824E030E040EE50E06FEF70E088E37E
:1036700091E00E94490809E010E026E030E042EDC8
:1036800050E06BEF70E088E391E00E94490806E0AB
:1036900010E022E030E044ED50E067EF70E088E3B6
:1036A00091E00E94490803E010E023E030E044ED9F
:1036B00050E068EF70E088E391E00E944908F0ED87
:1036C000EF2EF5EFFF2E23E030E049ED50E066EFFE
:1036D00070E088E391E00E944908E12CA8EFFA2EFF
:1036E00006E010E022E030E044ED50E062E071E0FE
:1036F00088E391E00E94490803E010E023E030E015
:1037000044ED50E061E071E088E391E00E944908F7
:10371000B0EDEB2EB5EFFB2E23E030E049ED50E0AD
:1037200062E071E088E391E00E94490820ED35EF06
:1037300045E050E060ED70E08EEF90E00E94E41113
:10374000E12CF12C02E010E022E030E040ED50E00E
:103750006BEF70E088E391E00E944908EE24EA9460
:10376000FE2C01E010E021E030E040ED50E06BEF96
:1037700070E088E391E00E944908E12CF12C02E01E
:1037800010E022E030E040ED50E060E071E088E3DE
:1037900091E00E944908EE24EA94FE2C01E010E03A
:1037A00021E030E040ED50E060E071E088E391E03E
:1037B0000E94490820E030E044ED50E06EEF70E0F8
:1037C00088E391E00E94E90820E030E043ED50E01A
:1037D0006FEF70E088E391E00E94E90820E030E0BC
:1037E00044ED50E06DEF70E088E391E00E94E9085D
:1037F000E12C18EFF12E04E010E02AE030E04AEC72
:1038000050E069EF70E088E391E00E944908E12C04
:10381000F12C2AE030E04AEC50E069EF70E088E3F8
:1038200091E00E945503E12C08EFF02E03E010E038
:1038300028E030E04CEC50E06DEF70E088E391E080
:103840000E944908E12CF12C28E030E04CEC50E0DB
:103850006DEF70E088E391E00E94550360E083E043
:103860000E94910C64E080E00E94910C68E084E08A
:103870000E94910C65E088E00E94910C65E082E076
:103880000E94910C67E084E00E94910CFFCFF894B5
:103890000C94E01D5058BB27AA270E94621C0C9470
:1038A000411D0E94331D38F00E943A1D20F039F46A
:1038B0009F3F19F426F40C94301D0EF4E095E7FBBD
:1038C0000C942A1DE92F0E94521D58F3BA17620763
:1038D00073078407950720F079F4A6F50C94741DFE
:1038E0000EF4E0950B2EBA2FA02D0B01B90190011B
:1038F0000C01CA01A0011124FF27591B99F0593F5F
:1039000050F4503E68F11A16F040A22F232F342FA6
:103910004427585FF3CF469537952795A795F040F4
:103920005395C9F77EF41F16BA0B620B730B840B09
:10393000BAF09150A1F0FF0FBB1F661F771F881FC1
:10394000C2F70EC0BA0F621F731F841F48F4879519
:1039500077956795B795F7959E3F08F0B0CF93950B
:10396000880F08F09927EE0F9795879508950E9484
:10397000BE1C6894B1110C94751D08950E945A1DC7
:1039800088F09F5798F0B92F9927B751B0F0E1F020
:10399000660F771F881F991F1AF0BA95C9F714C0D0
:1039A000B13091F00E94741DB1E008950C94741D23
:1039B000672F782F8827B85F39F0B93FCCF3869509
:1039C00077956795B395D9F73EF490958095709566
:1039D00061957F4F8F4F9F4F0895E89409C097FBE3
:1039E0003EF490958095709561957F4F8F4F9F4FD6
:1039F0009923A9F0F92F96E9BB279395F69587951A
:103A000077956795B795F111F8CFFAF4BB0F11F4DC
:103A100060FF1BC06F5F7F4F8F4F9F4F16C0882383
:103A200011F096E911C0772321F09EE8872F762FB9
:103A300005C0662371F096E8862F70E060E02AF0FA
:103A40009A95660F771F881FDAF7880F96958795E6
:103A500097F9089597F99F6780E870E060E008950E
:103A60009FEF80EC089500240A9416161706180696
:103A70000906089500240A94121613061406050672
:103A80000895092E0394000C11F4882352F0BB0F03
:103A900040F4BF2B11F460FF04C06F5F7F4F8F4F66
:103AA0009F4F089557FD9058440F551F59F05F3FA1
:103AB00071F04795880F97FB991F61F09F3F79F050
:103AC00087950895121613061406551FF2CF4695D2
:103AD000F1DF08C0161617061806991FF1CF869554
:103AE0007105610508940895E894BB276627772738
:103AF000CB0197F90895052E97FB1EF400940E94C0
:103B0000921D57FD07D00E94B81D07FC03D04EF44C
:103B10000C94921D50954095309521953F4F4F4FF5
:103B20005F4F089590958095709561957F4F8F4F69
:103B30009F4F08950E94A21D332312F48A1B9B0BF2
:103B40000C94B31DA29FB001B39FC001A39F700D41
:103B5000811D1124911DB29F700D811D1124911D95
:103B600008950E94A21DB7FF0895821B930B08952C
:103B7000A1E21A2EAA1BBB1BFD010DC0AA1FBB1F71
:103B8000EE1FFF1FA217B307E407F50720F0A21BE3
:103B9000B30BE40BF50B661F771F881F991F1A9450
:103BA00069F760957095809590959B01AC01BD017A
:103BB000CF010895EE0FFF1F0590F491E02D0994B9
:043BC000F894FFCFA7
:103BC40018000000000806850AE9086F0B3D0BD2B7
:103BD4000AC40707082505790AD7053F03E00652FA
:0E3BE4000749082104B40355034D09AE08003B
:00000001FF
