:100000000C9415030C943D030C943D030C943D0398
:100010000C943D030C943D030C943D030C943D0360
:100020000C943D030C943D030C943D030C944E033F
:100030000C943F030C943D030C943D030C943D033E
:100040000C94CB140C943D030C9493090C94580914
:100050000C943D030C945D030C943D030C943D0300
:100060000C9431080C943D03EF03038002CF03008E
:10007000C130ED0464031281E803850078CB0539B3
:100080002C003402F70120EA020000C00123C10164
:1000900010C5023E28C701863601483701003A01E3
:1000A00055B1020018B603088227F20100260101AB
:1000B000E00F0F312B0C0E084EF1370710030E091D
:1000C00000E10F000E1403110731C148080F0C3175
:1000D000360F118029800000000000240027002A2C
:1000E00000000000070002010000030406000000F9
:1000F000000000000000000000003E5B4F5B3E3E41
:100100006B4F6B3E1C3E7C3E1C183C7E3C181C57C3
:100110007D571C1C5E7F5E1C00183C1800FFE7C367
:10012000E7FF0018241800FFE7DBE7FF30483A0636
:100130000E2629792926407F050507407F05253FA2
:100140005A3CE73C5A7F3E1C1C08081C1C3E7F148E
:10015000227F22145F5F005F5F06097F017F0066D8
:1001600089956A606060606094A2FFA29408047E32
:10017000040810207E201008082A1C08081C2A08E1
:10018000081E101010100C1E0C1E0C30383E38309B
:10019000060E3E0E06000000000000005F0000009A
:1001A00007000700147F147F14242A7F2A122313C8
:1001B00008646236495620500008070300001C22DC
:1001C00041000041221C002A1C7F1C2A08083E080E
:1001D000080080703000080808080800006060000F
:1001E00020100804023E5149453E00427F40007203
:1001F000494949462141494D331814127F1027457A
:100200004545393C4A494931412111090736494997
:100210004936464949291E000014000000403400B8
:10022000000008142241141414141400412214086C
:1002300002015909063E415D594E7C1211127C7F24
:10024000494949363E414141227F4141413E7F4932
:100250004949417F090909013E414151737F08081D
:10026000087F00417F41002040413F017F08142268
:10027000417F404040407F021C027F7F0408107F86
:100280003E4141413E7F090909063E4151215E7FC1
:1002900009192946264949493203017F01033F4094
:1002A00040403F1F2040201F3F4038403F6314081C
:1002B000146303047804036159494D43007F4141AD
:1002C000410204081020004141417F040201020460
:1002D0004040404040000307080020545478407FCD
:1002E000284444383844444428384444287F385407
:1002F00054541800087E090218A4A49C787F0804AE
:10030000047800447D40002040403D007F10284498
:100310000000417F40007C047804787C0804047865
:100320003844444438FC1824241818242418FC7C2D
:1003300008040408485454542404043F44243C4012
:1003400040207C1C2040201C3C4030403C44281075
:1003500028444C9090907C4464544C4400083641AE
:10036000000000770000004136080002010204028C
:100370003C2623263C1EA1A161123A4040207A3837
:100380005454555921555579412254547842215598
:1003900054784020545579400C1E527212395555EC
:1003A0005559395454545939555454580000457CC2
:1003B000410002457D420001457C407D1211127DC5
:1003C000F0282528F07C545545002054547C547C5A
:1003D0000A097F4932494949323A4444443A324A47
:1003E0004848303A4141217A3A42402078009DA065
:1003F000A07D3D4242423D3D4040403D3C24FF24E3
:1004000024487E4943662B2FFC2F2BFF0929F62019
:10041000C0887E090320545479410000447D413056
:1004200048484A32384040227A007A0A0A727D0DE2
:1004300019317D2629292F28262929292630484D9A
:100440004020380808080808080808382F10C8ACE9
:10045000BA2F102834FA00007B000008142A142256
:1004600022142A14085500550055AA55AA55AAFF6A
:1004700055FF55FF000000FF00101010FF0014147E
:1004800014FF001010FF00FF1010F010F0141414EF
:10049000FC001414F700FF0000FF00FF1414F40424
:1004A000FC141417101F10101F101F1414141F0019
:1004B000101010F0000000001F101010101F10107E
:1004C0001010F010000000FF10101010101010108D
:1004D00010FF10000000FF140000FF00FF00001FCD
:1004E00010170000FC04F414141710171414F4046B
:1004F000F40000FF00F714141414141414F700F798
:10050000141414171410101F101F141414F41410C2
:1005100010F010F000001F101F0000001F1400005A
:1005200000FC140000F010F01010FF10FF14141461
:10053000FF141010101F00000000F010FFFFFFFF5D
:10054000FFF0F0F0F0F0FFFFFF0000000000FFFF01
:100550000F0F0F0F0F3844443844FC4A4A4A347E88
:1005600002020606027E027E026355494163384458
:10057000443C04407E201E2006027E020299A5E72C
:10058000A5991C2A492A1C4C7201724C304A4D4DC7
:10059000303048784830BC625A463D3E49494900AF
:1005A0007E0101017E2A2A2A2A2A44445F444440CB
:1005B000514A444040444A51400000FF0103E0805A
:1005C000FF000008086B6B083612362436060F0948
:1005D0000F06000018180000001010003040FF0146
:1005E00001001F01011E00191D1712003C3C3C3C7C
:1005F00000000000000102040810204080010204F5
:100600000810200102040810200000000025002826
:10061000002B000404040404040404020202020285
:1006200002030303030303008A2311241FBECFEF39
:10063000D8E0DEBFCDBF11E0A0E0B1E0E6E8FCE429
:1006400002C005900D92AE34B107D9F723E0AEE4B5
:10065000B1E001C01D92AA36B207E1F713E0C5E18F
:10066000D3E004C02197FE010E943B26C431D1078C
:10067000C9F70E94C1180C9470240C9400001F92BA
:100680000F920FB60F9211248F9382E08093520144
:100690008F910F900FBE0F901F9018951F920F9281
:1006A0000FB60F9211248F9381E0809352018F91A6
:1006B0000F900FBE0F901F9018951F920F920FB6BC
:1006C0000F9211248F939F938091780090917900DD
:1006D0009695879596958795809350019F918F91D8
:1006E0000F900FBE0F901F90189585ED8093BC0062
:1006F0008091BC0084FDFCCF1092EE010895613220
:1007000098F42091EE01243089F460937301282F2E
:10071000A3E5B1E0FC018E2F821B861718F48191AE
:100720008D93F9CF80E0089581E0089582E00895E7
:100730000F931F93CF93DF93FC01A685B7858D019F
:10074000005C1F4FE8018881998101968F7399277A
:10075000AD014E5B5F4FEA012881398128173907C7
:10076000D1F3E80128813981A20FB31F6C93A685CC
:10077000B785A05CBF4F11969C938E93A689B789CD
:100780002C9181E090E0078C02C0880F991F0A9499
:10079000E2F7822B8C9381E081A30488F589E02D18
:1007A00080818064808381E090E0DF91CF911F9110
:1007B0000F910895FC0181A1882329F0A489B589AE
:1007C0008C9186FFFBCF11A20895FC01A485B5850D
:1007D000FD01E05CFF4F2081318132968081918163
:1007E0002817390779F080819181A80FB91F8C9162
:1007F000208131812F5F3F4F2F7333273183208337
:1008000090E008958FEF9FEF0895DC011C96ED9125
:10081000FC911D97DF01A05CBF4F2D913C9111977A
:1008200012968D919C9111972817390739F08D9167
:100830009C91E80FF91F808190E008958FEF9FEF62
:100840000895FC0124853585F901E05CFF4F808126
:100850009181329620813181821B930B8F7399276E
:1008600008950895CF92DF92EF92FF920F931F9316
:10087000CF93DF936C01EB017B01E40EF51E00E0EA
:1008800010E0CE15DF0561F06991D601ED91FC9184
:100890000190F081E02DC6010995080F191FF1CFD5
:1008A000C801DF91CF911F910F91FF90EF90DF90E2
:1008B000CF900895CF93DF9390E0FC01EB50FA4F77
:1008C0002491FC01ED5EF94F8491882361F190E061
:1008D000880F991FFC01E952FF4FC591D491FC018B
:1008E000E75FF94FA591B491611109C09FB7F894E2
:1008F0008881209582238883EC912E230BC062305F
:1009000061F49FB7F8948881322F309583238883D0
:10091000EC912E2B2C939FBF06C08FB7F894E881E3
:100920002E2B28838FBFDF91CF9108950895E091FA
:10093000970180919601E81730F4F0E0E856FE4FF9
:10094000808190E008958FEF9FEF08959091970137
:1009500080919601981750F4E92FF0E0E856FE4F89
:10096000208130E09F5F9093970102C02FEF3FEF0F
:10097000C90108958091960190E020919701821B12
:1009800091090895CF92DF92EF92FF920F931F93F8
:10099000CF93DF937C01CB018A012091EF012223C9
:1009A00089F0EB016B01C40ED51ECC15DD0569F095
:1009B0006991D701ED91FC910190F081E02DC70183
:1009C0000995F3CF642F0E947F03C801DF91CF9177
:1009D0001F910F91FF90EF90DF90CF900895CF93EC
:1009E000DF931F92CDB7DEB769832091EF012223F9
:1009F000D1F020911202203240F021E030E0FC01E1
:100A00003383228380E090E015C08091F001E82FCD
:100A1000F0E0EF50FE4F998190838F5F8093F0015B
:100A20008093120205C061E0CE0101960E947F030F
:100A300081E090E00F90DF91CF9108950895FC013F
:100A40006370668B8481958126813781613039F0AE
:100A5000633029F091878087338722870895318713
:100A60002087938782870895CF92DF92EF92FF923B
:100A70000F931F93CF93DF93EC01162F6A01E22EA1
:100A80000E94A3118FA987FD06C0EB8DFC8D90817C
:100A90008AA989238083ED8DFE8D90818CA989237D
:100AA0008083612FCE010E940514ED8DFE8D908113
:100AB0008BA9892B80838601F12CC8018C199D0993
:100AC0008E159F053CF4F80161918F01CE010E94C3
:100AD0000514F3CF8FA987FD06C0EB8DFC8D9081A7
:100AE00089A9892B8083DF91CF911F910F91FF906E
:100AF000EF90DF90CF900895CF93DF931F92CDB703
:100B0000DEB7FC016370668B623041F0633079F0D0
:100B1000613011F088E403C088E20AC088E8898364
:100B200080EF90E09187808780E491E008C088EEB4
:100B3000898380E491E09187808780EF90E09387BC
:100B4000828721E0AE014F5F5F4F66E3CF010E94D5
:100B500034050F90DF91CF910895CF93DF93EC018F
:100B6000ED8DFE8D90818CA989238083CE010E941A
:100B70000514ED8DFE8D90818BA9892B8083DF91EB
:100B8000CF910895AF92BF92CF92DF92EF92FF92F2
:100B90000F931F93CF93DF93EC015B016A01215008
:100BA00031097901E60EF71E01501109040F151FD6
:100BB0006AE20E94AD05B501CE010E940D11B70198
:100BC000CE010E940D116BE2CE010E94AD05B6016F
:100BD000CE010E940D11B801CE010E940D116CE2F0
:100BE000CE01DF91CF911F910F91FF90EF90DF9099
:100BF000CF90BF90AF900C94AD052F923F924F9243
:100C00005F926F927F928F929F92AF92BF92CF929C
:100C1000DF92EF92FF920F931F93CF93DF93CDB7A5
:100C2000DEB76B970FB6F894DEBF0FBECDBF9B8FBC
:100C30008A8F1B014A01D22E198708873701A982A2
:100C4000DC0159962D913C915A972115310509F0F7
:100C5000FFC018968D919C911997681779070CF031
:100C6000E7C11A968D919C911B97481759070CF074
:100C7000DFC1EC2DF0E0FB83EA839B0146E0C49EDC
:100C8000200D311D11243D872C87121613060CF000
:100C9000CFC16A2D70E07B876A8783E0660F771F7C
:100CA0008A95E1F77F876E87CB01880D991D18160D
:100CB00019060CF0BDC158968C91811104C08FEAC1
:100CC0008D1508F4D394AA8DBB8DED91FC911197ED
:100CD0000680F781E02DCD010995B5E0DB9EC001CE
:100CE0001124EC2DF0E0F98BE88B91012B5F3F4F45
:100CF0003B8B2A8B3D822C822101AC014219530986
:100D00005D8B4C8B7981672F70E07F8B6E8BC4017C
:100D10000896998F888FEC89FD89E40DF51DEB50BD
:100D2000FF4FD49054019F828E82D0FE16C0AA8DB0
:100D3000BB8DED91FC91B1E0CB1209C0298121302E
:100D400031F40084F185E02D2885398519C00284AD
:100D5000F385E02DE884F9841DC048855985461542
:100D6000570519F1AA8DBB8DED91FC91B1E0CB1225
:100D70000DC02981213051F40084F185E02D9301CB
:100D8000A501B2018A8D9B8D09950FC00284F38560
:100D9000E02D73010A851B852A813B814E815F818D
:100DA0006C817D818A8D9B8D0995D6943FEFA31A26
:100DB000B30A4E815F816E897F89460F571F5F831B
:100DC0004E83888D998DA816B90609F0AECF9FEF96
:100DD000491A590AAC81BD81E889F989AE0FBF1F54
:100DE000BD83AC832A893B894216530609F093CF11
:100DF000488559854615570509F4F8C0AA8DBB8D5D
:100E0000ED91FC91B1E0CB1211C02981213071F438
:100E1000B1016B5F7F4F0484F585E02D830128E0ED
:100E200030E0A4018A8D9B8D0995E0C06C857D859D
:100E30004A815B81641B750B0284F385E02D73018D
:100E40000E851F859A01A4018A8D9B8D0995CEC0C0
:100E5000F9013496E491DE1AF90132968591949164
:100E6000B7E0DB9E800D911D1124F901259134918D
:100E70003B8B2A8BFC01259134915901FC01329660
:100E80005490319634913C873296749031961491F7
:100E900041E04C1518F05981523068F0672D072C4D
:100EA000000C770B7D836C83812F012E000C990B36
:100EB0009B838A8304C01B821A821D821C82AA8D96
:100EC000BB8DED91FC9111970680F781E02DCD014E
:100ED0000995412CD12C612CF981EF2FF0E0FF8393
:100EE000EE832C2D30E03B872A87A401410F511D52
:100EF00017FD5A955F8B4E8BB101670D711D77FC05
:100F00007A95798F688F7C85671608F06FC0262DDB
:100F100030E04A815B81420F531FAE81BF81A49FA5
:100F2000C001A59F900DB49F900D1124F401E80F0E
:100F3000F91FF98BE88B842D712C4E895F89420F44
:100F4000531F5D8B4C8B751408F04DC051E0580F4A
:100F50005E87877041F4C5010196EA89FB89EA0D35
:100F6000FB1DD4905C01D7FE3AC061E0C61216C0EA
:100F70007981713099F4AA8DBB8DED91FC91119717
:100F80000084F185E02D288539854C895D89688D3F
:100F9000798D670D711DCD01099521C08C819D81D1
:100FA000870D911DEA85FB858E9FB0018F9F700D87
:100FB0009E9F700D1124620D731DAA8DBB8DED9146
:100FC000FC9111970284F385E02DE884F9840E8169
:100FD0001F812A853B8548895989CD010995DD0CFA
:100FE00073948E85B0CF450C63948DCFAA8DBB8D45
:100FF000ED91FC9111970288F389E02DCD016B965C
:101000000FB6F894DEBF0FBECDBFDF91CF911F9119
:101010000F91FF90EF90DF90CF90BF90AF909F9097
:101020008F907F906F905F904F903F902F9009949A
:101030006B960FB6F894DEBF0FBECDBFDF91CF9198
:101040001F910F91FF90EF90DF90CF90BF90AF90E6
:101050009F908F907F906F905F904F903F902F90D8
:1010600008951F920F920FB60F9211242F933F9362
:101070004F935F936F937F938F939F93AF93BF93A0
:10108000EF93FF938091B900887F803609F49CC06C
:1010900068F5883209F45BC090F4803109F454C0DB
:1010A00038F4882309F4EFC0883009F44DC0EFC04C
:1010B000883109F44CC0803209F45DC0E8C0803446
:1010C00009F468C048F4803309F455C0883309F046
:1010D000DEC08093EC01D1C0803509F44FC0883563
:1010E00009F45DC0883409F0D2C0CFC0883909F452
:1010F000C0C0A8F4883709F467C038F4883609F40A
:1011000063C0803709F460C0C2C0883809F4B1C038
:10111000803909F45FC0803809F0B9C05BC0803BFA
:1011200009F481C038F4803A09F466C0883A09F4B9
:101130007AC0ADC0803C09F4A0C0883C09F49DC0D1
:10114000883B09F483C0A3C08091C90110C090916D
:10115000EB018091EA01981770F5E091EB0181E0D5
:101160008E0F8093EB01F0E0E653FE4F8081809379
:10117000BB0085EC7FC08093EC0187C0E091EB0160
:1011800081E08E0F8093EB018091BB00F0E0E6538D
:10119000FE4F80839091EB018091EA0167C0E0915E
:1011A000EB0181E08E0F8093EB018091BB00F0E0BA
:1011B000E653FE4F80838091ED01811166C081E08E
:1011C0008093C80184EA5AC083E08093EE011092B4
:1011D0009501CFCF80919501803208F04AC0E0910F
:1011E000950181E08E0F809395018091BB00F0E026
:1011F000EB58FE4F8083BDCF80919501803230F453
:10120000E0919501F0E0EB58FE4F10820E947503CB
:101210006091950170E085E791E0E0E0F0E00995EC
:10122000109295012AC084E08093EE01109274011F
:1012300010927301E0E0F0E0099580917301811153
:1012400005C081E08093730110925301E091740115
:1012500081E08E0F80937401F0E0ED5AFE4F8081A3
:101260008093BB009091740180917301981708F4EA
:1012700080CF85E88093BC000AC085EC8093BC00D9
:101280001092EE0104C01092EC010E947503FF91D0
:10129000EF91BF91AF919F918F917F916F915F91EE
:1012A0004F913F912F910F900FBE0F901F90189567
:1012B0001F920F920FB60F9211242F933F938F938B
:1012C0009F93EF93FF9320915302309154028091AA
:1012D0005502909156022817390731F48091C100C8
:1012E0008F7D8093C10014C0E0915502F0915602A9
:1012F000ED5EFD4F2081809155029091560201963E
:101300008F73992790935602809355022093C600BD
:10131000FF91EF919F918F913F912F910F900FBE71
:101320000F901F9018951F920F920FB60F921124D5
:101330002F934F935F938F939F93EF93FF9380919E
:10134000C00082FD1CC02091C60080919702909140
:1013500098024091990250919A0201968F739927B1
:101360004817590771F0E0919702F0919802E95AF5
:10137000FD4F2083909398028093970202C0809142
:10138000C600FF91EF919F918F915F914F912F91A7
:101390000F900FBE0F901F90189590E0FC01EF5139
:1013A000FF4F2491FC01EB50FA4F3491FC01ED5EAC
:1013B000F94FE491EE2309F43CC0222339F12330A4
:1013C00091F038F42130A9F0223001F584B58F7DF9
:1013D00012C0263091F02730A1F02430B9F480916A
:1013E00080008F7D03C0809180008F778093800084
:1013F0000DC084B58F7784BD09C08091B0008F7710
:1014000003C08091B0008F7D8093B000F0E0EE0FBC
:10141000FF1FE75FF94FA591B4919FB7F894611151
:1014200004C08C913095382302C0EC913E2B3C9344
:101430009FBF0895BF92CF92DF92EF92FF920F93DA
:101440001F93CF93DF93EC016A017B01452B462B61
:10145000472B31F4C12C22E1D22E2AE7E22EF12CC7
:101460008FA987FD07C061E00E945A0461E08FA93F
:101470000E94CD0961E088AD0E945A0461E088AD08
:101480000E94CD098DA981111DC0C9A2DAA2EBA2CB
:10149000FCA21DA21EA21FA218A661E08AE00E9463
:1014A000CD0961E08AE00E945A048CB580618CBD50
:1014B0008CB580648CBD61E08DE00E945A0461E0CF
:1014C0008BE016C08130B9F461E08AA50E945A040D
:1014D00060E08AA50E94CD0961E08CA50E945A04B3
:1014E00060E08CA50E94CD098BA587FD36C060E029
:1014F0000E945A0432C003E116E0F12CF8018491F5
:10150000E82FF0E0EE0FFF1FE75FF94F8591949110
:101510002F8D38A12817390741F461E08F2D0E94E3
:101520005A0460E08F2D0E94CD09F3940F5F1F4F86
:10153000F4E1FF12E3CF61E08EA50E945A0461E05E
:101540008EA50E94CD098FA587FD07C061E00E948E
:101550005A0461E08FA50E94CD098EA987FD21C0A4
:1015600061E00E945A0461E08EA90E94CD0964E600
:1015700070E080E090E00E94A51460E08EA90E94D7
:10158000CD0964E670E080E090E00E94A51461E07F
:101590008EA90E94CD0968EC70E080E090E00E9486
:1015A000A5148EA987FF0DC020E040E050E061E067
:1015B000CE010E94340566E970E080E090E00E9470
:1015C000A51488E6E82E80E0F82EC7010196F70101
:1015D0001491112309F448C0FC01B4900B2D0F772E
:1015E000CE010E94A3118FA987FD06C0EB8DFC8D53
:1015F00090818AA989238083ED8DFE8D90818CA9AD
:1016000089238083612FCE010E940514ED8DFE8D0C
:1016100090818BA9892B8083C12CD12C10E0C0161E
:10162000D10664F4F6013296EE0DFF1D6491CE01F1
:101630000E940514FFEFCF1ADF0AF1CF8FA987FDB3
:1016400006C0EB8DFC8D908189A9892B80830E5F6C
:101650001F4FE00EF11EB7FEB8CF66E970E080E0E4
:1016600090E00E94A514B1CF80EF90E09987888721
:1016700080E491E09B878A87DF91CF911F910F9142
:10168000FF90EF90DF90CF90BF9008956F927F9280
:101690008F929F92AF92BF92CF92DF92EF92FF9282
:1016A0000F931F93CF93DF93EC014B015A01690114
:1016B0003801E881F9810680F781E02D0995E881FC
:1016C000F9810684F785E02D87019601A501B40113
:1016D000CE010995A501460D571D41505109E881DC
:1016E000F9810684F785E02D9601B401CE010995B4
:1016F000E881F9810484F585E02D9301A501B40109
:10170000CE010995C80CD91CB60161507109E88158
:10171000F9810484F585E02D9301A501CE01099599
:10172000E881F9810288F389E02DCE01DF91CF9124
:101730001F910F91FF90EF90DF90CF90BF90AF90EF
:101740009F908F907F906F9009948F929F92AF920D
:10175000BF92CF92DF92EF92FF920F931F93CF939E
:10176000DF934C016B015A01E901DC01ED91FC9121
:101770006217730781F40417150724F48B2D5801A1
:10178000042F182F0A191B0998012F5F3F4F008C57
:10179000F18DE02D12C04017510709F526173707C4
:1017A00024F48D2D6901C62FD82F9E012C193D09D7
:1017B0002F5F3F4F028CF38DE02D8701A501B6010D
:1017C000C4010995DF91CF911F910F91FF90EF9088
:1017D000DF90CF90BF90AF909F908F90089506803C
:1017E000F781E02D0995D401ED91FC910088F189F4
:1017F000E02D9E01A501B601C4010995D401ED912A
:10180000FC910288F389E02DC401DF91CF911F91F3
:101810000F91FF90EF90DF90CF90BF90AF909F908F
:101820008F900994EF92FF920F931F93DC011A9609
:101830000D911C911B9718962D913C911997ED9144
:10184000FC91048CF58DE02D7B0140E050E060E0E0
:1018500070E009951F910F91FF90EF9008954F92BE
:101860005F926F927F928F929F92AF92BF92CF9230
:10187000DF92EF92FF920F931F93CF93DF936C0150
:101880002B015A0139014801DC01ED91FC910680E0
:10189000F781E02D0995E201640C751CD601ED91EC
:1018A000FC91C615D7055CF40484F585E02D87010D
:1018B0009401A501BE01C60109952196EFCF0288CA
:1018C000F389E02DC601DF91CF911F910F91FF9019
:1018D000EF90DF90CF90BF90AF909F908F907F90D0
:1018E0006F905F904F9009948F929F92AF92BF92AA
:1018F000CF92DF92EF92FF920F931F93CF93DF93DC
:10190000EC015B014A016901E881F9810680F781F8
:10191000E02D099595012C0D3D1D21503109E881DF
:10192000F9810088F189E02D78018401A401B501D5
:10193000CE010995E881F9810288F389E02DCE0175
:10194000DF91CF911F910F91FF90EF90DF90CF909B
:10195000BF90AF909F908F9009948F929F92AF927B
:10196000BF92CF92DF92EF92FF920F931F93CF938C
:10197000DF93EC015B014A0169017801E881F9819B
:101980000680F781E02D0995C80CD91C860101500D
:101990001109E881F9810088F189E02D9501A40100
:1019A000B501CE010995E881F9810288F389E02D1E
:1019B000CE01DF91CF911F910F91FF90EF90DF90BB
:1019C000CF90BF90AF909F908F900994EF92FF922D
:1019D0000F931F93DC01ED91FC91048CF58DE02DAC
:1019E00009951F910F91FF90EF9008950F931F930A
:1019F000DC01ED91FC91028CF38DE02D09951F9196
:101A00000F9108950F931F93DC01ED91FC91008CD1
:101A1000F18DE02D09951F910F910895DC01ED9155
:101A2000FC910480F581E02D09942F923F924F9212
:101A30005F926F927F928F929F92AF92BF92CF925E
:101A4000DF92EF92FF920F931F93CF93DF9300D01B
:101A500000D000D0CDB7DEB72C017E836D836A0144
:101A60005901C801FC82EB824801841A950A97FE4D
:101A700003C091948194910835012D813E81621AB1
:101A8000730A77FE03C07194619471086814790435
:101A90005CF43A2D2B2D5C01832F922F3D812E81FA
:101AA000DE82CD82C32ED22EAD81BE81AA16BB06A8
:101AB0005CF43C2D2D2D6C01832F922F3D812E81C6
:101AC000BE82AD82A32EB22E85012D813E81021BE6
:101AD000130B1C012C183D0837FE03C031942194D0
:101AE0003108780117FF03C03FEFE31AF30AF594BA
:101AF000E794C816D9062CF08FEF9FEF9A8389835D
:101B000004C0A1E0B0E0BA83A9832D813E81A21672
:101B1000B30624F1D201ED91FC910084F185E02D12
:101B20002B813C816814790424F44D815E81B601D7
:101B300003C0A6016D817E81C2010995E218F308F8
:101B4000F7FE06C029813A81C20ED31EE00EF11EB7
:101B50008D819E8101969E838D83D7CF26960FB669
:101B6000F894DEBF0FBECDBFDF91CF911F910F91D3
:101B7000FF90EF90DF90CF90BF90AF909F908F90AD
:101B80007F906F905F904F903F902F9008958F922D
:101B90009F92AF92CF92EF92FF920F931F93CF93AA
:101BA000DF93EC01262F898D9A8D009709F042C0B2
:101BB0006A3059F41D861C862D898E859F8538E0F4
:101BC000239F800D911D112443C06D3009F4AAC0DC
:101BD0008F898823C9F03C898C859D8546E0349F98
:101BE000800D911D1124488559854817590764F4C3
:101BF0001D861C863D898E859F8548E0349F800D1B
:101C0000911D11249F878E87EA88FB88088919898E
:101C10004E855F856C857D85AD88CC88CE010E9420
:101C2000FD052C898C859D8536E0239F800D911DB7
:101C300011243EC06A3079F41D861C862D89FC0172
:101C40003696E4918E859F852E9F800D911D1124DF
:101C50009F878E8767C06D3009F464C0FC0134969D
:101C60003491631708F45EC03196E491E61708F4E6
:101C700059C0462F431B342FFC0132968590949017
:101C800047E0349F800C911C1124F401329634916A
:101C90003196E491332311F0E1110DC0F401349633
:101CA000E4912C898C859D85E29F800D911D1124E6
:101CB0009D878C8737C0F401359644915F89552301
:101CC00019F15C89E32FF0E0E40FF11D47FDFA956F
:101CD0005E9FB0015F9F700D11244C855D85460F9E
:101CE000571F688579856417750774F41D861C86EF
:101CF0003D89FC013696E4918E859F853E9F800D3F
:101D0000911D11249F878E87EA88FB88088919898D
:101D10004E855F856C857D85AD88CC88CE010E941F
:101D2000FD05BCCF81E090E0DF91CF911F910F9135
:101D3000FF90EF90CF90AF909F908F9008958F92EB
:101D40009F92AF92BF92CF92DF92EF92FF920F934A
:101D50001F93CF93DF935C014B016A01E90177FD8B
:101D600053C0DC0118968D919C91199768177907DB
:101D70000CF04AC0209709F447C037FF07C0C901DB
:101D80000196C80ED91ED195C195D109F50182855C
:101D90009385C816D906C4F5A6014C0F5D1F9A019C
:101DA0002150310937FD30C0D7FE03C0EA01C12CF4
:101DB000D12C281739071CF0EC01CC19DD09D5010D
:101DC000ED91FC910680F781E02DC5010995780120
:101DD0008E0121E030E0A601B401C5010E9483120A
:101DE000D501ED91FC910288F389E02DC501DF91C9
:101DF000CF911F910F91FF90EF90DF90CF90BF9008
:101E0000AF909F908F900994DF91CF911F910F9188
:101E1000FF90EF90DF90CF90BF90AF909F908F900A
:101E200008958F929F92AF92BF92CF92DF92EF92DE
:101E3000FF920F931F93CF93DF935C016B014A01D5
:101E4000E90157FD53C0DC011A968D919C911B97B7
:101E5000481759070CF04AC0209709F447C037FFCC
:101E600007C0C9010196C80ED91ED195C195D109E7
:101E7000F50180859185C816D906C4F5A6014C0FD9
:101E80005D1F9A012150310937FD30C0D7FE03C0D4
:101E9000EA01C12CD12C281739071CF0EC01CC1910
:101EA000DD09D501ED91FC910680F781E02DC5019A
:101EB0000995780101E010E09E01A401B601C50179
:101EC0000E948312D501ED91FC910288F389E02DE7
:101ED000C501DF91CF911F910F91FF90EF90DF909F
:101EE000CF90BF90AF909F908F900994DF91CF914A
:101EF0001F910F91FF90EF90DF90CF90BF90AF9028
:101F00009F908F9008958F929F92AF92BF92CF92A1
:101F1000DF92EF92FF920F931F93CF93DF934C01C9
:101F20006B015A01E901209709F46CC001151105F4
:101F300009F468C037FF07C0C9010196C80ED91E51
:101F4000D195C195D109F401A085B185CA16DB06EA
:101F50000CF058C017FF07C0C8010196A80EB91EA3
:101F6000119501951109F40182859385A816B9068A
:101F70000CF048C0F601EC0FFD1FAF0141505109B4
:101F800057FD40C0B501600F711F9B012150310901
:101F900037FD38C0D7FE03C0EF01C12CD12CB7FEEE
:101FA00003C08B01A12CB12C4A175B071CF0ED017B
:101FB000CC19DD09281739071CF08C010A191B09F7
:101FC000D401ED91FC910680F781E02DC4010995C3
:101FD0009E01A501B601C4010E948312D401ED91B6
:101FE000FC910288F389E02DC401DF91CF911F910C
:101FF0000F91FF90EF90DF90CF90BF90AF909F90A8
:102000008F900994DF91CF911F910F91FF90EF90E6
:10201000DF90CF90BF90AF909F908F900895EF92F8
:10202000FF920F931F93CF93DF9377FD34C0DC01B2
:102030001896ED91FC9119976E177F0764F521159D
:10204000310549F137FF07C0F90131964E0F5F1F87
:10205000319521953109DC011A96ED91FC911B9780
:102060004E175F07C4F4EA01C20FD31FDE011197B8
:10207000B7FD11C057FF03C09E0140E050E0AE170E
:10208000BF071CF09F01241B350B7801890121E05B
:1020900030E00E948312DF91CF911F910F91FF904A
:1020A000EF900895EF92FF920F931F93CF93DF93DA
:1020B00057FD33C0DC011A96ED91FC911B974E172A
:1020C0005F075CF52115310541F137FF07C0F901C4
:1020D00031966E0F7F1F319521953109DC011896DD
:1020E000ED91FC9119976E177F07BCF4EB01C20FBD
:1020F000D31FDE011197B7FD10C077FF03C09E010B
:1021000060E070E0AE17BF071CF09F01261B370B85
:10211000780101E010E00E948312DF91CF911F91BE
:102120000F91FF90EF9008958F929F92AF92BF9280
:10213000CF92DF92EF92FF920F931F93CF93DF9393
:1021400047012115310509F44DC00115110509F4A8
:1021500049C037FF07C0F90131966E0F7F1F3195D7
:1021600021953109DC011896AD90BC9019976A153C
:102170007B05C4F517FF07C0F80131964E0F5F1FAE
:10218000119501951109DC011A96ED91FC911B97AF
:102190004E175F073CF56B01C20ED31EE601219777
:1021A000D7FD20C07A01E00EF11ED7011197B7FDCF
:1021B00019C077FF03C0960160E070E057FF03C0CD
:1021C000870140E050E0CA15DB051CF09501261B95
:1021D000370BAE17BF071CF08F01041B150B7401E2
:1021E0000E948312DF91CF911F910F91FF90EF908A
:1021F000DF90CF90BF90AF909F908F900895FC019B
:10220000A5A1B6A19C9182A589238C93A5A1B6A175
:102210009C9181A5892B8C9308950F931F93CF9345
:10222000DF93EC018B018DA9811109C01EBD0DB496
:1022300007FEFDCF0EBD0DB407FEFDCF2FC08130D0
:10224000E9F480E1E9A1FAA1208117FF03C09DA173
:10225000922B02C09EA192239083EBA1FCA120812E
:102260009FA1922B9083EBA1FCA1208198A59223A2
:102270009083000F111F815029F710C0EF8DF8A136
:102280001083CE010E94FF10EF8DF8A10083CE01D4
:10229000DF91CF911F910F910C94FF10DF91CF919F
:1022A0001F910F910895AF92BF92CF92DF92EF925C
:1022B000FF920F931F93CF93DF93EC0177FD38C00C
:1022C00088859985681779079CF557FD31C08A85FF
:1022D0009B854817590764F569017A015B01E8811C
:1022E000F9810680F781E02DCE010995E881F98119
:1022F00006A0F7A1E02D01E010E021E030E0A70109
:10230000B501CE010995B601CE010E940D11E881FB
:10231000F9810288F389E02DCE01DF91CF911F91E1
:102320000F91FF90EF90DF90CF90BF90AF90099406
:10233000DF91CF911F910F91FF90EF90DF90CF90A1
:10234000BF90AF900895FC0185A981110FC09CB585
:102350009C7F9CBD9DB591609DBD9CB59F7D9CBDA6
:102360002CB5237F95A1822F892B8CBD08953091A8
:102370001202313208F047C08091EE018111FCCF8A
:102380009091110222E02093EE0121E02093ED01D3
:102390002FEF2093EC011092EB013093EA01E1EF73
:1023A000F1E0AAECB1E020E0321721F041914D9329
:1023B0002F5FFACF1092C9012091C901990F922B7A
:1023C0009093C9019091C801913041F41092C801D5
:1023D0009091C9019093BB0095EC01C095EE90934C
:1023E000BC009091EE019230E1F39091EC019F3F9F
:1023F00079F08091EC01803241F08091EC018033E2
:1024000031F084E005C081E003C082E001C083E0D8
:102410001092F001109212021092EF0108950F93A2
:102420001F93CF93DF9391E09093EF0192E5909308
:1024300011021092F00110921202682F8BE992E0C3
:102440000E94EF040E94B7118091EE018111FCCF30
:1024500081E08093EE018093ED019FEF9093EC017A
:102460001092EB0195E09093EA018093C90180916D
:10247000C901846A8093C9018091C801813041F407
:102480001092C8018091C9018093BB0085EC01C006
:1024900085EE8093BC008091EE018130E1F3809164
:1024A000EB01863018F4D091EB0101C0D6E0EAECE4
:1024B000F1E0A8E9B1E080E08D1721F091919D93C2
:1024C0008F5FFACF10929701D093960102EC11E042
:1024D000C0E080919701D81759F0C63049F0CF5F1E
:1024E0008BE992E00E94A604F80181938F01F1CF5D
:1024F0008C2FDF91CF911F910F910895682F8BE959
:1025000092E00C94EF048F929F92AF92BF92CF9281
:10251000DF92EF92FF920F931F93CF93DF93EC0123
:102520004901BE2CAF2CE881F98106A0F7A1E02D6E
:1025300009959401D8010E941D2661157105810538
:10254000910509F481C02DA921110FC061507109B5
:102550008109910908F478C0AEBC0DB407FEFDCF27
:10256000BEBC0DB407FEFDCFF1CF213009F03FC056
:10257000615071098109910908F466C03A2D28E07B
:10258000E9A1FAA1508137FF03C04DA1452B02C03C
:102590004EA145234083EBA1FCA150814FA1452BC7
:1025A0004083EBA1FCA1508148A545234083330F14
:1025B000215031F73B2D28E0E9A1FAA1508137FFE6
:1025C00003C04DA1452B02C04EA145234083EBA182
:1025D000FCA150814FA1452B4083EBA1FCA1508170
:1025E00048A545234083330F215031F7C1CFFE105A
:1025F00017C0EF8DF8A1F0826B017C01CC0CDD1CC3
:10260000EE1CFF1CC114D104E104F104E9F0CE0179
:102610000E94FF1081E0C81AD108E108F108F2CF4A
:102620006B017C01EF8DF8A1A082CE010E94FF100A
:10263000EF8DF8A1B082CE010E94FF1021E0C21AF6
:10264000D108E108F10871F7DF91CF911F910F9147
:10265000FF90EF90DF90CF90BF90AF909F908F90C2
:1026600008952F923F924F925F926F927F928F9236
:102670009F92AF92BF92CF92DF92EF92FF920F9311
:102680001F93CF93DF93CDB7DEB72A970FB6F89499
:10269000DEBF0FBECDBF5C0178876F835A87498745
:1026A000390187EA92E00E94941429853A85220F25
:1026B000331F2F5F3F4F4F81588589859A85481B6F
:1026C000590B8301B50187EA92E00E940F1081E067
:1026D00090E02C0129853A85421A530AC901919547
:1026E000819591099C01220F331F3E832D832F80FA
:1026F0003884E12CF12C81E090E09C838B83298548
:102700003A85E216F3060CF064C057FC0CC0690170
:1027100031E0C31AD1088D819E8102969E838D83FC
:10272000480E591E02C0C984DA849FEFE91AF90ADB
:102730002B813C812E5F3F4F3C832B83420E531EE7
:10274000CE14DF0404F14601880C991C3FEF831A74
:10275000930A830194018F8198858C199D099A832E
:102760008983AC01B7016A0D7B1D87EA92E00E9464
:102770000F10940149815A81B5016E197F0987EACA
:1027800092E00E940F1029853A852C153D0531F401
:1027900091E0291A3108DA86C986B1CFB9016A0DEC
:1027A0007B1D83018B809C8032E0831A9108940109
:1027B000A10187EA92E00E940F10B50189859A85F0
:1027C000681B790B9401A10187EA92E00E940F1027
:1027D000DFCF87EA92E02A960FB6F894DEBF0FBEED
:1027E000CDBFDF91CF911F910F91FF90EF90DF90C0
:1027F000CF90BF90AF909F908F907F906F905F90A1
:102800004F903F902F900C943214FC0185A98111B8
:1028100005C06EBD0DB407FEFDCF08958130E1F413
:1028200088E0A1A1B2A12C9167FF03C095A1922BD2
:1028300002C096A192239C93A3A1B4A12C9197A12D
:10284000922B9C93660FA3A1B4A12C9190A59223E7
:102850009C93815031F70895A78DB0A16C93CF015F
:102860000C94FF10FC0187A987FD06C0A38DB48DD1
:102870009C9181A9892B8C9308953FB7F8948091FE
:10288000660390916703A0916803B091690326B530
:10289000A89B05C02F3F19F00196A11DB11D3FBF98
:1028A000BA2FA92F982F8827820F911DA11DB11D26
:1028B000BC01CD0142E0660F771F881F991F4A9522
:1028C000D1F70895EF92FF920F931F93CF93DF9369
:1028D000EC0177FD22C08885998568177907ECF4AB
:1028E00057FD1BC08A859B8548175907B4F47901A9
:1028F000E881F98106A0F7A1E02D01E010E021E0D8
:1029000030E0CE010995B701CE01DF91CF911F9143
:102910000F91FF90EF900C940D11DF91CF911F91CB
:102920000F91FF90EF900895CF93DF93EC010E94F9
:10293000A3118FA987FD06C0EB8DFC8D90818AA91C
:1029400089238083DF91CF910895CF92DF92EF9218
:10295000FF92CF93DF936B017C010E943D14EB014A
:10296000C114D104E104F10479F00E943D146C1B00
:102970007D0B683E7340A0F381E0C81AD108E108DE
:10298000F108C851DC4FECCFDF91CF91FF90EF9071
:10299000DF90CF9008951F920F920FB60F921124DF
:1029A0002F933F938F939F93AF93BF938091620335
:1029B00090916303A0916403B0916503309161032A
:1029C00023E0230F2D3720F40196A11DB11D05C072
:1029D00026E8230F0296A11DB11D20936103809369
:1029E000620390936303A0936403B09365038091A3
:1029F000660390916703A0916803B0916903019603
:102A0000A11DB11D8093660390936703A093680393
:102A1000B0936903BF91AF919F918F913F912F9197
:102A20000F900FBE0F901F9018958F929F92AF92AC
:102A3000BF92CF92DF92EF92FF920F931F93CF93AB
:102A4000DF93C82FD62FE82F89E0689FE00D11246F
:102A5000F0E0E15FFC4F808180FD8FC000910101BB
:102A6000A0900101C09001016091010110E00151AD
:102A70001109B12C86E1A81AB108DC9D600111246E
:102A80008FE0C80ED11CC69FB00111246C5C7F4F33
:102A9000072E000C880B990B0E94182520E030E0CF
:102AA00048E151E40E9474240E94E02499E2E92E56
:102AB0009CEDF92E9501A60187EA92E00E94830F12
:102AC00080910101F090010110910101009101013B
:102AD000D89FB0011124665F7F4F072E000C880B32
:102AE000990B0E9418254B015C016F2D70E080E06E
:102AF00090E00E9418252AE939E949E95EE30E943D
:102B0000A4259B01AC01C501B4010E94742420E0FE
:102B100030E040EE50E40E9474240E94E0246B01F7
:102B20007C01C19FB00111246E5C7F4F072E000C09
:102B3000880B990B0E9418254B015C01602F70E0F7
:102B400080E090E00E9418252AE939E949E95EE32E
:102B50000E94A4259B01AC01C501B4010E9474240C
:102B600020E030E040EA50E40E9474240E94E02417
:102B7000DC01CB0120E030E05CC080910101F090ED
:102B800001011091010100910101689FB001112420
:102B9000665F7F4F072E000C880B990B0E9418254B
:102BA0004B015C016F2D70E080E090E00E941825E1
:102BB0002AE939E949E95EE30E94A4259B01AC01B9
:102BC000C501B4010E94742420E030E040EE50E4DE
:102BD0000E9474240E94E0246B017C01C19FB0011B
:102BE00011246E5C7F4F072E000C880B990B0E94FE
:102BF00018254B015C01602F70E080E090E00E949E
:102C000018252AE939E949E95EE30E94A4259B01D8
:102C1000AC01C501B4010E94742420E030E040EA18
:102C200050E40E9474240E94E024DC01CB0120E0E7
:102C300038EF45E050E0B6010E94311340910101A8
:102C400060910101D49FA00111244B5E5F4FC69F8C
:102C5000B0011124645C7F4F2FEF3FEF87EA92E0D1
:102C60000E9453114091010160910101D49FA00184
:102C700011244A5E5F4FC69FB0011124655C7F4FEF
:102C80002FEF3FEF87EA92E00E945311009101017C
:102C900020910101409101016091010110E0055175
:102CA000110930E025513109D49FA0011124425F60
:102CB0005F4FC69FB0011124625C7F4F81EEE82E0A
:102CC00089EFF82E87EA92E00E94830FDF91CF917F
:102CD0001F910F91FF90EF90DF90CF90BF90AF903A
:102CE0009F908F900895EF92FF920F931F93E82F7C
:102CF00099E0699FE00D1124F0E0E15FFC4F9081C5
:102D000000910101209101014091010190FD17C046
:102D10009091010110E00350110930E02350310976
:102D2000649FA0011124445F5F4F899FB00111246B
:102D30006C5C7F4F90E2E92E9DEFF92E15C09091CB
:102D4000010110E00350110930E023503109649F64
:102D5000A0011124445F5F4F899FB00111246C5C76
:102D60007F4FE12C88EFF82E87EA92E00E94830FD4
:102D70001F910F91FF90EF900895EF92FF920F93A4
:102D80001F93009101012091010140910101909157
:102D9000010110E00150110930E022503109649F17
:102DA000A0011124455F5F4F899FC0011124BC0120
:102DB0006C5C7F4F80E8E82E89E5F82E87EA92E088
:102DC0000E94830F1F910F91FF90EF9008958091C3
:102DD0000E03813021F480916003823018F010924C
:102DE0000E030895E0910D03F0E0E15FFC4F8AE0EF
:102DF000808360910D0380910D0399E3699F612D9C
:102E000011246695899F912D1124969529E0929F12
:102E1000801911240E94151510920E0380916003F1
:102E20008F5F8093600308958091000181508093AB
:102E30000001809100010895E82FF0E0E15FFC4F70
:102E4000808190E09C012A5031092D30310528F015
:102E500044970D9720F080E0089581E0089582E086
:102E60000895EF92FF920F931F93CF93DF93C82F94
:102E70000E941C17813039F4809160038150809347
:102E80006003D8E207C08C2F0E941C17823009F023
:102E900068C0D2E341E06D2F8C2F0E94B817C93073
:102EA00098F011E01D0F07EF0C0F40E0612F802F0D
:102EB0000E94B817811108C0093030F040E0612F3E
:102EC0008EEE8C0F0E94B81709E3C09F812D11244C
:102ED00086958830A9F019E01C0F40E06D2F812FF6
:102EE0000E94B81781110CC0109F112D1124169546
:102EF000183031F040E06D2F82E18C0F0E94B8173E
:102F000002E00C0F1C2F89E3F82E99E0E92E1F9D9B
:102F1000812D11248695912F8E9D90191124983022
:102F200029F41EEF1C0F09E0DF5F15C01F5F40E0B2
:102F30006D2F812F0E94B8178111F3CF101789F3DD
:102F4000E6CFC15040E06D2F8C2F0E94B817811141
:102F500008C0C11731F08C2F602F0E9411269111EB
:102F6000F0CFDF91CF911F910F91FF90EF900895D7
:102F7000FF920F931F93CF93DF93D82FF62EC42F7A
:102F8000082F10E0015F1C4FF8018081813021F48F
:102F9000862F0E9414172AC0F8018081833031F1F6
:102FA0008D2F0E941C17882311F0CC23E1F0C0E084
:102FB000F80180818430A9F08081813019F080810E
:102FC0008230B1F489E3D89F812D11248695682F32
:102FD000F9E08F9FD01911248D2F0E9473168C2F2A
:102FE0000AC081E008C08D2F0E943117C1E0E0CFF8
:102FF000F801F082E7CFDF91CF911F910F91FF9001
:103000000895E82FF0E0E15FFC4F808198ED980F84
:10301000963028F08253863020F080E0089581E0D9
:10302000089582E00895AF92BF92CF92DF92EF921F
:10303000FF920F931F93CF93DF93E12CF12C89E341
:10304000B82E99E0D92E8701015F1C4FF801D0817D
:10305000CE2D8E2D0E941C178130D9F4F80180816D
:103060008F5F8083DF5FEB9CC12C1124C694AE2C54
:10307000CD9CA01811246C2D8A2D0E94BD16D6312E
:1030800020F08E2D0E94311704C06C2D8A2D0E94D5
:1030900015158C2F0E941C178230D9F4F8018081FD
:1030A0008F5F8083DF5FCB9DC12C1124C694AC2E33
:1030B000CD9CA01811246C2D8A2D0E94BD16D032F3
:1030C00020F08C2F0E94311704C06C2D8A2D0E9495
:1030D00015158C2F0E9401188130F1F4F8018081C0
:1030E0008F5F8083DF5FCB9DC12C1124C694AC2EF3
:1030F000CD9CA01811246C2D8A2D0E94BD16DD32A6
:1031000038F0F801D0826C2D8A2D0E94BD1604C0C3
:103110006C2D8A2D0E9473168C2F0E94011882300C
:10312000E9F4F80180818F5F8083CB9DC12C11244D
:10313000C694CD9CC01911246C2D8C2F0E94BD16F5
:10314000DF5FD73338F0F801D0826C2D8C2F0E94CE
:10315000BD1604C06C2D8C2F0E947316FFEFEF1A62
:10316000FF0A81E5E816F10409F06DCFDF91CF91F8
:103170001F910F91FF90EF90DF90CF90BF90AF9095
:103180000895CF93DF9300D000D000D0CDB7DEB745
:10319000789484B5826084BD84B5816084BD85B532
:1031A000826085BD85B5816085BD80916E0081603E
:1031B00080936E00109281008091810082608093E4
:1031C00081008091810081608093810080918000E6
:1031D0008160809380008091B10084608093B10011
:1031E0008091B00081608093B00080917A0084600B
:1031F00080937A0080917A00826080937A00809137
:103200007A00816080937A0080917A008068809350
:103210007A001092C100109280001092810080917B
:10322000810088608093810084E89EE1909389000A
:103230008093880080918800909189009695879569
:1032400090938B0080938A008091810085608093A9
:10325000810080916F00826080936F0080916F0089
:10326000846080936F0080E090E029E0FC01E15FE2
:10327000FC4F2083019681359105C1F780E090E0F5
:1032800023E0FC01E15FFC4F20830196813591052D
:10329000C1F789E080931803809321038093100382
:1032A0008093560380934D0380935E0381E0809367
:1032B0000F0310920D0382E080935F0380E58093FB
:1032C00051018AE090E024E0FC01E15FFC4F2083A3
:1032D000FC01EF5EFC4F2083FC01ED5EFC4F208380
:1032E000FC01EB5EFC4F208342968235910561F72D
:1032F00084B18E6384B940E050E0BA0187EA92E07D
:103300000E941A0A63E087EA92E00E947C0560E06E
:103310007AE787EA92E00E94120C00910101209165
:10332000010189E0089F8001112499E0299F900103
:10333000112440E8E42E49E5F42E4AE050E062E32F
:1033400070E087EA92E00E94830F1A821982C12CF2
:10335000D12C0091010120910101909101018091F6
:10336000010110E00F5F1F4F30E02F5F3F4F9C9D2A
:10337000A0019D9D500D1124465F5F4FE981FA81A8
:103380008E9FB0018F9F700D11246E5C7F4FE12CDA
:10339000F12C87EA92E00E94460BFFEFCF1ADF0A7A
:1033A00089E0C816D104A9F6E981FA813196FA8339
:1033B000E983399761F61E821D8229E3C22E39E026
:1033C000B32EED81FE81E15FFC4FA080F4E0AF12EF
:1033D00025C08D818C9D612D112466956B9D801972
:1033E000112400910101209101014091010190916E
:1033F000010110E00350110930E023503109849F8E
:10340000A0011124445F5F4F699FB00111246C5CDF
:103410007F4F9EE8E92E9BE6F92E2BC193E0A9127F
:103420002CC1ED81EC9D412D1124942E9694DE2E1D
:103430009B9CD01811240091010120910101409121
:1034400001016091010110E00950110930E029509B
:103450003109949EA0011124415F5F4FD69EB001B7
:103460001124695C7F4F80EAE82E88E2F82E87EA13
:1034700092E00E94830F6091010180900101009110
:10348000010110910101969EB0011124665F7F4FEA
:10349000072E000C880B990B0E9418252B013C016C
:1034A000682D70E080E090E00E9418252AE939E953
:1034B00049E95EE30E94A4259B01AC01C301B2016E
:1034C0000E94742420E030E040E051E40E94742423
:1034D0000E94E02469837A838B839C83D09EB00111
:1034E00011246E5C7F4F072E000C880B990B0E94F5
:1034F00018252B013C01612F70E080E090E00E94D4
:1035000018252AE939E949E95EE30E94A4259B01CF
:10351000AC01C301B2010E94742420E030E040EA13
:1035200050E40E9474240E94E024DC01CB0120EAD4
:1035300038E247E050E069817A810E94311360915E
:103540000101809001010091010110910101969EFD
:10355000B0011124665F7F4F072E000C880B990B7A
:103560000E9418252B013C01682D70E080E090E05E
:103570000E9418252AE939E949E95EE30E94A42559
:103580009B01AC01C301B2010E94742420E030E031
:1035900040E050E40E9474240E94E02469837A830E
:1035A0008B839C83D09EB00111246E5C7F4F072ECD
:1035B000000C880B990B0E9418252B013C01612FF0
:1035C00070E080E090E00E9418252AE939E949E995
:1035D0005EE30E94A4259B01AC01C301B2010E94DD
:1035E000742420E030E040EA50E40E9474240E94F9
:1035F000E024DC01CB0120EA38E247E050E06981B9
:103600007A810E94311300910101209101014091C2
:1036100001016091010110E00551110930E02950CC
:103620003109949EA00111244F5E5F4FD69EB001D8
:103630001124695C7F4FE12CF12C87EA92E00E9413
:10364000830F0091010120910101409101016091DE
:10365000010110E00551110930E029503109949E13
:10366000A0011124475E5F4FD69EB0011124695C12
:103670007F4F87EA92E00E94830F8A2D0E940118F3
:10368000813069F4FD81FC9D812D11248695682F80
:103690009F2F8B9D90191124892F0E9473168A2DBC
:1036A0000E940118823069F4ED81EC9D812D112476
:1036B0008695682FFE2F8B9DF01911248F2F0E9465
:1036C00073168A2D0E941C17813069F49D819C9D80
:1036D000812D11248695682FE92F8B9DE0191124E7
:1036E0008E2F0E9415158A2D0E941C17823069F4B6
:1036F000FD81FC9D812D11248695682F9F2F8B9D28
:1037000090191124892F0E941515ED81FE813196A3
:10371000FE83ED83E135F10509F053CE1092970158
:10372000109296011092F001109212021092EE0186
:10373000F1E0F093ED011092C80161E082E10E9496
:10374000CD0961E083E10E94CD098091B9008E7FAF
:103750008093B9008091B9008D7F8093B90088E48F
:103760008093B80085E48093BC0087B18F7C87B9D3
:1037700081E08093EF0192E5909311021092F001A5
:103780001092120280EF90E00E947E1285E590E098
:103790000E947E120E94B711E1E0E093EF01F2E592
:1037A000F09311021092F001109212028BEF90E050
:1037B0000E947E1280E090E00E947E120E94B7116B
:1037C0008AEF0E940F127894A9E3CA2EB9E0DB2E8B
:1037D000772473946624639480E00E940F12809192
:1037E0005201813009F06CC71092520160910D03B3
:1037F00080910D036C9D612D112466958C9D912DFA
:10380000112496959D9D801911240E94BD166091EA
:103810005101809151016C9D612D112466958C9D03
:10382000912D112496959D9D801911240E94BD16FD
:103830008091C2018F3FF1F480910D036D2D0E94A4
:103840001126983009F486C0E0910D03EF5FF0E097
:10385000E15FFC4F8081893009F03CC7E0910D03A6
:10386000F0E0E15FFC4FD0820E94E71680910D03EB
:103870008F5F5AC081111EC080910D036D2D0E9473
:103880001126992309F466C0E0910D03E150F0E0A0
:10389000E15FFC4F8081893009F024C7E0910D037E
:1038A000F0E0E15FFC4FD0820E94E71680910D03AB
:1038B00081503AC08091C3018F3FD9F480910D03AC
:1038C000893008F447C0E0910D03E950F0E0E15F72
:1038D000FC4F8081893009F00DC7E0910D03F0E0C5
:1038E000E15FFC4FD0820E94E71680910D03895062
:1038F0001BC081112FC080910D03883458F5E091D1
:103900000D03E75FF0E0E15FFC4F8081893009F053
:10391000F9C6E0910D03F0E0E15FFC4FD0820E9418
:10392000E71680910D03875F80930D0380910D034F
:103930000E940118882341F0E0910D03F0E0E15F5F
:10394000FC4F80810E941417E0910D03F0E0E15FCD
:10395000FC4F70828091C70180FF60920E030E942D
:10396000131880910D038C9D912D112496959D83A4
:1039700080910D038C9DE12D1124E695ED9D80191C
:10398000112489830091010180900101A09001011F
:103990006091010110E008511109912CF0E18F1A9A
:1039A00091089A9D5001112486E1A80EB11C9981BD
:1039B000969FB00111246C5C7F4F072E000C880B82
:1039C000990B0E94182520E030E040ED50E40E9461
:1039D00074240E94E024E12CF12C9401A50187EAD3
:1039E00092E00E94830F009101012091010140911A
:1039F00001016091010110E00151110930E02551F0
:103A00003109ED81E49FA0011124455E5F4FF981EA
:103A1000F69FB0011124655C7F4F87EA92E00E9417
:103A2000830F0091010120910101409101016091FA
:103A3000010110E00151110930E0255131098D815A
:103A4000849FA0011124455E5F4F9981969FB0012C
:103A50001124615C7F4F87EA92E00E94830F0091FE
:103A6000010120910101409101016091010110E0EB
:103A70000651110930E024513109ED81E49FA00184
:103A80001124405E5F4FF981F69FB0011124675CFD
:103A90007F4F8FE5E82E83E1F82E87EA92E00E94BF
:103AA000830F00910101209101014091010160917A
:103AB000010110E00651110930E0245131098D81D6
:103AC000849FA0011124405E5F4F9981969FB001B1
:103AD0001124615C7F4F87EA92E00E94830F00917E
:103AE0000101A0900101809001016091010110E0AD
:103AF00000511109B12CE2E1AE1AB108FD81F89D27
:103B00004001112482E1880E911C9981969FB00199
:103B100011246C5C7F4F072E000C880B990B0E94C0
:103B2000182520E030E040EF50E40E9474240E9409
:103B3000E0249501A40187EA92E00E94830F00919E
:103B4000010120910101409101016091010110E00A
:103B50000251110930E026513109ED81E49FA001A5
:103B600011244C5E5F4FF981F69FB0011124695C0E
:103B70007F4F87EA92E00E94830F0091010120911C
:103B80000101409101016091010110E0055111090D
:103B900030E0255131098D81849FA00111244C5EB4
:103BA0005F4F9981969FB0011124685C7F4F87EA2F
:103BB00092E00E94830F0091010120910101409148
:103BC00001016091010110E00551110930E025511A
:103BD0003109ED81E49FA0011124475E5F4FF98117
:103BE000F69FB00111246A5C7F4F90EDE92E95EFAE
:103BF000F92E87EA92E00E94830F00910101209143
:103C00000101409101016091010110E0025111098F
:103C100030E0265131098D81849FA00111244C5E32
:103C20005F4F9981969FB00111246E5B7F4FEFE546
:103C3000EE2EE3E1FE2E87EA92E00E94830F0091D0
:103C4000010120910101409101016091010110E009
:103C50000551110930E025513109ED81E49FA001A2
:103C600011244C5E5F4FF981F69FB00111246F5B08
:103C70007F4F87EA92E00E94830F0091010120911B
:103C80000101409101016091010110E0055111090C
:103C900030E0255131098D81849FA0011124475EB8
:103CA0005F4F9981969FB00111246E5B7F4FF0EDBD
:103CB000EF2EF5EFFF2E87EA92E00E94830F8091AE
:103CC0000101B09001010091010110910101ED810C
:103CD000E89FB0011124665F7F4F072E000C880B10
:103CE000990B0E9418251B012C016B2D70E080E0C0
:103CF00090E00E9418252AE939E949E95EE30E942B
:103D0000A4259B01AC01C201B1010E94742420E0F2
:103D100030E040E85FE30E9473240E94E0244B01FE
:103D20005C01F981F09FB00111246E5C7F4F072E7A
:103D3000000C880B990B0E9418251B012C01612F88
:103D400070E080E090E00E9418252AE939E949E90D
:103D50005EE30E94A4259B01AC01C201B1010E9457
:103D6000742420E030E040EA50E40E9474240E9471
:103D7000E024DC01CB0120ED35EF45E050E0B4015B
:103D80000E94311300910101209101014091010134
:103D90006091010110E00651110930E0265131090E
:103DA0008D81849FA0011124405F5F4F9981969F70
:103DB000B0011124655C7F4FE12CF12C87EA92E081
:103DC0000E94830F009101012091010140910101A6
:103DD0006091010110E00751110930E027513109CC
:103DE000ED81E49FA0011124405F5F4FF981F69FB0
:103DF000B0011124655C7F4FEE24EA94FE2C87EA23
:103E000092E00E94830F00910101209101014091F5
:103E100001016091010110E00651110930E02651C5
:103E200031098D81849FA0011124405F5F4F9981EA
:103E3000969FB0011124605C7F4FE12CF12C87EA42
:103E400092E00E94830F00910101209101014091B5
:103E500001016091010110E00751110930E0275183
:103E60003109ED81E49FA0011124405F5F4FF9818A
:103E7000F69FB0011124605C7F4FEE24EA94FE2C83
:103E800087EA92E00E94830F409101016091010155
:103E90008D81849FA00111244C5E5F4F9981969F74
:103EA000B0011124625C7F4F20E030E087EA92E0AD
:103EB0000E9453114091010160910101ED81E49F45
:103EC000A00111244D5E5F4FF981F69FB0011124CE
:103ED000615C7F4F20E030E087EA92E00E9453115E
:103EE00040910101609101018D81849FA001112405
:103EF0004C5E5F4F9981969FB0011124635C7F4FA8
:103F000020E030E087EA92E00E9453110091010125
:103F100020910101409101016091010110E00451E3
:103F2000110930E02E503109ED81E49FA0011124E8
:103F3000465F5F4FF981F69FB0011124675C7F4FA8
:103F40008FE5E82E83E1F82E87EA92E00E94830F46
:103F50000091010120910101409101016091010155
:103F600010E00451110930E02E5031098D81849FF9
:103F7000A0011124465F5F4F9981969FB0011124E3
:103F8000675C7F4FE12CF12C87EA92E00E94460BA0
:103F90000091010120910101409101016091010115
:103FA00010E00551110930E020513109ED81E49F05
:103FB000A0011124445F5F4FF981F69FB0011124E5
:103FC000635C7F4F9FE5E92E93E1F92E87EA92E04B
:103FD0000E94830F00910101209101014091010194
:103FE0006091010110E00551110930E020513109C3
:103FF0008D81849FA0011124445F5F4F9981969F1A
:10400000B0011124635C7F4FE12CF12C87EA92E030
:104010000E94460BE0915101EC9DF12D1124F69583
:10402000FD83809151018C9D912D112496959D9D2C
:104030008019112489830091010180900101A090D1
:1040400001016091010110E008511109912CE0E19A
:104050008E1A9108FA9D50011124F6E1AF0EB11CA1
:10406000869FB00111246C5C7F4F072E000C880BDB
:10407000990B0E94182520E030E040ED50E40E94AA
:1040800074240E94E0249401A50187EA92E00E9432
:10409000830F009101012091010140910101609184
:1040A000010110E00151110930E0255131098D81E4
:1040B000849FA0011124455E5F4F9981969FB001B6
:1040C0001124655C7F4F87EA92E00E94830F009184
:1040D000010120910101409101016091010110E075
:1040E0000151110930E025513109ED81E49FA00112
:1040F0001124455E5F4FF981F69FB0011124615C88
:104100007F4F87EA92E00E94830F00910101209186
:104110000101409101016091010110E00651110976
:1041200030E0245131098D81849FA0011124405E2B
:104130005F4F9981969FB0011124675C7F4FE7EE36
:10414000EE2EE9EDFE2E87EA92E00E94830F0091A9
:10415000010120910101409101016091010110E0F4
:104160000651110930E024513109ED81E49FA0018D
:104170001124405E5F4FF981F69FB0011124615C0C
:104180007F4F87EA92E00E94830F00910101A09087
:104190000101809001016091010110E00F501109AF
:1041A000B12C82E1A81AB1089D81989D400111248B
:1041B000E2E18E0E911CF981F69FB00111246C5C36
:1041C0007F4F072E000C880B990B0E94182520E0CA
:1041D00030E040EF50E40E9474240E94E0249501F6
:1041E000A40187EA92E00E94830F009101012091CF
:1041F0000101409101016091010110E0025111099A
:1042000030E0265131098D81849FA00111244C5E3C
:104210005F4F9981969FB0011124695C7F4F87EAB7
:1042200092E00E94830F00910101209101014091D1
:1042300001016091010110E00551110930E02551A3
:104240003109ED81E49FA00111244C5E5F4FF9819B
:10425000F69FB0011124685C7F4F87EA92E00E94CC
:10426000830F0091010120910101409101016091B2
:10427000010110E00551110930E0255131098D810E
:10428000849FA0011124475E5F4F9981969FB001E2
:1042900011246A5C7F4FF0EDEF2EF5EFFF2E87EAD9
:1042A00092E00E94830F0091010120910101409151
:1042B00001016091010110E00251110930E0265125
:1042C0003109ED81E49FA00111244C5E5F4FF9811B
:1042D000F69FB00111246E5B7F4FA7EEEA2EA9ED89
:1042E000FA2E87EA92E00E94830F0091010120914B
:1042F0000101409101016091010110E00551110996
:1043000030E0255131098D81849FA00111244C5E3C
:104310005F4F9981969FB00111246F5B7F4F87EAB1
:1043200092E00E94830F00910101209101014091D0
:1043300001016091010110E00551110930E02551A2
:104340003109ED81E49FA0011124475E5F4FF9819F
:10435000F69FB00111246E5B7F4FB0EDEB2EB5EFF1
:10436000FB2E87EA92E00E94830F80910101B090BA
:10437000010100910101109101019D81989FB001FF
:104380001124665F7F4F072E000C880B990B0E944B
:1043900018251B012C016B2D70E080E090E00E943D
:1043A00018252AE939E949E95EE30E94A4259B0121
:1043B000AC01C201B1010E94742420E030E040E869
:1043C0005FE30E9473240E94E0244B015C01E981B9
:1043D000E09FB00111246E5C7F4F072E000C880B0C
:1043E000990B0E9418251B012C01612F70E080E0C1
:1043F00090E00E9418252AE939E949E95EE30E9424
:10440000A4259B01AC01C201B1010E94742420E0EB
:1044100030E040EA50E40E9474240E94E024DC0171
:10442000CB0120ED35EF45E050E0B4010E9431139F
:104430000091010120910101409101016091010170
:1044400010E00651110930E026513109FD81F49F39
:10445000A0011124405F5F4F8981869FB001112424
:10446000655C7F4FE12CF12C87EA92E00E94830F7C
:104470000091010120910101409101016091010130
:1044800010E00751110930E0275131099D81949FB7
:10449000A0011124405F5F4FE981E69FB001112424
:1044A000655C7F4FEE24EA94FE2C87EA92E00E943E
:1044B000830F009101012091010140910101609160
:1044C000010110E00651110930E026513109FD814A
:1044D000F49FA0011124405F5F4F8981869FB00146
:1044E0001124605C7F4FE12CF12C87EA92E00E945E
:1044F000830F009101012091010140910101609120
:10450000010110E00751110930E0275131099D8167
:10451000949FA0011124405F5F4FE981E69FB001A5
:104520001124605C7F4FEE24EA94FE2C87EA92E02F
:104530000E94830F4091010160910101FD81F49F70
:10454000A00111244C5E5F4F8981869FB001112428
:10455000625C7F4F20E030E087EA92E00E945311D6
:1045600040910101609101019D81949FA00111245E
:104570004D5E5F4FE981E69FB0011124615C7F4F82
:1045800020E030E087EA92E00E945311409101015F
:1045900060910101FD81F49FA00111244C5E5F4FE9
:1045A0008981869FB0011124635C7F4F20E030E059
:1045B00087EA92E00E9453110091010120910101CC
:1045C000409101016091010110E00451110930E0B6
:1045D0002E5031099D81949FA0011124465F5F4FA9
:1045E000E981E69FB0011124675C7F4FE7EEEE2E74
:1045F000E9EDFE2E87EA92E00E94830F009101010F
:1046000020910101409101016091010110E00451EC
:10461000110930E02E503109FD81F49FA0011124D1
:10462000465F5F4F8981869FB0011124675C7F4F91
:10463000E12CF12C87EA92E00E94460B00910101E7
:1046400020910101409101016091010110E00551AB
:10465000110930E0205131099D81949FA00111245E
:10466000445F5F4FE981E69FB0011124635C7F4F97
:10467000F7EEEF2EF9EDFF2E87EA92E00E94830F0E
:10468000009101012091010140910101609101011E
:1046900010E00551110930E020513109FD81F49FEE
:1046A000A0011124445F5F4F8981869FB0011124CE
:1046B000635C7F4FE12CF12C87EA92E00E94460B6D
:1046C00080915201823009F087C8109252010E94F5
:1046D000131882C880910D038F5F0E940118811109
:1046E000BDC838C980910D0381500E940118811105
:1046F000D5C830C980910D0389500E9401188111DD
:10470000ECC828C980910D03875F0E9401188111B0
:1047100000C920C9EAEEF2E01382128248EE53E0AB
:1047200060E070E0448355836683778386E091E0A0
:104730009183808387E592E09587848783E192E087
:104740009787868785EC90E0918B808B84EC90E056
:10475000938B828B80EC90E0958B848B81EC90E046
:10476000978B868B82EC90E0918F808F86EC90E027
:10477000938F828F84E0848F83E0858F87E0868F9C
:1047800085E0878F81E080A3EBE9F2E0138212825B
:10479000448355836683778326E131E03183208328
:1047A000A7EAB2E013961C921E92129740EF50E0D7
:1047B00015965C934E93149720E431E017963C9342
:1047C0002E93169719965C934E9318971B963C93CD
:1047D0002E931A9756961C9256971D961C921E92CF
:1047E0001C971F961C921E921E9755968C93559758
:1047F00054968C9354972FEF3FEF53963C932E9300
:10480000529751963C932E93509757968C93579767
:1048100058961C9258975A961C921E925997D59664
:104820001C92D5978FEFD6968C93D6978AE0D79621
:104830008C93D79789E0D8968C93D897DA961C9268
:104840001E92D997DC961C921E92DB97DD961C92E5
:10485000DD97DE961C92DE971092E6021092E70238
:104860001092E8021092E9028CE093E090969C93FB
:104870008E935F97ECE1F6E0E491F0E0EE0FFF1F1E
:10488000E75FF94F859194915E969C938E935D9727
:10489000EEEFF5E08491D3968C93D397EDE1F6E0BB
:1048A000E491F0E0EE0FFF1FE75FF94F259134919F
:1048B0005C963C932E935B97EFEFF5E0E491D196F5
:1048C000EC93D197E095D296EC93D297E82FE095B0
:1048D000D496EC93D49786E291E08D939C930895BF
:1048E000F8940C9441265058BB27AA270E948B2489
:1048F0000C946A250E945C2538F00E94632520F004
:1049000039F49F3F19F426F40C9459250EF4E095E0
:10491000E7FB0C945325E92F0E947B2558F3BA1727
:10492000620773078407950720F079F4A6F50C94C5
:104930009D250EF4E0950B2EBA2FA02D0B01B90189
:1049400090010C01CA01A0011124FF27591B99F005
:10495000593F50F4503E68F11A16F040A22F232F11
:10496000342F4427585FF3CF469537952795A79561
:10497000F0405395C9F77EF41F16BA0B620B730B08
:10498000840BBAF09150A1F0FF0FBB1F661F771F79
:10499000881FC2F70EC0BA0F621F731F841F48F42E
:1049A000879577956795B795F7959E3F08F0B0CFB7
:1049B0009395880F08F09927EE0F9795879508959E
:1049C0000E94E7246894B1110C949E2508950E94DA
:1049D000832588F09F5798F0B92F9927B751B0F0E9
:1049E000E1F0660F771F881F991F1AF0BA95C9F773
:1049F00014C0B13091F00E949D25B1E008950C944F
:104A00009D25672F782F8827B85F39F0B93FCCF301
:104A1000869577956795B395D9F73EF490958095EF
:104A2000709561957F4F8F4F9F4F0895E89409C00F
:104A300097FB3EF490958095709561957F4F8F4FD1
:104A40009F4F9923A9F0F92F96E9BB279395F695E7
:104A5000879577956795B795F111F8CFFAF4BB0F65
:104A600011F460FF1BC06F5F7F4F8F4F9F4F16C0C9
:104A7000882311F096E911C0772321F09EE8872F53
:104A8000762F05C0662371F096E8862F70E060E00F
:104A90002AF09A95660F771F881FDAF7880F969588
:104AA000879597F9089597F99F6780E870E060E02F
:104AB00008959FEF80EC089500240A9416161706B7
:104AC00018060906089500240A94121613061406FF
:104AD00005060895092E0394000C11F4882352F062
:104AE000BB0F40F4BF2B11F460FF04C06F5F7F4F1A
:104AF0008F4F9F4F089557FD9058440F551F59F001
:104B00005F3F71F04795880F97FB991F61F09F3FBA
:104B100079F087950895121613061406551FF2CFE3
:104B20004695F1DF08C0161617061806991FF1CF33
:104B300086957105610508940895E894BB2766275A
:104B40007727CB0197F908950E94B7250C946A2521
:104B50000E945C2538F00E94632520F0952311F017
:104B60000C9453250C94592511240C949E250E94D5
:104B70007B2570F3959FC1F3950F50E0551F629F01
:104B8000F001729FBB27F00DB11D639FAA27F00DA6
:104B9000B11DAA1F649F6627B00DA11D661F829FCD
:104BA0002227B00DA11D621F739FB00DA11D621FB2
:104BB000839FA00D611D221F749F3327A00D611DCF
:104BC000231F849F600D211D822F762F6A2F1124B1
:104BD0009F5750409AF0F1F088234AF0EE0FFF1FE4
:104BE000BB1F661F771F881F91505040A9F79E3F3B
:104BF000510580F00C9453250C949E255F3FE4F3FF
:104C0000983ED4F3869577956795B795F795E79590
:104C10009F5FC1F7FE2B880F911D9695879597F999
:104C20000895991B79E004C0991F961708F0961B08
:104C3000881F7A95C9F7809508950E942526332309
:104C400012F48A1B9B0B0C943626A29FB001B39FD3
:104C5000C001A39F700D811D1124911DB29F700D85
:104C6000811D1124911D08950E942526B7FF0895E6
:104C7000821B930B0895EE0FFF1F0590F491E02D1A
:064C80000994F894FFCF37
:104C8600031800000000980332042104E50305041C
:104C9600DA0300000000EF04C204BA04A604970475
:104CA600960400000000C70D3204531194146214D8
:104CB60094100F105210150D32147C051E059F0E10
:0E4CC600110F830F120CA50B460B1A0AC20524
:00000001FF
