:100000000C9415030C943D030C943D030C943D0398
:100010000C943D030C943D030C943D030C943D0360
:100020000C943D030C943D030C943D030C944E033F
:100030000C943F030C943D030C943D030C943D033E
:100040000C94CB140C943D030C946A100C942F1058
:100050000C943D030C945D030C943D030C943D0300
:100060000C94EF0E0C943D03EF03038002CF0300CA
:10007000C130ED0464031281E803850078CB0539B3
:100080002C003402F70120EA020000C00123C10164
:1000900010C5023E28C701863601483701003A01E3
:1000A00055B1020018B603088227F20100260101AB
:1000B000E00F0F312B0C0E084EF1370710030E091D
:1000C00000E10F000E1403110731C148080F0C3175
:1000D000360F118029800000000000240027002A2C
:1000E00000000000070002010000030406000000F9
:1000F000000000000000000000003E5B4F5B3E3E41
:100100006B4F6B3E1C3E7C3E1C183C7E3C181C57C3
:100110007D571C1C5E7F5E1C00183C1800FFE7C367
:10012000E7FF0018241800FFE7DBE7FF30483A0636
:100130000E2629792926407F050507407F05253FA2
:100140005A3CE73C5A7F3E1C1C08081C1C3E7F148E
:10015000227F22145F5F005F5F06097F017F0066D8
:1001600089956A606060606094A2FFA29408047E32
:10017000040810207E201008082A1C08081C2A08E1
:10018000081E101010100C1E0C1E0C30383E38309B
:10019000060E3E0E06000000000000005F0000009A
:1001A00007000700147F147F14242A7F2A122313C8
:1001B00008646236495620500008070300001C22DC
:1001C00041000041221C002A1C7F1C2A08083E080E
:1001D000080080703000080808080800006060000F
:1001E00020100804023E5149453E00427F40007203
:1001F000494949462141494D331814127F1027457A
:100200004545393C4A494931412111090736494997
:100210004936464949291E000014000000403400B8
:10022000000008142241141414141400412214086C
:1002300002015909063E415D594E7C1211127C7F24
:10024000494949363E414141227F4141413E7F4932
:100250004949417F090909013E414151737F08081D
:10026000087F00417F41002040413F017F08142268
:10027000417F404040407F021C027F7F0408107F86
:100280003E4141413E7F090909063E4151215E7FC1
:1002900009192946264949493203017F01033F4094
:1002A00040403F1F2040201F3F4038403F6314081C
:1002B000146303047804036159494D43007F4141AD
:1002C000410204081020004141417F040201020460
:1002D0004040404040000307080020545478407FCD
:1002E000284444383844444428384444287F385407
:1002F00054541800087E090218A4A49C787F0804AE
:10030000047800447D40002040403D007F10284498
:100310000000417F40007C047804787C0804047865
:100320003844444438FC1824241818242418FC7C2D
:1003300008040408485454542404043F44243C4012
:1003400040207C1C2040201C3C4030403C44281075
:1003500028444C9090907C4464544C4400083641AE
:10036000000000770000004136080002010204028C
:100370003C2623263C1EA1A161123A4040207A3837
:100380005454555921555579412254547842215598
:1003900054784020545579400C1E527212395555EC
:1003A0005559395454545939555454580000457CC2
:1003B000410002457D420001457C407D1211127DC5
:1003C000F0282528F07C545545002054547C547C5A
:1003D0000A097F4932494949323A4444443A324A47
:1003E0004848303A4141217A3A42402078009DA065
:1003F000A07D3D4242423D3D4040403D3C24FF24E3
:1004000024487E4943662B2FFC2F2BFF0929F62019
:10041000C0887E090320545479410000447D413056
:1004200048484A32384040227A007A0A0A727D0DE2
:1004300019317D2629292F28262929292630484D9A
:100440004020380808080808080808382F10C8ACE9
:10045000BA2F102834FA00007B000008142A142256
:1004600022142A14085500550055AA55AA55AAFF6A
:1004700055FF55FF000000FF00101010FF0014147E
:1004800014FF001010FF00FF1010F010F0141414EF
:10049000FC001414F700FF0000FF00FF1414F40424
:1004A000FC141417101F10101F101F1414141F0019
:1004B000101010F0000000001F101010101F10107E
:1004C0001010F010000000FF10101010101010108D
:1004D00010FF10000000FF140000FF00FF00001FCD
:1004E00010170000FC04F414141710171414F4046B
:1004F000F40000FF00F714141414141414F700F798
:10050000141414171410101F101F141414F41410C2
:1005100010F010F000001F101F0000001F1400005A
:1005200000FC140000F010F01010FF10FF14141461
:10053000FF141010101F00000000F010FFFFFFFF5D
:10054000FFF0F0F0F0F0FFFFFF0000000000FFFF01
:100550000F0F0F0F0F3844443844FC4A4A4A347E88
:1005600002020606027E027E026355494163384458
:10057000443C04407E201E2006027E020299A5E72C
:10058000A5991C2A492A1C4C7201724C304A4D4DC7
:10059000303048784830BC625A463D3E49494900AF
:1005A0007E0101017E2A2A2A2A2A44445F444440CB
:1005B000514A444040444A51400000FF0103E0805A
:1005C000FF000008086B6B083612362436060F0948
:1005D0000F06000018180000001010003040FF0146
:1005E00001001F01011E00191D1712003C3C3C3C7C
:1005F00000000000000102040810204080010204F5
:100600000810200102040810200000000025002826
:10061000002B000404040404040404020202020285
:1006200002030303030303009F2311241FBECFEF24
:10063000D8E0DEBFCDBF11E0A0E0B1E0E0EBFCE42C
:1006400002C005900D92AE34B107D9F723E0AEE4B5
:10065000B1E001C01D92AA36B207E1F713E0C5E18F
:10066000D3E004C02197FE010E945026C431D10777
:10067000C9F70E94CB180C9485240C9400001F929B
:100680000F920FB60F9211248F9382E08093520144
:100690008F910F900FBE0F901F9018951F920F9281
:1006A0000FB60F9211248F9381E0809352018F91A6
:1006B0000F900FBE0F901F9018951F920F920FB6BC
:1006C0000F9211248F939F938091780090917900DD
:1006D0009695879596958795809350019F918F91D8
:1006E0000F900FBE0F901F901895FC0187A987FDF2
:1006F00006C0A38DB48D9C9181A9892B8C930895FC
:100700000895FC016370668B848195812681378111
:10071000613039F0633029F09187808733872287F1
:100720000895318720879387828708956F927F92FB
:100730008F929F92AF92BF92CF92DF92EF92FF92F1
:100740000F931F93CF93DF93EC014B015A01690183
:100750003801E881F9810680F781E02D0995E8816B
:10076000F9810684F785E02D87019601A501B40182
:10077000CE010995A501460D571D41505109E8814B
:10078000F9810684F785E02D9601B401CE01099523
:10079000E881F9810484F585E02D9301A501B40178
:1007A000CE010995C80CD91CB60161507109E881C8
:1007B000F9810484F585E02D9301A501CE01099509
:1007C000E881F9810288F389E02DCE01DF91CF9194
:1007D0001F910F91FF90EF90DF90CF90BF90AF905F
:1007E0009F908F907F906F9009948F929F92AF927D
:1007F000BF92CF92DF92EF92FF920F931F93CF930E
:10080000DF934C016B015A01E901DC01ED91FC9190
:100810006217730781F40417150724F48B2D580110
:10082000042F182F0A191B0998012F5F3F4F008CC6
:10083000F18DE02D12C04017510709F52617370733
:1008400024F48D2D6901C62FD82F9E012C193D0946
:100850002F5F3F4F028CF38DE02D8701A501B6017C
:10086000C4010995DF91CF911F910F91FF90EF90F7
:10087000DF90CF90BF90AF909F908F9008950680AB
:10088000F781E02D0995D401ED91FC910088F18963
:10089000E02D9E01A501B601C4010995D401ED9199
:1008A000FC910288F389E02DC401DF91CF911F9163
:1008B0000F91FF90EF90DF90CF90BF90AF909F90FF
:1008C0008F900994EF92FF920F931F93DC011A9679
:1008D0000D911C911B9718962D913C911997ED91B4
:1008E000FC91048CF58DE02D7B0140E050E060E050
:1008F00070E009951F910F91FF90EF9008954F922E
:100900005F926F927F928F929F92AF92BF92CF929F
:10091000DF92EF92FF920F931F93CF93DF936C01BF
:100920002B015A0139014801DC01ED91FC9106804F
:10093000F781E02D0995E201640C751CD601ED915B
:10094000FC91C615D7055CF40484F585E02D87017C
:100950009401A501BE01C60109952196EFCF028839
:10096000F389E02DC601DF91CF911F910F91FF9088
:10097000EF90DF90CF90BF90AF909F908F907F903F
:100980006F905F904F9009948F929F92AF92BF9219
:10099000CF92DF92EF92FF920F931F93CF93DF934B
:1009A000EC015B014A016901E881F9810680F78168
:1009B000E02D099595012C0D3D1D21503109E8814F
:1009C000F9810088F189E02D78018401A401B50145
:1009D000CE010995E881F9810288F389E02DCE01E5
:1009E000DF91CF911F910F91FF90EF90DF90CF900B
:1009F000BF90AF909F908F9009948F929F92AF92EB
:100A0000BF92CF92DF92EF92FF920F931F93CF93FB
:100A1000DF93EC015B014A0169017801E881F9810A
:100A20000680F781E02D0995C80CD91C860101507C
:100A30001109E881F9810088F189E02D9501A4016F
:100A4000B501CE010995E881F9810288F389E02D8D
:100A5000CE01DF91CF911F910F91FF90EF90DF902A
:100A6000CF90BF90AF909F908F9009940895EF9290
:100A7000FF920F931F93DC01ED91FC91048CF58D97
:100A8000E02D09951F910F91FF90EF9008950F931E
:100A90001F93DC01ED91FC91028CF38DE02D099503
:100AA0001F910F9108950F931F93DC01ED91FC911D
:100AB000008CF18DE02D09951F910F910895DC01B7
:100AC000ED91FC910480F581E02D09942F923F92E5
:100AD0004F925F926F927F928F929F92AF92BF924E
:100AE000CF92DF92EF92FF920F931F93CF93DF93FA
:100AF00000D000D000D0CDB7DEB72C017E836D834F
:100B00006A015901C801FC82EB824801841A950AE6
:100B100097FE03C091948194910835012D813E8107
:100B2000621A730A77FE03C07194619471086814A5
:100B300079045CF43A2D2B2D5C01832F922F3D819B
:100B40002E81DE82CD82C32ED22EAD81BE81AA1629
:100B5000BB065CF43C2D2D2D6C01832F922F3D8123
:100B60002E81BE82AD82A32EB22E85012D813E81C3
:100B7000021B130B1C012C183D0837FE03C03194D7
:100B800021943108780117FF03C03FEFE31AF30AFD
:100B9000F594E794C816D9062CF08FEF9FEF9A834F
:100BA000898304C0A1E0B0E0BA83A9832D813E818E
:100BB000A216B30624F1D201ED91FC910084F185D7
:100BC000E02D2B813C816814790424F44D815E81F1
:100BD000B60103C0A6016D817E81C2010995E218AC
:100BE000F308F7FE06C029813A81C20ED31EE00E3B
:100BF000F11E8D819E8101969E838D83D7CF26968F
:100C00000FB6F894DEBF0FBECDBFDF91CF911F911D
:100C10000F91FF90EF90DF90CF90BF90AF909F909B
:100C20008F907F906F905F904F903F902F9008959E
:100C3000E091970180919601E81730F4F0E0E856D2
:100C4000FE4F808190E008958FEF9FEF089590917F
:100C5000970180919601981750F4E92FF0E0E8563B
:100C6000FE4F208130E09F5F9093970102C02FEFED
:100C70003FEFC90108958091960190E0209197017E
:100C8000821B910908958F929F92AF92BF92CF924B
:100C9000DF92EF92FF920F931F93CF93DF935C014C
:100CA0004B016A01E90177FD53C0DC0118968D9173
:100CB0009C911997681779070CF04AC0209709F49E
:100CC00047C037FF07C0C9010196C80ED91ED1958C
:100CD000C195D109F50182859385C816D906C4F559
:100CE000A6014C0F5D1F9A012150310937FD30C01C
:100CF000D7FE03C0EA01C12CD12C281739071CF0FC
:100D0000EC01CC19DD09D501ED91FC910680F7814C
:100D1000E02DC501099578018E0121E030E0A601A2
:100D2000B401C5010E94F712D501ED91FC91028832
:100D3000F389E02DC501DF91CF911F910F91FF90B5
:100D4000EF90DF90CF90BF90AF909F908F900994DD
:100D5000DF91CF911F910F91FF90EF90DF90CF9097
:100D6000BF90AF909F908F9008958F929F92AF9277
:100D7000BF92CF92DF92EF92FF920F931F93CF9388
:100D8000DF935C016B014A01E90157FD53C0DC01AF
:100D90001A968D919C911B97481759070CF04AC0E1
:100DA000209709F447C037FF07C0C9010196C80E54
:100DB000D91ED195C195D109F50180859185C816B7
:100DC000D906C4F5A6014C0F5D1F9A0121503109C7
:100DD00037FD30C0D7FE03C0EA01C12CD12C281743
:100DE00039071CF0EC01CC19DD09D501ED91FC911E
:100DF0000680F781E02DC5010995780101E010E03A
:100E00009E01A401B601C5010E94F712D501ED9122
:100E1000FC910288F389E02DC501DF91CF911F91EC
:100E20000F91FF90EF90DF90CF90BF90AF909F9089
:100E30008F900994DF91CF911F910F91FF90EF90C8
:100E4000DF90CF90BF90AF909F908F9008958F923A
:100E50009F92AF92BF92CF92DF92EF92FF920F9349
:100E60001F93CF93DF934C016B015A01E901209747
:100E700009F46CC00115110509F468C037FF07C0FB
:100E8000C9010196C80ED91ED195C195D109F401A9
:100E9000A085B185CA16DB060CF058C017FF07C045
:100EA000C8010196A80EB91E119501951109F4010A
:100EB00082859385A816B9060CF048C0F601EC0FA0
:100EC000FD1FAF014150510957FD40C0B501600FF2
:100ED000711F9B012150310937FD38C0D7FE03C077
:100EE000EF01C12CD12CB7FE03C08B01A12CB12C7A
:100EF0004A175B071CF0ED01CC19DD0928173907EB
:100F00001CF08C010A191B09D401ED91FC9106809B
:100F1000F781E02DC40109959E01A501B601C40128
:100F20000E94F712D401ED91FC910288F389E02D23
:100F3000C401DF91CF911F910F91FF90EF90DF904F
:100F4000CF90BF90AF909F908F900994DF91CF91F9
:100F50001F910F91FF90EF90DF90CF90BF90AF90D7
:100F60009F908F900895EF92FF920F931F93CF93CE
:100F7000DF9377FD34C0DC011896ED91FC91199751
:100F80006E177F0764F52115310549F137FF07C05A
:100F9000F90131964E0F5F1F319521953109DC0122
:100FA0001A96ED91FC911B974E175F07C4F4EA0166
:100FB000C20FD31FDE011197B7FD11C057FF03C049
:100FC0009E0140E050E0AE17BF071CF09F01241BBC
:100FD000350B7801890121E030E00E94F712DF91A2
:100FE000CF911F910F91FF90EF900895EF92FF9294
:100FF0000F931F93CF93DF9357FD33C0DC011A96F5
:10100000ED91FC911B974E175F075CF5211531059B
:1010100041F137FF07C0F90131966E0F7F1F3195FF
:1010200021953109DC011896ED91FC9119976E1705
:101030007F07BCF4EB01C20FD31FDE011197B7FD90
:1010400010C077FF03C09E0160E070E0AE17BF07DD
:101050001CF09F01261B370B780101E010E00E9475
:10106000F712DF91CF911F910F91FF90EF900895AC
:101070008F929F92AF92BF92CF92DF92EF92FF92A8
:101080000F931F93CF93DF9347012115310509F487
:101090004DC00115110509F449C037FF07C0F9011A
:1010A00031966E0F7F1F319521953109DC0118961D
:1010B000AD90BC9019976A157B05C4F517FF07C062
:1010C000F80131964E0F5F1F119501951109DC0152
:1010D0001A96ED91FC911B974E175F073CF56B013B
:1010E000C20ED31EE6012197D7FD20C07A01E00E83
:1010F000F11ED7011197B7FD19C077FF03C0960104
:1011000060E070E057FF03C0870140E050E0CA157F
:10111000DB051CF09501261B370BAE17BF071CF033
:101120008F01041B150B74010E94F712DF91CF9100
:101130001F910F91FF90EF90DF90CF90BF90AF90F5
:101140009F908F9008958F929F92AF92CF92EF923F
:10115000FF920F931F93CF93DF93EC01262F898D7E
:101160009A8D009709F042C06A3059F41D861C869A
:101170002D898E859F8538E0239F800D911D112438
:1011800043C06D3009F4AAC08F898823C9F03C8917
:101190008C859D8546E0349F800D911D11244885E6
:1011A00059854817590764F41D861C863D898E852C
:1011B0009F8548E0349F800D911D11249F878E8765
:1011C000EA88FB88088919894E855F856C857D854D
:1011D000AD88CC88CE010E94BB0C2C898C859D8566
:1011E00036E0239F800D911D11243EC06A3079F4B2
:1011F0001D861C862D89FC013696E4918E859F857F
:101200002E9F800D911D11249F878E8767C06D30A2
:1012100009F464C0FC0134963491631708F45EC08D
:101220003196E491E61708F459C0462F431B342F3A
:10123000FC0132968590949047E0349F800C911C7D
:101240001124F401329634913196E491332311F054
:10125000E1110DC0F4013496E4912C898C859D85B3
:10126000E29F800D911D11249D878C8737C0F4016A
:10127000359644915F89552319F15C89E32FF0E09D
:10128000E40FF11D47FDFA955E9FB0015F9F700D61
:1012900011244C855D85460F571F68857985641735
:1012A000750774F41D861C863D89FC013696E49111
:1012B0008E859F853E9F800D911D11249F878E876F
:1012C000EA88FB88088919894E855F856C857D854C
:1012D000AD88CC88CE010E94BB0CBCCF81E090E0F1
:1012E000DF91CF911F910F91FF90EF90CF90AF9032
:1012F0009F908F900895CF92DF92EF92FF920F937D
:101300001F93CF93DF937C01CB018A012091EF01E2
:10131000222389F0EB016B01C40ED51ECC15DD052F
:1013200069F06991D701ED91FC910190F081E02D78
:10133000C7010995F3CF642F0E941610C801DF91F1
:10134000CF911F910F91FF90EF90DF90CF90089574
:10135000CF93DF931F92CDB7DEB769832091EF0162
:101360002223D1F020911202203240F021E030E01F
:10137000FC013383228380E090E015C08091F0016E
:10138000E82FF0E0EF50FE4F998190838F5F8093BC
:10139000F0018093120205C061E0CE0101960E9427
:1013A000161081E090E00F90DF91CF9108950F9398
:1013B0001F93CF93DF93EC018B018DA9811109C09D
:1013C0001EBD0DB407FEFDCF0EBD0DB407FEFDCF53
:1013D0002FC08130E9F480E1E9A1FAA1208117FF53
:1013E00003C09DA1922B02C09EA192239083EBA1EA
:1013F000FCA120819FA1922B9083EBA1FCA12081D5
:1014000098A592239083000F111F815029F710C0D7
:10141000EF8DF8A11083CE010E941D12EF8DF8A16F
:101420000083CE01DF91CF911F910F910C941D127B
:10143000DF91CF911F910F910895AF92BF92CF92FC
:10144000DF92EF92FF920F931F93CF93DF93EC0104
:1014500077FD38C088859985681779079CF557FD11
:1014600031C08A859B854817590764F569017A015F
:101470005B01E881F9810680F781E02DCE010995B5
:10148000E881F98106A0F7A1E02D01E010E021E05C
:1014900030E0A701B501CE010995B601CE010E9449
:1014A000D709E881F9810288F389E02DCE01DF9127
:1014B000CF911F910F91FF90EF90DF90CF90BF9051
:1014C000AF900994DF91CF911F910F91FF90EF9012
:1014D000DF90CF90BF90AF900895EF92FF920F935F
:1014E0001F93CF93DF93EC0177FD22C08885998508
:1014F00068177907ECF457FD1BC08A859B85481750
:101500005907B4F47901E881F98106A0F7A1E02D2B
:1015100001E010E021E030E0CE010995B701CE01F5
:10152000DF91CF911F910F91FF90EF900C94D7090D
:10153000DF91CF911F910F91FF90EF900895FC01E3
:1015400085A981110FC09CB59C7F9CBD9DB5916004
:101550009DBD9CB59F7D9CBD2CB5237F95A1822F01
:10156000892B8CBD0895CF93DF93EC010E949F0AD5
:101570008FA987FD06C0EB8DFC8D90818AA98923F8
:101580008083DF91CF910895CF92DF92EF92FF9207
:10159000CF93DF936B017C010E94A614EB01C11471
:1015A000D104E104F10479F00E94A6146C1B7D0BB8
:1015B000683E7340A0F381E0C81AD108E108F10841
:1015C000C851DC4FECCFDF91CF91FF90EF90DF90CF
:1015D000CF90089585ED8093BC008091BC0084FD80
:1015E000FCCF1092EE0108950F931F93CF93DF93DA
:1015F000FC01A685B7858D01005C1F4FE80188813D
:10160000998101968F739927AD014E5B5F4FEA0177
:101610002881398128173907D1F3E80128813981D8
:10162000A20FB31F6C93A685B785A05CBF4F119620
:101630009C938E93A689B7892C9181E090E0078CCA
:1016400002C0880F991F0A94E2F7822B8C9381E0E5
:1016500081A30488F589E02D80818064808381E006
:1016600090E0DF91CF911F910F910895FC0181A12E
:10167000882329F0A489B5898C9186FFFBCF11A21C
:101680000895FC01A485B585FD01E05CFF4F208134
:1016900031813296808191812817390779F08081D4
:1016A0009181A80FB91F8C91208131812F5F3F4F0D
:1016B0002F7333273183208390E008958FEF9FEFBE
:1016C0000895DC011C96ED91FC911D97DF01A05C53
:1016D000BF4F2D913C91119712968D919C9111972E
:1016E0002817390739F08D919C91E80FF91F8081F7
:1016F00090E008958FEF9FEF0895FC0124853585D4
:10170000F901E05CFF4F8081918132962081318127
:10171000821B930B8F73992708950895CF92DF92C0
:10172000EF92FF920F931F93CF93DF936C01EB0126
:101730007B01E40EF51E00E010E0CE15DF0561F040
:101740006991D601ED91FC910190F081E02DC601E7
:101750000995080F191FF1CFC801DF91CF911F9193
:101760000F91FF90EF90DF90CF900895CF93DF938C
:1017700090E0FC01EB50FA4F2491FC01ED5EF94F33
:101780008491882361F190E0880F991FFC01E95250
:10179000FF4FC591D491FC01E75FF94FA591B4913A
:1017A000611109C09FB7F8948881209582238883AE
:1017B000EC912E230BC0623061F49FB7F8948881BE
:1017C000322F309583238883EC912E2B2C939FBF4F
:1017D00006C08FB7F894E8812E2B28838FBFDF9146
:1017E000CF910895CF92DF92EF92FF920F931F93C4
:1017F000CF93DF93EC01162F6A01E22E0E949F0A1D
:101800008FA987FD06C0EB8DFC8D90818AA9892365
:101810008083ED8DFE8D90818CA989238083612F3B
:10182000CE010E947914ED8DFE8D90818BA9892BBC
:1018300080838601F12CC8018C199D098E159F05A6
:101840003CF4F80161918F01CE010E947914F3CF2D
:101850008FA987FD06C0EB8DFC8D908189A9892B0E
:101860008083DF91CF911F910F91FF90EF90DF90D8
:10187000CF900895CF93DF931F92CDB7DEB7FC01D1
:101880006370668B623041F0633079F0613011F043
:1018900088E403C088E20AC088E8898380EF90E08A
:1018A0009187808780E491E008C088EE898380E496
:1018B00091E09187808780EF90E09387828721E095
:1018C000AE014F5F5F4F66E3CF010E94F20B0F90B6
:1018D000DF91CF910895CF93DF93EC01ED8DFE8DD5
:1018E00090818CA989238083CE010E947914ED8D8B
:1018F000FE8D90818BA9892B8083DF91CF910895F4
:10190000AF92BF92CF92DF92EF92FF920F931F930D
:10191000CF93DF93EC015B016A012150310979011A
:10192000E60EF71E01501109040F151F6AE20E940E
:101930006B0CB501CE010E94D709B701CE010E9400
:10194000D7096BE2CE010E946B0CB601CE010E945A
:10195000D709B801CE010E94D7096CE2CE01DF9110
:10196000CF911F910F91FF90EF90DF90CF90BF909C
:10197000AF900C946B0C2F923F924F925F926F92AC
:101980007F928F929F92AF92BF92CF92DF92EF920F
:10199000FF920F931F93CF93DF93CDB7DEB76B9773
:1019A0000FB6F894DEBF0FBECDBF9B8F8A8F1B0191
:1019B0004A01D22E198708873701A982DC0159967E
:1019C0002D913C915A972115310509F0FFC01896C9
:1019D0008D919C911997681779070CF0E7C11A96B9
:1019E0008D919C911B97481759070CF0DFC1EC2D86
:1019F000F0E0FB83EA839B0146E0C49E200D311D8D
:101A000011243D872C87121613060CF0CFC16A2DC6
:101A100070E07B876A8783E0660F771F8A95E1F71E
:101A20007F876E87CB01880D991D181619060CF05B
:101A3000BDC158968C91811104C08FEA8D1508F4B0
:101A4000D394AA8DBB8DED91FC9111970680F781FF
:101A5000E02DCD010995B5E0DB9EC0011124EC2DF0
:101A6000F0E0F98BE88B91012B5F3F4F3B8B2A8B8A
:101A70003D822C822101AC01421953095D8B4C8BB4
:101A80007981672F70E07F8B6E8BC4010896998FE8
:101A9000888FEC89FD89E40DF51DEB50FF4FD49044
:101AA00054019F828E82D0FE16C0AA8DBB8DED910F
:101AB000FC91B1E0CB1209C02981213031F40084BE
:101AC000F185E02D2885398519C00284F385E02D44
:101AD000E884F9841DC0488559854615570519F1D4
:101AE000AA8DBB8DED91FC91B1E0CB120DC0298187
:101AF000213051F40084F185E02D9301A501B2015C
:101B00008A8D9B8D09950FC00284F385E02D7301AA
:101B10000A851B852A813B814E815F816C817D8195
:101B20008A8D9B8D0995D6943FEFA31AB30A4E81F7
:101B30005F816E897F89460F571F5F834E83888D33
:101B4000998DA816B90609F0AECF9FEF491A590A28
:101B5000AC81BD81E889F989AE0FBF1FBD83AC831D
:101B60002A893B894216530609F093CF4885598547
:101B70004615570509F4F8C0AA8DBB8DED91FC916F
:101B8000B1E0CB1211C02981213071F4B1016B5F3A
:101B90007F4F0484F585E02D830128E030E0A40127
:101BA0008A8D9B8D0995E0C06C857D854A815B811E
:101BB000641B750B0284F385E02D73010E851F8570
:101BC0009A01A4018A8D9B8D0995CEC0F9013496A6
:101BD000E491DE1AF901329685919491B7E0DB9E8B
:101BE000800D911D1124F901259134913B8B2A8B95
:101BF000FC01259134915901FC01329654903196A3
:101C000034913C87329674903196149141E04C1592
:101C100018F05981523068F0672D072C000C770BB3
:101C20007D836C83812F012E000C990B9B838A830B
:101C300004C01B821A821D821C82AA8DBB8DED916D
:101C4000FC9111970680F781E02DCD010995412C7B
:101C5000D12C612CF981EF2FF0E0FF83EE832C2D46
:101C600030E03B872A87A401410F511D17FD5A958B
:101C70005F8B4E8BB101670D711D77FC7A95798F63
:101C8000688F7C85671608F06FC0262D30E04A818A
:101C90005B81420F531FAE81BF81A49FC001A59FEE
:101CA000900DB49F900D1124F401E80FF91FF98BEA
:101CB000E88B842D712C4E895F89420F531F5D8BF9
:101CC0004C8B751408F04DC051E0580F5E8787703B
:101CD00041F4C5010196EA89FB89EA0DFB1DD49008
:101CE0005C01D7FE3AC061E0C61216C0798171303E
:101CF00099F4AA8DBB8DED91FC9111970084F1852B
:101D0000E02D288539854C895D89688D798D670D31
:101D1000711DCD01099521C08C819D81870D911D7B
:101D2000EA85FB858E9FB0018F9F700D9E9F700D81
:101D30001124620D731DAA8DBB8DED91FC9111973D
:101D40000284F385E02DE884F9840E811F812A85C1
:101D50003B8548895989CD010995DD0C73948E85A1
:101D6000B0CF450C63948DCFAA8DBB8DED91FC91C6
:101D700011970288F389E02DCD016B960FB6F89488
:101D8000DEBF0FBECDBFDF91CF911F910F91FF90AE
:101D9000EF90DF90CF90BF90AF909F908F907F900B
:101DA0006F905F904F903F902F9009946B960FB675
:101DB000F894DEBF0FBECDBFDF91CF911F910F9181
:101DC000FF90EF90DF90CF90BF90AF909F908F905B
:101DD0007F906F905F904F903F902F9008951F924B
:101DE0000F920FB60F9211242F933F934F935F934F
:101DF0006F937F938F939F93AF93BF93EF93FF93D3
:101E00008091B900887F803609F49CC068F58832DB
:101E100009F45BC090F4803109F454C038F488238D
:101E200009F4EFC0883009F44DC0EFC0883109F4DF
:101E30004CC0803209F45DC0E8C0803409F468C049
:101E400048F4803309F455C0883309F0DEC080932C
:101E5000EC01D1C0803509F44FC0883509F45DC06C
:101E6000883409F0D2C0CFC0883909F4C0C0A8F4C2
:101E7000883709F467C038F4883609F463C08037BE
:101E800009F460C0C2C0883809F4B1C0803909F4CF
:101E90005FC0803809F0B9C05BC0803B09F481C0E5
:101EA00038F4803A09F466C0883A09F47AC0ADC0C3
:101EB000803C09F4A0C0883C09F49DC0883B09F42B
:101EC00083C0A3C08091C90110C09091EB018091A3
:101ED000EA01981770F5E091EB0181E08E0F809395
:101EE000EB01F0E0E653FE4F80818093BB0085EC70
:101EF0007FC08093EC0187C0E091EB0181E08E0F01
:101F00008093EB018091BB00F0E0E653FE4F8083AD
:101F10009091EB018091EA0167C0E091EB0181E0D3
:101F20008E0F8093EB018091BB00F0E0E653FE4FF3
:101F300080838091ED01811166C081E08093C801AA
:101F400084EA5AC083E08093EE0110929501CFCFCE
:101F500080919501803208F04AC0E091950181E0BE
:101F60008E0F809395018091BB00F0E0EB58FE4FFF
:101F70008083BDCF80919501803230F4E09195014E
:101F8000F0E0EB58FE4F10820E94EA0A6091950142
:101F900070E085E791E0E0E0F0E0099510929501AE
:101FA0002AC084E08093EE011092740110927301B4
:101FB000E0E0F0E0099580917301811105C081E0B6
:101FC0008093730110925301E091740181E08E0FB0
:101FD00080937401F0E0ED5AFE4F80818093BB0046
:101FE0009091740180917301981708F480CF85E86F
:101FF0008093BC000AC085EC8093BC001092EE0177
:1020000004C01092EC010E94EA0AFF91EF91BF9187
:10201000AF919F918F917F916F915F914F913F9180
:102020002F910F900FBE0F901F901895613298F46A
:102030002091EE01243089F460937301282FA3E5E9
:10204000B1E0FC018E2F821B861718F481918D93CD
:10205000F9CF80E0089581E0089582E008951F920D
:102060000F920FB60F9211242F933F938F939F934C
:10207000EF93FF93209153023091540280915502C7
:10208000909156022817390731F48091C1008F7D55
:102090008093C10014C0E0915502F0915602ED5EAC
:1020A000FD4F2081809155029091560201968F73C9
:1020B000992790935602809355022093C600FF9172
:1020C000EF919F918F913F912F910F900FBE0F90A5
:1020D0001F9018951F920F920FB60F9211242F93F5
:1020E0004F935F938F939F93EF93FF938091C000E3
:1020F00082FD1CC02091C6008091970290919802A9
:102100004091990250919A0201968F73992748172E
:10211000590771F0E0919702F0919802E95AFD4F4A
:102120002083909398028093970202C08091C6000A
:10213000FF91EF919F918F915F914F912F910F9010
:102140000FBE0F901F90189590E0FC01EF51FF4FCC
:102150002491FC01EB50FA4F3491FC01ED5EF94FF4
:10216000E491EE2309F43CC0222339F1233091F0AD
:1021700038F42130A9F0223001F584B58F7D12C0EA
:10218000263091F02730A1F02430B9F480918000FE
:102190008F7D03C0809180008F77809380000DC079
:1021A00084B58F7784BD09C08091B0008F7703C05C
:1021B0008091B0008F7D8093B000F0E0EE0FFF1FA4
:1021C000E75FF94FA591B4919FB7F894611104C0EE
:1021D0008C913095382302C0EC913E2B3C939FBFED
:1021E0000895BF92CF92DF92EF92FF920F931F93C9
:1021F000CF93DF93EC016A017B01452B462B472BE4
:1022000031F4C12C22E1D22E2AE7E22EF12C8FA943
:1022100087FD07C061E00E94B60B61E08FA90E94B4
:10222000A41061E088AD0E94B60B61E088AD0E9409
:10223000A4108DA981111DC0C9A2DAA2EBA2FCA233
:102240001DA21EA21FA218A661E08AE00E94A4108F
:1022500061E08AE00E94B60B8CB580618CBD8CB5C4
:1022600080648CBD61E08DE00E94B60B61E08BE084
:1022700016C08130B9F461E08AA50E94B60B60E017
:102280008AA50E94A41061E08CA50E94B60B60E0B4
:102290008CA50E94A4108BA587FD36C060E00E942B
:1022A000B60B32C003E116E0F12CF8018491E82F5F
:1022B000F0E0EE0FFF1FE75FF94F859194912F8DAE
:1022C00038A12817390741F461E08F2D0E94B60B21
:1022D00060E08F2D0E94A410F3940F5F1F4FF4E174
:1022E000FF12E3CF61E08EA50E94B60B61E08EA5E0
:1022F0000E94A4108FA587FD07C061E00E94B60B65
:1023000061E08FA50E94A4108EA987FD21C061E025
:102310000E94B60B61E08EA90E94A41064E670E0F2
:1023200080E090E00E94C40A60E08EA90E94A410A0
:1023300064E670E080E090E00E94C40A61E08EA94B
:102340000E94A41068EC70E080E090E00E94C40A53
:102350008EA987FF0DC020E040E050E061E0CE0193
:102360000E94F20B66E970E080E090E00E94C40AEF
:1023700088E6E82E80E0F82EC7010196F701149157
:10238000112309F448C0FC01B4900B2D0F77CE0146
:102390000E949F0A8FA987FD06C0EB8DFC8D90815E
:1023A0008AA989238083ED8DFE8D90818CA9892354
:1023B0008083612FCE010E947914ED8DFE8D908176
:1023C0008BA9892B8083C12CD12C10E0C016D1069B
:1023D00064F4F6013296EE0DFF1D6491CE010E9469
:1023E0007914FFEFCF1ADF0AF1CF8FA987FD06C05E
:1023F000EB8DFC8D908189A9892B80830E5F1F4F07
:10240000E00EF11EB7FEB8CF66E970E080E090E024
:102410000E94C40AB1CF80EF90E09987888780E45A
:1024200091E09B878A87DF91CF911F910F91FF9059
:10243000EF90DF90CF90BF900895FC01A5A1B6A1C9
:102440009C9182A589238C93A5A1B6A19C9181A57D
:10245000892B8C93089530911202313208F047C0D5
:102460008091EE018111FCCF9091110222E0209326
:10247000EE0121E02093ED012FEF2093EC0110926B
:10248000EB013093EA01E1EFF1E0AAECB1E020E0EA
:10249000321721F041914D932F5FFACF1092C9016D
:1024A0002091C901990F922B9093C9019091C80175
:1024B000913041F41092C8019091C9019093BB00F2
:1024C00095EC01C095EE9093BC009091EE01923096
:1024D000E1F39091EC019F3F79F08091EC01803223
:1024E00041F08091EC01803331F084E005C081E05F
:1024F00003C082E001C083E01092F001109212024A
:102500001092EF0108950F931F93CF93DF9391E003
:102510009093EF0192E5909311021092F0011092C6
:102520001202682F8BE992E00E94A8090E942B12E8
:102530008091EE018111FCCF81E08093EE018093C8
:10254000ED019FEF9093EC011092EB0195E09093D9
:10255000EA018093C9018091C901846A8093C9010D
:102560008091C801813041F41092C8018091C90165
:102570008093BB0085EC01C085EE8093BC00809108
:10258000EE018130E1F38091EB01863018F4D091B7
:10259000EB0101C0D6E0EAECF1E0A8E9B1E080E0AF
:1025A0008D1721F091919D938F5FFACF1092970133
:1025B000D093960102EC11E0C0E080919701D8170A
:1025C00059F0C63049F0CF5F8BE992E00E942706B0
:1025D000F80181938F01F1CF8C2FDF91CF911F9163
:1025E0000F910895682F8BE992E00C94A8098F92BF
:1025F0009F92AF92BF92CF92DF92EF92FF920F9392
:102600001F93CF93DF93EC014901BE2CAF2CE881DF
:10261000F98106A0F7A1E02D09959401D8010E9447
:102620003226611571058105910509F481C02DA936
:1026300021110FC0615071098109910908F478C016
:10264000AEBC0DB407FEFDCFBEBC0DB407FEFDCF82
:10265000F1CF213009F03FC0615071098109910922
:1026600008F466C03A2D28E0E9A1FAA1508137FFAD
:1026700003C04DA1452B02C04EA145234083EBA1D1
:10268000FCA150814FA1452B4083EBA1FCA15081BF
:1026900048A545234083330F215031F73B2D28E0D7
:1026A000E9A1FAA1508137FF03C04DA1452B02C01B
:1026B0004EA145234083EBA1FCA150814FA1452BA6
:1026C0004083EBA1FCA1508148A545234083330FF3
:1026D000215031F7C1CFFE1017C0EF8DF8A1F08265
:1026E0006B017C01CC0CDD1CEE1CFF1CC114D10461
:1026F000E104F104E9F0CE010E941D1281E0C81A44
:10270000D108E108F108F2CF6B017C01EF8DF8A14F
:10271000A082CE010E941D12EF8DF8A1B082CE01E1
:102720000E941D1221E0C21AD108E108F10871F7D8
:10273000DF91CF911F910F91FF90EF90DF90CF909D
:10274000BF90AF909F908F9008952F923F924F929D
:102750005F926F927F928F929F92AF92BF92CF9231
:10276000DF92EF92FF920F931F93CF93DF93CDB73A
:10277000DEB72A970FB6F894DEBF0FBECDBF5C015F
:1027800078876F835A874987390187EA92E00E94E8
:10279000B30A29853A85220F331F2F5F3F4F4F81A0
:1027A000588589859A85481B590B8301B50187EAAD
:1027B00092E00E94B30781E090E02C0129853A85E0
:1027C000421A530AC9019195819591099C01220FE2
:1027D000331F3E832D832F803884E12CF12C81E040
:1027E00090E09C838B8329853A85E216F3060CF0F2
:1027F00064C057FC0CC0690131E0C31AD1088D8157
:102800009E8102969E838D83480E591E02C0C98404
:10281000DA849FEFE91AF90A2B813C812E5F3F4F42
:102820003C832B83420E531ECE14DF0404F1460179
:10283000880C991C3FEF831A930A830194018F81BE
:1028400098858C199D099A838983AC01B7016A0D1B
:102850007B1D87EA92E00E94B307940149815A8167
:10286000B5016E197F0987EA92E00E94B3072985B6
:102870003A852C153D0531F491E0291A3108DA86A4
:10288000C986B1CFB9016A0D7B1D83018B809C8005
:1028900032E0831A91089401A10187EA92E00E9434
:1028A000B307B50189859A85681B790B9401A1014D
:1028B00087EA92E00E94B307DFCF87EA92E02A9688
:1028C0000FB6F894DEBF0FBECDBFDF91CF911F9141
:1028D0000F91FF90EF90DF90CF90BF90AF909F90BF
:1028E0008F907F906F905F904F903F902F900C94BF
:1028F0007503FC0185A9811105C06EBD0DB407FEED
:10290000FDCF08958130E1F488E0A1A1B2A12C911E
:1029100067FF03C095A1922B02C096A192239C93BE
:10292000A3A1B4A12C9197A1922B9C93660FA3A174
:10293000B4A12C9190A592239C93815031F70895D6
:10294000A78DB0A16C93CF010C941D123FB7F894E2
:102950008091660390916703A0916803B091690329
:1029600026B5A89B05C02F3F19F00196A11DB11DEA
:102970003FBFBA2FA92F982F8827820F911DA11D25
:10298000B11DBC01CD0142E0660F771F881F991F62
:102990004A95D1F708951F920F920FB60F92112406
:1029A0002F933F938F939F93AF93BF938091620335
:1029B00090916303A0916403B0916503309161032A
:1029C00023E0230F2D3720F40196A11DB11D05C072
:1029D00026E8230F0296A11DB11D20936103809369
:1029E000620390936303A0936403B09365038091A3
:1029F000660390916703A0916803B0916903019603
:102A0000A11DB11D8093660390936703A093680393
:102A1000B0936903BF91AF919F918F913F912F9197
:102A20000F900FBE0F901F9018958F929F92AF92AC
:102A3000BF92CF92DF92EF92FF920F931F93CF93AB
:102A4000DF93C82FE82F89E0689FE00D1124F0E0A4
:102A5000E15FFC4F8081D8E0D61B80FD8FC00091E4
:102A60000101A0900101C09001016091010110E0FD
:102A700001511109B12C86E1A81AB108CC9D600161
:102A8000112487E3C80ED11CD69FB0011124645FC6
:102A90007F4F072E000C880B990B0E942D2520E0FC
:102AA00030E048E151E40E9489240E94F52499E233
:102AB000E92E9CEDF92E9501A60187EA92E00E948D
:102AC000270780910101F09001011091010100910F
:102AD0000101C89FB00111246E5C7F4F072E000CCE
:102AE000880B990B0E942D254B015C016F2D70E026
:102AF00080E090E00E942D252AE939E949E95EE36A
:102B00000E94B9259B01AC01C501B4010E94892432
:102B100020E030E040EE50E40E9489240E94F52439
:102B20006B017C01D19FB0011124665F7F4F072E9E
:102B3000000C880B990B0E942D254B015C01602F26
:102B400070E080E090E00E942D252AE939E949E90A
:102B50005EE30E94B9259B01AC01C501B4010E944E
:102B6000892420E030E040EA50E40E9489240E9459
:102B7000F524DC01CB0120E030E05CC08091010154
:102B8000F09001011091010100910101C89FB00175
:102B900011246E5C7F4F072E000C880B990B0E944E
:102BA0002D254B015C016F2D70E080E090E00E94CC
:102BB0002D252AE939E949E95EE30E94B9259B01FF
:102BC000AC01C501B4010E94892420E030E040EE50
:102BD00050E40E9489240E94F5246B017C01D19F5E
:102BE000B0011124665F7F4F072E000C880B990BF4
:102BF0000E942D254B015C01602F70E080E090E089
:102C00000E942D252AE939E949E95EE30E94B925A8
:102C10009B01AC01C501B4010E94892420E030E091
:102C200040EA50E40E9489240E94F524DC01CB0193
:102C300020E038EF45E050E0B6010E94A513409136
:102C4000010160910101C49FA0011124435C5F4F09
:102C5000D69FB00111246C5E7F4F2FEF3FEF87EAC4
:102C600092E00E941D0A4091010160910101C49F00
:102C7000A0011124425C5F4FD69FB00111246D5E0C
:102C80007F4F2FEF3FEF87EA92E00E941D0A0091ED
:102C9000010120910101409101016091010110E0C9
:102CA0000551110930E025513109C49FA0011124BB
:102CB0004A5C5F4FD69FB00111246A5E7F4F81EE60
:102CC000E82E89EFF82E87EA92E00E942707DF912D
:102CD000CF911F910F91FF90EF90DF90CF90BF9019
:102CE000AF909F908F900895EF92FF920F931F9354
:102CF000962FE82F29E0629FE00D1124F0E0E15FBC
:102D0000FC4F208168E0691B0091010120FD1BC080
:102D100020910101409101019091010110E00350C7
:102D2000110930E023503109849FA00111244C5C2B
:102D30005F4F699FB0011124645F7F4F90E2E92EDD
:102D40009DEFF92E19C02091010140910101909150
:102D5000010110E00350110930E023503109849F34
:102D6000A00111244C5C5F4F699FB0011124645F86
:102D70007F4FE12C88EFF82E87EA92E00E94270728
:102D80001F910F91FF90EF900895EF92FF920F9394
:102D90001F93962F68E0691B0091010120910101AA
:102DA000409101019091010110E00150110930E0C2
:102DB00022503109849FA00111244D5C5F4F699F0F
:102DC000B0011124645F7F4F80E8E82E89E5F82E7A
:102DD00087EA92E00E9427071F910F91FF90EF90E2
:102DE000089580910E03813021F480916003823038
:102DF00018F010920E030895E0910D03F0E0E15FEA
:102E0000FC4F8AE0808360910D0380910D0399E36C
:102E1000699F612D11246695899F912D11249695A6
:102E200029E0929F801911240E94151510920E031B
:102E3000809160038F5F809360030895809100010B
:102E4000815080930001809100010895E82FF0E007
:102E5000E15FFC4F808190E09C012A5031092D30C8
:102E6000310528F044970D9720F080E0089581E027
:102E7000089582E00895EF92FF920F931F93CF93EE
:102E8000DF93C82F0E942617813039F480916003A8
:102E9000815080936003D8E207C08C2F0E942617D0
:102EA000823009F068C0D2E341E06D2F8C2F0E9480
:102EB000C217C93098F011E01D0F07EF0C0F40E06A
:102EC000612F802F0E94C217811108C0093030F095
:102ED00040E0612F8EEE8C0F0E94C21709E3C09F65
:102EE000812D112486958830A9F019E01C0F40E04F
:102EF0006D2F812F0E94C21781110CC0109F112DC0
:102F000011241695183031F040E06D2F82E18C0FBE
:102F10000E94C21702E00C0F1C2F89E3F82E99E0E3
:102F2000E92E1F9D812D11248695912F8E9D90193C
:102F30001124983029F41EEF1C0F09E0DF5F15C043
:102F40001F5F40E06D2F812F0E94C2178111F3CFC8
:102F5000101789F3E6CFC15040E06D2F8C2F0E94EF
:102F6000C217811108C0C11731F08C2F602F0E9449
:102F700026269111F0CFDF91CF911F910F91FF90F5
:102F8000EF900895FF920F931F93CF93DF93D82F65
:102F9000F62EC42F082F10E0015F1C4FF80180812E
:102FA000813021F4862F0E941E172AC0F8018081EB
:102FB000833031F18D2F0E942617882311F0CC2306
:102FC000E1F0C0E0F80180818430A9F08081813097
:102FD00019F080818230B1F489E3D89F812D1124CA
:102FE0008695682FF9E08F9FD01911248D2F0E94AC
:102FF00074168C2F0AC081E008C08D2F0E943B17E9
:10300000C1E0E0CFF801F082E7CFDF91CF911F91CF
:103010000F91FF900895E82FF0E0E15FFC4F808171
:1030200098ED980F963028F08253863020F080E09B
:10303000089581E0089582E00895AF92BF92CF9203
:10304000DF92EF92FF920F931F93CF93DF93E12CC8
:10305000F12C89E3B82E99E0D92E8701015F1C4F2E
:10306000F801D081CE2D8E2D0E9426178130D9F403
:10307000F80180818F5F8083DF5FEB9CC12C11247E
:10308000C694AE2CCD9CA01811246C2D8A2D0E94C4
:10309000C516D63120F08E2D0E943B1704C06C2D32
:1030A0008A2D0E9415158C2F0E9426178230D9F484
:1030B000F80180818F5F8083DF5FCB9DC12C11245D
:1030C000C694AC2ECD9CA01811246C2D8A2D0E9484
:1030D000C516D03220F08C2F0E943B1704C06C2DF7
:1030E0008A2D0E9415158C2F0E940B188130F1F447
:1030F000F80180818F5F8083DF5FCB9DC12C11241D
:10310000C694AC2ECD9CA01811246C2D8A2D0E9443
:10311000C516DD3238F0F801D0826C2D8A2D0E9460
:10312000C51604C06C2D8A2D0E9474168C2F0E9427
:103130000B188230E9F4F80180818F5F8083CB9D8A
:10314000C12C1124C694CD9CC01911246C2D8C2F38
:103150000E94C516DF5FD73338F0F801D0826C2D9E
:103160008C2F0E94C51604C06C2D8C2F0E947416E3
:10317000FFEFEF1AFF0A81E5E816F10409F06DCFC1
:10318000DF91CF911F910F91FF90EF90DF90CF9043
:10319000BF90AF900895CF93DF9300D000D000D0C0
:1031A000CDB7DEB7789484B5826084BD84B5816084
:1031B00084BD85B5826085BD85B5816085BD809102
:1031C0006E00816080936E0010928100809181007A
:1031D0008260809381008091810081608093810072
:1031E000809180008160809380008091B100846034
:1031F0008093B1008091B00081608093B000809195
:103200007A00846080937A0080917A008260809353
:103210007A0080917A00816080937A0080917A00B0
:10322000806880937A001092C10010928000109202
:1032300081008091810088608093810084E89EE114
:1032400090938900809388008091880090918900F4
:103250009695879590938B0080938A00809181004A
:1032600085608093810080916F00826080936F0001
:1032700080916F00846080936F0080E090E029E08F
:10328000FC01E15FFC4F2083019681359105C1F778
:1032900080E090E023E0FC01E15FFC4F2083019699
:1032A00081359105C1F789E080931803809321034C
:1032B000809310038093560380934D0380935E03A5
:1032C00081E080930F0310920D0382E080935F03EF
:1032D00080E5809351018AE090E024E0FC01E15F09
:1032E000FC4F2083FC01EF5EFC4F2083FC01ED5E70
:1032F000FC4F2083FC01EB5EFC4F2083429682351D
:10330000910561F784B18E6384B940E050E0BA0161
:1033100087EA92E00E94F11062E087EA92E00E9460
:103320003A0C60E07AE787EA92E00E94620400913A
:1033300001012091010189E0089F8001112499E099
:10334000299F9001112450E8E52E59E5F52E42E31E
:1033500050E06AE070E087EA92E00E9427071A8254
:103360001982C12CD12C0091010120910101909171
:1033700001018091010110E00F5F1F4F30E02F5FCE
:103380003F4F9C9DA0019D9D500D11244E5C5F4FB1
:10339000E981FA818E9FB0018F9F700D1124665FC5
:1033A0007F4FE12CF12C87EA92E00E949603FFEF19
:1033B000CF1ADF0A29E0C216D104A9F689819A81C1
:1033C00001969A838983099761F61E821D8229E3FB
:1033D000B22E39E0A32E48E0842EED81FE81E15F1C
:1033E000FC4F908094E0991228C08D816A2D0E9434
:1033F0002626ED81EB9D812D11248695F82DF81B55
:1034000000910101209101014091010160910101B0
:1034100010E00350110930E023503109949FA001BE
:1034200011244C5C5F4FF69FB0011124645F7F4F05
:103430009EE8E92E9BE6F92E2FC123E0921230C1BF
:103440009D819B9D812D1124D82ED694E92FDA9C45
:10345000E0191124DE2E8695C82CC81A00910101AE
:1034600020910101409101016091010110E009509A
:10347000110930E029503109E49FA0011124495C71
:103480005F4FC69EB0011124615F7F4F80EAE82E36
:1034900088E2F82E87EA92E00E94270760910101F6
:1034A000709001010091010110910101D69EB001BF
:1034B00011246E5C7F4F072E000C880B990B0E9425
:1034C0002D251B012C01672D70E080E090E00E940B
:1034D0002D252AE939E949E95EE30E94B9259B01D6
:1034E000AC01C201B1010E94892420E030E040E03B
:1034F00051E40E9489240E94F52469837A838B8396
:103500009C83C09EB0011124665F7F4F072E000C84
:10351000880B990B0E942D252B013C01612F70E037
:1035200080E090E00E942D252AE939E949E95EE32F
:103530000E94B9259B01AC01C301B2010E948924FC
:1035400020E030E040EA50E40E9489240E94F52403
:10355000DC01CB0120EA38E247E050E069817A8162
:103560000E94A51360910101709001010091010179
:1035700010910101D69EB00111246E5C7F4F072E81
:10358000000C880B990B0E942D251B012C01672D27
:1035900070E080E090E00E942D252AE939E949E9B0
:1035A0005EE30E94B9259B01AC01C201B1010E94FA
:1035B000892420E030E040E050E40E9489240E9409
:1035C000F52469837A838B839C83C09EB001112488
:1035D000665F7F4F072E000C880B990B0E942D25EC
:1035E0002B013C01612F70E080E090E00E942D25CE
:1035F0002AE939E949E95EE30E94B9259B01AC015A
:10360000C301B2010E94892420E030E040EA50E486
:103610000E9489240E94F524DC01CB0120EA38E2D3
:1036200047E050E069817A810E94A5130091010171
:1036300020910101409101016091010110E00551CB
:10364000110930E029503109D49EA0011124475CB2
:103650005F4FC69EB0011124615F7F4FE12CF12CBA
:1036600087EA92E00E942707009101012091010161
:10367000409101016091010110E00551110930E014
:1036800029503109D49EA00111244F5B5F4FC69E83
:10369000B0011124615F7F4F87EA92E00E94270703
:1036A000892D0E940B18813069F4FD81FB9D812DCD
:1036B00011248695682F2F2F8A9D20191124822F7F
:1036C0000E947416892D0E940B18823069F49D8126
:1036D0009B9D812D11248695682FE92F8A9DE019E5
:1036E00011248E2F0E947416892D0E942617813076
:1036F00069F4FD81FB9D812D11248695682F2F2F64
:103700008A9D20191124822F0E941515892D0E944F
:103710002617823069F49D819B9D812D1124869509
:10372000682FE92F8A9DE01911248E2F0E9415150C
:103730008D819E8101969E838D838135910509F04F
:103740004CCE10929701109296011092F0011092B7
:1037500012021092EE0191E09093ED011092C801D7
:1037600061E082E10E94A41061E083E10E94A41064
:103770008091B9008E7F8093B9008091B9008D7FD0
:103780008093B90088E48093B80085E48093BC00FE
:1037900087B18F7C87B9E1E0E093EF01F2E5F09328
:1037A00011021092F0011092120280EF90E00E943C
:1037B000F21285E590E00E94F2120E942B1221E0A5
:1037C0002093EF0182E5809311021092F001109294
:1037D00012028BEF90E00E94F21280E090E00E94D3
:1037E000F2120E942B128AEF0E9483127894A9E3AE
:1037F000CA2EB9E0DB2E18E0612E7724739480E0A6
:103800000E94831280915201813009F06EC710929C
:10381000520160910D0380910D036C9D612D112467
:1038200066958C9D912D112496959D9D801911244E
:103830000E94C51660915101809151016C9D612DCE
:10384000112466958C9D912D112496959D9D80192E
:1038500011240E94C5168091C2018F3FF1F480911E
:103860000D036D2D0E942626983009F486C0E09144
:103870000D03EF5FF0E0E15FFC4F8081893009F0DC
:103880003EC7E0910D03F0E0E15FFC4FD0820E9463
:10389000F11680910D038F5F5AC081111EC0809177
:1038A0000D036D2D0E942626992309F466C0E09130
:1038B0000D03E150F0E0E15FFC4F8081893009F0B9
:1038C00026C7E0910D03F0E0E15FFC4FD0820E943B
:1038D000F11680910D0381503AC08091C3018F3F52
:1038E000D9F480910D03893008F447C0E0910D03AD
:1038F000E950F0E0E15FFC4F8081893009F00FC7AB
:10390000E0910D03F0E0E15FFC4FD0820E94F116E0
:1039100080910D0389501BC081112FC080910D0330
:10392000883458F5E0910D03E75FF0E0E15FFC4F6C
:103930008081893009F0FBC6E0910D03F0E0E15F82
:10394000FC4FD0820E94F11680910D03875F809317
:103950000D0380910D030E940B18882341F0E09124
:103960000D03F0E0E15FFC4F80810E941E17E091A3
:103970000D03F0E0E15FFC4F70828091C70180FD94
:1039800003C091E090930E030E941D1820910D0337
:1039900080910D036D2D0E9426269D832C9D212D47
:1039A00011242695E62DE21BE98300910101809008
:1039B0000101A09001016091010110E0085111097D
:1039C000912CF0E18F1A91089A9D500111242EE359
:1039D000A20EB11CE69FB0011124645F7F4F072E39
:1039E000000C880B990B0E942D2520E030E040ED63
:1039F00050E40E9489240E94F524E12CF12C9401CA
:103A0000A50187EA92E00E94270700910101209119
:103A10000101409101016091010110E00151110982
:103A200030E0255131098D81849FA00111244D5B27
:103A30005F4F9981969FB00111246D5E7F4F87EA99
:103A400092E00E942707009101012091010140911D
:103A500001016091010110E00151110930E025518F
:103A60003109ED81E49FA00111244D5B5F4FF98185
:103A7000F69FB0011124695E7F4F87EA92E00E94B1
:103A800027070091010120910101409101016091FE
:103A9000010110E00651110930E0245131098D81F6
:103AA000849FA0011124485B5F4F9981969FB001CC
:103AB00011246F5E7F4F8FE5E82E83E1F82E87EAB1
:103AC00092E00E942707009101012091010140919D
:103AD00001016091010110E00651110930E024510B
:103AE0003109ED81E49FA0011124485B5F4FF9810A
:103AF000F69FB0011124695E7F4F87EA92E00E9431
:103B0000270700910101A0900101809001016091BF
:103B1000010110E000511109B12C22E1A21AB108F3
:103B20008D81889D400111249AE3890E911CE981C1
:103B3000E69FB0011124645F7F4F072E000C880BB5
:103B4000990B0E942D2520E030E040EF50E40E94C8
:103B500089240E94F5249501A40187EA92E00E943D
:103B6000270700910101209101014091010160911D
:103B7000010110E00251110930E026513109FD81A7
:103B8000F49FA0011124445C5F4F8981869FB0019E
:103B90001124615F7F4F87EA92E00E94270700911E
:103BA000010120910101409101016091010110E0AA
:103BB0000551110930E0255131099D81949FA001E3
:103BC0001124445C5F4FE981E69FB0011124605FDE
:103BD0007F4F87EA92E00E94270700910101209120
:103BE0000101409101016091010110E005511109AD
:103BF00030E025513109FD81F49FA00111244F5B74
:103C00005F4F8981869FB0011124625F7F4F90EDE5
:103C1000E92E95EFF92E87EA92E00E94270700919E
:103C2000010120910101409101016091010110E029
:103C30000251110930E0265131099D81949FA00164
:103C40001124445C5F4FE981E69FB0011124665E58
:103C50007F4FEFE5EE2EE3E1FE2E87EA92E00E9431
:103C6000270700910101209101014091010160911C
:103C7000010110E00551110930E025513109FD81A4
:103C8000F49FA0011124445C5F4F8981869FB0019D
:103C90001124675E7F4F87EA92E00E942707009118
:103CA000010120910101409101016091010110E0A9
:103CB0000551110930E0255131099D81949FA001E2
:103CC00011244F5B5F4FE981E69FB0011124665ECE
:103CD0007F4FF0EDEF2EF5EFFF2E87EA92E00E9486
:103CE000270760910101B09001010091010110913D
:103CF0000101FD81F69FB00111246E5C7F4F072EFC
:103D0000000C880B990B0E942D251B012C016B2D9B
:103D100070E080E090E00E942D252AE939E949E928
:103D20005EE30E94B9259B01AC01C201B1010E9472
:103D3000892420E030E040E85FE30E9488240E946C
:103D4000F5244B015C012981209FB0011124665F9D
:103D50007F4F072E000C880B990B0E942D251B010D
:103D60002C01612F70E080E090E00E942D252AE96F
:103D700039E949E95EE30E94B9259B01AC01C20122
:103D8000B1010E94892420E030E040EA50E40E9422
:103D900089240E94F524DC01CB0120ED35EF45E0BC
:103DA00050E0B4010E94A51300910101209101018E
:103DB000409101016091010110E00651110930E0CC
:103DC000265131098D81849FA0011124485C5F4FE9
:103DD0009981969FB00111246D5E7F4FE12CF12CEB
:103DE00087EA92E00E9427070091010120910101DA
:103DF000409101016091010110E00751110930E08B
:103E000027513109ED81E49FA0011124485C5F4FE7
:103E1000F981F69FB00111246D5E7F4FEE24EA9484
:103E2000FE2C87EA92E00E94270700910101209171
:103E30000101409101016091010110E00651110959
:103E400030E0265131098D81849FA0011124485C06
:103E50005F4F9981969FB0011124685E7F4FE12CDE
:103E6000F12C87EA92E00E9427070091010120913E
:103E70000101409101016091010110E00751110918
:103E800030E027513109ED81E49FA0011124485C05
:103E90005F4FF981F69FB0011124685E7F4FEE24D9
:103EA000EA94FE2C87EA92E00E94270740910101E4
:103EB000609101012D81249FA0011124445C5F4F7A
:103EC0008981869FB00111246A5E7F4F20E030E037
:103ED00087EA92E00E941D0A409101016091010170
:103EE0009D81949FA0011124455C5F4FE981E69F6D
:103EF000B0011124695E7F4F20E030E087EA92E054
:103F00000E941D0A4091010160910101FD81F49F11
:103F1000A0011124445C5F4F2981269FB001112428
:103F20006B5E7F4F20E030E087EA92E00E941D0A3E
:103F30000091010120910101409101016091010175
:103F400010E00451110930E02E5031098D81849F19
:103F5000A00111244E5C5F4F9981969FB0011124FE
:103F60006F5E7F4F8FE5E82E83E1F82E87EA92E0BF
:103F70000E94270700910101209101014091010158
:103F80006091010110E00451110930E02E50310917
:103F9000ED81E49FA00111244E5C5F4FF981F69FF3
:103FA000B00111246F5E7F4FE12CF12C87EA92E083
:103FB0000E949603009101012091010140910101AD
:103FC0006091010110E00551110930E020513109E3
:103FD0008D81849FA00111244C5C5F4F9981969F35
:103FE000B00111246B5E7F4F9FE5E92E93E1F92E1E
:103FF00087EA92E00E9427070091010120910101C8
:10400000409101016091010110E00551110930E07A
:1040100020513109ED81E49FA00111244C5C5F4FD8
:10402000F981F69FB00111246B5E7F4FE12CF12CDA
:1040300087EA92E00E94960380915101909151018C
:104040009C9D212D112426952D9D90191124998335
:104050008C9D812D11248695962D981B9D83009112
:10406000010180900101A09001016091010110E027
:1040700008511109912CE0E18E1A9108F981FA9DFD
:10408000500111242EE3A20EB11C969FB001112401
:10409000645F7F4F072E000C880B990B0E942D2523
:1040A00020E030E040ED50E40E9489240E94F52495
:1040B0009401A50187EA92E00E942707009101017F
:1040C00020910101409101016091010110E0015135
:1040D000110930E0255131098981849FA001112403
:1040E0004D5B5F4F9D81969FB00111246D5E7F4FA8
:1040F00087EA92E00E9427070091010120910101C7
:10410000409101016091010110E00151110930E07D
:1041100025513109E981E49FA00111244D5B5F4FD6
:10412000FD81F69FB0011124695E7F4F87EA92E01E
:104130000E94270700910101209101014091010196
:104140006091010110E00651110930E0245131095C
:104150008981849FA0011124485B5F4F9D81969FB8
:10416000B00111246F5E7F4FE7EEEE2EE9EDFE2EDB
:1041700087EA92E00E942707009101012091010146
:10418000409101016091010110E00651110930E0F8
:1041900024513109E981E49FA0011124485B5F4F5C
:1041A000FD81F69FB0011124695E7F4F87EA92E09E
:1041B0000E94270700910101A09001018090010158
:1041C0006091010110E00F501109B12C22E1A21AF7
:1041D000B1088981889D400111249AE3890E911CC0
:1041E000ED81E69FB0011124645F7F4F072E000C24
:1041F000880B990B0E942D2520E030E040EF50E421
:104200000E9489240E94F5249501A40187EA92E086
:104210000E942707009101012091010140910101B5
:104220006091010110E00251110930E0265131097D
:10423000F981F49FA0011124445C5F4F8D81869F1A
:10424000B0011124615F7F4F87EA92E00E94270747
:104250000091010120910101409101016091010152
:1042600010E00551110930E0255131099981949FE1
:10427000A0011124445C5F4FED81E69FB001112441
:10428000605F7F4F87EA92E00E942707009101015B
:1042900020910101409101016091010110E005515F
:1042A000110930E025513109F981F49FA001112451
:1042B0004F5B5F4F8D81869FB0011124625F7F4FFE
:1042C000F0EDEF2EF5EFFF2E87EA92E00E94270730
:1042D00000910101209101014091010160910101D2
:1042E00010E00251110930E0265131099981949F63
:1042F000A0011124445C5F4FED81E69FB0011124C1
:10430000665E7F4FA7EEEA2EA9EDFA2E87EA92E0CD
:104310000E942707009101012091010140910101B4
:104320006091010110E00551110930E0255131097A
:10433000F981F49FA0011124445C5F4F8D81869F19
:10434000B0011124675E7F4F87EA92E00E94270741
:104350000091010120910101409101016091010151
:1043600010E00551110930E0255131099981949FE0
:10437000A00111244F5B5F4FED81E69FB001112436
:10438000665E7F4FB0EDEB2EB5EFFB2E87EA92E035
:104390000E94270760910101B09001010091010185
:1043A00010910101F981F69FB00111246E5C7F4FDD
:1043B000072E000C880B990B0E942D251B012C0148
:1043C0006B2D70E080E090E00E942D252AE939E90C
:1043D00049E95EE30E94B9259B01AC01C201B1012C
:1043E0000E94892420E030E040E85FE30E948824B6
:1043F0000E94F5244B015C012D81209FB001112406
:10440000665F7F4F072E000C880B990B0E942D25AD
:104410001B012C01612F70E080E090E00E942D25AF
:104420002AE939E949E95EE30E94B9259B01AC011B
:10443000C201B1010E94892420E030E040EA50E44A
:104440000E9489240E94F524DC01CB0120ED35EF88
:1044500045E050E0B4010E94A513009101012091B4
:104460000101409101016091010110E00651110923
:1044700030E0265131098981849FA0011124485CD4
:104480005F4F9D81969FB00111246D5E7F4FE12C9F
:10449000F12C87EA92E00E94270700910101209108
:1044A0000101409101016091010110E007511109E2
:1044B00030E027513109E981E49FA0011124485CD3
:1044C0005F4FFD81F69FB00111246D5E7F4FEE249A
:1044D000EA94FE2C87EA92E00E94270700910101EE
:1044E00020910101409101016091010110E006510C
:1044F000110930E0265131098981849FA0011124DE
:10450000485C5F4F9D81969FB0011124685E7F4F8C
:10451000E12CF12C87EA92E00E942707009101012B
:1045200020910101409101016091010110E00751CA
:10453000110930E027513109E981E49FA0011124DC
:10454000485C5F4FFD81F69FB0011124685E7F4F8C
:10455000EE24EA94FE2C87EA92E00E94270740911D
:104560000101609101012981249FA0011124445C73
:104570005F4F8D81869FB00111246A5E7F4F20E0DE
:1045800030E087EA92E00E941D0A409101016091AB
:1045900001019981949FA0011124455C5F4FED8139
:1045A000E69FB0011124695E7F4F20E030E087EA8A
:1045B00092E00E941D0A4091010160910101F98180
:1045C000F49FA0011124445C5F4F2D81269FB00110
:1045D00011246B5E7F4F20E030E087EA92E00E947A
:1045E0001D0A00910101209101014091010160919A
:1045F000010110E00451110930E02E503109898188
:10460000849FA00111244E5C5F4F9D81969FB00155
:1046100011246F5E7F4FE7EEEE2EE9EDFE2E87EA66
:1046200092E00E9427070091010120910101409131
:1046300001016091010110E00451110930E02E5098
:104640003109E981E49FA00111244E5C5F4FFD8197
:10465000F69FB00111246F5E7F4FE12CF12C87EAA9
:1046600092E00E9496030091010120910101409186
:1046700001016091010110E00551110930E0205164
:1046800031098981849FA00111244C5C5F4F9D8179
:10469000969FB00111246B5E7F4FF7EEEF2EF9ED80
:1046A000FF2E87EA92E00E942707009101012091E6
:1046B0000101409101016091010110E005511109D2
:1046C00030E020513109E981E49FA00111244C5CC4
:1046D0005F4FFD81F69FB00111246B5E7F4FE12C8F
:1046E000F12C87EA92E00E94960380915201823079
:1046F00009F085C8109252010E941D1880C880914F
:104700000D038F5F0E940B188111BBC836C98091C1
:104710000D0381500E940B188111D3C82EC98091BE
:104720000D0389500E940B188111EAC826C9809197
:104730000D03875F0E940B188111FEC81EC9EAEEA7
:10474000F2E01382128248EE53E060E070E04483AE
:1047500055836683778386E091E09183808387E544
:1047600092E09587848783E192E09787868785EC3E
:1047700090E0918B808B84EC90E0938B828B80EC2B
:1047800090E0958B848B81EC90E0978B868B82EC0C
:1047900090E0918F808F86EC90E0938F828F84E001
:1047A000848F83E0858F87E0868F85E0878F81E027
:1047B00080A3EBE9F2E0138212824483558366837F
:1047C000778326E131E031832083A7EAB2E01396B4
:1047D0001C921E92129740EF50E015965C934E93F8
:1047E000149720E431E017963C932E931697199670
:1047F0005C934E9318971B963C932E931A9756965C
:104800001C9256971D961C921E921C971F961C92E6
:104810001E921E9755968C93559754968C93549749
:104820002FEF3FEF53963C932E93529751963C9324
:104830002E93509757968C93579758961C9258974B
:104840005A961C921E925997D5961C92D5978FEF27
:10485000D6968C93D6978AE0D7968C93D79789E093
:10486000D8968C93D897DA961C921E92D997DC969C
:104870001C921E92DB97DD961C92DD97DE961C92B1
:10488000DE971092E6021092E7021092E802109270
:10489000E9028CE093E090969C938E935F97ECE115
:1048A000F6E0E491F0E0EE0FFF1FE75FF94F85912E
:1048B00094915E969C938E935D97EEEFF5E08491D4
:1048C000D3968C93D397EDE1F6E0E491F0E0EE0F10
:1048D000FF1FE75FF94F259134915C963C932E932F
:1048E0005B97EFEFF5E0E491D196EC93D197E095EB
:1048F000D296EC93D297E82FE095D496EC93D49788
:1049000086E291E08D939C930895F8940C9456263A
:104910005058BB27AA270E94A0240C947F250E94F0
:10492000712538F00E94782520F039F49F3F19F462
:1049300026F40C946E250EF4E095E7FB0C946825A4
:10494000E92F0E94902558F3BA176207730784076E
:10495000950720F079F4A6F50C94B2250EF4E095B5
:104960000B2EBA2FA02D0B01B90190010C01CA0129
:10497000A0011124FF27591B99F0593F50F4503ED4
:1049800068F11A16F040A22F232F342F4427585FC6
:10499000F3CF469537952795A795F0405395C9F7DE
:1049A0007EF41F16BA0B620B730B840BBAF0915096
:1049B000A1F0FF0FBB1F661F771F881FC2F70EC035
:1049C000BA0F621F731F841F48F487957795679508
:1049D000B795F7959E3F08F0B0CF9395880F08F0F4
:1049E0009927EE0F9795879508950E94FC24689467
:1049F000B1110C94B32508950E94982588F09F5713
:104A000098F0B92F9927B751B0F0E1F0660F771FF2
:104A1000881F991F1AF0BA95C9F714C0B13091F0E8
:104A20000E94B225B1E008950C94B225672F782F2B
:104A30008827B85F39F0B93FCCF3869577956795AD
:104A4000B395D9F73EF490958095709561957F4F19
:104A50008F4F9F4F0895E89409C097FB3EF49095BF
:104A60008095709561957F4F8F4F9F4F9923A9F047
:104A7000F92F96E9BB279395F695879577956795D6
:104A8000B795F111F8CFFAF4BB0F11F460FF1BC01A
:104A90006F5F7F4F8F4F9F4F16C0882311F096E9AD
:104AA00011C0772321F09EE8872F762F05C066235B
:104AB00071F096E8862F70E060E02AF09A95660F14
:104AC000771F881FDAF7880F9695879597F90895CD
:104AD00097F99F6780E870E060E008959FEF80ECB1
:104AE000089500240A941616170618060906089554
:104AF00000240A9412161306140605060895092EBA
:104B00000394000C11F4882352F0BB0F40F4BF2B28
:104B100011F460FF04C06F5F7F4F8F4F9F4F089568
:104B200057FD9058440F551F59F05F3F71F047955E
:104B3000880F97FB991F61F09F3F79F08795089543
:104B4000121613061406551FF2CF4695F1DF08C062
:104B5000161617061806991FF1CF8695710561057F
:104B600008940895E894BB2766277727CB0197F927
:104B700008950E94CC250C947F250E94712538F061
:104B80000E94782520F0952311F00C9468250C9450
:104B90006E2511240C94B3250E94902570F3959FE7
:104BA000C1F3950F50E0551F629FF001729FBB2724
:104BB000F00DB11D639FAA27F00DB11DAA1F649FC0
:104BC0006627B00DA11D661F829F2227B00DA11D73
:104BD000621F739FB00DA11D621F839FA00D611DF9
:104BE000221F749F3327A00D611D231F849F600D1A
:104BF000211D822F762F6A2F11249F5750409AF043
:104C0000F1F088234AF0EE0FFF1FBB1F661F771FCE
:104C1000881F91505040A9F79E3F510580F00C9499
:104C200068250C94B3255F3FE4F3983ED4F3869552
:104C300077956795B795F795E7959F5FC1F7FE2B39
:104C4000880F911D9695879597F90895991B79E09E
:104C500004C0991F961708F0961B881F7A95C9F70C
:104C6000809508950E943A26332312F48A1B9B0BE9
:104C70000C944B26A29FB001B39FC001A39F700D5F
:104C8000811D1124911DB29F700D811D1124911D54
:104C900008950E943A26B7FF0895821B930B08954A
:104CA000EE0FFF1F0590F491E02D0994F894FFCFCB
:104CB000031800000000F40A8E0B7D0B410B610B02
:104CC000360B00000000A8097B093B0627061806E2
:104CD000360500000000A3088E0B1D0AB30A6D0AFA
:104CE0003808B307F607660575033A0C80034306D8
:0E4CF000B50627076204F5039603F110800C49
:00000001FF
