:100000000C9415030C943D030C943D030C943D0398
:100010000C943D030C943D030C943D030C943D0360
:100020000C943D030C943D030C943D030C943D0350
:100030000C943D030C94D9080C943D030C943D039F
:100040000C948F080C943D030C943D030C943D03D9
:100050000C943D030C94E3080C943D030C943D0375
:100060000C943D030C943D03EF03038002CF030087
:10007000C130ED0464031281E803850078CB0539B3
:100080002C003402F70120EA020000C00123C10164
:1000900010C5023E28C701863601483701003A01E3
:1000A00055B1020018B603088227F20100260101AB
:1000B000E00F0F312B0C0E084EF1370710030E091D
:1000C00000E10F000E1403110731C148080F0C3175
:1000D000360F118029800000000000240027002A2C
:1000E0000000000000250028002B00040404040484
:1000F00004040402020202020203030303030301D5
:1001000002040810204080010204081020010204AB
:100110000810200000000700020100000304060090
:100120000000000000000000000000003E5B4F5B8C
:100130003E3E6B4F6B3E1C3E7C3E1C183C7E3C188A
:100140001C577D571C1C5E7F5E1C00183C1800FF6E
:10015000E7C3E7FF0018241800FFE7DBE7FF30489C
:100160003A060E2629792926407F050507407F0596
:10017000253F5A3CE73C5A7F3E1C1C08081C1C3E8D
:100180007F14227F22145F5F005F5F06097F017F7B
:10019000006689956A606060606094A2FFA294081E
:1001A000047E040810207E201008082A1C08081C61
:1001B0002A08081E101010100C1E0C1E0C30383EA1
:1001C0003830060E3E0E06000000000000005F0002
:1001D000000007000700147F147F14242A7F2A12CE
:1001E00023130864623649562050000807030000B4
:1001F0001C2241000041221C002A1C7F1C2A0808E6
:100200003E080800807030000808080808000060F8
:10021000600020100804023E5149453E00427F40E4
:100220000072494949462141494D331814127F1043
:1002300027454545393C4A4949314121110907368D
:1002400049494936464949291E000014000000402A
:100250003400000008142241141414141400412224
:10026000140802015909063E415D594E7C121112D3
:100270007C7F494949363E414141227F4141413ECF
:100280007F494949417F090909013E414151737F35
:100290000808087F00417F41002040413F017F085E
:1002A0001422417F404040407F021C027F7F0408AF
:1002B000107F3E4141413E7F090909063E415121DF
:1002C0005E7F09192946264949493203017F010306
:1002D0003F4040403F1F2040201F3F4038403F6389
:1002E0001408146303047804036159494D43007FE3
:1002F0004141410204081020004141417F040201B4
:100300000204404040404000030708002054547855
:10031000407F284444383844444428384444287FA3
:10032000385454541800087E090218A4A49C787FFD
:100330000804047800447D40002040403D007F10C8
:1003400028440000417F40007C047804787C080445
:1003500004783844444438FC1824241818242418F9
:10036000FC7C08040408485454542404043F4424E6
:100370003C4040207C1C2040201C3C4030403C4401
:10038000281028444C9090907C4464544C440008BD
:1003900036410000007700000041360800020102EB
:1003A00004023C2623263C1EA1A161123A404020B3
:1003B0007A3854545559215555794122545478422C
:1003C000215554784020545579400C1E52721239F0
:1003D00055555559395454545939555454580000A9
:1003E000457C410002457D420001457C407D121163
:1003F000127DF0282528F07C545545002054547C6B
:10040000547C0A097F4932494949323A4444443AC2
:10041000324A4848303A4141217A3A4240207800F5
:100420009DA0A07D3D4242423D3D4040403D3C2498
:10043000FF2424487E4943662B2FFC2F2BFF0929DC
:10044000F620C0887E090320545479410000447D81
:10045000413048484A32384040227A007A0A0A72CB
:100460007D0D19317D2629292F2826292929263075
:10047000484D4020380808080808080808382F1098
:10048000C8ACBA2F102834FA00007B000008142AE8
:10049000142222142A14085500550055AA55AA55AD
:1004A000AAFF55FF55FF000000FF00101010FF00CD
:1004B000141414FF001010FF00FF1010F010F014BF
:1004C0001414FC001414F700FF0000FF00FF1414C4
:1004D000F404FC141417101F10101F101F14141410
:1004E0001F00101010F0000000001F101010101F4F
:1004F00010101010F010000000FF1010101010105D
:10050000101010FF10000000FF140000FF00FF009B
:10051000001F10170000FC04F41414171017141413
:10052000F404F40000FF00F714141414141414F766
:1005300000F7141414171410101F101F141414F4BF
:10054000141010F010F000001F101F0000001F1406
:10055000000000FC140000F010F01010FF10FF1459
:100560001414FF141010101F00000000F010FFFF03
:10057000FFFFFFF0F0F0F0F0FFFFFF0000000000D1
:10058000FFFF0F0F0F0F0F3844443844FC4A4A4A0C
:10059000347E02020606027E027E026355494163F2
:1005A0003844443C04407E201E2006027E0202990C
:1005B000A5E7A5991C2A492A1C4C7201724C304AA5
:1005C0004D4D303048784830BC625A463D3E49492E
:1005D00049007E0101017E2A2A2A2A2A44445F44D6
:1005E0004440514A444040444A51400000FF010306
:1005F000E080FF000008086B6B08361236243606D0
:100600000F090F06000018180000001010003040FD
:10061000FF0101001F01011E00191D1712003C3CC3
:100620003C3C000000000000AC1211241FBECFEFC4
:10063000D8E0DEBFCDBF11E0A0E0B1E0EEE0F9E22E
:1006400002C005900D92A833B107D9F721E0A8E3C5
:10065000B1E001C01D92A638B207E1F713E0C5E191
:10066000D3E004C02197FE010E947F14C431D1075A
:10067000C9F70E944D130C945E140C940000FC0109
:1006800087A987FD06C0A38DB48D9C9181A9892B74
:100690008C9308950895CF92DF92EF92FF920F937B
:1006A0001F93CF93DF936C01EB017B01E40EF51EEA
:1006B00000E010E0CE15DF0561F06991D601ED9103
:1006C000FC910190F081E02DC6010995080F191FDA
:1006D000F1CFC801DF91CF911F910F91FF90EF9063
:1006E000DF90CF9008953FB7F89480913F019091AB
:1006F0004001A0914101B091420126B5A89B05C0DF
:100700002F3F19F00196A11DB11D3FBFBA2FA92F90
:10071000982F8827820F911DA11DB11DBC01CD010D
:1007200042E0660F771F881F991F4A95D1F70895F9
:100730008F929F92AF92BF92CF92DF92EF92FF92F1
:100740000F931F93CF93DF935C014B016A01E90183
:1007500077FD53C0DC0118968D919C91199768170D
:1007600079070CF04AC0209709F447C037FF07C04B
:10077000C9010196C80ED91ED195C195D109F501BF
:1007800082859385C816D906C4F5A6014C0F5D1F56
:100790009A012150310937FD30C0D7FE03C0EA016C
:1007A000C12CD12C281739071CF0EC01CC19DD091C
:1007B000D501ED91FC910680F781E02DC5010995E9
:1007C00078018E0121E030E0A601B401C5010E944C
:1007D000860ED501ED91FC910288F389E02DC501CB
:1007E000DF91CF911F910F91FF90EF90DF90CF900D
:1007F000BF90AF909F908F900994DF91CF911F9100
:100800000F91FF90EF90DF90CF90BF90AF909F90AF
:100810008F9008958F929F92AF92BF92CF92DF9266
:10082000EF92FF920F931F93CF93DF935C016B01C5
:100830004A01E90157FD53C0DC011A968D919C9144
:100840001B97481759070CF04AC0209709F447C076
:1008500037FF07C0C9010196C80ED91ED195C195B1
:10086000D109F50180859185C816D906C4F5A60180
:100870004C0F5D1F9A012150310937FD30C0D7FE62
:1008800003C0EA01C12CD12C281739071CF0EC0158
:10089000CC19DD09D501ED91FC910680F781E02DA1
:1008A000C5010995780101E010E09E01A401B6019F
:1008B000C5010E94860ED501ED91FC910288F38955
:1008C000E02DC501DF91CF911F910F91FF90EF9027
:1008D000DF90CF90BF90AF909F908F900994DF9161
:1008E000CF911F910F91FF90EF90DF90CF90BF902D
:1008F000AF909F908F900895EF92FF920F931F9368
:10090000CF93DF9377FD34C0DC011896ED91FC9115
:1009100019976E177F0764F52115310549F137FFE7
:1009200007C0F90131964E0F5F1F319521953109AE
:10093000DC011A96ED91FC911B974E175F07C4F4EA
:10094000EA01C20FD31FDE011197B7FD11C057FF97
:1009500003C09E0140E050E0AE17BF071CF09F01AE
:10096000241B350B7801890121E030E00E94860EBE
:10097000DF91CF911F910F91FF90EF900895EF922B
:10098000FF920F931F93CF93DF9357FD33C0DC018A
:100990001A96ED91FC911B974E175F075CF5211598
:1009A000310541F137FF07C0F90131966E0F7F1F06
:1009B000319521953109DC011896ED91FC9119973B
:1009C0006E177F07BCF4EB01C20FD31FDE01119736
:1009D000B7FD10C077FF03C09E0160E070E0AE1766
:1009E000BF071CF09F01261B370B780101E010E0C8
:1009F0000E94860EDF91CF911F910F91FF90EF9093
:100A000008958F929F92AF92BF92CF92DF92EF9212
:100A1000FF920F931F93CF93DF9347012115310569
:100A200009F44DC00115110509F449C037FF07C08D
:100A3000F90131966E0F7F1F319521953109DC0147
:100A40001896AD90BC9019976A157B05C4F517FFF1
:100A500007C0F80131964E0F5F1F119501951109DE
:100A6000DC011A96ED91FC911B974E175F073CF540
:100A70006B01C20ED31EE6012197D7FD20C07A017B
:100A8000E00EF11ED7011197B7FD19C077FF03C023
:100A9000960160E070E057FF03C0870140E050E03E
:100AA000CA15DB051CF09501261B370BAE17BF07D7
:100AB0001CF08F01041B150B74010E94860EDF9140
:100AC000CF911F910F91FF90EF90DF90CF90BF904B
:100AD000AF909F908F900895EF92FF920F931F9386
:100AE0002115310529F00115110511F00E94340F6F
:100AF0001F910F91FF90EF9008950F931F93CF9345
:100B0000DF93EC018B018DA9811109C01EBD0DB4CD
:100B100007FEFDCF0EBD0DB407FEFDCF2FC0813007
:100B2000E9F480E1E9A1FAA1208117FF03C09DA1AA
:100B3000922B02C09EA192239083EBA1FCA1208165
:100B40009FA1922B9083EBA1FCA1208198A59223D9
:100B50009083000F111F815029F710C0EF8DF8A16D
:100B60001083CE010E94030EEF8DF8A10083CE0109
:100B7000DF91CF911F910F910C94030EDF91CF91D4
:100B80001F910F910895AF92BF92CF92DF92EF9293
:100B9000FF920F931F93CF93DF93EC0177FD38C043
:100BA00088859985681779079CF557FD31C08A8536
:100BB0009B854817590764F569017A015B01E88153
:100BC000F9810680F781E02DCE010995E881F98150
:100BD00006A0F7A1E02D01E010E021E030E0A70140
:100BE000B501CE010995B601CE010E947D05E881CF
:100BF000F9810288F389E02DCE01DF91CF911F9119
:100C00000F91FF90EF90DF90CF90BF90AF9009943D
:100C1000DF91CF911F910F91FF90EF90DF90CF90D8
:100C2000BF90AF900895EF92FF920F931F93CF93D1
:100C3000DF93EC0177FD22C08885998568177907D5
:100C4000ECF457FD1BC08A859B8548175907B4F4FF
:100C50007901E881F98106A0F7A1E02D01E010E01B
:100C600021E030E0CE010995B701CE01DF91CF91AF
:100C70001F910F91FF90EF900C947D05DF91CF9124
:100C80001F910F91FF90EF900895FC0185A98111AC
:100C90000FC09CB59C7F9CBD9DB591609DBD9CB5D2
:100CA0009F7D9CBD2CB5237F95A1822F892B8CBD68
:100CB0000895CF93DF93EC010E9445068FA987FD2D
:100CC00006C0EB8DFC8D90818AA989238083DF91FA
:100CD000CF9108952F923F924F925F926F927F92A1
:100CE0008F929F92AF92BF92CF92DF92EF92FF923C
:100CF0000F931F93CF93DF93CDB7DEB72D970FB62A
:100D0000F894DEBF0FBECDBF2C016987262E312C93
:100D100061012FE0C21AD10801979A83898359E2B1
:100D2000E52E5CEDF52E05E010E023E030E0A601B5
:100D3000BC0183E491E00E94340F61EEE62E69EF7E
:100D4000F62E02E010E023E030E0A60169817A810E
:100D500083E491E00E94340F91012A5031093A83D3
:100D60002983C201039798878F83E12CF12C06E039
:100D700010E027E030E049815A81BC0183E491E032
:100D80000E94340FEE24EA94FE2C27E030E04981E3
:100D90005A816F81788583E491E00E94110983E490
:100DA00091E00E9459069101275031093C832B8321
:100DB00000E010E02FE030E04B815C81B20183E481
:100DC00091E00E947C04E7E08E2E912C81E090E07F
:100DD0009A838983A12CB12C27E030E03D872C87B2
:100DE00082EF9FEF9E838D83FAEF6F2E77247A94A4
:100DF0003B862A863FEFA31AB30A89819A8102961D
:100E00009A838983680E791E2C853D852A153B05BA
:100E1000ECF16901CC0CDD1C3FEFC31AD30A00E0F2
:100E200010E0960171018C859D85E81AF90AA701E9
:100E3000B2016A0D7B1D83E491E00E947C0496015F
:100E4000A701B2016A197B0983E491E00E947C0446
:100E50002C853D8582169306F1F42C853D85A216DE
:100E6000B306E4F577FC0BC0C90101972D813E81E3
:100E70002E5F3F4F3E832D83620E731E02C08C8512
:100E80009D858C849D849D878C87B4CF8C859D8522
:100E90008816990619F1EE24E394F12CEA18FB0860
:100EA0008A859B85E80EF91EB201680D791D00E068
:100EB00010E0C980DA8092E0C91AD1089601A70132
:100EC00083E491E00E947C04B201681979099601DB
:100ED000A70183E491E00E947C04BFCF83E491E00A
:100EE0000E943F0383E491E00E9459062FEF3FEFF9
:100EF000A101495F5F4FB20183E491E00E941306B4
:100F00002FEF3FEF4B815C81B20183E491E00E94BF
:100F100013062FEF3FEFA101B201695F7F4F83E41A
:100F200091E00E9413062FEF3FEFA101B20167503D
:100F3000710983E491E00E94130600E010E021E0D3
:100F400030E03A83298387E090E09C838B8392EFA3
:100F5000692E77247A942AEFE22EFF24FA943985B9
:100F6000232F30E03E832D830F5F1F4F29813A816D
:100F70002E5F3F4F3A832983E20EF31E4201800E1B
:100F8000911E2FEF3FEFCB80DC80C20CD31CA6015B
:100F9000B40183E491E00E9413065201A01AB10A41
:100FA0002FEF3FEFA601B50183E491E00E94130605
:100FB0002FEF3FEF61018B819C81C81AD90AA601EE
:100FC000B40183E491E00E9413062FEF3FEFA601E6
:100FD000B50183E491E00E941306CD80DE80C00E4F
:100FE000D11E2FEF3FEFA601AB80BC80A40CB51C37
:100FF000B50183E491E00E9413062FEF3FEFA601B5
:1010000062018B819C81C81AD90AB60183E491E000
:101010000E9413068D809E80801A910A2FEF3FEF69
:10102000A401B50183E491E00E9413062FEF3FEF86
:10103000A401B60183E491E00E9413062B813C8158
:10104000021713076CF4F7FC8FCF8B819C810197FB
:101050009C838B8392E0690E711CE60CF71C84CF95
:1010600083E491E00E943F03A10143505109EE2423
:10107000EA94FE2C02E010E022E030E06F817885F7
:1010800083E491E00E94340FA10142505109B20162
:101090006450710922E030E083E491E00E94340F53
:1010A0002D960FB6F894DEBF0FBECDBFDF91CF9166
:1010B0001F910F91FF90EF90DF90CF90BF90AF9076
:1010C0009F908F907F906F905F904F903F902F9068
:1010D0000895CF92DF92EF92FF92CF93DF936B014F
:1010E0007C010E947303EB01C114D104E104F104FB
:1010F00079F00E9473036C1B7D0B683E7340A0F374
:1011000081E0C81AD108E108F108C851DC4FECCFE2
:10111000DF91CF91FF90EF90DF90CF9008951F92D5
:101120000F920FB60F9211242F933F938F939F939B
:10113000AF93BF9380913B0190913C01A0913D0101
:10114000B0913E0130913A0123E0230F2D3720F476
:101150000196A11DB11D05C026E8230F0296A11D11
:10116000B11D20933A0180933B0190933C01A093E1
:101170003D01B0933E0180913F0190914001A091CB
:101180004101B09142010196A11DB11D80933F0123
:1011900090934001A0934101B0934201BF91AF9160
:1011A0009F918F913F912F910F900FBE0F901F90A5
:1011B00018951F920F920FB60F9211240F900FBE29
:1011C0000F901F9018951F920F920FB60F92112437
:1011D0008F939F9380917800909179009695879551
:1011E00096958795809338019F918F910F900FBEB0
:1011F0000F901F9018950895FC016370668B848191
:10120000958126813781613039F0633029F09187EB
:101210008087338722870895318720879387828745
:1012200008956F927F928F929F92AF92BF92CF92CA
:10123000DF92EF92FF920F931F93CF93DF93EC0116
:101240004B015A0169013801E881F9810680F78173
:10125000E02D0995E881F9810684F785E02D870165
:101260009601A501B401CE010995A501460D571DB2
:1012700041505109E881F9810684F785E02D9601F6
:10128000B401CE010995E881F9810484F585E02D4A
:101290009301A501B401CE010995C80CD91CB60172
:1012A00061507109E881F9810484F585E02D93018D
:1012B000A501CE010995E881F9810288F389E02D25
:1012C000CE01DF91CF911F910F91FF90EF90DF90B2
:1012D000CF90BF90AF909F908F907F906F90099428
:1012E0008F929F92AF92BF92CF92DF92EF92FF9236
:1012F0000F931F93CF93DF934C016B015A01E901C8
:10130000DC01ED91FC916217730781F40417150756
:1013100024F48B2D5801042F182F0A191B0998014A
:101320002F5F3F4F008CF18DE02D12C04017510709
:1013300009F52617370724F48D2D6901C62FD82FFC
:101340009E012C193D092F5F3F4F028CF38DE02D3C
:101350008701A501B601C4010995DF91CF911F91C5
:101360000F91FF90EF90DF90CF90BF90AF909F9044
:101370008F9008950680F781E02D0995D401ED91B5
:10138000FC910088F189E02D9E01A501B601C40100
:101390000995D401ED91FC910288F389E02DC401F7
:1013A000DF91CF911F910F91FF90EF90DF90CF9041
:1013B000BF90AF909F908F900994EF92FF920F9300
:1013C0001F93DC011A960D911C911B9718962D9175
:1013D0003C911997ED91FC91048CF58DE02D7B01EA
:1013E00040E050E060E070E009951F910F91FF90A0
:1013F000EF9008954F925F926F927F928F929F929B
:10140000AF92BF92CF92DF92EF92FF920F931F9312
:10141000CF93DF936C012B015A0139014801DC01A4
:10142000ED91FC910680F781E02D0995E201640CB5
:10143000751CD601ED91FC91C615D7055CF40484AA
:10144000F585E02D87019401A501BE01C60109952E
:101450002196EFCF0288F389E02DC601DF91CF916D
:101460001F910F91FF90EF90DF90CF90BF90AF90C2
:101470009F908F907F906F905F904F9009948F9284
:101480009F92AF92BF92CF92DF92EF92FF920F9313
:101490001F93CF93DF93EC015B014A016901E8815F
:1014A000F9810680F781E02D099595012C0D3D1DF0
:1014B00021503109E881F9810088F189E02D780116
:1014C0008401A401B501CE010995E881F981028862
:1014D000F389E02DCE01DF91CF911F910F91FF9005
:1014E000EF90DF90CF90BF90AF909F908F90099436
:1014F0008F929F92AF92BF92CF92DF92EF92FF9224
:101500000F931F93CF93DF93EC015B014A016901B5
:101510007801E881F9810680F781E02D0995C80CF2
:10152000D91C860101501109E881F9810088F189EF
:10153000E02D9501A401B501CE010995E881F9815D
:101540000288F389E02DCE01DF91CF911F910F9199
:10155000FF90EF90DF90CF90BF90AF909F908F90D3
:1015600009940895EF92FF920F931F93DC01ED9180
:10157000FC91048CF58DE02D09951F910F91FF9042
:10158000EF9008950F931F93DC01ED91FC91028C75
:10159000F38DE02D09951F910F9108950F931F93DF
:1015A000DC01ED91FC91008CF18DE02D09951F91EE
:1015B0000F910895DC01ED91FC910480F581E02DFF
:1015C00009942F923F924F925F926F927F928F92E7
:1015D0009F92AF92BF92CF92DF92EF92FF920F93C2
:1015E0001F93CF93DF9300D000D000D0CDB7DEB7EC
:1015F0002C017E836D836A015901C801FC82EB8254
:101600004801841A950A97FE03C091948194910829
:1016100035012D813E81621A730A77FE03C07194F1
:1016200061947108681479045CF43A2D2B2D5C01E7
:10163000832F922F3D812E81DE82CD82C32ED22E2A
:10164000AD81BE81AA16BB065CF43C2D2D2D6C012C
:10165000832F922F3D812E81BE82AD82A32EB22E8A
:1016600085012D813E81021B130B1C012C183D08A6
:1016700037FE03C0319421943108780117FF03C06D
:101680003FEFE31AF30AF594E794C816D9062CF055
:101690008FEF9FEF9A83898304C0A1E0B0E0BA8303
:1016A000A9832D813E81A216B30624F1D201ED91CA
:1016B000FC910084F185E02D2B813C816814790434
:1016C00024F44D815E81B60103C0A6016D817E8147
:1016D000C2010995E218F308F7FE06C029813A8194
:1016E000C20ED31EE00EF11E8D819E8101969E8357
:1016F0008D83D7CF26960FB6F894DEBF0FBECDBF31
:10170000DF91CF911F910F91FF90EF90DF90CF90DD
:10171000BF90AF909F908F907F906F905F904F9011
:101720003F902F900895AF92BF92CF92DF92EF92A9
:10173000FF920F931F93CF93DF93EC015B016A013C
:10174000215031097901E60EF71E01501109040FED
:10175000151F6AE20E94DA0FB501CE010E947D05D5
:10176000B701CE010E947D056BE2CE010E94DA0F27
:10177000B601CE010E947D05B801CE010E947D0513
:101780006CE2CE01DF91CF911F910F91FF90EF900E
:10179000DF90CF90BF90AF900C94DA0FCF93DF9390
:1017A0001F92CDB7DEB7FC016370668B623041F0EB
:1017B000633079F0613011F088E403C088E20AC038
:1017C00088E8898380EF90E09187808780E491E0CA
:1017D00008C088EE898380E491E09187808780EF5C
:1017E00090E09387828721E0AE014F5F5F4F66E311
:1017F000CF010E943E0E0F90DF91CF910895BF92CE
:10180000CF92DF92EF92FF920F931F93CF93DF93CC
:10181000EC016A017B01452B462B472B31F4C12C8F
:1018200022E1D22E2AE7E22EF12C8FA987FD07C0F4
:1018300061E00E94701261E08FA90E94231261E0B2
:1018400088AD0E94701261E088AD0E9423128DA9BC
:1018500081111DC0C9A2DAA2EBA2FCA21DA21EA288
:101860001FA218A661E08AE00E94231261E08AE0CC
:101870000E9470128CB580618CBD8CB580648CBD6B
:1018800061E08DE00E94701261E08BE016C0813053
:10189000B9F461E08AA50E94701260E08AA50E94F6
:1018A000231261E08CA50E94701260E08CA50E945A
:1018B00023128BA587FD36C060E00E94701232C0F3
:1018C0000BEE10E0F12CF8018491E82FF0E0EE0F20
:1018D000FF1FEF51FF4F859194912F8D38A128174D
:1018E000390741F461E08F2D0E94701260E08F2D66
:1018F0000E942312F3940F5F1F4FF4E1FF12E3CF16
:1019000061E08EA50E94701261E08EA50E942312F4
:101910008FA587FD07C061E00E94701261E08FA56E
:101920000E9423128EA987FD21C061E00E947012DF
:1019300061E08EA90E94231264E670E080E090E0EE
:101940000E94690860E08EA90E94231264E670E09C
:1019500080E090E00E94690861E08EA90E94231255
:1019600068EC70E080E090E00E9469088EA987FF33
:101970000DC020E040E050E061E0CE010E943E0E4C
:1019800066E970E080E090E00E94690888E6E82E51
:1019900080E0F82EC7010196F7011491112309F494
:1019A00048C0FC01B4900B2D0F77CE010E94450674
:1019B0008FA987FD06C0EB8DFC8D90818AA98923B4
:1019C0008083ED8DFE8D90818CA989238083612F8A
:1019D000CE010E94110EED8DFE8D90818BA9892B79
:1019E0008083C12CD12C10E0C016D10664F4F6011E
:1019F0003296EE0DFF1D6491CE010E94110EFFEF95
:101A0000CF1ADF0AF1CF8FA987FD06C0EB8DFC8DC1
:101A1000908189A9892B80830E5F1F4FE00EF11EF4
:101A2000B7FEB8CF66E970E080E090E00E946908F8
:101A3000B1CF80EF90E09987888780E491E09B8721
:101A40008A87DF91CF911F910F91FF90EF90DF90E8
:101A5000CF90BF9008958F929F92AF92CF92EF92C6
:101A6000FF920F931F93CF93DF93EC01262F898D65
:101A70009A8D009709F042C06A3059F41D861C8681
:101A80002D898E859F8538E0239F800D911D11241F
:101A900043C06D3009F4AAC08F898823C9F03C89FE
:101AA0008C859D8546E0349F800D911D11244885CD
:101AB00059854817590764F41D861C863D898E8513
:101AC0009F8548E0349F800D911D11249F878E874C
:101AD000EA88FB88088919894E855F856C857D8534
:101AE000AD88CC88CE010E94EF0F2C898C859D8516
:101AF00036E0239F800D911D11243EC06A3079F499
:101B00001D861C862D89FC013696E4918E859F8565
:101B10002E9F800D911D11249F878E8767C06D3089
:101B200009F464C0FC0134963491631708F45EC074
:101B30003196E491E61708F459C0462F431B342F21
:101B4000FC0132968590949047E0349F800C911C64
:101B50001124F401329634913196E491332311F03B
:101B6000E1110DC0F4013496E4912C898C859D859A
:101B7000E29F800D911D11249D878C8737C0F40151
:101B8000359644915F89552319F15C89E32FF0E084
:101B9000E40FF11D47FDFA955E9FB0015F9F700D48
:101BA00011244C855D85460F571F6885798564171C
:101BB000750774F41D861C863D89FC013696E491F8
:101BC0008E859F853E9F800D911D11249F878E8756
:101BD000EA88FB88088919894E855F856C857D8533
:101BE000AD88CC88CE010E94EF0FBCCF81E090E0A1
:101BF000DF91CF911F910F91FF90EF90CF90AF9019
:101C00009F908F900895FC01A5A1B6A19C9182A5FB
:101C100089238C93A5A1B6A19C9181A5892B8C9336
:101C20000895FC0185A9811105C06EBD0DB407FEA4
:101C3000FDCF08958130E1F488E0A1A1B2A12C91FB
:101C400067FF03C095A1922B02C096A192239C939B
:101C5000A3A1B4A12C9197A1922B9C93660FA3A151
:101C6000B4A12C9190A592239C93815031F70895B3
:101C7000A78DB0A16C93CF010C94030ECF92DF928D
:101C8000EF92FF920F931F93CF93DF93EC01162FE8
:101C90006A01E22E0E9445068FA987FD06C0EB8DE2
:101CA000FC8D90818AA989238083ED8DFE8D9081A2
:101CB0008CA989238083612FCE010E94110EED8DA6
:101CC000FE8D90818BA9892B80838601F12CC80120
:101CD0008C199D098E159F053CF4F80161918F01C7
:101CE000CE010E94110EF3CF8FA987FD06C0EB8DA8
:101CF000FC8D908189A9892B8083DF91CF911F91E1
:101D00000F91FF90EF90DF90CF9008958F929F9268
:101D1000AF92BF92CF92DF92EF92FF920F931F93F9
:101D2000CF93DF93EC014901BE2CAF2CE881F98100
:101D300006A0F7A1E02D09959401D8010E94611435
:101D4000611571058105910509F481C02DA9211145
:101D50000FC0615071098109910908F478C0AEBCC7
:101D60000DB407FEFDCFBEBC0DB407FEFDCFF1CF15
:101D7000213009F03FC0615071098109910908F4CF
:101D800066C03A2D28E0E9A1FAA1508137FF03C0CF
:101D90004DA1452B02C04EA145234083EBA1FCA1E0
:101DA00050814FA1452B4083EBA1FCA1508148A558
:101DB00045234083330F215031F73B2D28E0E9A123
:101DC000FAA1508137FF03C04DA1452B02C04EA19F
:101DD00045234083EBA1FCA150814FA1452B4083BB
:101DE000EBA1FCA1508148A545234083330F21502E
:101DF00031F7C1CFFE1017C0EF8DF8A1F0826B0153
:101E00007C01CC0CDD1CEE1CFF1CC114D104E104D0
:101E1000F104E9F0CE010E94030E81E0C81AD10856
:101E2000E108F108F2CF6B017C01EF8DF8A1A082EF
:101E3000CE010E94030EEF8DF8A1B082CE010E9468
:101E4000030E21E0C21AD108E108F10871F7DF9111
:101E5000CF911F910F91FF90EF90DF90CF90BF90A7
:101E6000AF909F908F9008958F929F92AF92BF9264
:101E7000CF92DF92EF92FF920F931F93CF93DF9356
:101E80004C01EB016A01590137FF07C0C9010196F6
:101E9000C80FD91FB194A194B108F401A085B185F0
:101EA000CA17DB070CF058C017FF07C0C80101961E
:101EB000C80ED91E119501951109F40182859385EB
:101EC000C816D9060CF048C0FE01EA0DFB1DAF0193
:101ED0004150510957FD40C0B601600F711F9B0171
:101EE0002150310937FD38C0D7FF03C05F01C0E082
:101EF000D0E0D7FE03C08B01C12CD12C4A175B0761
:101F00001CF05D01AC1ABD0A281739071CF08C01C2
:101F10000C191D09D401ED91FC910680F781E02D8B
:101F2000C40109959501A601BE01C4010E94860E57
:101F3000D401ED91FC910288F389E02DC401DF9179
:101F4000CF911F910F91FF90EF90DF90CF90BF90B6
:101F5000AF909F908F900994DF91CF911F910F9137
:101F6000FF90EF90DF90CF90BF90AF909F908F90B9
:101F700008950F931F93CF93DF934BE050E06CE2F3
:101F800071E083E491E00E944B038C016DE083E4F7
:101F900091E00E942B0DEC016AE083E491E00E9445
:101FA0002B0DC00FD11F8C0F9D1FDF91CF911F9163
:101FB0000F910895CF93DF93EC01ED8DFE8D90810D
:101FC0008CA989238083CE010E94110EED8DFE8D98
:101FD00090818BA9892B8083DF91CF9108952F92D7
:101FE0003F924F925F926F927F928F929F92AF92A9
:101FF000BF92CF92DF92EF92FF920F931F93CF93F6
:10200000DF93CDB7DEB76B970FB6F894DEBF0FBE88
:10201000CDBF9B8F8A8F1B014A01D22E198708875B
:102020003701A982DC0159962D913C915A972115CF
:10203000310509F0FFC018968D919C91199768178A
:1020400079070CF0E7C11A968D919C911B97481760
:1020500059070CF0DFC1EC2DF0E0FB83EA839B0114
:1020600046E0C49E200D311D11243D872C87121699
:1020700013060CF0CFC16A2D70E07B876A8783E07E
:10208000660F771F8A95E1F77F876E87CB01880DF2
:10209000991D181619060CF0BDC158968C91811126
:1020A00004C08FEA8D1508F4D394AA8DBB8DED91F1
:1020B000FC9111970680F781E02DCD010995B5E0DF
:1020C000DB9EC0011124EC2DF0E0F98BE88B91012F
:1020D0002B5F3F4F3B8B2A8B3D822C822101AC0131
:1020E000421953095D8B4C8B7981672F70E07F8B90
:1020F0006E8BC4010896998F888FEC89FD89E40D59
:10210000F51DE95DFE4FD49054019F828E82D0FE72
:1021100016C0AA8DBB8DED91FC91B1E0CB1209C028
:102120002981213031F40084F185E02D288539851D
:1021300019C00284F385E02DE884F9841DC0488528
:1021400059854615570519F1AA8DBB8DED91FC9166
:10215000B1E0CB120DC02981213051F40084F1850A
:10216000E02D9301A501B2018A8D9B8D09950FC0C9
:102170000284F385E02D73010A851B852A813B814A
:102180004E815F816C817D818A8D9B8D0995D6946E
:102190003FEFA31AB30A4E815F816E897F89460F94
:1021A000571F5F834E83888D998DA816B90609F055
:1021B000AECF9FEF491A590AAC81BD81E889F989F0
:1021C000AE0FBF1FBD83AC832A893B8942165306DD
:1021D00009F093CF488559854615570509F4F8C08D
:1021E000AA8DBB8DED91FC91B1E0CB1211C029817C
:1021F000213071F4B1016B5F7F4F0484F585E02DD0
:10220000830128E030E0A4018A8D9B8D0995E0C010
:102210006C857D854A815B81641B750B0284F38527
:10222000E02D73010E851F859A01A4018A8D9B8D77
:102230000995CEC0F9013496E491DE1AF90132967F
:1022400085919491B7E0DB9E800D911D1124F901D9
:10225000259134913B8B2A8BFC01259134915901B6
:10226000FC0132965490319634913C8732967490AA
:102270003196149141E04C1518F05981523068F0B4
:10228000672D072C000C770B7D836C83812F012E2B
:10229000000C990B9B838A8304C01B821A821D82C7
:1022A0001C82AA8DBB8DED91FC9111970680F78160
:1022B000E02DCD010995412CD12C612CF981EF2F16
:1022C000F0E0FF83EE832C2D30E03B872A87A401CA
:1022D000410F511D17FD5A955F8B4E8BB101670D54
:1022E000711D77FC7A95798F688F7C85671608F069
:1022F0006FC0262D30E04A815B81420F531FAE81B3
:10230000BF81A49FC001A59F900DB49F900D112483
:10231000F401E80FF91FF98BE88B842D712C4E899D
:102320005F89420F531F5D8B4C8B751408F04DC0B5
:1023300051E0580F5E87877041F4C5010196EA8924
:10234000FB89EA0DFB1DD4905C01D7FE3AC061E029
:10235000C61216C07981713099F4AA8DBB8DED91AA
:10236000FC9111970084F185E02D288539854C89F1
:102370005D89688D798D670D711DCD01099521C02D
:102380008C819D81870D911DEA85FB858E9FB00113
:102390008F9F700D9E9F700D1124620D731DAA8D6D
:1023A000BB8DED91FC9111970284F385E02DE884BB
:1023B000F9840E811F812A853B8548895989CD0181
:1023C0000995DD0C73948E85B0CF450C63948DCF49
:1023D000AA8DBB8DED91FC9111970288F389E02DB8
:1023E000CD016B960FB6F894DEBF0FBECDBFDF9167
:1023F000CF911F910F91FF90EF90DF90CF90BF9002
:10240000AF909F908F907F906F905F904F903F9094
:102410002F9009946B960FB6F894DEBF0FBECDBF18
:10242000DF91CF911F910F91FF90EF90DF90CF90B0
:10243000BF90AF909F908F907F906F905F904F90E4
:102440003F902F90089590E0FC01ED5EFE4F2491A7
:10245000FC01E150FF4F3491FC01E551FF4FE49145
:10246000EE2309F43CC0222339F1233091F038F4F3
:102470002130A9F0223001F584B58F7D12C02630BD
:1024800091F02730A1F02430B9F4809180008F7D45
:1024900003C0809180008F77809380000DC084B549
:1024A0008F7784BD09C08091B0008F7703C0809181
:1024B000B0008F7D8093B000F0E0EE0FFF1FEF5172
:1024C000FF4FA591B4919FB7F894611104C08C910E
:1024D0003095382302C0EC913E2B3C939FBF08956A
:1024E000CF93DF9390E0FC01E150FF4F2491FC017A
:1024F000E551FF4F8491882361F190E0880F991F87
:10250000FC01E952FF4FC591D491FC01EF51FF4FFF
:10251000A591B491611109C09FB7F8948881209565
:1025200082238883EC912E230BC0623061F49FB725
:10253000F8948881322F309583238883EC912E2B59
:102540002C939FBF06C08FB7F894E8812E2B288369
:102550008FBFDF91CF910895A3E4B1E013961C9251
:102560001E92129720EF30E015963C932E9314970D
:1025700080E491E017969C938E93169719963C935E
:102580002E9318971B969C938E931A9756961C928F
:1025900056971D961C921E921C971F961C921E9277
:1025A0001E9781E055968C93559754968C9354972B
:1025B0002FEF3FEF53963C932E93529751963C93B7
:1025C0002E93509757968C93579758961C925897DE
:1025D0005A961C921E925997D5961C92D5978FEFBA
:1025E000D6968C93D6978AE0D7968C93D79789E026
:1025F000D8968C93D897DA961C921E92D997DC962F
:102600001C921E92DB97DD961C92DD97DE961C9243
:10261000DE97109282011092830110928401109231
:10262000850189E391E090969C938E935F97E4EF08
:10263000F0E0E491F0E0EE0FFF1FEF51FF4F8591C6
:1026400094915E969C938E935D97E8E0F1E084917F
:10265000D3968C93D397E5EFF0E0E491F0E0EE0FA2
:10266000FF1FEF51FF4F259134915C963C932E93C1
:102670005B97E9E0F1E0E491D196EC93D197E09596
:10268000D296EC93D297E82FE095D496EC93D4971A
:1026900084E091E08D939C930895789484B5826052
:1026A00084BD84B5816084BD85B5826085BD85B5F6
:1026B000816085BD80916E00816080936E00109274
:1026C00081008091810082608093810080918100EF
:1026D0008160809381008091800081608093800080
:1026E0008091B10084608093B1008091B0008160DE
:1026F0008093B00080917A00846080937A0080910A
:102700007A00826080937A0080917A008160809361
:102710007A0080917A00806880937A001092C100DC
:1027200040E050E0BA0183E491E00E94FF0B63E0D7
:1027300083E491E00E94CE0B60E075E083E491E0D9
:102740000E94DD09C4E1D0E069E1CE010E946A0681
:10275000A896C43581E0D807B9F7C0E0D0E06CE3B3
:10276000CE010E946A06A896C83681E0D807B9F75C
:10277000C4E1D0E06FE5CE010E946A06A896C43598
:1027800081E0D807B9F7C0E0D0E062E8CE010E944E
:102790006A06A896C83681E0D807B9F7C4E1D0E048
:1027A00065EACE010E946A06A896C43581E0D80782
:1027B000B9F7C0E0D0E068ECCE010E946A06A896A6
:1027C000C83681E0D807B9F7C4E1D0E06BEECE019E
:1027D0000E946A06A896C43581E0D807B9F782E05E
:1027E000E82E8BE1F82E0AE210E021EE30E045E021
:1027F00050E06FE270E083E491E00E94340FE12C3E
:10280000F12C0BE210E022EE30E044E050E06EE20A
:1028100070E083E491E00E94110983E490E09093DA
:10282000500180934F018CE090E09093520180938F
:10283000510183E0809357018093580182E292EB2B
:1028400090935601809355019093540180935301C6
:102850000E94B90F81E490E09093500180934F0162
:102860008EE090E0909352018093510180EA9AEFBC
:102870009093560180935501909354018093530196
:102880000E94B90F06E910E024E031E04DE250E08B
:102890006EE170E083E491E00E941109E12C9EEF6B
:1028A000F92E0EE110E024E031E04DE250E06EE15F
:1028B00070E083E491E00E94340FFFCFF8940C9411
:1028C00085140E946914332312F48A1B9B0B0C9409
:1028D0007A14A29FB001B39FC001A39F700D811D08
:1028E0001124911DB29F700D811D1124911D089519
:1028F0000E946914B7FF0895821B930B0895EE0F91
:0E290000FF1F0590F491E02D0994F894FFCF8D
:10290E00000000002B0D4B03C305590613060105ED
:10291E007C04BF04E10A3F03CE0BFB0898030A04B4
:10292E006C05DD0970091109FF0B930B48494748E7
:08293E002D53434F5245530095
:00000001FF
