:100000000C9415030C943D030C943D030C943D0398
:100010000C943D030C943D030C943D030C943D0360
:100020000C943D030C943D030C943D030C944E033F
:100030000C943F030C943D030C943D030C943D033E
:100040000C942A150C943D030C943A130C94FF1253
:100050000C943D030C945D030C943D030C943D0300
:100060000C94BF110C943D03EF03038002CF0300F7
:10007000C130ED0464031281E803850078CB0539B3
:100080002C003402F70120EA020000C00123C10164
:1000900010C5023E28C701863601483701003A01E3
:1000A00055B1020018B603088227F20100260101AB
:1000B000E00F0F312B0C0E084EF1370710030E091D
:1000C00000E10F000E1403110731C148080F0C3175
:1000D000360F118029800000000000240027002A2C
:1000E00000000000070002010000030406000000F9
:1000F000000000000000000000003E5B4F5B3E3E41
:100100006B4F6B3E1C3E7C3E1C183C7E3C181C57C3
:100110007D571C1C5E7F5E1C00183C1800FFE7C367
:10012000E7FF0018241800FFE7DBE7FF30483A0636
:100130000E2629792926407F050507407F05253FA2
:100140005A3CE73C5A7F3E1C1C08081C1C3E7F148E
:10015000227F22145F5F005F5F06097F017F0066D8
:1001600089956A606060606094A2FFA29408047E32
:10017000040810207E201008082A1C08081C2A08E1
:10018000081E101010100C1E0C1E0C30383E38309B
:10019000060E3E0E06000000000000005F0000009A
:1001A00007000700147F147F14242A7F2A122313C8
:1001B00008646236495620500008070300001C22DC
:1001C00041000041221C002A1C7F1C2A08083E080E
:1001D000080080703000080808080800006060000F
:1001E00020100804023E5149453E00427F40007203
:1001F000494949462141494D331814127F1027457A
:100200004545393C4A494931412111090736494997
:100210004936464949291E000014000000403400B8
:10022000000008142241141414141400412214086C
:1002300002015909063E415D594E7C1211127C7F24
:10024000494949363E414141227F4141413E7F4932
:100250004949417F090909013E414151737F08081D
:10026000087F00417F41002040413F017F08142268
:10027000417F404040407F021C027F7F0408107F86
:100280003E4141413E7F090909063E4151215E7FC1
:1002900009192946264949493203017F01033F4094
:1002A00040403F1F2040201F3F4038403F6314081C
:1002B000146303047804036159494D43007F4141AD
:1002C000410204081020004141417F040201020460
:1002D0004040404040000307080020545478407FCD
:1002E000284444383844444428384444287F385407
:1002F00054541800087E090218A4A49C787F0804AE
:10030000047800447D40002040403D007F10284498
:100310000000417F40007C047804787C0804047865
:100320003844444438FC1824241818242418FC7C2D
:1003300008040408485454542404043F44243C4012
:1003400040207C1C2040201C3C4030403C44281075
:1003500028444C9090907C4464544C4400083641AE
:10036000000000770000004136080002010204028C
:100370003C2623263C1EA1A161123A4040207A3837
:100380005454555921555579412254547842215598
:1003900054784020545579400C1E527212395555EC
:1003A0005559395454545939555454580000457CC2
:1003B000410002457D420001457C407D1211127DC5
:1003C000F0282528F07C545545002054547C547C5A
:1003D0000A097F4932494949323A4444443A324A47
:1003E0004848303A4141217A3A42402078009DA065
:1003F000A07D3D4242423D3D4040403D3C24FF24E3
:1004000024487E4943662B2FFC2F2BFF0929F62019
:10041000C0887E090320545479410000447D413056
:1004200048484A32384040227A007A0A0A727D0DE2
:1004300019317D2629292F28262929292630484D9A
:100440004020380808080808080808382F10C8ACE9
:10045000BA2F102834FA00007B000008142A142256
:1004600022142A14085500550055AA55AA55AAFF6A
:1004700055FF55FF000000FF00101010FF0014147E
:1004800014FF001010FF00FF1010F010F0141414EF
:10049000FC001414F700FF0000FF00FF1414F40424
:1004A000FC141417101F10101F101F1414141F0019
:1004B000101010F0000000001F101010101F10107E
:1004C0001010F010000000FF10101010101010108D
:1004D00010FF10000000FF140000FF00FF00001FCD
:1004E00010170000FC04F414141710171414F4046B
:1004F000F40000FF00F714141414141414F700F798
:10050000141414171410101F101F141414F41410C2
:1005100010F010F000001F101F0000001F1400005A
:1005200000FC140000F010F01010FF10FF14141461
:10053000FF141010101F00000000F010FFFFFFFF5D
:10054000FFF0F0F0F0F0FFFFFF0000000000FFFF01
:100550000F0F0F0F0F3844443844FC4A4A4A347E88
:1005600002020606027E027E026355494163384458
:10057000443C04407E201E2006027E020299A5E72C
:10058000A5991C2A492A1C4C7201724C304A4D4DC7
:10059000303048784830BC625A463D3E49494900AF
:1005A0007E0101017E2A2A2A2A2A44445F444440CB
:1005B000514A444040444A51400000FF0103E0805A
:1005C000FF000008086B6B083612362436060F0948
:1005D0000F06000018180000001010003040FF0146
:1005E00001001F01011E00191D1712003C3C3C3C7C
:1005F00000000000000102040810204080010204F5
:100600000810200102040810200000000025002826
:10061000002B000404040404040404020202020285
:1006200002030303030303001C2B11241FBECFEF9F
:10063000D8E0DEBFCDBF11E0A0E0B1E0ECE2FCE528
:1006400002C005900D92AA37B107D9F723E0AAE7B7
:10065000B1E001C01D92AE39B207E1F713E0C5E188
:10066000D3E004C02197FE010E940E2EC431D107B1
:10067000C9F70E9402200C94022C0C9400001F92D7
:100680000F920FB60F9211248F9382E08093840112
:100690008F910F900FBE0F901F9018951F920F9281
:1006A0000FB60F9211248F9381E0809384018F9174
:1006B0000F900FBE0F901F9018951F920F920FB6BC
:1006C0000F9211248F939F938091780090917900DD
:1006D0009695879596958795809380019F918F91A8
:1006E0000F900FBE0F901F9018950895FC01637036
:1006F000668B8481958126813781613039F0633042
:1007000029F0918780873387228708953187208752
:100710009387828708956F927F928F929F92AF9274
:10072000BF92CF92DF92EF92FF920F931F93CF93DE
:10073000DF93EC014B015A0169013801E881F9812D
:100740000680F781E02D0995E881F9810684F78517
:10075000E02D87019601A501B401CE010995A501FF
:10076000460D571D41505109E881F9810684F785EE
:10077000E02D9601B401CE010995E881F981048448
:10078000F585E02D9301A501B401CE010995C80CB2
:10079000D91CB60161507109E881F9810484F5859D
:1007A000E02D9301A501CE010995E881F981028828
:1007B000F389E02DCE01DF91CF911F910F91FF9032
:1007C000EF90DF90CF90BF90AF909F908F907F90F1
:1007D0006F9009948F929F92AF92BF92CF92DF92C7
:1007E000EF92FF920F931F93CF93DF934C016B0116
:1007F0005A01E901DC01ED91FC916217730781F464
:100800000417150724F48B2D5801042F182F0A19EB
:100810001B0998012F5F3F4F008CF18DE02D12C016
:100820004017510709F52617370724F48D2D690164
:10083000C62FD82F9E012C193D092F5F3F4F028CE8
:10084000F38DE02D8701A501B601C4010995DF9163
:10085000CF911F910F91FF90EF90DF90CF90BF90BD
:10086000AF909F908F9008950680F781E02D0995B5
:10087000D401ED91FC910088F189E02D9E01A50144
:10088000B601C4010995D401ED91FC910288F38968
:10089000E02DC401DF91CF911F910F91FF90EF9058
:1008A000DF90CF90BF90AF909F908F900994EF9280
:1008B000FF920F931F93DC011A960D911C911B97C9
:1008C00018962D913C911997ED91FC91048CF58D22
:1008D000E02D7B0140E050E060E070E009951F9161
:1008E0000F91FF90EF9008954F925F926F927F92D9
:1008F0008F929F92AF92BF92CF92DF92EF92FF9230
:100900000F931F93CF93DF936C012B015A01390191
:100910004801DC01ED91FC910680F781E02D0995FD
:10092000E201640C751CD601ED91FC91C615D7054A
:100930005CF40484F585E02D87019401A501BE01D6
:10094000C60109952196EFCF0288F389E02DC601F3
:10095000DF91CF911F910F91FF90EF90DF90CF909B
:10096000BF90AF909F908F907F906F905F904F90CF
:1009700009948F929F92AF92BF92CF92DF92EF92A3
:10098000FF920F931F93CF93DF93EC015B014A011A
:100990006901E881F9810680F781E02D09959501CB
:1009A0002C0D3D1D21503109E881F9810088F18924
:1009B000E02D78018401A401B501CE010995E881FB
:1009C000F9810288F389E02DCE01DF91CF911F914B
:1009D0000F91FF90EF90DF90CF90BF90AF909F90DE
:1009E0008F9009948F929F92AF92BF92CF92DF9295
:1009F000EF92FF920F931F93CF93DF93EC015B0174
:100A00004A0169017801E881F9810680F781E02DCA
:100A10000995C80CD91C860101501109E881F9819A
:100A20000088F189E02D9501A401B501CE01099559
:100A3000E881F9810288F389E02DCE01DF91CF9121
:100A40001F910F91FF90EF90DF90CF90BF90AF90EC
:100A50009F908F900994EF92FF920F931F93DC0168
:100A6000ED91FC91048CF58DE02D09951F910F916E
:100A7000FF90EF9008950F931F93DC01ED91FC918F
:100A8000028CF38DE02D09951F910F9108950F931E
:100A90001F93DC01ED91FC91008CF18DE02D099507
:100AA0001F910F910895DC01ED91FC910480F58177
:100AB000E02D09942F923F924F925F926F927F9216
:100AC0008F929F92AF92BF92CF92DF92EF92FF925E
:100AD0000F931F93CF93DF9300D000D000D0CDB7FA
:100AE000DEB72C017E836D836A015901C801FC8247
:100AF000EB824801841A950A97FE03C09194819471
:100B0000910835012D813E81621A730A77FE03C078
:100B1000719461947108681479045CF43A2D2B2D5A
:100B20005C01832F922F3D812E81DE82CD82C32EE8
:100B3000D22EAD81BE81AA16BB065CF43C2D2D2DB4
:100B40006C01832F922F3D812E81BE82AD82A32E18
:100B5000B22E85012D813E81021B130B1C012C1826
:100B60003D0837FE03C0319421943108780117FF06
:100B700003C03FEFE31AF30AF594E794C816D906C9
:100B80002CF08FEF9FEF9A83898304C0A1E0B0E03F
:100B9000BA83A9832D813E81A216B30624F1D20126
:100BA000ED91FC910084F185E02D2B813C8168144E
:100BB000790424F44D815E81B60103C0A6016D81E4
:100BC0007E81C2010995E218F308F7FE06C029816B
:100BD0003A81C20ED31EE00EF11E8D819E810196D8
:100BE0009E838D83D7CF26960FB6F894DEBF0FBEB7
:100BF000CDBFDF91CF911F910F91FF90EF90DF90CC
:100C0000CF90BF90AF909F908F907F906F905F90AC
:100C10004F903F902F900895CF92DF92EF92FF92E6
:100C20000F931F93CF93DF937C01CB018A01209117
:100C30007E02222389F0EB016B01C40ED51ECC1578
:100C4000DD0569F06991D701ED91FC910190F0818A
:100C5000E02DC7010995F3CF642F0E94E612C80169
:100C6000DF91CF911F910F91FF90EF90DF90CF9088
:100C70000895CF93DF931F92CDB7DEB7698320919C
:100C80007E022223D1F02091A102203240F021E007
:100C900030E0FC013383228380E090E015C0809136
:100CA0007F02E82FF0E0E058FD4F998190838F5F3D
:100CB00080937F028093A10205C061E0CE0101967E
:100CC0000E94E61281E090E00F90DF91CF910895AD
:100CD000CF93DF931F92CDB7DEB7FC016370668BB5
:100CE000623041F0633079F0613011F088E403C084
:100CF00088E20AC088E8898380EF90E09187808746
:100D000080E491E008C088EE898380E491E09187D7
:100D1000808780EF90E09387828721E0AE014F5F6C
:100D20005F4F66E3CF010E942E0F0F90DF91CF91AE
:100D300008958F929F92AF92CF92EF92FF920F936E
:100D40001F93CF93DF93EC01262F898D9A8D009707
:100D500009F042C06A3059F41D861C862D898E85A3
:100D60009F8538E0239F800D911D112443C06D3075
:100D700009F4AAC08F898823C9F03C898C859D8598
:100D800046E0349F800D911D1124488559854817F0
:100D9000590764F41D861C863D898E859F8548E031
:100DA000349F800D911D11249F878E87EA88FB88D0
:100DB000088919894E855F856C857D85AD88CC88CD
:100DC000CE010E948B0F2C898C859D8536E0239F58
:100DD000800D911D11243EC06A3079F41D861C8659
:100DE0002D89FC013696E4918E859F852E9F800D7E
:100DF000911D11249F878E8767C06D3009F464C0F0
:100E0000FC0134963491631708F45EC03196E49186
:100E1000E61708F459C0462F431B342FFC013296C5
:100E20008590949047E0349F800C911C1124F4012C
:100E3000329634913196E491332311F0E1110DC0D3
:100E4000F4013496E4912C898C859D85E29F800D78
:100E5000911D11249D878C8737C0F40135964491EC
:100E60005F89552319F15C89E32FF0E0E40FF11D50
:100E700047FDFA955E9FB0015F9F700D11244C8570
:100E80005D85460F571F688579856417750774F46B
:100E90001D861C863D89FC013696E4918E859F85D2
:100EA0003E9F800D911D11249F878E87EA88FB88C5
:100EB000088919894E855F856C857D85AD88CC88CC
:100EC000CE010E948B0FBCCF81E090E0DF91CF91EB
:100ED0001F910F91FF90EF90CF90AF909F908F90C8
:100EE00008958F929F92AF92BF92CF92DF92EF922E
:100EF000FF920F931F93CF93DF935C014B016A0125
:100F0000E90177FD53C0DC0118968D919C911997EA
:100F1000681779070CF04AC0209709F447C037FFDB
:100F200007C0C9010196C80ED91ED195C195D10936
:100F3000F50182859385C816D906C4F5A6014C0F24
:100F40005D1F9A012150310937FD30C0D7FE03C023
:100F5000EA01C12CD12C281739071CF0EC01CC195F
:100F6000DD09D501ED91FC910680F781E02DC501E9
:100F7000099578018E0121E030E0A601B401C50198
:100F80000E94051BD501ED91FC910288F389E02DAB
:100F9000C501DF91CF911F910F91FF90EF90DF90EE
:100FA000CF90BF90AF909F908F900994DF91CF9199
:100FB0001F910F91FF90EF90DF90CF90BF90AF9077
:100FC0009F908F9008958F929F92AF92BF92CF92F1
:100FD000DF92EF92FF920F931F93CF93DF935C0109
:100FE0006B014A01E90157FD53C0DC011A968D914E
:100FF0009C911B97481759070CF04AC0209709F499
:1010000047C037FF07C0C9010196C80ED91ED19548
:10101000C195D109F50180859185C816D906C4F519
:10102000A6014C0F5D1F9A012150310937FD30C0D8
:10103000D7FE03C0EA01C12CD12C281739071CF0B8
:10104000EC01CC19DD09D501ED91FC910680F78109
:10105000E02DC5010995780101E010E09E01A40191
:10106000B601C5010E94051BD501ED91FC910288D6
:10107000F389E02DC501DF91CF911F910F91FF9072
:10108000EF90DF90CF90BF90AF909F908F9009949A
:10109000DF91CF911F910F91FF90EF90DF90CF9054
:1010A000BF90AF909F908F900895EF92FF920F9313
:1010B0001F93CF93DF9377FD34C0DC011896ED9139
:1010C000FC9119976E177F0764F52115310549F1D9
:1010D00037FF07C0F90131964E0F5F1F31952195FB
:1010E0003109DC011A96ED91FC911B974E175F07B1
:1010F000C4F4EA01C20FD31FDE011197B7FD11C07E
:1011000057FF03C09E0140E050E0AE17BF071CF040
:101110009F01241B350B7801890121E030E00E94FA
:10112000051BDF91CF911F910F91FF90EF900895D4
:10113000EF92FF920F931F93CF93DF9357FD33C02E
:10114000DC011A96ED91FC911B974E175F075CF539
:101150002115310541F137FF07C0F90131966E0FB6
:101160007F1F319521953109DC011896ED91FC9195
:1011700019976E177F07BCF4EB01C20FD31FDE0176
:101180001197B7FD10C077FF03C09E0160E070E0CB
:10119000AE17BF071CF09F01261B370B780101E03B
:1011A00010E00E94051BDF91CF911F910F91FF90DE
:1011B000EF900895EF92FF920F931F932115310541
:1011C00029F00115110511F00E94B31B1F910F9119
:1011D000FF90EF900895FC01A5A1B6A19C9182A576
:1011E00089238C93A5A1B6A19C9181A5892B8C9371
:1011F00008950F931F93CF93DF93EC018B018DA97B
:10120000811109C01EBD0DB407FEFDCF0EBD0DB48A
:1012100007FEFDCF2FC08130E9F480E1E9A1FAA1FA
:10122000208117FF03C09DA1922B02C09EA1922393
:101230009083EBA1FCA120819FA1922B9083EBA135
:10124000FCA1208198A592239083000F111F81504B
:1012500029F710C0EF8DF8A11083CE010E94EB0892
:10126000EF8DF8A10083CE01DF91CF911F910F91F7
:101270000C94EB08DF91CF911F910F910895AF92DD
:10128000BF92CF92DF92EF92FF920F931F93CF9373
:10129000DF93EC015B016A01215031097901E60E0F
:1012A000F71E01501109040F151F6AE20E94760F04
:1012B000B501CE010E94F908B701CE010E94F908DC
:1012C0006BE2CE010E94760FB601CE010E94F908B2
:1012D000B801CE010E94F9086CE2CE01DF91CF91F6
:1012E0001F910F91FF90EF90DF90CF90BF90AF9044
:1012F0000C94760FAF92BF92CF92DF92EF92FF9253
:101300000F931F93CF93DF93EC0177FD38C088854F
:101310009985681779079CF557FD31C08A859B85AB
:101320004817590764F569017A015B01E881F98181
:101330000680F781E02DCE010995E881F98106A0AC
:10134000F7A1E02D01E010E021E030E0A701B501B8
:10135000CE010995B601CE010E94F908E881F98114
:101360000288F389E02DCE01DF91CF911F910F917B
:10137000FF90EF90DF90CF90BF90AF900994DF91F6
:10138000CF911F910F91FF90EF90DF90CF90BF9082
:10139000AF900895FC0185A981110FC09CB59C7F79
:1013A0009CBD9DB591609DBD9CB59F7D9CBD2CB5A0
:1013B000237F95A1822F892B8CBD0895BF92CF9258
:1013C000DF92EF92FF920F931F93CF93DF93EC0185
:1013D0006A017B01452B462B472B31F4C12C22E1BE
:1013E000D22E2AE7E22EF12C8FA987FD07C061E0FB
:1013F0000E94C11361E08FA90E94741361E088AD5F
:101400000E94C11361E088AD0E9474138DA98111FF
:101410001DC0C9A2DAA2EBA2FCA21DA21EA21FA29D
:1014200018A661E08AE00E94741361E08AE00E94DD
:10143000C1138CB580618CBD8CB580648CBD61E0BE
:101440008DE00E94C11361E08BE016C08130B9F4D9
:1014500061E08AA50E94C11360E08AA50E9474130E
:1014600061E08CA50E94C11360E08CA50E947413FA
:101470008BA587FD36C060E00E94C11332C003E136
:1014800016E0F12CF8018491E82FF0E0EE0FFF1F39
:10149000E75FF94F859194912F8D38A1281739076F
:1014A00041F461E08F2D0E94C11360E08F2D0E94F6
:1014B0007413F3940F5F1F4FF4E1FF12E3CF61E069
:1014C0008EA50E94C11361E08EA50E9474138FA5A2
:1014D00087FD07C061E00E94C11361E08FA50E94F3
:1014E00074138EA987FD21C061E00E94C11361E0E1
:1014F0008EA90E94741364E670E080E090E00E9480
:10150000041560E08EA90E94741364E670E080E028
:1015100090E00E94041561E08EA90E94741368ECAB
:1015200070E080E090E00E9404158EA987FF0DC056
:1015300020E040E050E061E0CE010E942E0F66E91D
:1015400070E080E090E00E94041588E6E82E80E0DC
:10155000F82EC7010196F7011491112309F448C030
:10156000FC01B4900B2D0F77CE010E94CA098FA900
:1015700087FD06C0EB8DFC8D90818AA9892380832D
:10158000ED8DFE8D90818CA989238083612FCE0102
:101590000E94010FED8DFE8D90818BA9892B808398
:1015A000C12CD12C10E0C016D10664F4F60132969D
:1015B000EE0DFF1D6491CE010E94010FFFEFCF1AC7
:1015C000DF0AF1CF8FA987FD06C0EB8DFC8D9081DE
:1015D00089A9892B80830E5F1F4FE00EF11EB7FE95
:1015E000B8CF66E970E080E090E00E940415B1CFCA
:1015F00080EF90E09987888780E491E09B878A87D5
:10160000DF91CF911F910F91FF90EF90DF90CF90DE
:10161000BF90089585ED8093BC008091BC0084FD4F
:10162000FCCF10927D0208950F931F93CF93DF9309
:10163000FC01A685B7858D01005C1F4FE8018881FC
:10164000998101968F739927AD014E5B5F4FEA0137
:101650002881398128173907D1F3E8012881398198
:10166000A20FB31F6C93A685B785A05CBF4F1196E0
:101670009C938E93A689B7892C9181E090E0078C8A
:1016800002C0880F991F0A94E2F7822B8C9381E0A5
:1016900081A30488F589E02D80818064808381E0C6
:1016A00090E0DF91CF911F910F910895FC0181A1EE
:1016B000882329F0A489B5898C9186FFFBCF11A2DC
:1016C0000895FC01A485B585FD01E05CFF4F2081F4
:1016D00031813296808191812817390779F0808194
:1016E0009181A80FB91F8C91208131812F5F3F4FCD
:1016F0002F7333273183208390E008958FEF9FEF7E
:101700000895DC011C96ED91FC911D97DF01A05C12
:10171000BF4F2D913C91119712968D919C911197ED
:101720002817390739F08D919C91E80FF91F8081B6
:1017300090E008958FEF9FEF0895FC012485358593
:10174000F901E05CFF4F80819181329620813181E7
:10175000821B930B8F73992708950895E0912602B9
:1017600080912502E81730F4F0E0E95DFD4F8081BB
:1017700090E008958FEF9FEF089590912602809159
:101780002502981750F4E92FF0E0E95DFD4F208124
:1017900030E09F5F9093260202C02FEF3FEFC90118
:1017A00008958091250290E020912602821B9109E4
:1017B00008952F923F924F925F926F927F928F92F5
:1017C0009F92AF92BF92CF92DF92EF92FF920F93D0
:1017D0001F93CF93DF93CDB7DEB7E4970FB6F8949E
:1017E000DEBF0FBECDBF9E838D837C876B8780E07D
:1017F00090E00E94A82C698F7A8F8B8F9C8FED8050
:10180000FE8024E1E20EF11C24EA30E74DEF50E4C3
:101810000E94062C0E94722C2B013C015B01CD80A2
:10182000DE804B855C854E5E5F4F5A834983B601EF
:1018300080E090E00E94A82C698B7A8B8B8B9C8B2C
:1018400020E030E040E251E40E94062C0E94722C1D
:1018500078876F83A981BA814A165B065CF0BC83E6
:10186000AB835A8249823E2D2F2D76016B013F8337
:10187000288702C05C824B8286E393E00E94F314C7
:10188000AB81BC8129813A81A217B30751F5EC14D1
:10189000FD0454F09C2D8D2DCE14DF0414F49E2DE8
:1018A0008F2D7601C92ED82E2F8138852E153F0514
:1018B00034F0C216D3060CF46901F886EF82960163
:1018C0004F815885241B350B2F5F3F4F00E018EFE9
:1018D0004B815C816F81788586E393E00E94980854
:1018E0002AC197012C193D09C2016B817C81861B9D
:1018F000970BAF81B885AC19BD09BE8FAD8F4981FB
:101900005A81461B570B5E874D876F8178856E190C
:101910007F0978A36F8FA981BA81A419B509BE8BFD
:10192000AD8B49815A81A416B50631F0B2016150E0
:1019300071097AA369A302C05AA249A22B803C80F4
:10194000812C912C54011F82188619861A864D8D80
:101950005E8D052E000C660B770B4BA35CA36DA36D
:101960007EA3AC01990F660B770B4FA358A769A70D
:101970007AA76D857E85072E000C880B990B6BA7C7
:101980007CA78DA79EA7C901330FAA0BBB0B8FA7FE
:1019900098ABA9ABBAABA9A1BAA1A215B3050CF437
:1019A0004EC06F81788589859A852FA138A549A574
:1019B0005AA50E94AF2DB601620F731F7CAB6BABB3
:1019C000C501B4012BA53CA54DA55EA50E94AF2D78
:1019D0002C0D3D1D8F819885A985BA854FA558A9E5
:1019E00069A97AA9840F951FA61FB71F8F839887AF
:1019F000A987BA876BA17CA18DA19EA1860E971E97
:101A0000A81EB91E8BA99CA92817390734F49BA9D5
:101A10008CA93CAB2BAB292F382FABA9BCA92A1B17
:101A20003B0B2F5F3F4F00E018EFA101BD0186E3A4
:101A300093E00E949808BFEF2B1A3B0AACCF2F8D82
:101A400038A1032E000C440B550B2F833887498790
:101A50005A87D101A419B5092F8D38A10E94CE2D26
:101A60004B015C01D1014B815C81A41BB50B2D8D19
:101A70003E8D0E94CE2D2B013C016D897E89072E63
:101A8000000C880B990B6D8B7E8B8F8B988F8D85BF
:101A90009E85092E000CAA0BBB0B8D879E87AF87F6
:101AA000B88BA981BA81A215B3050CF444C0C50155
:101AB000B4012D893E894F89588D0E94AF2DB70101
:101AC000620F731F7C836B83C301B2012D853E853A
:101AD0004F8558890E94AF2D2C0D3D1D8F81988513
:101AE000A985BA85880E991EAA1EBB1E4BA15CA1B2
:101AF0006DA17EA1440E551E661E771E6B817C81F2
:101B00002617370734F49B818C813C832B83292F44
:101B1000382F8B819C81281B390B2F5F3F4F00E0B2
:101B200018EFA101BC0186E393E00E9498089FEFA3
:101B3000291A390AB6CF86E393E00E94FD132EEAF4
:101B400037E441EA50E4698D7A8D8B8D9C8D0E943B
:101B5000062C0E94722C4B015C0120E030E040EA30
:101B600050E469897A898B899C890E94062C0E949D
:101B7000722CDC01CB0120E038EF45E050E0B401ED
:101B80000E94381C20E030E040E751E469897A89FE
:101B90008B899C890E94062C0E94722CDC01CB014F
:101BA00020E038EF45E050E0B4010E94381C4B853E
:101BB0005C854E5F5F4F6D817E816D5F7F4FEE2450
:101BC000EA94FE2C01E010E021E030E086E393E0AF
:101BD0000E94B31B4B855C854D5F5F4F6D817E819D
:101BE0006E5F7F4F21E030E086E393E00E94B31BFD
:101BF000E4960FB6F894DEBF0FBECDBFDF91CF9154
:101C00001F910F91FF90EF90DF90CF90BF90AF901A
:101C10009F908F907F906F905F904F903F902F900C
:101C200008952F923F924F925F926F927F928F9280
:101C30009F92AF92BF92CF92DF92EF92FF920F935B
:101C40001F93CF93DF9300D000D0CDB7DEB77C01D8
:101C50008B015C834B8381E090E05C01A41AB50AA0
:101C60001A01319421943108220C331C86E393E04D
:101C70000E94F3144B815C81400F511F2FEF3FEF07
:101C8000B70186E393E00E94C114A8012B813C8137
:101C9000421B530B2FEF3FEFB70186E393E00E9407
:101CA000C1146B817C816E0D7F1D2FEF3FEFA8016A
:101CB00086E393E00E94C114B7018B819C81681B6D
:101CC000790B2FEF3FEFA80186E393E00E94C11448
:101CD000C12CD12C21E030E03A8329838B819C8177
:101CE000C816D9060CF073C0B7FC08C001979C83D6
:101CF0008B8392E0290E311CA20CB31C2FEFC21A69
:101D0000D20A89819A8102969A838983A80EB91E84
:101D100037016C0C7D1C2FEF3FEF8B809C80800E79
:101D2000911EA401B30186E393E00E94C114270130
:101D30004C185D082FEF3FEFA401B20186E393E05A
:101D40000E94C1142FEF3FEF48018B819C81881ABC
:101D5000990AA401B30186E393E00E94C1142FEF16
:101D60003FEFA401B20186E393E00E94C114460153
:101D7000800E911E2FEF3FEFA4016B807C806E0CD4
:101D80007F1CB30186E393E00E94C1142FEF3FEF65
:101D9000A40127018B819C81481A590AB20186E36C
:101DA00093E00E94C11448018C189D082FEF3FEF6B
:101DB000A401B30186E393E00E94C1142FEF3FEF2B
:101DC000A401B20186E393E00E94C11487CF86E3A9
:101DD00093E00F900F900F900F90DF91CF911F9194
:101DE0000F91FF90EF90DF90CF90BF90AF909F90BA
:101DF0008F907F906F905F904F903F902F900C94BA
:101E0000FD13FC0185A9811105C06EBD0DB407FE4F
:101E1000FDCF08958130E1F488E0A1A1B2A12C9119
:101E200067FF03C095A1922B02C096A192239C93B9
:101E3000A3A1B4A12C9197A1922B9C93660FA3A16F
:101E4000B4A12C9190A592239C93815031F70895D1
:101E5000A78DB0A16C93CF010C94EB08CF92DF92C9
:101E6000EF92FF920F931F93CF93DF93EC01162F06
:101E70006A01E22E0E94CA098FA987FD06C0EB8D78
:101E8000FC8D90818AA989238083ED8DFE8D9081C0
:101E90008CA989238083612FCE010E94010FED8DD3
:101EA000FE8D90818BA9892B80838601F12CC8013E
:101EB0008C199D098E159F053CF4F80161918F01E5
:101EC000CE010E94010FF3CF8FA987FD06C0EB8DD5
:101ED000FC8D908189A9892B8083DF91CF911F91FF
:101EE0000F91FF90EF90DF90CF900895CF93DF9305
:101EF000EC01ED8DFE8D90818CA989238083CE012C
:101F00000E94010FED8DFE8D90818BA9892B80831E
:101F1000DF91CF9108952F923F924F925F926F92EF
:101F20007F928F929F92AF92BF92CF92DF92EF9269
:101F3000FF920F931F93CF93DF93CDB7DEB76B97CD
:101F40000FB6F894DEBF0FBECDBF9B8F8A8F1B01EB
:101F50004A01D22E198708873701A982DC015996D8
:101F60002D913C915A972115310509F0FFC0189623
:101F70008D919C911997681779070CF0E7C11A9613
:101F80008D919C911B97481759070CF0DFC1EC2DE0
:101F9000F0E0FB83EA839B0146E0C49E200D311DE7
:101FA00011243D872C87121613060CF0CFC16A2D21
:101FB00070E07B876A8783E0660F771F8A95E1F779
:101FC0007F876E87CB01880D991D181619060CF0B6
:101FD000BDC158968C91811104C08FEA8D1508F40B
:101FE000D394AA8DBB8DED91FC9111970680F7815A
:101FF000E02DCD010995B5E0DB9EC0011124EC2D4B
:10200000F0E0F98BE88B91012B5F3F4F3B8B2A8BE4
:102010003D822C822101AC01421953095D8B4C8B0E
:102020007981672F70E07F8B6E8BC4010896998F42
:10203000888FEC89FD89E40DF51DEB50FF4FD4909E
:1020400054019F828E82D0FE16C0AA8DBB8DED9169
:10205000FC91B1E0CB1209C02981213031F4008418
:10206000F185E02D2885398519C00284F385E02D9E
:10207000E884F9841DC0488559854615570519F12E
:10208000AA8DBB8DED91FC91B1E0CB120DC02981E1
:10209000213051F40084F185E02D9301A501B201B6
:1020A0008A8D9B8D09950FC00284F385E02D730105
:1020B0000A851B852A813B814E815F816C817D81F0
:1020C0008A8D9B8D0995D6943FEFA31AB30A4E8152
:1020D0005F816E897F89460F571F5F834E83888D8E
:1020E000998DA816B90609F0AECF9FEF491A590A83
:1020F000AC81BD81E889F989AE0FBF1FBD83AC8378
:102100002A893B894216530609F093CF48855985A1
:102110004615570509F4F8C0AA8DBB8DED91FC91C9
:10212000B1E0CB1211C02981213071F4B1016B5F94
:102130007F4F0484F585E02D830128E030E0A40181
:102140008A8D9B8D0995E0C06C857D854A815B8178
:10215000641B750B0284F385E02D73010E851F85CA
:102160009A01A4018A8D9B8D0995CEC0F901349600
:10217000E491DE1AF901329685919491B7E0DB9EE5
:10218000800D911D1124F901259134913B8B2A8BEF
:10219000FC01259134915901FC01329654903196FD
:1021A00034913C87329674903196149141E04C15ED
:1021B00018F05981523068F0672D072C000C770B0E
:1021C0007D836C83812F012E000C990B9B838A8366
:1021D00004C01B821A821D821C82AA8DBB8DED91C8
:1021E000FC9111970680F781E02DCD010995412CD6
:1021F000D12C612CF981EF2FF0E0FF83EE832C2DA1
:1022000030E03B872A87A401410F511D17FD5A95E5
:102210005F8B4E8BB101670D711D77FC7A95798FBD
:10222000688F7C85671608F06FC0262D30E04A81E4
:102230005B81420F531FAE81BF81A49FC001A59F48
:10224000900DB49F900D1124F401E80FF91FF98B44
:10225000E88B842D712C4E895F89420F531F5D8B53
:102260004C8B751408F04DC051E0580F5E87877095
:1022700041F4C5010196EA89FB89EA0DFB1DD49062
:102280005C01D7FE3AC061E0C61216C07981713098
:1022900099F4AA8DBB8DED91FC9111970084F18585
:1022A000E02D288539854C895D89688D798D670D8C
:1022B000711DCD01099521C08C819D81870D911DD6
:1022C000EA85FB858E9FB0018F9F700D9E9F700DDC
:1022D0001124620D731DAA8DBB8DED91FC91119798
:1022E0000284F385E02DE884F9840E811F812A851C
:1022F0003B8548895989CD010995DD0C73948E85FC
:10230000B0CF450C63948DCFAA8DBB8DED91FC9120
:1023100011970288F389E02DCD016B960FB6F894E2
:10232000DEBF0FBECDBFDF91CF911F910F91FF9008
:10233000EF90DF90CF90BF90AF909F908F907F9065
:102340006F905F904F903F902F9009946B960FB6CF
:10235000F894DEBF0FBECDBFDF91CF911F910F91DB
:10236000FF90EF90DF90CF90BF90AF909F908F90B5
:102370007F906F905F904F903F902F9008951F92A5
:102380000F920FB60F9211242F933F934F935F93A9
:102390006F937F938F939F93AF93BF93EF93FF932D
:1023A0008091B900887F803609F49CC068F5883236
:1023B00009F45BC090F4803109F454C038F48823E8
:1023C00009F4EFC0883009F44DC0EFC0883109F43A
:1023D0004CC0803209F45DC0E8C0803409F468C0A4
:1023E00048F4803309F455C0883309F0DEC0809387
:1023F0007B02D1C0803509F44FC0883509F45DC037
:10240000883409F0D2C0CFC0883909F4C0C0A8F41C
:10241000883709F467C038F4883609F463C0803718
:1024200009F460C0C2C0883809F4B1C0803909F429
:102430005FC0803809F0B9C05BC0803B09F481C03F
:1024400038F4803A09F466C0883A09F47AC0ADC01D
:10245000803C09F4A0C0883C09F49DC0883B09F485
:1024600083C0A3C08091580210C090917A028091DD
:102470007902981770F5E0917A0281E08E0F8093CF
:102480007A02F0E0E75AFD4F80818093BB0085EC33
:102490007FC080937B0287C0E0917A0281E08E0F3B
:1024A00080937A028091BB00F0E0E75AFD4F808371
:1024B00090917A028091790267C0E0917A0281E07E
:1024C0008E0F80937A028091BB00F0E0E75AFD4FB7
:1024D000808380917C02811166C081E080935702E5
:1024E00084EA5AC083E080937D021092C701CFCF67
:1024F0008091C701803208F04AC0E091C70181E0B5
:102500008E0F8093C7018091BB00F0E0E955FE4F2C
:102510008083BDCF8091C701803230F4E091C70144
:10252000F0E0E955FE4F10820E940A0B6091C7014E
:1025300070E087EA91E0E0E0F0E009951092C701D1
:102540002AC084E080937D021092A6011092A5011A
:10255000E0E0F0E009958091A501811105C081E0DE
:102560008093A50110928501E091A60181E08E0F74
:102570008093A601F0E0EB57FE4F80818093BB0073
:102580009091A6018091A501981708F480CF85E865
:102590008093BC000AC085EC8093BC0010927D0241
:1025A00004C010927B020E940A0BFF91EF91BF9131
:1025B000AF919F918F917F916F915F914F913F91DB
:1025C0002F910F900FBE0F901F901895613298F4C5
:1025D00020917D02243089F46093A501282FA5E87D
:1025E000B1E0FC018E2F821B861718F481918D9328
:1025F000F9CF80E0089581E0089582E008951F9268
:102600000F920FB60F9211242F933F938F939F93A6
:10261000EF93FF932091E2023091E3028091E40274
:102620009091E5022817390731F48091C1008F7D20
:102630008093C10014C0E091E402F091E502EE55F0
:10264000FD4F20818091E4029091E50201968F7305
:1026500099279093E5028093E4022093C600FF91AE
:10266000EF919F918F913F912F910F900FBE0F90FF
:102670001F9018951F920F920FB60F9211242F934F
:102680004F935F938F939F93EF93FF938091C0003D
:1026900082FD1CC02091C6008091260390912703E3
:1026A000409128035091290301968F739927481769
:1026B000590771F0E0912603F0912703EA51FD4F8D
:1026C0002083909327038093260302C08091C60045
:1026D000FF91EF919F918F915F914F912F910F906B
:1026E0000FBE0F901F90189590E0FC01EF51FF4F27
:1026F0002491FC01EB50FA4F3491FC01ED5EF94F4F
:10270000E491EE2309F43CC0222339F1233091F007
:1027100038F42130A9F0223001F584B58F7D12C044
:10272000263091F02730A1F02430B9F48091800058
:102730008F7D03C0809180008F77809380000DC0D3
:1027400084B58F7784BD09C08091B0008F7703C0B6
:102750008091B0008F7D8093B000F0E0EE0FFF1FFE
:10276000E75FF94FA591B4919FB7F894611104C048
:102770008C913095382302C0EC913E2B3C939FBF47
:102780000895CF93DF9390E0FC01EB50FA4F249132
:10279000FC01ED5EF94F8491882361F190E0880F90
:1027A000991FFC01E952FF4FC591D491FC01E75FED
:1027B000F94FA591B491611109C09FB7F894888130
:1027C000209582238883EC912E230BC0623061F424
:1027D0009FB7F8948881322F309583238883EC91BA
:1027E0002E2B2C939FBF06C08FB7F894E8812E2B19
:1027F00028838FBFDF91CF910895FC0187A987FDC2
:1028000006C0A38DB48D9C9181A9892B8C930895CA
:102810000895CF92DF92EF92FF920F931F93CF9381
:10282000DF936C01EB017B01E40EF51E00E010E08C
:10283000CE15DF0561F06991D601ED91FC91019013
:10284000F081E02DC6010995080F191FF1CFC801CD
:10285000DF91CF911F910F91FF90EF90DF90CF907C
:1028600008953FB7F8948091210290912202A0919F
:102870002302B091240226B5A89B05C02F3F19F072
:102880000196A11DB11D3FBFBA2FA92F982F8827F0
:10289000820F911DA11DB11DBC01CD0142E0660F4B
:1028A000771F881F991F4A95D1F708958F929F929D
:1028B000AF92BF92CF92DF92EF92FF920F931F934E
:1028C000CF93DF9347012115310509F44DC0011560
:1028D000110509F449C037FF07C0F90131966E0FA1
:1028E0007F1F319521953109DC011896AD90BC9080
:1028F00019976A157B05C4F517FF07C0F8013196D3
:102900004E0F5F1F119501951109DC011A96ED918B
:10291000FC911B974E175F073CF56B01C20ED31E4F
:10292000E6012197D7FD20C07A01E00EF11ED70104
:102930001197B7FD19C077FF03C0960160E070E002
:1029400057FF03C0870140E050E0CA15DB051CF0CB
:102950009501261B370BAE17BF071CF08F01041B18
:10296000150B74010E94051BDF91CF911F910F91F0
:10297000FF90EF90DF90CF90BF90AF909F908F909F
:102980000895EF92FF920F931F93CF93DF93EC0183
:1029900077FD22C08885998568177907ECF457FD83
:1029A0001BC08A859B8548175907B4F47901E881D3
:1029B000F98106A0F7A1E02D01E010E021E030E070
:1029C000CE010995B701CE01DF91CF911F910F91F3
:1029D000FF90EF900C94F908DF91CF911F910F9128
:1029E000FF90EF900895CF93DF93EC010E94CA0906
:1029F0008FA987FD06C0EB8DFC8D90818AA9892364
:102A00008083DF91CF910895CF92DF92EF92FF9272
:102A1000CF93DF936B017C010E943114EB01C11451
:102A2000D104E104F10479F00E9431146C1B7D0B98
:102A3000683E7340A0F381E0C81AD108E108F108AC
:102A4000C851DC4FECCFDF91CF91FF90EF90DF903A
:102A5000CF9008951F920F920FB60F9211242F93CB
:102A60003F938F939F93AF93BF9380911D0290915B
:102A70001E02A0911F02B091200230911C0223E09F
:102A8000230F2D3720F40196A11DB11D05C026E8A6
:102A9000230F0296A11DB11D20931C0280931D02DD
:102AA00090931E02A0931F02B093200280912102F6
:102AB00090912202A0912302B09124020196A11DBF
:102AC000B11D8093210290932202A0932302B09320
:102AD0002402BF91AF919F918F913F912F910F90C1
:102AE0000FBE0F901F9018958F929F92AF92BF923A
:102AF000CF92DF92EF92FF920F931F93CF93DF93CA
:102B00006C01C62FD0E04E018FE0881A9108560163
:102B100081E0A81AB10889E2E82E8CEDF82E05E0D4
:102B200010E023E030E0A401B50186E393E00E94C9
:102B3000B31B91EEE92E99EFF92E02E010E023E0AD
:102B400030E0A401B50186E393E00E94B31B4E017F
:102B50008AE0881A9108560183E0A81AB108E12C8E
:102B6000F12C06E010E027E030E0A401B50186E397
:102B700093E00E94B31BEE24EA94FE2C27E030E0A1
:102B8000A401B50186E393E00E948B0320E030E0CE
:102B900047E050E0BE01C6010E94381C47E050E00B
:102BA000BE01C6010E94110EAE014350510902E060
:102BB00010E022E030E0B50186E393E00E94B31B11
:102BC000AE0142505109B6016450710922E030E073
:102BD00086E393E00E94B31BDF91CF911F910F9189
:102BE000FF90EF90DF90CF90BF90AF909F908F902D
:102BF00008958F929F92AF92BF92CF92DF92EF9201
:102C0000FF920F931F93CF93DF93C82FD62FE82FF8
:102C100089E0689FE00D1124F0E0E653FE4F8081CB
:102C200080FD8FC000910101A0900101C0900101C1
:102C30006091010110E001511109B12C86E1A81A3F
:102C4000B108DC9D600111248FE0C80ED11CC69F25
:102C5000B00111246C5C7F4F072E000C880B990B80
:102C60000E94AA2C20E030E048E151E40E94062CAA
:102C70000E94722C99E2E92E9CEDF92E9501A60195
:102C800086E393E00E94DA0880910101F09001014F
:102C90001091010100910101D89FB0011124665FDC
:102CA0007F4F072E000C880B990B0E94AA2C4B011A
:102CB0005C016F2D70E080E090E00E94AA2C2AE970
:102CC00039E949E95EE30E94362D9B01AC01C5015B
:102CD000B4010E94062C20E030E040EE50E40E9457
:102CE000062C0E94722C6B017C01C19FB001112443
:102CF0006E5C7F4F072E000C880B990B0E94AA2C4C
:102D00004B015C01602F70E080E090E00E94AA2CF3
:102D10002AE939E949E95EE30E94362D9B01AC01BD
:102D2000C501B4010E94062C20E030E040EA50E4E6
:102D30000E94062C0E94722CDC01CB0120E030E0C6
:102D40005CC080910101F09001011091010100919E
:102D50000101689FB0011124665F7F4F072E000CB0
:102D6000880B990B0E94AA2C4B015C016F2D70E01F
:102D700080E090E00E94AA2C2AE939E949E95EE363
:102D80000E94362D9B01AC01C501B4010E94062CA6
:102D900020E030E040EE50E40E94062C0E94722CAD
:102DA0006B017C01C19FB00111246E5C7F4F072E27
:102DB000000C880B990B0E94AA2C4B015C01602F20
:102DC00070E080E090E00E94AA2C2AE939E949E904
:102DD0005EE30E94362D9B01AC01C501B4010E9447
:102DE000062C20E030E040EA50E40E94062C0E94CD
:102DF000722CDC01CB0120E038EF45E050E0B60159
:102E00000E94381C4091010160910101D49FA001F2
:102E100011244B5E5F4FC69FB0011124645C7F4F4D
:102E20002FEF3FEF86E393E00E947A094091010182
:102E300060910101D49FA00111244A5E5F4FC69F9B
:102E4000B0011124655C7F4F2FEF3FEF86E393E0E5
:102E50000E947A0900910101209101014091010134
:102E60006091010110E00551110930E0255131094F
:102E7000D49FA0011124425F5F4FC69FB00111246F
:102E8000625C7F4F81EEE82E89EFF82E86E393E0B7
:102E90000E94DA08DF91CF911F910F91FF90EF9080
:102EA000DF90CF90BF90AF909F908F900895EF925A
:102EB000FF920F931F93E82F99E0699FE00D112473
:102EC000F0E0E653FE4F9081009101012091010155
:102ED0004091010190FD17C09091010110E0035055
:102EE000110930E023503109649FA0011124445F8F
:102EF0005F4F899FB00111246C5C7F4F90E2E92EF7
:102F00009DEFF92E15C09091010110E003501109B9
:102F100030E023503109649FA0011124445F5F4FCA
:102F2000899FB00111246C5C7F4FE12C88EFF82E53
:102F300086E393E00E94DA081F910F91FF90EF90D3
:102F40000895EF92FF920F931F930091010120913A
:102F50000101409101019091010110E0015011091E
:102F600030E022503109649FA0011124455F5F4F7A
:102F7000899FC0011124BC016C5C7F4F80E8E82E62
:102F800089E5F82E86E393E00E94DA081F910F91FD
:102F9000FF90EF900895EF92FF920F931F93E12C13
:102FA000F12C06E410E02EE130E04FE050E06AE062
:102FB00070E086E393E00E94B31B809100018823B8
:102FC00031F064E170E08FE090E00E94D90B8091D5
:102FD0000001823030F068E270E08FE090E00E9403
:102FE000D90B80910001833051F46CE370E08FE0E5
:102FF00090E01F910F91FF90EF900C94D90B1F91CF
:103000000F91FF90EF9008958091C901813021F4D4
:1030100080911B02823018F01092C9010895E0914E
:10302000C801F0E0E653FE4F8AE080836091C8015A
:103030008091C80199E3699F612D11246695899F4C
:10304000912D1124969529E0929F801911240E94B8
:10305000F9151092C90180911B028F5F80931B02AA
:103060000895EF92FF920F931F938091000181507A
:10307000809300010E94CB178091000181114BC009
:10308000E12CF12C08E410E027EA30E043E550E0C1
:103090006BE470E086E393E00E94B31B8DE690E062
:1030A000909343038093420383E790E0909345031A
:1030B0008093440388E196EC9093490380934803FE
:1030C000909347038093460382E080934A03809362
:1030D0004B0380E791E00E94DA1A8FE690E090932C
:1030E00043038093420381E790E0909345038093EC
:1030F000440380E098EF90934903809348039093B2
:1031000047038093460380E791E01F910F91FF9062
:10311000EF900C94DA1A1F910F91FF90EF900895A1
:10312000FF920F931F93CF93DF93D82FF62EC42FC8
:10313000082F10E006531E4FF8018081813021F4E2
:10314000862F0E9431182AC0F8018081833031F126
:103150008D2F0E940C1D882311F0CC23E1F0C0E0DC
:10316000F80180818430A9F08081813019F080815C
:103170008230B1F489E3D89F812D11248695682F80
:10318000F9E08F9FD01911248D2F0E9457178C2F93
:103190000AC081E008C08D2F0E94D918C1E0E0CF9D
:1031A000F801F082E7CFDF91CF911F910F91FF904F
:1031B0000895EF92FF920F931F93CF93DF93C82F41
:1031C0000E940C1D813039F480911B028150809344
:1031D0001B02D8E207C08C2F0E940C1D823009F020
:1031E00068C0D2E341E06D2F8C2F0E949018C93047
:1031F00098F011E01D0F07EF0C0F40E0612F802FBA
:103200000E949018811108C0093030F040E0612F11
:103210008EEE8C0F0E94901809E3C09F812D11241F
:1032200086958830A9F019E01C0F40E06D2F812FA2
:103230000E94901881110CC0109F112D1124169519
:10324000183031F040E06D2F82E18C0F0E94901811
:1032500002E00C0F1C2F89E3F82E99E0E92E1F9D48
:10326000812D11248695912F8E9D901911249830CF
:1032700029F41EEF1C0F09E0DF5F15C01F5F40E05F
:103280006D2F812F0E9490188111F3CF101789F3B1
:10329000E6CFC15040E06D2F8C2F0E949018811115
:1032A00008C0C11731F08C2F602F0E94A32D9111FF
:1032B000F0CFDF91CF911F910F91FF90EF90089584
:1032C000AF92BF92CF92DF92EF92FF920F931F9334
:1032D000CF93DF93E12CF12C89E3B82E99E0D92E1E
:1032E000870106531E4FF801D081CE2D8E2D0E94EE
:1032F0000C1D8130D9F4F80180818F5F8083DF5FFE
:10330000EB9CC12C1124C694AE2CCD9CA01811248A
:103310006C2D8A2D0E94A117D63120F08E2D0E948F
:10332000D91804C06C2D8A2D0E94F9158C2F0E948B
:103330000C1D8230D9F4F80180818F5F8083DF5FBC
:10334000CB9DC12C1124C694AC2ECD9CA018112469
:103350006C2D8A2D0E94A117D03220F08C2F0E9454
:10336000D91804C06C2D8A2D0E94F9158C2F0E944B
:10337000211D8130F1F4F80180818F5F8083DF5F50
:10338000CB9DC12C1124C694AC2ECD9CA018112429
:103390006C2D8A2D0E94A117DD3238F0F801D08201
:1033A0006C2D8A2D0E94A11704C06C2D8A2D0E94BD
:1033B00057178C2F0E94211D8230E9F4F80180817B
:1033C0008F5F8083CB9DC12C1124C694CD9CC019E6
:1033D00011246C2D8C2F0E94A117DF5FD73338F09A
:1033E000F801D0826C2D8C2F0E94A11704C06C2D87
:1033F0008C2F0E945717FFEFEF1AFF0A81E5E8169E
:10340000F10409F06DCFDF91CF911F910F91FF90E3
:10341000EF90DF90CF90BF90AF9008953091A102D0
:10342000313208F047C080917D028111FCCF90912C
:10343000A00222E020937D0221E020937C022FEF66
:1034400020937B0210927A0230937902E0E8F2E056
:10345000A9E5B2E020E0321721F041914D932F5FB2
:10346000FACF1092580220915802990F922B909304
:10347000580290915702913041F410925702909166
:1034800058029093BB0095EC01C095EE9093BC0060
:1034900090917D029230E1F390917B029F3F79F011
:1034A00080917B02803241F080917B02803331F049
:1034B00084E005C081E003C082E001C083E0109297
:1034C0007F021092A10210927E0208950F931F9323
:1034D000CF93DF9391E090937E0292E59093A002C8
:1034E00010927F021092A102682F8AE293E00E945C
:1034F00039060E940E1A80917D028111FCCF81E075
:1035000080937D0280937C029FEF90937B021092C8
:103510007A0295E090937902809358028091580244
:10352000846A8093580280915702813041F410924E
:103530005702809158028093BB0085EC01C085EE54
:103540008093BC0080917D028130E1F380917A020A
:10355000863018F4D0917A0201C0D6E0E9E5F2E0B5
:10356000A7E2B2E080E08D1721F091919D938F5FEB
:10357000FACF10922602D093250201E512E0C0E0B6
:1035800080912602D81759F0C63049F0CF5F8AE201
:1035900093E00E94BD0BF80181938F01F1CF8C2F36
:1035A000DF91CF911F910F910895682F8AE293E0E8
:1035B0000C9439060F931F93CF93DF93009779F004
:1035C000FC0101900020E9F73197AF01481B590B2E
:1035D000BC0186E393E00E9409148C0102C000E064
:1035E00010E06DE086E393E00E949906EC016AE04A
:1035F00086E393E00E949906C00FD11F8C0F9D1F98
:10360000DF91CF911F910F9108958F929F92AF926A
:10361000BF92CF92DF92EF92FF920F931F93CF93BF
:10362000DF93EC014901BE2CAF2CE881F98106A0A3
:10363000F7A1E02D09959401D8010E94CE2D6115C6
:1036400071058105910509F481C02DA921110FC0D3
:10365000615071098109910908F478C0AEBC0DB4BC
:1036600007FEFDCFBEBC0DB407FEFDCFF1CF21306C
:1036700009F03FC0615071098109910908F466C0E1
:103680003A2D28E0E9A1FAA1508137FF03C04DA1EE
:10369000452B02C04EA145234083EBA1FCA15081E4
:1036A0004FA1452B4083EBA1FCA1508148A54523A8
:1036B0004083330F215031F73B2D28E0E9A1FAA1D7
:1036C000508137FF03C04DA1452B02C04EA14523B9
:1036D0004083EBA1FCA150814FA1452B4083EBA17E
:1036E000FCA1508148A545234083330F215031F779
:1036F000C1CFFE1017C0EF8DF8A1F0826B017C01E5
:10370000CC0CDD1CEE1CFF1CC114D104E104F1043F
:10371000E9F0CE010E94EB0881E0C81AD108E10867
:10372000F108F2CF6B017C01EF8DF8A1A082CE01F0
:103730000E94EB08EF8DF8A1B082CE010E94EB0849
:1037400021E0C21AD108E108F10871F7DF91CF91A9
:103750001F910F91FF90EF90DF90CF90BF90AF90AF
:103760009F908F9008958F929F92AF92BF92CF9229
:10377000DF92EF92FF920F931F93CF93DF934C0151
:10378000EB016A01590137FF07C0C9010196C80F53
:10379000D91FB194A194B108F401A085B185CA17CD
:1037A000DB070CF058C017FF07C0C8010196C80E10
:1037B000D91E119501951109F40182859385C816CA
:1037C000D9060CF048C0FE01EA0DFB1DAF014150C7
:1037D000510957FD40C0B601600F711F9B01215078
:1037E000310937FD38C0D7FF03C05F01C0E0D0E02A
:1037F000D7FE03C08B01C12CD12C4A175B071CF0EC
:103800005D01AC1ABD0A281739071CF08C010C1990
:103810001D09D401ED91FC910680F781E02DC401D2
:1038200009959501A601BE01C4010E94051BD401A2
:10383000ED91FC910288F389E02DC401DF91CF91D5
:103840001F910F91FF90EF90DF90CF90BF90AF90BE
:103850009F908F900994DF91CF911F910F91FF90CE
:10386000EF90DF90CF90BF90AF909F908F90089592
:103870002F923F924F925F926F927F928F929F9280
:10388000AF92BF92CF92DF92EF92FF920F931F936E
:10389000CF93DF93CDB7DEB72A970FB6F894DEBF8C
:1038A0000FBECDBF5C0178876F835A874987390186
:1038B00086E393E00E94F31429853A85220F331F93
:1038C0002F5F3F4F4F81588589859A85481B590B3B
:1038D0008301B50186E393E00E94550881E090E002
:1038E0002C0129853A85421A530AC901919581957F
:1038F00091099C01220F331F3E832D832F80388432
:10390000E12CF12C81E090E09C838B8329853A8522
:10391000E216F3060CF064C057FC0CC0690131E0FC
:10392000C31AD1088D819E8102969E838D83480E95
:10393000591E02C0C984DA849FEFE91AF90A2B8163
:103940003C812E5F3F4F3C832B83420E531ECE148F
:10395000DF0404F14601880C991C3FEF831A930A97
:10396000830194018F8198858C199D099A8389839D
:10397000AC01B7016A0D7B1D86E393E00E945508F8
:10398000940149815A81B5016E197F0986E393E05C
:103990000E94550829853A852C153D0531F491E0A2
:1039A000291A3108DA86C986B1CFB9016A0D7B1DA3
:1039B00083018B809C8032E0831A91089401A101DD
:1039C00086E393E00E945508B50189859A85681BB6
:1039D000790B9401A10186E393E00E945508DFCFA3
:1039E00086E393E02A960FB6F894DEBF0FBECDBFF4
:1039F000DF91CF911F910F91FF90EF90DF90CF90CB
:103A0000BF90AF909F908F907F906F905F904F90FE
:103A10003F902F900C94FD13E82FF0E0E653FE4FFB
:103A2000808190E09C012A5031092D30310528F029
:103A300044970D9720F080E0089581E0089582E09A
:103A40000895E82FF0E0E653FE4F808198ED980F3F
:103A5000963028F08253863020F080E0089581E08F
:103A6000089582E008952F923F924F925F926F9255
:103A70007F929F92AF92BF92CF92DF92EF92FF928E
:103A80000F931F93CF93DF9300D000D000D0CDB71A
:103A9000DEB780919D03823009F07BC280E090E028
:103AA00029E0FC01E653FE4F208301968135910504
:103AB000C1F780E090E023E0FC01E653FE4F208355
:103AC000019681359105C1F789E08093D3018093F8
:103AD000DC018093CB0180931102809308028093D4
:103AE000190281E08093CA011092C80182E080939C
:103AF0001A0280E580939C038AE090E024E0FC01B8
:103B0000E653FE4F2083FC01E453FE4F2083FC016B
:103B1000E253FE4F2083FC01E053FE4F2083429688
:103B20008235910561F760E07AE786E393E00E94D1
:103B300057040E94CB17E12CF12C06E410E02EE193
:103B400030E04BE950E068E171E086E393E00E94E9
:103B5000B31B80910001882331F068EC70E08DE1A7
:103B600091E00E94D90B80910201823030F064EB29
:103B700070E08DE191E00E94D90B809102018330C9
:103B800031F460EA70E08DE191E00E94D90B009180
:103B900001012091010189E0089F8001112499E031
:103BA000299F9001112440E8E42E49E5F42E4AE0D3
:103BB00050E062E370E086E393E00E94DA081A8244
:103BC0001982C12CD12C0091010120910101909109
:103BD00001018091010110E00F5F1F4F30E02F5F66
:103BE0003F4F9C9DA0019D9D500D1124465F5F4F4E
:103BF000E981FA818E9FB0018F9F700D11246E5C58
:103C00007F4FE12CF12C86E393E00E948B03FFEFC2
:103C1000CF1ADF0A89E0C816D104A9F6E981FA8132
:103C20003196FA83E983399761F61E821D8229E372
:103C3000C22E39E0B32EED81FE81E653FE4FA08007
:103C4000F4E0AF1225C08D818C9D612D1124669505
:103C50006B9D801911240091010120910101409177
:103C600001019091010110E00350110930E023504F
:103C70003109849FA0011124445F5F4F699FB00107
:103C800011246C5C7F4F9EE8E92E9BE6F92E2BC138
:103C900093E0A9122CC1ED81EC9D412D1124942EAD
:103CA0009694DE2E9B9CD018112400910101209146
:103CB0000101409101016091010110E009501109D9
:103CC00030E029503109949EA0011124415F5F4FDB
:103CD000D69EB0011124695C7F4F80EAE82E88E20D
:103CE000F82E86E393E00E94DA086091010170905B
:103CF00001010091010110910101969EB001112472
:103D0000665F7F4F072E000C880B990B0E94AA2C30
:103D10001B012C01672D70E080E090E00E94AA2C2E
:103D20002AE939E949E95EE30E94362D9B01AC019D
:103D3000C201B1010E94062C20E030E040E051E4D5
:103D40000E94062C0E94722C69837A838B839C8349
:103D5000D09EB00111246E5C7F4F072E000C880BA3
:103D6000990B0E94AA2C2B013C01612F70E080E08E
:103D700090E00E94AA2C2AE939E949E95EE30E9411
:103D8000362D9B01AC01C301B2010E94062C20E03C
:103D900030E040EA50E40E94062C0E94722CDC01C4
:103DA000CB0120EA38E247E050E069817A810E9445
:103DB000381C609101017090010100910101109186
:103DC0000101969EB0011124665F7F4F072E000C03
:103DD000880B990B0E94AA2C1B012C01672D70E007
:103DE00080E090E00E94AA2C2AE939E949E95EE3E3
:103DF0000E94362D9B01AC01C201B1010E94062C2C
:103E000020E030E040E050E40E94062C0E94722C3A
:103E100069837A838B839C83D09EB00111246E5C6E
:103E20007F4F072E000C880B990B0E94AA2C2B01A8
:103E30003C01612F70E080E090E00E94AA2C2AE90A
:103E400039E949E95EE30E94362D9B01AC01C301CB
:103E5000B2010E94062C20E030E040EA50E40E94CB
:103E6000062C0E94722CDC01CB0120EA38E247E0EC
:103E700050E069817A810E94381C009101012091F3
:103E80000101409101016091010110E0055111090A
:103E900030E029503109949EA00111244F5E5F4FFC
:103EA000D69EB0011124695C7F4FE12CF12C86E392
:103EB00093E00E94DA0800910101209101014091F4
:103EC00001016091010110E00551110930E0295014
:103ED0003109949EA0011124475E5F4FD69EB00128
:103EE0001124695C7F4F86E393E00E94DA088A2DF3
:103EF0000E94211D813069F4FD81FC9D812D1124DA
:103F00008695682F9F2F8B9D90191124892F0E94D1
:103F100057178A2D0E94211D823069F4ED81EC9D96
:103F2000812D11248695682FFE2F8B9DF019112469
:103F30008F2F0E9457178A2D0E940C1D813069F423
:103F40009D819C9D812D11248695682FE92F8B9D45
:103F5000E01911248E2F0E94F9158A2D0E940C1D44
:103F6000823069F4FD81FC9D812D11248695682F96
:103F70009F2F8B9D90191124892F0E94F915ED8197
:103F8000FE813196FE83ED83E135F10509F053CED4
:103F900021C080919D038130E9F460E070E086E308
:103FA00093E026960FB6F894DEBF0FBECDBFDF912B
:103FB000CF911F910F91FF90EF90DF90CF90BF9026
:103FC000AF909F907F906F905F904F903F902F9019
:103FD0000C94570426960FB6F894DEBF0FBECDBFE3
:103FE000DF91CF911F910F91FF90EF90DF90CF90D5
:103FF000BF90AF909F907F906F905F904F903F9059
:104000002F900895789484B5826084BD84B58160D2
:1040100084BD85B5826085BD85B5816085BD809193
:104020006E00816080936E0010928100809181000B
:104030008260809381008091810081608093810003
:10404000809180008160809380008091B1008460C5
:104050008093B1008091B00081608093B000809126
:104060007A00846080937A0080917A0082608093E5
:104070007A0080917A00816080937A0080917A0042
:10408000806880937A001092C10010928000109294
:1040900081008091810088608093810084E89EE1A6
:1040A0009093890080938800809188009091890086
:1040B0009695879590938B0080938A0080918100DC
:1040C00085608093810080916F00826080936F0093
:1040D00080916F00846080936F001092260210928E
:1040E000250210927F021092A10210927D02C1E07F
:1040F000C0937C021092570261E082E10E94741327
:1041000061E083E10E9474138091B9008E7F8093F7
:10411000B9008091B9008D7F8093B90088E48093C5
:10412000B80085E48093BC0087B18F7C87B9C093C9
:104130007E02D2E5D093A00210927F021092A102DB
:1041400080EF90E00E94D51A85E590E00E94D51A94
:104150000E940E1AC0937E02D093A00210927F029A
:104160001092A1028BEF90E00E94D51A80E090E0BF
:104170000E94D51A0E940E1A8AEF0E94661A78943D
:1041800084B18E6384B940E050E0BA0186E393E0E5
:104190000E94DE0963E086E393E00E9468066EE613
:1041A00071E086E393E00E945704C4E1D0E069E146
:1041B000CE010E947415A896C43581E0D807B9F7DE
:1041C000C0E0D0E06CE3CE010E947415A896C8361A
:1041D00091E0D907B9F7C4E1D0E06FE5CE010E94C4
:1041E0007415A896C43581E0D807B9F7C0E0D0E0CF
:1041F00062E8CE010E947415A896C83691E0D907EE
:10420000B9F7C4E1D0E065EACE010E947415A89622
:10421000C43581E0D807B9F7C0E0D0E068ECCE0142
:104220000E947415A896C83691E0D907B9F7C4E181
:10423000D0E06BEECE010E947415A896C43581E0E3
:10424000D807B9F7C1E4EC2EC8EAFC2E0AE210E068
:1042500028EE30E045E050E06AE270E086E393E06B
:104260000E94B31BE12CF12C0BE210E029EE30E0B0
:1042700044E050E069E270E086E393E00E948B0343
:1042800084E390E090934303809342038AE090E0BC
:10429000909345038093440384E080934A03809382
:1042A0004B0381E89AEB90934903809348039093E2
:1042B0004703809346038FE491E00E94DA1A82E379
:1042C00090E090934303809342038CE090E09093BE
:1042D00045038093440380E29EEF909349038093CB
:1042E000480390934703809346038FE491E00E9434
:1042F000DA1AD9E2ED2EDCEDFD2E0AE010E024E022
:1043000030E049E050E063E570E086E393E00E942E
:10431000B31BE12CF12C05E010E02AE030E04EE088
:1043200050E060E570E086E393E00E94B31BEE246A
:10433000EA94FE2C2AE030E04EE050E060E570E0C8
:1043400086E393E00E948B0320E030E04AE050E0F7
:104350006DE170E084E590E00E94381C4BE050E095
:104360006DE170E084E590E00E94110E03E010E042
:1043700023E030E046E150E061E570E086E393E061
:104380000E94B31B23E030E048E150E06FE470E0AE
:1043900086E393E00E94B31B91EEE92E99EFF92E8C
:1043A00004E010E024E030E047E050E063E570E036
:1043B00086E393E00E94B31B28E1622E26EC722E66
:1043C00080E00E94661A8FE39CE90197F1F700C034
:1043D000000080919D03823009F040C780918401E4
:1043E000813009F033C7109284016091C801809137
:1043F000C801C9E36C9F612D112466958C9F912D96
:1044000011249695D9E09D9F801911240E94A1172F
:1044100060919C0380919C036C9F612D1124669593
:104420008C9FC12D1124C695CD9F801911240E9407
:10443000A117809151028F3F01F58091C8016D2F26
:104440000E94A32D983009F48FC0E091C801EF5F5E
:10445000F0E0E653FE4F8081893011F00C94A52ADC
:10446000E091C801F0E0E653FE4F89E080830E94AE
:1044700004188091C8018F5F60C0811120C08091B5
:10448000C8016D2F0E94A32D992309F46DC0E091FE
:10449000C801E150F0E0E653FE4F8081893011F011
:1044A0000C94AE2AE091C801F0E0E653FE4F89E09B
:1044B00080830E9404188091C80181503EC0809181
:1044C00052028F3FE9F48091C801893008F44CC052
:1044D000E091C801E950F0E0E653FE4F8081893059
:1044E00011F00C94B82AE091C801F0E0E653FE4FB9
:1044F00089E080830E9404188091C80189501DC002
:10450000811132C08091C801883470F5E091C801F2
:10451000E75FF0E0E653FE4F8081893011F00C94A4
:10452000C22AE091C801F0E0E653FE4F89E08083A3
:104530000E9404188091C801875F8093C801809110
:10454000C8010E94211D882341F0E091C801F0E0DC
:10455000E653FE4F80810E943118E091C801F0E0DF
:10456000E653FE4F81E080838091560280FD03C0B8
:1045700081E08093C9010E946019D090C801C9E30D
:10458000DC9ED12C1124D6948091C8018C9FD12D12
:104590001124D69569E0C62EDC9D80191124D82FF0
:1045A0000091010180900101A09001016091010141
:1045B00010E008511109912C90E1891A9108DA9CB8
:1045C0005001112486E1A80EB11CD69FB001112420
:1045D0006C5C7F4F072E000C880B990B0E94AA2C55
:1045E00020E030E040ED50E40E94062C0E94722C46
:1045F000E12CF12C9401A50186E393E00E94DA08F6
:10460000009101012091010140910101609101019E
:1046100010E00151110930E025513109D49EA0016B
:104620001124455E5F4FD69FB0011124655C7F4F1A
:1046300086E393E00E94DA080091010120910101D4
:10464000409101016091010110E00151110930E038
:1046500025513109D49EA0011124455E5F4FD69F9C
:10466000B0011124615C7F4F86E393E00E94DA0879
:10467000009101012091010140910101609101012E
:1046800010E00651110930E024513109D49EA001F7
:104690001124405E5F4FD69FB0011124675C7F4FAD
:1046A000EFE5EE2EE3E1FE2E86E393E00E94DA08CA
:1046B00000910101209101014091010160910101EE
:1046C00010E00651110930E024513109D49EA001B7
:1046D0001124405E5F4FD69FB0011124615C7F4F73
:1046E00086E393E00E94DA080091010180900101C5
:1046F000A09001016091010110E000511109912C7D
:1047000092E1891A9108DA9C5001112482E1A80EE5
:10471000B11CD69FB00111246C5C7F4F072E000C9A
:10472000880B990B0E94AA2C20E030E040EF50E467
:104730000E94062C0E94722C9401A50186E393E04E
:104740000E94DA08009101012091010140910101CC
:104750006091010110E00251110930E02651310948
:10476000D49EA00111244C5E5F4FD69FB00111244E
:10477000695C7F4F86E393E00E94DA0800910101B3
:1047800020910101409101016091010110E005516A
:10479000110930E025513109D49EA00111244C5E4D
:1047A0005F4FD69FB0011124685C7F4F86E393E092
:1047B0000E94DA080091010120910101409101015C
:1047C0006091010110E00551110930E025513109D6
:1047D000D49EA0011124475E5F4FD69FB0011124E3
:1047E0006A5C7F4FF0EDEF2EF5EFFF2E86E393E04E
:1047F0000E94DA080091010120910101409101011C
:104800006091010110E00251110930E02651310997
:10481000D49EA00111244C5E5F4FD69FB00111249D
:104820006E5B7F4FAFE5EA2EA3E1FA2E86E393E0BD
:104830000E94DA08009101012091010140910101DB
:104840006091010110E00551110930E02551310955
:10485000D49EA00111244C5E5F4FD69FB00111245D
:104860006F5B7F4F86E393E00E94DA0800910101BD
:1048700020910101409101016091010110E0055179
:10488000110930E025513109D49EA0011124475E61
:104890005F4FD69FB00111246E5B7F4FB0EDEB2EC2
:1048A000B5EFFB2E86E393E00E94DA0860910101E8
:1048B000F09001011091010100910101D69EB0011B
:1048C0001124665F7F4F072E000C880B990B0E9406
:1048D000AA2C4B015C016F2D70E080E090E00E94FB
:1048E000AA2C2AE939E949E95EE30E94362D9B01A9
:1048F000AC01C501B4010E94062C20E030E040E884
:104900005FE30E94052C0E94722C4B015C01D19F39
:10491000B00111246E5C7F4F072E000C880B990BA1
:104920000E94AA2C1B012C01602F70E080E090E017
:104930000E94AA2C2AE939E949E95EE30E94362D52
:104940009B01AC01C201B1010E94062C20E030E0C5
:1049500040EA50E40E94062C0E94722CDC01CB013C
:1049600020ED35EF45E050E0B4010E94381C009185
:10497000010120910101409101016091010110E0CC
:104980000651110930E026513109D49EA0011124AD
:10499000405F5F4FD69FB0011124655C7F4FE12CD3
:1049A000F12C86E393E00E94DA0800910101209146
:1049B0000101409101016091010110E007511109CD
:1049C00030E027513109D49EA0011124405F5F4F90
:1049D000D69FB0011124655C7F4FEE24EA94FE2C33
:1049E00086E393E00E94DA08009101012091010121
:1049F000409101016091010110E00651110930E080
:104A000026513109D49EA0011124405F5F4FD69FEB
:104A1000B0011124605C7F4FE12CF12C86E393E020
:104A20000E94DA08009101012091010140910101E9
:104A30006091010110E00751110930E0275131095F
:104A4000D49EA0011124405F5F4FD69FB001112476
:104A5000605C7F4FEE24EA94FE2C86E393E00E9494
:104A6000DA084091010160910101D49EA001112456
:104A70004C5E5F4FD69FB0011124625C7F4F20E0F7
:104A800030E086E393E00E947A0940910101609151
:104A90000101D49EA00111244D5E5F4FD69FB0014D
:104AA0001124615C7F4F20E030E086E393E00E94B8
:104AB0007A094091010160910101D49EA001112465
:104AC0004C5E5F4FD69FB0011124635C7F4F20E0A6
:104AD00030E086E393E00E947A0900910101209181
:104AE0000101409101016091010110E0045111099F
:104AF00030E02E503109D49EA0011124465F5F4F53
:104B0000D69FB0011124675C7F4FEFE5EE2EE3E105
:104B1000FE2E86E393E00E94DA08009101012091C5
:104B20000101409101016091010110E0045111095E
:104B300030E02E503109D49EA0011124465F5F4F12
:104B4000D69FB0011124675C7F4FE12CF12C86E3E6
:104B500093E00E948B03009101012091010140919B
:104B600001016091010110E00551110930E020516F
:104B70003109D49EA0011124445F5F4FD69FB0013C
:104B80001124635C7F4FFFE5EF2EF3E1FF2E86E3F8
:104B900093E00E94DA080091010120910101409107
:104BA00001016091010110E00551110930E020512F
:104BB0003109D49EA0011124445F5F4FD69FB001FC
:104BC0001124635C7F4FE12CF12C86E393E00E947B
:104BD0008B03D0919C03DC9FD12D1124D69580911D
:104BE0009C038C9FC12D1124C695CC9D8019112446
:104BF000C82F00910101A0900101C09001016091B6
:104C0000010110E008511109B12C90E1A91AB10875
:104C1000DC9D6001112486E1C80ED11CC69FB00145
:104C200011246C5C7F4F072E000C880B990B0E949F
:104C3000AA2C20E030E040ED50E40E94062C0E94B7
:104C4000722C9501A60186E393E00E94DA08009198
:104C5000010120910101409101016091010110E0E9
:104C60000151110930E025513109D49FA0011124CF
:104C7000455E5F4FC69FB0011124655C7F4F86E3A0
:104C800093E00E94DA080091010120910101409116
:104C900001016091010110E00151110930E025513D
:104CA0003109D49FA0011124455E5F4FC69FB0011A
:104CB0001124615C7F4F86E393E00E94DA08009143
:104CC000010120910101409101016091010110E079
:104CD0000651110930E024513109D49FA00111245B
:104CE000405E5F4FC69FB0011124675C7F4FA7EE07
:104CF000EA2EA9EDFA2E86E393E00E94DA080091ED
:104D0000010120910101409101016091010110E038
:104D10000651110930E024513109D49FA00111241A
:104D2000405E5F4FC69FB0011124615C7F4F86E3F8
:104D300093E00E94DA0800910101A0900101C09067
:104D400001016091010110E00F501109B12C92E1B5
:104D5000A91AB108DC9D6001112482E1C80ED11CA2
:104D6000C69FB00111246C5C7F4F072E000C880B8E
:104D7000990B0E94AA2C20E030E040EF50E40E9402
:104D8000062C0E94722C9501A60186E393E00E94F6
:104D9000DA08009101012091010140910101609127
:104DA000010110E00251110930E026513109D49F70
:104DB000A00111244C5E5F4FC69FB0011124695CB5
:104DC0007F4F86E393E00E94DA0800910101209171
:104DD0000101409101016091010110E005511109AB
:104DE00030E025513109D49FA00111244C5E5F4F62
:104DF000C69FB0011124685C7F4F86E393E00E9458
:104E0000DA080091010120910101409101016091B6
:104E1000010110E00551110930E025513109D49FFD
:104E2000A0011124475E5F4FC69FB00111246A5C48
:104E30007F4FB0EDEB2EB5EFFB2E86E393E00E94A3
:104E4000DA08009101012091010140910101609176
:104E5000010110E00251110930E026513109D49FBF
:104E6000A00111244C5E5F4FC69FB00111246E5B00
:104E70007F4F87EEE82E89EDF82E86E393E00E94BF
:104E8000DA08009101012091010140910101609136
:104E9000010110E00551110930E025513109D49F7D
:104EA000A00111244C5E5F4FC69FB00111246F5BBF
:104EB0007F4F86E393E00E94DA0800910101209180
:104EC0000101409101016091010110E005511109BA
:104ED00030E025513109D49FA0011124475E5F4F76
:104EE000C69FB00111246E5B7F4F90EDE92E95EFC8
:104EF000F92E86E393E00E94DA0860910101B090F8
:104F000001011091010100910101D69FB00111240E
:104F1000665F7F4F072E000C880B990B0E94AA2C0E
:104F20006B017C016B2D70E080E090E00E94AA2C68
:104F30002AE939E949E95EE30E94362D9B01AC017B
:104F4000C701B6010E94062C20E030E040E85FE394
:104F50000E94052C0E94722C4B015C01C19FB00184
:104F600011246E5C7F4F072E000C880B990B0E945A
:104F7000AA2C6B017C01602F70E080E090E00E9421
:104F8000AA2C2AE939E949E95EE30E94362D9B0102
:104F9000AC01C701B6010E94062C20E030E040EAD7
:104FA00050E40E94062C0E94722CDC01CB0120ED03
:104FB00035EF45E050E0B4010E94381C009101013A
:104FC00020910101409101016091010110E0065121
:104FD000110930E026513109D49FA0011124405F0E
:104FE0005F4FC69FB0011124655C7F4FE12CF12C0F
:104FF00086E393E00E94DA0800910101209101010B
:10500000409101016091010110E00751110930E068
:1050100027513109D49FA0011124405F5F4FC69FE3
:10502000B0011124655C7F4FEE24EA94FE2C86E3E8
:1050300093E00E94DA080091010120910101409162
:1050400001016091010110E00651110930E0265183
:105050003109D49FA0011124405F5F4FC69FB0016A
:105060001124605C7F4FE12CF12C86E393E00E94D9
:10507000DA08009101012091010140910101609144
:10508000010110E00751110930E027513109D49F87
:10509000A0011124405F5F4FC69FB0011124605CE6
:1050A0007F4FEE24EA94FE2C86E393E00E94DA0818
:1050B0004091010160910101D49FA00111244C5E37
:1050C0005F4FC69FB0011124625C7F4F20E030E04B
:1050D00086E393E00E947A09409101016091010109
:1050E000D49FA00111244D5E5F4FC69FB0011124D3
:1050F000615C7F4F20E030E086E393E00E947A0914
:105100004091010160910101D49FA00111244C5EE6
:105110005F4FC69FB0011124635C7F4F20E030E0F9
:1051200086E393E00E947A09009101012091010138
:10513000409101016091010110E00451110930E03A
:105140002E503109D49FA0011124465F5F4FC69FA6
:10515000B0011124675C7F4FA7EEEA2EA9EDFA2E6D
:1051600086E393E00E94DA08009101012091010199
:10517000409101016091010110E00451110930E0FA
:105180002E503109D49FA0011124465F5F4FC69F66
:10519000B0011124675C7F4FE12CF12C86E393E092
:1051A0000E948B03009101012091010140910101B6
:1051B0006091010110E00551110930E020513109E1
:1051C000D49FA0011124445F5F4FC69FB0011124FA
:1051D000635C7F4FB7EEEB2EB9EDFB2E86E393E0D9
:1051E0000E94DA0800910101209101014091010122
:1051F0006091010110E00551110930E020513109A1
:10520000D49FA0011124445F5F4FC69FB0011124B9
:10521000635C7F4FE12CF12C86E393E00E948B03CB
:1052200080910001882321F08091020181110EC03C
:1052300080918301843109F0AFC110929D0383E016
:105240008093000180930201109283018091840178
:10525000823021F4109284010E94601980919D0394
:1052600081115CC180918201811142C0EE24EA94D7
:105270005FEAF52E08E210E02CED30E042E350E06A
:1052800062E370E086E393E00E94B31B8FE790E057
:1052900090934303809342038FE390E09093450300
:1052A00080934403709249036092480370924703CD
:1052B0006092460382E080934A0380934B0389E522
:1052C00091E00E94DA1A8DE790E090934303809377
:1052D000420381E490E0909345038093440310924D
:1052E000490310924803109247031092460329C0C5
:1052F00045E7E42E45E0F42E08E210E02CED30E026
:1053000042E350E062E370E086E393E00E94B31B67
:105310008DE790E0909343038093420381E490E013
:1053200090934503809344031092490310924803DD
:10533000109247031092460382E080934A038093C1
:105340004B0389E591E00E94DA1AE12CF12C08E286
:1053500010E02CED30E042E350E062E370E086E3E1
:1053600093E00E948B0380918201813009F040C05C
:1053700030EFE32E37E8F32E2CED30E044E650E03A
:1053800062E370E086E393E00E94B31B81E690E065
:10539000909343038093420381E790E09093450309
:1053A00080934403709249036092480370924703CC
:1053B0006092460382E080934A0380934B038FE51B
:1053C00091E00E94DA1A8FE590E090934303809376
:1053D000420383E790E09093450380934403109247
:1053E000490310924803109247031092460328C0C5
:1053F000E12C25E0F22E08E210E02CED30E044E64E
:1054000050E062E370E086E393E00E94B31B8FE517
:1054100090E0909343038093420383E790E090935E
:10542000450380934403109249031092480310925D
:1054300047031092460382E080934A0380934B0314
:105440008FE591E00E94DA1AE12CF12C08E210E0DD
:105450002CED30E044E650E062E370E086E393E058
:105460000E948B0380918201823029F0809181011A
:10547000813009F097C09AEAE92E9AEFF92E08E2F6
:1054800010E02CED30E046E950E062E370E086E3A6
:1054900093E00E94B31B82E890E0909343038093D3
:1054A000420383EA90E09093450380934403709213
:1054B000490360924803709247036092460382E07A
:1054C00080934A0380934B038BE691E00E94DA1AA3
:1054D00080E890E0909343038093420385EA90E054
:1054E000909345038093440310924903109248031C
:1054F00010924703109246038BE691E00E94DA1A5D
:10550000E12CF12C08E210E02CED30E046E950E00F
:1055100062E370E086E393E00E948B038091520285
:10552000811105C080918201823020F464C08F3FD8
:1055300009F465C080918201823009F06BC08091CE
:10554000560281FD67C081E071C08091C8018F5F04
:105550000E94211D81110C94302206C88091C8013F
:1055600081500E94211D81110C9452220C94B4226E
:105570008091C80189500E94211D81110C947322D1
:105580000C94B4228091C801875F0E94211D811173
:105590000C9491220C94B422809183018F5F8093AC
:1055A000830154CEE12C88ECF82E08E210E02CEDBB
:1055B00030E046E950E062E370E086E393E00E9469
:1055C000B31B80E890E0909343038093420385EA05
:1055D00090E0909345038093440310924903109206
:1055E0004803109247031092460382E080934A03D7
:1055F00080934B0381CF809182018F5F08C080919F
:105600008201882309F496CF809182018150809392
:10561000820190CF8091820181110C94E0218091D0
:10562000560281FF02C00C94E02182E080939D032A
:105630000E94331D0C94E021E9E7F3E0138212820B
:1056400048EE53E060E070E04483558366837783DF
:1056500087E091E09183808386EE92E0958784874E
:1056600082EA92E09787868785EC90E0918B808B29
:1056700084EC90E0938B828B80EC90E0958B848B14
:1056800081EC90E0978B868B82EC90E0918F808FFD
:1056900086EC90E0938F828F84E0848F83E0858F07
:1056A00087E0868F85E0878F81E080A3EAE2F3E0E0
:1056B00013821282448355836683778327E131E026
:1056C00031832083A6E3B3E013961C921E921297B7
:1056D00040EF50E015965C934E93149720E431E030
:1056E00017963C932E93169719965C934E931897A2
:1056F0001B963C932E931A9756961C9256971D967E
:105700001C921E921C971F961C921E921E975596D5
:105710008C93559754968C9354972FEF3FEF539655
:105720003C932E93529751963C932E9350975796B5
:105730008C93579758961C9258975A961C921E9283
:105740005997D5961C92D5978FEFD6968C93D6976E
:105750008AE0D7968C93D79789E0D8968C93D89780
:10576000DA961C921E92D997DC961C921E92DB97B9
:10577000DD961C92DD97DE961C92DE9710927503E3
:105780001092760310927703109278038BE993E0DE
:1057900090969C938E935F97ECE1F6E0E491F0E0B5
:1057A000EE0FFF1FE75FF94F859194915E969C93F2
:1057B0008E935D97EEEFF5E08491D3968C93D3971B
:1057C000EDE1F6E0E491F0E0EE0FFF1FE75FF94F47
:1057D000259134915C963C932E935B97EFEFF5E027
:1057E000E491D196EC93D197E095D296EC93D29731
:1057F000E82FE095D496EC93D49787E291E08D93CF
:105800009C930895F8940C94142E5058BB27AA2703
:105810000E941D2C0C94FC2C0E94EE2C38F00E944F
:10582000F52C20F039F49F3F19F426F40C94EB2C5E
:105830000EF4E095E7FB0C94E52CE92F0E940D2D6A
:1058400058F3BA17620773078407950720F079F4B5
:10585000A6F50C942F2D0EF4E0950B2EBA2FA02D4B
:105860000B01B90190010C01CA01A0011124FF270D
:10587000591B99F0593F50F4503E68F11A16F04008
:10588000A22F232F342F4427585FF3CF4695379507
:105890002795A795F0405395C9F77EF41F16BA0BCC
:1058A000620B730B840BBAF09150A1F0FF0FBB1F7A
:1058B000661F771F881FC2F70EC0BA0F621F731FC3
:1058C000841F48F4879577956795B795F7959E3F20
:1058D00008F0B0CF9395880F08F09927EE0F9795B1
:1058E000879508950E94792C6894B1110C94302DFD
:1058F00008950E94152D88F09F5798F0B92F992789
:10590000B751B0F0E1F0660F771F881F991F1AF0AA
:10591000BA95C9F714C0B13091F00E942F2DB1E0B3
:1059200008950C942F2D672F782F8827B85F39F0B2
:10593000B93FCCF3869577956795B395D9F73EF443
:1059400090958095709561957F4F8F4F9F4F0895EB
:10595000E89409C097FB3EF4909580957095619509
:105960007F4F8F4F9F4F9923A9F0F92F96E9BB27BF
:105970009395F695879577956795B795F111F8CF3B
:10598000FAF4BB0F11F460FF1BC06F5F7F4F8F4FA6
:105990009F4F16C0882311F096E911C0772321F09C
:1059A0009EE8872F762F05C0662371F096E8862F34
:1059B00070E060E02AF09A95660F771F881FDAF78B
:1059C000880F9695879597F9089597F99F6780E8CE
:1059D00070E060E008959FEF80EC089500240A9441
:1059E0001616170618060906089500240A941216BA
:1059F0001306140605060895092E0394000C11F4ED
:105A0000882352F0BB0F40F4BF2B11F460FF04C099
:105A10006F5F7F4F8F4F9F4F089557FD9058440FF2
:105A2000551F59F05F3F71F04795880F97FB991FFD
:105A300061F09F3F79F087950895121613061406BA
:105A4000551FF2CF4695F1DF08C016161706180647
:105A5000991FF1CF86957105610508940895E89422
:105A6000BB2766277727CB0197F908950E94492D18
:105A70000C94FC2C0E94EE2C38F00E94F52C20F0A7
:105A8000952311F00C94E52C0C94EB2C11240C9420
:105A9000302D0E940D2D70F3959FC1F3950F50E0AE
:105AA000551F629FF001729FBB27F00DB11D639FD0
:105AB000AA27F00DB11DAA1F649F6627B00DA11D76
:105AC000661F829F2227B00DA11D621F739FB00D1C
:105AD000A11D621F839FA00D611D221F749F33278C
